{
	"contracts/voting.sol": {
		"Ballot": {
			"abi": [
				{
					"inputs": [
						{
							"internalType": "bytes32[]",
							"name": "proposalNames",
							"type": "bytes32[]"
						}
					],
					"stateMutability": "nonpayable",
					"type": "constructor"
				},
				{
					"inputs": [],
					"name": "calculateWinningProposals",
					"outputs": [],
					"stateMutability": "nonpayable",
					"type": "function"
				},
				{
					"inputs": [],
					"name": "chairperson",
					"outputs": [
						{
							"internalType": "address",
							"name": "",
							"type": "address"
						}
					],
					"stateMutability": "view",
					"type": "function"
				},
				{
					"inputs": [
						{
							"internalType": "address",
							"name": "to",
							"type": "address"
						}
					],
					"name": "delegate",
					"outputs": [],
					"stateMutability": "nonpayable",
					"type": "function"
				},
				{
					"inputs": [],
					"name": "getWinningProposals",
					"outputs": [
						{
							"internalType": "uint256[]",
							"name": "",
							"type": "uint256[]"
						}
					],
					"stateMutability": "view",
					"type": "function"
				},
				{
					"inputs": [
						{
							"internalType": "address",
							"name": "voter",
							"type": "address"
						}
					],
					"name": "giveRightToVote",
					"outputs": [],
					"stateMutability": "nonpayable",
					"type": "function"
				},
				{
					"inputs": [
						{
							"internalType": "address[]",
							"name": "voterAdress",
							"type": "address[]"
						}
					],
					"name": "giveRightToVoteForAll",
					"outputs": [],
					"stateMutability": "nonpayable",
					"type": "function"
				},
				{
					"inputs": [
						{
							"internalType": "uint256",
							"name": "",
							"type": "uint256"
						}
					],
					"name": "proposals",
					"outputs": [
						{
							"internalType": "bytes32",
							"name": "name",
							"type": "bytes32"
						},
						{
							"internalType": "uint256",
							"name": "voteCount",
							"type": "uint256"
						}
					],
					"stateMutability": "view",
					"type": "function"
				},
				{
					"inputs": [
						{
							"internalType": "uint256",
							"name": "",
							"type": "uint256"
						}
					],
					"name": "tiedProposals",
					"outputs": [
						{
							"internalType": "uint256",
							"name": "",
							"type": "uint256"
						}
					],
					"stateMutability": "view",
					"type": "function"
				},
				{
					"inputs": [
						{
							"internalType": "uint256",
							"name": "proposal",
							"type": "uint256"
						}
					],
					"name": "vote",
					"outputs": [],
					"stateMutability": "nonpayable",
					"type": "function"
				},
				{
					"inputs": [
						{
							"internalType": "address",
							"name": "",
							"type": "address"
						}
					],
					"name": "voters",
					"outputs": [
						{
							"internalType": "uint256",
							"name": "weight",
							"type": "uint256"
						},
						{
							"internalType": "bool",
							"name": "voted",
							"type": "bool"
						},
						{
							"internalType": "address",
							"name": "delegate",
							"type": "address"
						},
						{
							"internalType": "uint256",
							"name": "vote",
							"type": "uint256"
						}
					],
					"stateMutability": "view",
					"type": "function"
				},
				{
					"inputs": [],
					"name": "winnerName",
					"outputs": [
						{
							"internalType": "bytes32",
							"name": "winnerName_",
							"type": "bytes32"
						}
					],
					"stateMutability": "view",
					"type": "function"
				},
				{
					"inputs": [],
					"name": "winningProposal",
					"outputs": [
						{
							"internalType": "uint256",
							"name": "winningProposal_",
							"type": "uint256"
						}
					],
					"stateMutability": "view",
					"type": "function"
				}
			],
			"devdoc": {
				"kind": "dev",
				"methods": {},
				"version": 1
			},
			"evm": {
				"assembly": "    /* \"contracts/voting.sol\":69:3952  contract Ballot {... */\n  mstore(0x40, 0x80)\n    /* \"contracts/voting.sol\":392:697  constructor(bytes32[] memory proposalNames) {... */\n  callvalue\n  dup1\n  iszero\n  tag_1\n  jumpi\n  0x00\n  dup1\n  revert\ntag_1:\n  pop\n  mload(0x40)\n  sub(codesize, bytecodeSize)\n  dup1\n  bytecodeSize\n  dup4\n  codecopy\n  dup2\n  dup2\n  add\n  0x40\n  mstore\n  dup2\n  add\n  swap1\n  tag_2\n  swap2\n  swap1\n  tag_3\n  jump\t// in\ntag_2:\n    /* \"contracts/voting.sol\":460:470  msg.sender */\n  caller\n    /* \"contracts/voting.sol\":446:457  chairperson */\n  0x00\n  dup1\n    /* \"contracts/voting.sol\":446:470  chairperson = msg.sender */\n  0x0100\n  exp\n  dup2\n  sload\n  dup2\n  0xffffffffffffffffffffffffffffffffffffffff\n  mul\n  not\n  and\n  swap1\n  dup4\n  0xffffffffffffffffffffffffffffffffffffffff\n  and\n  mul\n  or\n  swap1\n  sstore\n  pop\n    /* \"contracts/voting.sol\":509:510  1 */\n  0x01\n    /* \"contracts/voting.sol\":480:486  voters */\n  dup1\n    /* \"contracts/voting.sol\":480:499  voters[chairperson] */\n  0x00\n    /* \"contracts/voting.sol\":487:498  chairperson */\n  dup1\n  0x00\n  swap1\n  sload\n  swap1\n  0x0100\n  exp\n  swap1\n  div\n  0xffffffffffffffffffffffffffffffffffffffff\n  and\n    /* \"contracts/voting.sol\":480:499  voters[chairperson] */\n  0xffffffffffffffffffffffffffffffffffffffff\n  and\n  0xffffffffffffffffffffffffffffffffffffffff\n  and\n  dup2\n  mstore\n  0x20\n  add\n  swap1\n  dup2\n  mstore\n  0x20\n  add\n  0x00\n  keccak256\n    /* \"contracts/voting.sol\":480:506  voters[chairperson].weight */\n  0x00\n  add\n    /* \"contracts/voting.sol\":480:510  voters[chairperson].weight = 1 */\n  dup2\n  swap1\n  sstore\n  pop\n    /* \"contracts/voting.sol\":525:531  uint i */\n  0x00\n    /* \"contracts/voting.sol\":521:691  for(uint i = 0; i < proposalNames.length; i++) {... */\ntag_6:\n    /* \"contracts/voting.sol\":541:554  proposalNames */\n  dup2\n    /* \"contracts/voting.sol\":541:561  proposalNames.length */\n  mload\n    /* \"contracts/voting.sol\":537:538  i */\n  dup2\n    /* \"contracts/voting.sol\":537:561  i < proposalNames.length */\n  lt\n    /* \"contracts/voting.sol\":521:691  for(uint i = 0; i < proposalNames.length; i++) {... */\n  iszero\n  tag_7\n  jumpi\n    /* \"contracts/voting.sol\":582:591  proposals */\n  0x02\n    /* \"contracts/voting.sol\":597:679  Proposals({... */\n  mload(0x40)\n  dup1\n  0x40\n  add\n  0x40\n  mstore\n  dup1\n    /* \"contracts/voting.sol\":631:644  proposalNames */\n  dup5\n    /* \"contracts/voting.sol\":645:646  i */\n  dup5\n    /* \"contracts/voting.sol\":631:647  proposalNames[i] */\n  dup2\n  mload\n  dup2\n  lt\n  tag_9\n  jumpi\n  tag_10\n  tag_11\n  jump\t// in\ntag_10:\ntag_9:\n  0x20\n  mul\n  0x20\n  add\n  add\n  mload\n    /* \"contracts/voting.sol\":597:679  Proposals({... */\n  dup2\n  mstore\n  0x20\n  add\n    /* \"contracts/voting.sol\":676:677  0 */\n  0x00\n    /* \"contracts/voting.sol\":597:679  Proposals({... */\n  dup2\n  mstore\n  pop\n    /* \"contracts/voting.sol\":582:680  proposals.push(Proposals({... */\n  swap1\n  dup1\n  0x01\n  dup2\n  sload\n  add\n  dup1\n  dup3\n  sstore\n  dup1\n  swap2\n  pop\n  pop\n  0x01\n  swap1\n  sub\n  swap1\n  0x00\n  mstore\n  keccak256(0x00, 0x20)\n  swap1\n  0x02\n  mul\n  add\n  0x00\n  swap1\n  swap2\n  swap1\n  swap2\n  swap1\n  swap2\n  pop\n  0x00\n  dup3\n  add\n  mload\n  dup2\n  0x00\n  add\n  sstore\n  0x20\n  dup3\n  add\n  mload\n  dup2\n  0x01\n  add\n  sstore\n  pop\n  pop\n    /* \"contracts/voting.sol\":563:566  i++ */\n  dup1\n  dup1\n  0x01\n  add\n  swap2\n  pop\n  pop\n    /* \"contracts/voting.sol\":521:691  for(uint i = 0; i < proposalNames.length; i++) {... */\n  jump(tag_6)\ntag_7:\n  pop\n    /* \"contracts/voting.sol\":392:697  constructor(bytes32[] memory proposalNames) {... */\n  pop\n    /* \"contracts/voting.sol\":69:3952  contract Ballot {... */\n  jump(tag_13)\n    /* \"#utility.yul\":7:82   */\ntag_14:\n    /* \"#utility.yul\":40:46   */\n  0x00\n    /* \"#utility.yul\":73:75   */\n  0x40\n    /* \"#utility.yul\":67:76   */\n  mload\n    /* \"#utility.yul\":57:76   */\n  swap1\n  pop\n    /* \"#utility.yul\":7:82   */\n  swap1\n  jump\t// out\n    /* \"#utility.yul\":88:205   */\ntag_15:\n    /* \"#utility.yul\":197:198   */\n  0x00\n    /* \"#utility.yul\":194:195   */\n  dup1\n    /* \"#utility.yul\":187:199   */\n  revert\n    /* \"#utility.yul\":211:328   */\ntag_16:\n    /* \"#utility.yul\":320:321   */\n  0x00\n    /* \"#utility.yul\":317:318   */\n  dup1\n    /* \"#utility.yul\":310:322   */\n  revert\n    /* \"#utility.yul\":334:451   */\ntag_17:\n    /* \"#utility.yul\":443:444   */\n  0x00\n    /* \"#utility.yul\":440:441   */\n  dup1\n    /* \"#utility.yul\":433:445   */\n  revert\n    /* \"#utility.yul\":457:559   */\ntag_18:\n    /* \"#utility.yul\":498:504   */\n  0x00\n    /* \"#utility.yul\":549:551   */\n  0x1f\n    /* \"#utility.yul\":545:552   */\n  not\n    /* \"#utility.yul\":540:542   */\n  0x1f\n    /* \"#utility.yul\":533:538   */\n  dup4\n    /* \"#utility.yul\":529:543   */\n  add\n    /* \"#utility.yul\":525:553   */\n  and\n    /* \"#utility.yul\":515:553   */\n  swap1\n  pop\n    /* \"#utility.yul\":457:559   */\n  swap2\n  swap1\n  pop\n  jump\t// out\n    /* \"#utility.yul\":565:745   */\ntag_19:\n    /* \"#utility.yul\":613:690   */\n  0x4e487b7100000000000000000000000000000000000000000000000000000000\n    /* \"#utility.yul\":610:611   */\n  0x00\n    /* \"#utility.yul\":603:691   */\n  mstore\n    /* \"#utility.yul\":710:714   */\n  0x41\n    /* \"#utility.yul\":707:708   */\n  0x04\n    /* \"#utility.yul\":700:715   */\n  mstore\n    /* \"#utility.yul\":734:738   */\n  0x24\n    /* \"#utility.yul\":731:732   */\n  0x00\n    /* \"#utility.yul\":724:739   */\n  revert\n    /* \"#utility.yul\":751:1032   */\ntag_20:\n    /* \"#utility.yul\":834:861   */\n  tag_37\n    /* \"#utility.yul\":856:860   */\n  dup3\n    /* \"#utility.yul\":834:861   */\n  tag_18\n  jump\t// in\ntag_37:\n    /* \"#utility.yul\":826:832   */\n  dup2\n    /* \"#utility.yul\":822:862   */\n  add\n    /* \"#utility.yul\":964:970   */\n  dup2\n    /* \"#utility.yul\":952:962   */\n  dup2\n    /* \"#utility.yul\":949:971   */\n  lt\n    /* \"#utility.yul\":928:946   */\n  0xffffffffffffffff\n    /* \"#utility.yul\":916:926   */\n  dup3\n    /* \"#utility.yul\":913:947   */\n  gt\n    /* \"#utility.yul\":910:972   */\n  or\n    /* \"#utility.yul\":907:995   */\n  iszero\n  tag_38\n  jumpi\n    /* \"#utility.yul\":975:993   */\n  tag_39\n  tag_19\n  jump\t// in\ntag_39:\n    /* \"#utility.yul\":907:995   */\ntag_38:\n    /* \"#utility.yul\":1015:1025   */\n  dup1\n    /* \"#utility.yul\":1011:1013   */\n  0x40\n    /* \"#utility.yul\":1004:1026   */\n  mstore\n    /* \"#utility.yul\":794:1032   */\n  pop\n    /* \"#utility.yul\":751:1032   */\n  pop\n  pop\n  jump\t// out\n    /* \"#utility.yul\":1038:1167   */\ntag_21:\n    /* \"#utility.yul\":1072:1078   */\n  0x00\n    /* \"#utility.yul\":1099:1119   */\n  tag_41\n  tag_14\n  jump\t// in\ntag_41:\n    /* \"#utility.yul\":1089:1119   */\n  swap1\n  pop\n    /* \"#utility.yul\":1128:1161   */\n  tag_42\n    /* \"#utility.yul\":1156:1160   */\n  dup3\n    /* \"#utility.yul\":1148:1154   */\n  dup3\n    /* \"#utility.yul\":1128:1161   */\n  tag_20\n  jump\t// in\ntag_42:\n    /* \"#utility.yul\":1038:1167   */\n  swap2\n  swap1\n  pop\n  jump\t// out\n    /* \"#utility.yul\":1173:1484   */\ntag_22:\n    /* \"#utility.yul\":1250:1254   */\n  0x00\n    /* \"#utility.yul\":1340:1358   */\n  0xffffffffffffffff\n    /* \"#utility.yul\":1332:1338   */\n  dup3\n    /* \"#utility.yul\":1329:1359   */\n  gt\n    /* \"#utility.yul\":1326:1382   */\n  iszero\n  tag_44\n  jumpi\n    /* \"#utility.yul\":1362:1380   */\n  tag_45\n  tag_19\n  jump\t// in\ntag_45:\n    /* \"#utility.yul\":1326:1382   */\ntag_44:\n    /* \"#utility.yul\":1412:1416   */\n  0x20\n    /* \"#utility.yul\":1404:1410   */\n  dup3\n    /* \"#utility.yul\":1400:1417   */\n  mul\n    /* \"#utility.yul\":1392:1417   */\n  swap1\n  pop\n    /* \"#utility.yul\":1472:1476   */\n  0x20\n    /* \"#utility.yul\":1466:1470   */\n  dup2\n    /* \"#utility.yul\":1462:1477   */\n  add\n    /* \"#utility.yul\":1454:1477   */\n  swap1\n  pop\n    /* \"#utility.yul\":1173:1484   */\n  swap2\n  swap1\n  pop\n  jump\t// out\n    /* \"#utility.yul\":1490:1607   */\ntag_23:\n    /* \"#utility.yul\":1599:1600   */\n  0x00\n    /* \"#utility.yul\":1596:1597   */\n  dup1\n    /* \"#utility.yul\":1589:1601   */\n  revert\n    /* \"#utility.yul\":1613:1690   */\ntag_24:\n    /* \"#utility.yul\":1650:1657   */\n  0x00\n    /* \"#utility.yul\":1679:1684   */\n  dup2\n    /* \"#utility.yul\":1668:1684   */\n  swap1\n  pop\n    /* \"#utility.yul\":1613:1690   */\n  swap2\n  swap1\n  pop\n  jump\t// out\n    /* \"#utility.yul\":1696:1818   */\ntag_25:\n    /* \"#utility.yul\":1769:1793   */\n  tag_49\n    /* \"#utility.yul\":1787:1792   */\n  dup2\n    /* \"#utility.yul\":1769:1793   */\n  tag_24\n  jump\t// in\ntag_49:\n    /* \"#utility.yul\":1762:1767   */\n  dup2\n    /* \"#utility.yul\":1759:1794   */\n  eq\n    /* \"#utility.yul\":1749:1812   */\n  tag_50\n  jumpi\n    /* \"#utility.yul\":1808:1809   */\n  0x00\n    /* \"#utility.yul\":1805:1806   */\n  dup1\n    /* \"#utility.yul\":1798:1810   */\n  revert\n    /* \"#utility.yul\":1749:1812   */\ntag_50:\n    /* \"#utility.yul\":1696:1818   */\n  pop\n  jump\t// out\n    /* \"#utility.yul\":1824:1967   */\ntag_26:\n    /* \"#utility.yul\":1881:1886   */\n  0x00\n    /* \"#utility.yul\":1912:1918   */\n  dup2\n    /* \"#utility.yul\":1906:1919   */\n  mload\n    /* \"#utility.yul\":1897:1919   */\n  swap1\n  pop\n    /* \"#utility.yul\":1928:1961   */\n  tag_52\n    /* \"#utility.yul\":1955:1960   */\n  dup2\n    /* \"#utility.yul\":1928:1961   */\n  tag_25\n  jump\t// in\ntag_52:\n    /* \"#utility.yul\":1824:1967   */\n  swap3\n  swap2\n  pop\n  pop\n  jump\t// out\n    /* \"#utility.yul\":1990:2722   */\ntag_27:\n    /* \"#utility.yul\":2097:2102   */\n  0x00\n    /* \"#utility.yul\":2122:2203   */\n  tag_54\n    /* \"#utility.yul\":2138:2202   */\n  tag_55\n    /* \"#utility.yul\":2195:2201   */\n  dup5\n    /* \"#utility.yul\":2138:2202   */\n  tag_22\n  jump\t// in\ntag_55:\n    /* \"#utility.yul\":2122:2203   */\n  tag_21\n  jump\t// in\ntag_54:\n    /* \"#utility.yul\":2113:2203   */\n  swap1\n  pop\n    /* \"#utility.yul\":2223:2228   */\n  dup1\n    /* \"#utility.yul\":2252:2258   */\n  dup4\n    /* \"#utility.yul\":2245:2250   */\n  dup3\n    /* \"#utility.yul\":2238:2259   */\n  mstore\n    /* \"#utility.yul\":2286:2290   */\n  0x20\n    /* \"#utility.yul\":2279:2284   */\n  dup3\n    /* \"#utility.yul\":2275:2291   */\n  add\n    /* \"#utility.yul\":2268:2291   */\n  swap1\n  pop\n    /* \"#utility.yul\":2339:2343   */\n  0x20\n    /* \"#utility.yul\":2331:2337   */\n  dup5\n    /* \"#utility.yul\":2327:2344   */\n  mul\n    /* \"#utility.yul\":2319:2325   */\n  dup4\n    /* \"#utility.yul\":2315:2345   */\n  add\n    /* \"#utility.yul\":2368:2371   */\n  dup6\n    /* \"#utility.yul\":2360:2366   */\n  dup2\n    /* \"#utility.yul\":2357:2372   */\n  gt\n    /* \"#utility.yul\":2354:2476   */\n  iszero\n  tag_56\n  jumpi\n    /* \"#utility.yul\":2387:2466   */\n  tag_57\n  tag_23\n  jump\t// in\ntag_57:\n    /* \"#utility.yul\":2354:2476   */\ntag_56:\n    /* \"#utility.yul\":2502:2508   */\n  dup4\n    /* \"#utility.yul\":2485:2716   */\ntag_58:\n    /* \"#utility.yul\":2519:2525   */\n  dup2\n    /* \"#utility.yul\":2514:2517   */\n  dup2\n    /* \"#utility.yul\":2511:2526   */\n  lt\n    /* \"#utility.yul\":2485:2716   */\n  iszero\n  tag_60\n  jumpi\n    /* \"#utility.yul\":2594:2597   */\n  dup1\n    /* \"#utility.yul\":2623:2671   */\n  tag_61\n    /* \"#utility.yul\":2667:2670   */\n  dup9\n    /* \"#utility.yul\":2655:2665   */\n  dup3\n    /* \"#utility.yul\":2623:2671   */\n  tag_26\n  jump\t// in\ntag_61:\n    /* \"#utility.yul\":2618:2621   */\n  dup5\n    /* \"#utility.yul\":2611:2672   */\n  mstore\n    /* \"#utility.yul\":2701:2705   */\n  0x20\n    /* \"#utility.yul\":2696:2699   */\n  dup5\n    /* \"#utility.yul\":2692:2706   */\n  add\n    /* \"#utility.yul\":2685:2706   */\n  swap4\n  pop\n    /* \"#utility.yul\":2561:2716   */\n  pop\n    /* \"#utility.yul\":2545:2549   */\n  0x20\n    /* \"#utility.yul\":2540:2543   */\n  dup2\n    /* \"#utility.yul\":2536:2550   */\n  add\n    /* \"#utility.yul\":2529:2550   */\n  swap1\n  pop\n    /* \"#utility.yul\":2485:2716   */\n  jump(tag_58)\ntag_60:\n    /* \"#utility.yul\":2489:2510   */\n  pop\n    /* \"#utility.yul\":2103:2722   */\n  pop\n  pop\n    /* \"#utility.yul\":1990:2722   */\n  swap4\n  swap3\n  pop\n  pop\n  pop\n  jump\t// out\n    /* \"#utility.yul\":2745:3130   */\ntag_28:\n    /* \"#utility.yul\":2827:2832   */\n  0x00\n    /* \"#utility.yul\":2876:2879   */\n  dup3\n    /* \"#utility.yul\":2869:2873   */\n  0x1f\n    /* \"#utility.yul\":2861:2867   */\n  dup4\n    /* \"#utility.yul\":2857:2874   */\n  add\n    /* \"#utility.yul\":2853:2880   */\n  slt\n    /* \"#utility.yul\":2843:2965   */\n  tag_63\n  jumpi\n    /* \"#utility.yul\":2884:2963   */\n  tag_64\n  tag_17\n  jump\t// in\ntag_64:\n    /* \"#utility.yul\":2843:2965   */\ntag_63:\n    /* \"#utility.yul\":2994:3000   */\n  dup2\n    /* \"#utility.yul\":2988:3001   */\n  mload\n    /* \"#utility.yul\":3019:3124   */\n  tag_65\n    /* \"#utility.yul\":3120:3123   */\n  dup5\n    /* \"#utility.yul\":3112:3118   */\n  dup3\n    /* \"#utility.yul\":3105:3109   */\n  0x20\n    /* \"#utility.yul\":3097:3103   */\n  dup7\n    /* \"#utility.yul\":3093:3110   */\n  add\n    /* \"#utility.yul\":3019:3124   */\n  tag_27\n  jump\t// in\ntag_65:\n    /* \"#utility.yul\":3010:3124   */\n  swap2\n  pop\n    /* \"#utility.yul\":2833:3130   */\n  pop\n    /* \"#utility.yul\":2745:3130   */\n  swap3\n  swap2\n  pop\n  pop\n  jump\t// out\n    /* \"#utility.yul\":3136:3690   */\ntag_3:\n    /* \"#utility.yul\":3231:3237   */\n  0x00\n    /* \"#utility.yul\":3280:3282   */\n  0x20\n    /* \"#utility.yul\":3268:3277   */\n  dup3\n    /* \"#utility.yul\":3259:3266   */\n  dup5\n    /* \"#utility.yul\":3255:3278   */\n  sub\n    /* \"#utility.yul\":3251:3283   */\n  slt\n    /* \"#utility.yul\":3248:3367   */\n  iszero\n  tag_67\n  jumpi\n    /* \"#utility.yul\":3286:3365   */\n  tag_68\n  tag_15\n  jump\t// in\ntag_68:\n    /* \"#utility.yul\":3248:3367   */\ntag_67:\n    /* \"#utility.yul\":3427:3428   */\n  0x00\n    /* \"#utility.yul\":3416:3425   */\n  dup3\n    /* \"#utility.yul\":3412:3429   */\n  add\n    /* \"#utility.yul\":3406:3430   */\n  mload\n    /* \"#utility.yul\":3457:3475   */\n  0xffffffffffffffff\n    /* \"#utility.yul\":3449:3455   */\n  dup2\n    /* \"#utility.yul\":3446:3476   */\n  gt\n    /* \"#utility.yul\":3443:3560   */\n  iszero\n  tag_69\n  jumpi\n    /* \"#utility.yul\":3479:3558   */\n  tag_70\n  tag_16\n  jump\t// in\ntag_70:\n    /* \"#utility.yul\":3443:3560   */\ntag_69:\n    /* \"#utility.yul\":3584:3673   */\n  tag_71\n    /* \"#utility.yul\":3665:3672   */\n  dup5\n    /* \"#utility.yul\":3656:3662   */\n  dup3\n    /* \"#utility.yul\":3645:3654   */\n  dup6\n    /* \"#utility.yul\":3641:3663   */\n  add\n    /* \"#utility.yul\":3584:3673   */\n  tag_28\n  jump\t// in\ntag_71:\n    /* \"#utility.yul\":3574:3673   */\n  swap2\n  pop\n    /* \"#utility.yul\":3377:3683   */\n  pop\n    /* \"#utility.yul\":3136:3690   */\n  swap3\n  swap2\n  pop\n  pop\n  jump\t// out\n    /* \"#utility.yul\":3696:3876   */\ntag_11:\n    /* \"#utility.yul\":3744:3821   */\n  0x4e487b7100000000000000000000000000000000000000000000000000000000\n    /* \"#utility.yul\":3741:3742   */\n  0x00\n    /* \"#utility.yul\":3734:3822   */\n  mstore\n    /* \"#utility.yul\":3841:3845   */\n  0x32\n    /* \"#utility.yul\":3838:3839   */\n  0x04\n    /* \"#utility.yul\":3831:3846   */\n  mstore\n    /* \"#utility.yul\":3865:3869   */\n  0x24\n    /* \"#utility.yul\":3862:3863   */\n  0x00\n    /* \"#utility.yul\":3855:3870   */\n  revert\n    /* \"contracts/voting.sol\":69:3952  contract Ballot {... */\ntag_13:\n  dataSize(sub_0)\n  dup1\n  dataOffset(sub_0)\n  0x00\n  codecopy\n  0x00\n  return\nstop\n\nsub_0: assembly {\n        /* \"contracts/voting.sol\":69:3952  contract Ballot {... */\n      mstore(0x40, 0x80)\n      callvalue\n      dup1\n      iszero\n      tag_1\n      jumpi\n      0x00\n      dup1\n      revert\n    tag_1:\n      pop\n      jumpi(tag_2, lt(calldatasize, 0x04))\n      shr(0xe0, calldataload(0x00))\n      dup1\n      0x716c6cb4\n      gt\n      tag_15\n      jumpi\n      dup1\n      0x716c6cb4\n      eq\n      tag_9\n      jumpi\n      dup1\n      0x9e7b8d61\n      eq\n      tag_10\n      jumpi\n      dup1\n      0xa3ec138d\n      eq\n      tag_11\n      jumpi\n      dup1\n      0xe2ba53f0\n      eq\n      tag_12\n      jumpi\n      dup1\n      0xef788cd5\n      eq\n      tag_13\n      jumpi\n      dup1\n      0xf3219dc4\n      eq\n      tag_14\n      jumpi\n      jump(tag_2)\n    tag_15:\n      dup1\n      0xe218f1\n      eq\n      tag_3\n      jumpi\n      dup1\n      0x0121b93f\n      eq\n      tag_4\n      jumpi\n      dup1\n      0x013cf08b\n      eq\n      tag_5\n      jumpi\n      dup1\n      0x2e4176cf\n      eq\n      tag_6\n      jumpi\n      dup1\n      0x5c19a95c\n      eq\n      tag_7\n      jumpi\n      dup1\n      0x609ff1bd\n      eq\n      tag_8\n      jumpi\n    tag_2:\n      0x00\n      dup1\n      revert\n        /* \"contracts/voting.sol\":3276:3838  function calculateWinningProposals() public {... */\n    tag_3:\n      tag_16\n      tag_17\n      jump\t// in\n    tag_16:\n      stop\n        /* \"contracts/voting.sol\":1921:2248  function vote(uint256 proposal) external {... */\n    tag_4:\n      tag_18\n      0x04\n      dup1\n      calldatasize\n      sub\n      dup2\n      add\n      swap1\n      tag_19\n      swap2\n      swap1\n      tag_20\n      jump\t// in\n    tag_19:\n      tag_21\n      jump\t// in\n    tag_18:\n      stop\n        /* \"contracts/voting.sol\":357:385  Proposals[] public proposals */\n    tag_5:\n      tag_22\n      0x04\n      dup1\n      calldatasize\n      sub\n      dup2\n      add\n      swap1\n      tag_23\n      swap2\n      swap1\n      tag_20\n      jump\t// in\n    tag_23:\n      tag_24\n      jump\t// in\n    tag_22:\n      mload(0x40)\n      tag_25\n      swap3\n      swap2\n      swap1\n      tag_26\n      jump\t// in\n    tag_25:\n      mload(0x40)\n      dup1\n      swap2\n      sub\n      swap1\n      return\n        /* \"contracts/voting.sol\":279:305  address public chairperson */\n    tag_6:\n      tag_27\n      tag_28\n      jump\t// in\n    tag_27:\n      mload(0x40)\n      tag_29\n      swap2\n      swap1\n      tag_30\n      jump\t// in\n    tag_29:\n      mload(0x40)\n      dup1\n      swap2\n      sub\n      swap1\n      return\n        /* \"contracts/voting.sol\":1009:1915  function delegate(address to) external {... */\n    tag_7:\n      tag_31\n      0x04\n      dup1\n      calldatasize\n      sub\n      dup2\n      add\n      swap1\n      tag_32\n      swap2\n      swap1\n      tag_33\n      jump\t// in\n    tag_32:\n      tag_34\n      jump\t// in\n    tag_31:\n      stop\n        /* \"contracts/voting.sol\":2254:2598  function winningProposal() public view returns (uint winningProposal_){... */\n    tag_8:\n      tag_35\n      tag_36\n      jump\t// in\n    tag_35:\n      mload(0x40)\n      tag_37\n      swap2\n      swap1\n      tag_38\n      jump\t// in\n    tag_37:\n      mload(0x40)\n      dup1\n      swap2\n      sub\n      swap1\n      return\n        /* \"contracts/voting.sol\":2787:3236  function giveRightToVoteForAll(address[] memory voterAdress) external {... */\n    tag_9:\n      tag_39\n      0x04\n      dup1\n      calldatasize\n      sub\n      dup2\n      add\n      swap1\n      tag_40\n      swap2\n      swap1\n      tag_41\n      jump\t// in\n    tag_40:\n      tag_42\n      jump\t// in\n    tag_39:\n      stop\n        /* \"contracts/voting.sol\":703:1003  function giveRightToVote(address voter) external {... */\n    tag_10:\n      tag_43\n      0x04\n      dup1\n      calldatasize\n      sub\n      dup2\n      add\n      swap1\n      tag_44\n      swap2\n      swap1\n      tag_33\n      jump\t// in\n    tag_44:\n      tag_45\n      jump\t// in\n    tag_43:\n      stop\n        /* \"contracts/voting.sol\":311:351  mapping (address => Voter) public voters */\n    tag_11:\n      tag_46\n      0x04\n      dup1\n      calldatasize\n      sub\n      dup2\n      add\n      swap1\n      tag_47\n      swap2\n      swap1\n      tag_33\n      jump\t// in\n    tag_47:\n      tag_48\n      jump\t// in\n    tag_46:\n      mload(0x40)\n      tag_49\n      swap5\n      swap4\n      swap3\n      swap2\n      swap1\n      tag_50\n      jump\t// in\n    tag_49:\n      mload(0x40)\n      dup1\n      swap2\n      sub\n      swap1\n      return\n        /* \"contracts/voting.sol\":2604:2732  function winnerName() external view returns(bytes32 winnerName_){... */\n    tag_12:\n      tag_51\n      tag_52\n      jump\t// in\n    tag_51:\n      mload(0x40)\n      tag_53\n      swap2\n      swap1\n      tag_54\n      jump\t// in\n    tag_53:\n      mload(0x40)\n      dup1\n      swap2\n      sub\n      swap1\n      return\n        /* \"contracts/voting.sol\":3844:3948  function getWinningProposals() public view returns (uint[] memory) {... */\n    tag_13:\n      tag_55\n      tag_56\n      jump\t// in\n    tag_55:\n      mload(0x40)\n      tag_57\n      swap2\n      swap1\n      tag_58\n      jump\t// in\n    tag_57:\n      mload(0x40)\n      dup1\n      swap2\n      sub\n      swap1\n      return\n        /* \"contracts/voting.sol\":3242:3269  uint[] public tiedProposals */\n    tag_14:\n      tag_59\n      0x04\n      dup1\n      calldatasize\n      sub\n      dup2\n      add\n      swap1\n      tag_60\n      swap2\n      swap1\n      tag_20\n      jump\t// in\n    tag_60:\n      tag_61\n      jump\t// in\n    tag_59:\n      mload(0x40)\n      tag_62\n      swap2\n      swap1\n      tag_38\n      jump\t// in\n    tag_62:\n      mload(0x40)\n      dup1\n      swap2\n      sub\n      swap1\n      return\n        /* \"contracts/voting.sol\":3276:3838  function calculateWinningProposals() public {... */\n    tag_17:\n        /* \"contracts/voting.sol\":3330:3351  uint winningVoteCount */\n      0x00\n        /* \"contracts/voting.sol\":3372:3385  tiedProposals */\n      0x03\n      0x00\n        /* \"contracts/voting.sol\":3365:3385  delete tiedProposals */\n      tag_64\n      swap2\n      swap1\n      tag_65\n      jump\t// in\n    tag_64:\n        /* \"contracts/voting.sol\":3424:3430  uint i */\n      0x00\n        /* \"contracts/voting.sol\":3419:3832  for (uint i = 0; i < proposals.length; i++) {... */\n    tag_66:\n        /* \"contracts/voting.sol\":3440:3449  proposals */\n      0x02\n        /* \"contracts/voting.sol\":3440:3456  proposals.length */\n      dup1\n      sload\n      swap1\n      pop\n        /* \"contracts/voting.sol\":3436:3437  i */\n      dup2\n        /* \"contracts/voting.sol\":3436:3456  i < proposals.length */\n      lt\n        /* \"contracts/voting.sol\":3419:3832  for (uint i = 0; i < proposals.length; i++) {... */\n      iszero\n      tag_67\n      jumpi\n        /* \"contracts/voting.sol\":3506:3522  winningVoteCount */\n      dup2\n        /* \"contracts/voting.sol\":3481:3490  proposals */\n      0x02\n        /* \"contracts/voting.sol\":3491:3492  i */\n      dup3\n        /* \"contracts/voting.sol\":3481:3493  proposals[i] */\n      dup2\n      sload\n      dup2\n      lt\n      tag_69\n      jumpi\n      tag_70\n      tag_71\n      jump\t// in\n    tag_70:\n    tag_69:\n      swap1\n      0x00\n      mstore\n      keccak256(0x00, 0x20)\n      swap1\n      0x02\n      mul\n      add\n        /* \"contracts/voting.sol\":3481:3503  proposals[i].voteCount */\n      0x01\n      add\n      sload\n        /* \"contracts/voting.sol\":3481:3522  proposals[i].voteCount > winningVoteCount */\n      gt\n        /* \"contracts/voting.sol\":3477:3822  if (proposals[i].voteCount > winningVoteCount) {... */\n      iszero\n      tag_73\n      jumpi\n        /* \"contracts/voting.sol\":3561:3570  proposals */\n      0x02\n        /* \"contracts/voting.sol\":3571:3572  i */\n      dup2\n        /* \"contracts/voting.sol\":3561:3573  proposals[i] */\n      dup2\n      sload\n      dup2\n      lt\n      tag_74\n      jumpi\n      tag_75\n      tag_71\n      jump\t// in\n    tag_75:\n    tag_74:\n      swap1\n      0x00\n      mstore\n      keccak256(0x00, 0x20)\n      swap1\n      0x02\n      mul\n      add\n        /* \"contracts/voting.sol\":3561:3583  proposals[i].voteCount */\n      0x01\n      add\n      sload\n        /* \"contracts/voting.sol\":3542:3583  winningVoteCount = proposals[i].voteCount */\n      swap2\n      pop\n        /* \"contracts/voting.sol\":3601:3620  tiedProposals = [i] */\n      mload(0x40)\n      dup1\n      0x20\n      add\n      0x40\n      mstore\n      dup1\n        /* \"contracts/voting.sol\":3618:3619  i */\n      dup3\n        /* \"contracts/voting.sol\":3601:3620  tiedProposals = [i] */\n      dup2\n      mstore\n      pop\n        /* \"contracts/voting.sol\":3601:3614  tiedProposals */\n      0x03\n        /* \"contracts/voting.sol\":3601:3620  tiedProposals = [i] */\n      swap1\n      0x01\n      tag_77\n      swap3\n      swap2\n      swap1\n      tag_78\n      jump\t// in\n    tag_77:\n      pop\n        /* \"contracts/voting.sol\":3477:3822  if (proposals[i].voteCount > winningVoteCount) {... */\n      jump(tag_79)\n    tag_73:\n        /* \"contracts/voting.sol\":3721:3737  winningVoteCount */\n      dup2\n        /* \"contracts/voting.sol\":3695:3704  proposals */\n      0x02\n        /* \"contracts/voting.sol\":3705:3706  i */\n      dup3\n        /* \"contracts/voting.sol\":3695:3707  proposals[i] */\n      dup2\n      sload\n      dup2\n      lt\n      tag_80\n      jumpi\n      tag_81\n      tag_71\n      jump\t// in\n    tag_81:\n    tag_80:\n      swap1\n      0x00\n      mstore\n      keccak256(0x00, 0x20)\n      swap1\n      0x02\n      mul\n      add\n        /* \"contracts/voting.sol\":3695:3717  proposals[i].voteCount */\n      0x01\n      add\n      sload\n        /* \"contracts/voting.sol\":3695:3737  proposals[i].voteCount == winningVoteCount */\n      sub\n        /* \"contracts/voting.sol\":3691:3822  if (proposals[i].voteCount == winningVoteCount) {... */\n      tag_83\n      jumpi\n        /* \"contracts/voting.sol\":3757:3770  tiedProposals */\n      0x03\n        /* \"contracts/voting.sol\":3776:3777  i */\n      dup2\n        /* \"contracts/voting.sol\":3757:3778  tiedProposals.push(i) */\n      swap1\n      dup1\n      0x01\n      dup2\n      sload\n      add\n      dup1\n      dup3\n      sstore\n      dup1\n      swap2\n      pop\n      pop\n      0x01\n      swap1\n      sub\n      swap1\n      0x00\n      mstore\n      keccak256(0x00, 0x20)\n      add\n      0x00\n      swap1\n      swap2\n      swap1\n      swap2\n      swap1\n      swap2\n      pop\n      sstore\n        /* \"contracts/voting.sol\":3691:3822  if (proposals[i].voteCount == winningVoteCount) {... */\n    tag_83:\n        /* \"contracts/voting.sol\":3477:3822  if (proposals[i].voteCount > winningVoteCount) {... */\n    tag_79:\n        /* \"contracts/voting.sol\":3458:3461  i++ */\n      dup1\n      dup1\n      0x01\n      add\n      swap2\n      pop\n      pop\n        /* \"contracts/voting.sol\":3419:3832  for (uint i = 0; i < proposals.length; i++) {... */\n      jump(tag_66)\n    tag_67:\n      pop\n        /* \"contracts/voting.sol\":3320:3838  {... */\n      pop\n        /* \"contracts/voting.sol\":3276:3838  function calculateWinningProposals() public {... */\n      jump\t// out\n        /* \"contracts/voting.sol\":1921:2248  function vote(uint256 proposal) external {... */\n    tag_21:\n        /* \"contracts/voting.sol\":1972:1992  Voter storage sender */\n      0x00\n        /* \"contracts/voting.sol\":1995:2001  voters */\n      0x01\n        /* \"contracts/voting.sol\":1995:2013  voters[msg.sender] */\n      0x00\n        /* \"contracts/voting.sol\":2002:2012  msg.sender */\n      caller\n        /* \"contracts/voting.sol\":1995:2013  voters[msg.sender] */\n      0xffffffffffffffffffffffffffffffffffffffff\n      and\n      0xffffffffffffffffffffffffffffffffffffffff\n      and\n      dup2\n      mstore\n      0x20\n      add\n      swap1\n      dup2\n      mstore\n      0x20\n      add\n      0x00\n      keccak256\n        /* \"contracts/voting.sol\":1972:2013  Voter storage sender = voters[msg.sender] */\n      swap1\n      pop\n        /* \"contracts/voting.sol\":2048:2049  0 */\n      0x00\n        /* \"contracts/voting.sol\":2031:2037  sender */\n      dup2\n        /* \"contracts/voting.sol\":2031:2044  sender.weight */\n      0x00\n      add\n      sload\n        /* \"contracts/voting.sol\":2031:2049  sender.weight != 0 */\n      sub\n        /* \"contracts/voting.sol\":2023:2074  require(sender.weight != 0, \"has no right to vote\") */\n      tag_86\n      jumpi\n      mload(0x40)\n      0x08c379a000000000000000000000000000000000000000000000000000000000\n      dup2\n      mstore\n      0x04\n      add\n      tag_87\n      swap1\n      tag_88\n      jump\t// in\n    tag_87:\n      mload(0x40)\n      dup1\n      swap2\n      sub\n      swap1\n      revert\n    tag_86:\n        /* \"contracts/voting.sol\":2093:2099  sender */\n      dup1\n        /* \"contracts/voting.sol\":2093:2105  sender.voted */\n      0x01\n      add\n      0x00\n      swap1\n      sload\n      swap1\n      0x0100\n      exp\n      swap1\n      div\n      0xff\n      and\n        /* \"contracts/voting.sol\":2092:2105  !sender.voted */\n      iszero\n        /* \"contracts/voting.sol\":2084:2123  require(!sender.voted, \"already voted\") */\n      tag_89\n      jumpi\n      mload(0x40)\n      0x08c379a000000000000000000000000000000000000000000000000000000000\n      dup2\n      mstore\n      0x04\n      add\n      tag_90\n      swap1\n      tag_91\n      jump\t// in\n    tag_90:\n      mload(0x40)\n      dup1\n      swap2\n      sub\n      swap1\n      revert\n    tag_89:\n        /* \"contracts/voting.sol\":2148:2152  true */\n      0x01\n        /* \"contracts/voting.sol\":2133:2139  sender */\n      dup2\n        /* \"contracts/voting.sol\":2133:2145  sender.voted */\n      0x01\n      add\n      0x00\n        /* \"contracts/voting.sol\":2133:2152  sender.voted = true */\n      0x0100\n      exp\n      dup2\n      sload\n      dup2\n      0xff\n      mul\n      not\n      and\n      swap1\n      dup4\n      iszero\n      iszero\n      mul\n      or\n      swap1\n      sstore\n      pop\n        /* \"contracts/voting.sol\":2176:2184  proposal */\n      dup2\n        /* \"contracts/voting.sol\":2162:2168  sender */\n      dup2\n        /* \"contracts/voting.sol\":2162:2173  sender.vote */\n      0x02\n      add\n        /* \"contracts/voting.sol\":2162:2184  sender.vote = proposal */\n      dup2\n      swap1\n      sstore\n      pop\n        /* \"contracts/voting.sol\":2228:2234  sender */\n      dup1\n        /* \"contracts/voting.sol\":2228:2241  sender.weight */\n      0x00\n      add\n      sload\n        /* \"contracts/voting.sol\":2195:2204  proposals */\n      0x02\n        /* \"contracts/voting.sol\":2205:2213  proposal */\n      dup4\n        /* \"contracts/voting.sol\":2195:2214  proposals[proposal] */\n      dup2\n      sload\n      dup2\n      lt\n      tag_92\n      jumpi\n      tag_93\n      tag_71\n      jump\t// in\n    tag_93:\n    tag_92:\n      swap1\n      0x00\n      mstore\n      keccak256(0x00, 0x20)\n      swap1\n      0x02\n      mul\n      add\n        /* \"contracts/voting.sol\":2195:2224  proposals[proposal].voteCount */\n      0x01\n      add\n      0x00\n        /* \"contracts/voting.sol\":2195:2241  proposals[proposal].voteCount += sender.weight */\n      dup3\n      dup3\n      sload\n      tag_95\n      swap2\n      swap1\n      tag_96\n      jump\t// in\n    tag_95:\n      swap3\n      pop\n      pop\n      dup2\n      swap1\n      sstore\n      pop\n        /* \"contracts/voting.sol\":1962:2248  {... */\n      pop\n        /* \"contracts/voting.sol\":1921:2248  function vote(uint256 proposal) external {... */\n      pop\n      jump\t// out\n        /* \"contracts/voting.sol\":357:385  Proposals[] public proposals */\n    tag_24:\n      0x02\n      dup2\n      dup2\n      sload\n      dup2\n      lt\n      tag_97\n      jumpi\n      0x00\n      dup1\n      revert\n    tag_97:\n      swap1\n      0x00\n      mstore\n      keccak256(0x00, 0x20)\n      swap1\n      0x02\n      mul\n      add\n      0x00\n      swap2\n      pop\n      swap1\n      pop\n      dup1\n      0x00\n      add\n      sload\n      swap1\n      dup1\n      0x01\n      add\n      sload\n      swap1\n      pop\n      dup3\n      jump\t// out\n        /* \"contracts/voting.sol\":279:305  address public chairperson */\n    tag_28:\n      0x00\n      dup1\n      sload\n      swap1\n      0x0100\n      exp\n      swap1\n      div\n      0xffffffffffffffffffffffffffffffffffffffff\n      and\n      dup2\n      jump\t// out\n        /* \"contracts/voting.sol\":1009:1915  function delegate(address to) external {... */\n    tag_34:\n        /* \"contracts/voting.sol\":1058:1078  Voter storage sender */\n      0x00\n        /* \"contracts/voting.sol\":1081:1087  voters */\n      0x01\n        /* \"contracts/voting.sol\":1081:1099  voters[msg.sender] */\n      0x00\n        /* \"contracts/voting.sol\":1088:1098  msg.sender */\n      caller\n        /* \"contracts/voting.sol\":1081:1099  voters[msg.sender] */\n      0xffffffffffffffffffffffffffffffffffffffff\n      and\n      0xffffffffffffffffffffffffffffffffffffffff\n      and\n      dup2\n      mstore\n      0x20\n      add\n      swap1\n      dup2\n      mstore\n      0x20\n      add\n      0x00\n      keccak256\n        /* \"contracts/voting.sol\":1058:1099  Voter storage sender = voters[msg.sender] */\n      swap1\n      pop\n        /* \"contracts/voting.sol\":1134:1135  0 */\n      0x00\n        /* \"contracts/voting.sol\":1117:1123  sender */\n      dup2\n        /* \"contracts/voting.sol\":1117:1130  sender.weight */\n      0x00\n      add\n      sload\n        /* \"contracts/voting.sol\":1117:1135  sender.weight != 0 */\n      sub\n        /* \"contracts/voting.sol\":1109:1165  require(sender.weight != 0, \"you have no rigth to vote\") */\n      tag_100\n      jumpi\n      mload(0x40)\n      0x08c379a000000000000000000000000000000000000000000000000000000000\n      dup2\n      mstore\n      0x04\n      add\n      tag_101\n      swap1\n      tag_102\n      jump\t// in\n    tag_101:\n      mload(0x40)\n      dup1\n      swap2\n      sub\n      swap1\n      revert\n    tag_100:\n        /* \"contracts/voting.sol\":1184:1190  sender */\n      dup1\n        /* \"contracts/voting.sol\":1184:1196  sender.voted */\n      0x01\n      add\n      0x00\n      swap1\n      sload\n      swap1\n      0x0100\n      exp\n      swap1\n      div\n      0xff\n      and\n        /* \"contracts/voting.sol\":1183:1196  !sender.voted */\n      iszero\n        /* \"contracts/voting.sol\":1175:1218  require(!sender.voted, \"you already voted\") */\n      tag_103\n      jumpi\n      mload(0x40)\n      0x08c379a000000000000000000000000000000000000000000000000000000000\n      dup2\n      mstore\n      0x04\n      add\n      tag_104\n      swap1\n      tag_105\n      jump\t// in\n    tag_104:\n      mload(0x40)\n      dup1\n      swap2\n      sub\n      swap1\n      revert\n    tag_103:\n        /* \"contracts/voting.sol\":1242:1252  msg.sender */\n      caller\n        /* \"contracts/voting.sol\":1236:1252  to == msg.sender */\n      0xffffffffffffffffffffffffffffffffffffffff\n      and\n        /* \"contracts/voting.sol\":1236:1238  to */\n      dup3\n        /* \"contracts/voting.sol\":1236:1252  to == msg.sender */\n      0xffffffffffffffffffffffffffffffffffffffff\n      and\n      eq\n        /* \"contracts/voting.sol\":1228:1286  require(to == msg.sender, \"self-delegation isn't allowed\") */\n      tag_106\n      jumpi\n      mload(0x40)\n      0x08c379a000000000000000000000000000000000000000000000000000000000\n      dup2\n      mstore\n      0x04\n      add\n      tag_107\n      swap1\n      tag_108\n      jump\t// in\n    tag_107:\n      mload(0x40)\n      dup1\n      swap2\n      sub\n      swap1\n      revert\n    tag_106:\n        /* \"contracts/voting.sol\":1297:1455  while (voters[to].delegate != address(0)) {... */\n    tag_109:\n        /* \"contracts/voting.sol\":1335:1336  0 */\n      0x00\n        /* \"contracts/voting.sol\":1304:1337  voters[to].delegate != address(0) */\n      0xffffffffffffffffffffffffffffffffffffffff\n      and\n        /* \"contracts/voting.sol\":1304:1310  voters */\n      0x01\n        /* \"contracts/voting.sol\":1304:1314  voters[to] */\n      0x00\n        /* \"contracts/voting.sol\":1311:1313  to */\n      dup5\n        /* \"contracts/voting.sol\":1304:1314  voters[to] */\n      0xffffffffffffffffffffffffffffffffffffffff\n      and\n      0xffffffffffffffffffffffffffffffffffffffff\n      and\n      dup2\n      mstore\n      0x20\n      add\n      swap1\n      dup2\n      mstore\n      0x20\n      add\n      0x00\n      keccak256\n        /* \"contracts/voting.sol\":1304:1323  voters[to].delegate */\n      0x01\n      add\n      0x01\n      swap1\n      sload\n      swap1\n      0x0100\n      exp\n      swap1\n      div\n      0xffffffffffffffffffffffffffffffffffffffff\n      and\n        /* \"contracts/voting.sol\":1304:1337  voters[to].delegate != address(0) */\n      0xffffffffffffffffffffffffffffffffffffffff\n      and\n      eq\n        /* \"contracts/voting.sol\":1297:1455  while (voters[to].delegate != address(0)) {... */\n      tag_110\n      jumpi\n        /* \"contracts/voting.sol\":1358:1364  voters */\n      0x01\n        /* \"contracts/voting.sol\":1358:1368  voters[to] */\n      0x00\n        /* \"contracts/voting.sol\":1365:1367  to */\n      dup4\n        /* \"contracts/voting.sol\":1358:1368  voters[to] */\n      0xffffffffffffffffffffffffffffffffffffffff\n      and\n      0xffffffffffffffffffffffffffffffffffffffff\n      and\n      dup2\n      mstore\n      0x20\n      add\n      swap1\n      dup2\n      mstore\n      0x20\n      add\n      0x00\n      keccak256\n        /* \"contracts/voting.sol\":1358:1377  voters[to].delegate */\n      0x01\n      add\n      0x01\n      swap1\n      sload\n      swap1\n      0x0100\n      exp\n      swap1\n      div\n      0xffffffffffffffffffffffffffffffffffffffff\n      and\n        /* \"contracts/voting.sol\":1353:1377  to = voters[to].delegate */\n      swap2\n      pop\n        /* \"contracts/voting.sol\":1405:1415  msg.sender */\n      caller\n        /* \"contracts/voting.sol\":1399:1415  to != msg.sender */\n      0xffffffffffffffffffffffffffffffffffffffff\n      and\n        /* \"contracts/voting.sol\":1399:1401  to */\n      dup3\n        /* \"contracts/voting.sol\":1399:1415  to != msg.sender */\n      0xffffffffffffffffffffffffffffffffffffffff\n      and\n      sub\n        /* \"contracts/voting.sol\":1391:1444  require(to != msg.sender, \"Found loop in delegation\") */\n      tag_111\n      jumpi\n      mload(0x40)\n      0x08c379a000000000000000000000000000000000000000000000000000000000\n      dup2\n      mstore\n      0x04\n      add\n      tag_112\n      swap1\n      tag_113\n      jump\t// in\n    tag_112:\n      mload(0x40)\n      dup1\n      swap2\n      sub\n      swap1\n      revert\n    tag_111:\n        /* \"contracts/voting.sol\":1297:1455  while (voters[to].delegate != address(0)) {... */\n      jump(tag_109)\n    tag_110:\n        /* \"contracts/voting.sol\":1465:1488  Voter storage delegate_ */\n      0x00\n        /* \"contracts/voting.sol\":1491:1497  voters */\n      0x01\n        /* \"contracts/voting.sol\":1491:1501  voters[to] */\n      0x00\n        /* \"contracts/voting.sol\":1498:1500  to */\n      dup5\n        /* \"contracts/voting.sol\":1491:1501  voters[to] */\n      0xffffffffffffffffffffffffffffffffffffffff\n      and\n      0xffffffffffffffffffffffffffffffffffffffff\n      and\n      dup2\n      mstore\n      0x20\n      add\n      swap1\n      dup2\n      mstore\n      0x20\n      add\n      0x00\n      keccak256\n        /* \"contracts/voting.sol\":1465:1501  Voter storage delegate_ = voters[to] */\n      swap1\n      pop\n        /* \"contracts/voting.sol\":1593:1594  1 */\n      0x01\n        /* \"contracts/voting.sol\":1573:1582  delegate_ */\n      dup2\n        /* \"contracts/voting.sol\":1573:1589  delegate_.weight */\n      0x00\n      add\n      sload\n        /* \"contracts/voting.sol\":1573:1594  delegate_.weight >= 1 */\n      lt\n      iszero\n        /* \"contracts/voting.sol\":1565:1595  require(delegate_.weight >= 1) */\n      tag_114\n      jumpi\n      0x00\n      dup1\n      revert\n    tag_114:\n        /* \"contracts/voting.sol\":1620:1624  true */\n      0x01\n        /* \"contracts/voting.sol\":1605:1611  sender */\n      dup3\n        /* \"contracts/voting.sol\":1605:1617  sender.voted */\n      0x01\n      add\n      0x00\n        /* \"contracts/voting.sol\":1605:1624  sender.voted = true */\n      0x0100\n      exp\n      dup2\n      sload\n      dup2\n      0xff\n      mul\n      not\n      and\n      swap1\n      dup4\n      iszero\n      iszero\n      mul\n      or\n      swap1\n      sstore\n      pop\n        /* \"contracts/voting.sol\":1652:1654  to */\n      dup3\n        /* \"contracts/voting.sol\":1634:1640  sender */\n      dup3\n        /* \"contracts/voting.sol\":1634:1649  sender.delegate */\n      0x01\n      add\n      0x01\n        /* \"contracts/voting.sol\":1634:1654  sender.delegate = to */\n      0x0100\n      exp\n      dup2\n      sload\n      dup2\n      0xffffffffffffffffffffffffffffffffffffffff\n      mul\n      not\n      and\n      swap1\n      dup4\n      0xffffffffffffffffffffffffffffffffffffffff\n      and\n      mul\n      or\n      swap1\n      sstore\n      pop\n        /* \"contracts/voting.sol\":1668:1677  delegate_ */\n      dup1\n        /* \"contracts/voting.sol\":1668:1683  delegate_.voted */\n      0x01\n      add\n      0x00\n      swap1\n      sload\n      swap1\n      0x0100\n      exp\n      swap1\n      div\n      0xff\n      and\n        /* \"contracts/voting.sol\":1665:1909  if(delegate_.voted){... */\n      iszero\n      tag_115\n      jumpi\n        /* \"contracts/voting.sol\":1820:1826  sender */\n      dup2\n        /* \"contracts/voting.sol\":1820:1833  sender.weight */\n      0x00\n      add\n      sload\n        /* \"contracts/voting.sol\":1781:1790  proposals */\n      0x02\n        /* \"contracts/voting.sol\":1791:1800  delegate_ */\n      dup3\n        /* \"contracts/voting.sol\":1791:1805  delegate_.vote */\n      0x02\n      add\n      sload\n        /* \"contracts/voting.sol\":1781:1806  proposals[delegate_.vote] */\n      dup2\n      sload\n      dup2\n      lt\n      tag_116\n      jumpi\n      tag_117\n      tag_71\n      jump\t// in\n    tag_117:\n    tag_116:\n      swap1\n      0x00\n      mstore\n      keccak256(0x00, 0x20)\n      swap1\n      0x02\n      mul\n      add\n        /* \"contracts/voting.sol\":1781:1816  proposals[delegate_.vote].voteCount */\n      0x01\n      add\n      0x00\n        /* \"contracts/voting.sol\":1781:1833  proposals[delegate_.vote].voteCount += sender.weight */\n      dup3\n      dup3\n      sload\n      tag_119\n      swap2\n      swap1\n      tag_96\n      jump\t// in\n    tag_119:\n      swap3\n      pop\n      pop\n      dup2\n      swap1\n      sstore\n      pop\n        /* \"contracts/voting.sol\":1665:1909  if(delegate_.voted){... */\n      jump(tag_120)\n    tag_115:\n        /* \"contracts/voting.sol\":1885:1891  sender */\n      dup2\n        /* \"contracts/voting.sol\":1885:1898  sender.weight */\n      0x00\n      add\n      sload\n        /* \"contracts/voting.sol\":1865:1874  delegate_ */\n      dup2\n        /* \"contracts/voting.sol\":1865:1881  delegate_.weight */\n      0x00\n      add\n      0x00\n        /* \"contracts/voting.sol\":1865:1898  delegate_.weight += sender.weight */\n      dup3\n      dup3\n      sload\n      tag_121\n      swap2\n      swap1\n      tag_96\n      jump\t// in\n    tag_121:\n      swap3\n      pop\n      pop\n      dup2\n      swap1\n      sstore\n      pop\n        /* \"contracts/voting.sol\":1665:1909  if(delegate_.voted){... */\n    tag_120:\n        /* \"contracts/voting.sol\":1048:1915  {... */\n      pop\n      pop\n        /* \"contracts/voting.sol\":1009:1915  function delegate(address to) external {... */\n      pop\n      jump\t// out\n        /* \"contracts/voting.sol\":2254:2598  function winningProposal() public view returns (uint winningProposal_){... */\n    tag_36:\n        /* \"contracts/voting.sol\":2302:2323  uint winningProposal_ */\n      0x00\n        /* \"contracts/voting.sol\":2334:2355  uint winningVoteCount */\n      dup1\n        /* \"contracts/voting.sol\":2358:2359  0 */\n      0x00\n        /* \"contracts/voting.sol\":2334:2359  uint winningVoteCount = 0 */\n      swap1\n      pop\n        /* \"contracts/voting.sol\":2373:2379  uint i */\n      0x00\n        /* \"contracts/voting.sol\":2369:2592  for(uint i = 0; i < proposals.length; i++){... */\n    tag_123:\n        /* \"contracts/voting.sol\":2389:2398  proposals */\n      0x02\n        /* \"contracts/voting.sol\":2389:2405  proposals.length */\n      dup1\n      sload\n      swap1\n      pop\n        /* \"contracts/voting.sol\":2385:2386  i */\n      dup2\n        /* \"contracts/voting.sol\":2385:2405  i < proposals.length */\n      lt\n        /* \"contracts/voting.sol\":2369:2592  for(uint i = 0; i < proposals.length; i++){... */\n      iszero\n      tag_124\n      jumpi\n        /* \"contracts/voting.sol\":2453:2469  winningVoteCount */\n      dup2\n        /* \"contracts/voting.sol\":2428:2437  proposals */\n      0x02\n        /* \"contracts/voting.sol\":2438:2439  i */\n      dup3\n        /* \"contracts/voting.sol\":2428:2440  proposals[i] */\n      dup2\n      sload\n      dup2\n      lt\n      tag_126\n      jumpi\n      tag_127\n      tag_71\n      jump\t// in\n    tag_127:\n    tag_126:\n      swap1\n      0x00\n      mstore\n      keccak256(0x00, 0x20)\n      swap1\n      0x02\n      mul\n      add\n        /* \"contracts/voting.sol\":2428:2450  proposals[i].voteCount */\n      0x01\n      add\n      sload\n        /* \"contracts/voting.sol\":2428:2469  proposals[i].voteCount > winningVoteCount */\n      gt\n        /* \"contracts/voting.sol\":2425:2582  if(proposals[i].voteCount > winningVoteCount){... */\n      iszero\n      tag_129\n      jumpi\n        /* \"contracts/voting.sol\":2507:2516  proposals */\n      0x02\n        /* \"contracts/voting.sol\":2517:2518  i */\n      dup2\n        /* \"contracts/voting.sol\":2507:2519  proposals[i] */\n      dup2\n      sload\n      dup2\n      lt\n      tag_130\n      jumpi\n      tag_131\n      tag_71\n      jump\t// in\n    tag_131:\n    tag_130:\n      swap1\n      0x00\n      mstore\n      keccak256(0x00, 0x20)\n      swap1\n      0x02\n      mul\n      add\n        /* \"contracts/voting.sol\":2507:2529  proposals[i].voteCount */\n      0x01\n      add\n      sload\n        /* \"contracts/voting.sol\":2488:2529  winningVoteCount = proposals[i].voteCount */\n      swap2\n      pop\n        /* \"contracts/voting.sol\":2566:2567  i */\n      dup1\n        /* \"contracts/voting.sol\":2547:2567  winningProposal_ = i */\n      swap3\n      pop\n        /* \"contracts/voting.sol\":2425:2582  if(proposals[i].voteCount > winningVoteCount){... */\n    tag_129:\n        /* \"contracts/voting.sol\":2407:2410  i++ */\n      dup1\n      dup1\n      0x01\n      add\n      swap2\n      pop\n      pop\n        /* \"contracts/voting.sol\":2369:2592  for(uint i = 0; i < proposals.length; i++){... */\n      jump(tag_123)\n    tag_124:\n      pop\n        /* \"contracts/voting.sol\":2324:2598  {... */\n      pop\n        /* \"contracts/voting.sol\":2254:2598  function winningProposal() public view returns (uint winningProposal_){... */\n      swap1\n      jump\t// out\n        /* \"contracts/voting.sol\":2787:3236  function giveRightToVoteForAll(address[] memory voterAdress) external {... */\n    tag_42:\n        /* \"contracts/voting.sol\":2889:2900  chairperson */\n      0x00\n      dup1\n      sload\n      swap1\n      0x0100\n      exp\n      swap1\n      div\n      0xffffffffffffffffffffffffffffffffffffffff\n      and\n        /* \"contracts/voting.sol\":2875:2900  msg.sender == chairperson */\n      0xffffffffffffffffffffffffffffffffffffffff\n      and\n        /* \"contracts/voting.sol\":2875:2885  msg.sender */\n      caller\n        /* \"contracts/voting.sol\":2875:2900  msg.sender == chairperson */\n      0xffffffffffffffffffffffffffffffffffffffff\n      and\n      eq\n        /* \"contracts/voting.sol\":2867:2952  require(msg.sender == chairperson,... */\n      tag_134\n      jumpi\n      mload(0x40)\n      0x08c379a000000000000000000000000000000000000000000000000000000000\n      dup2\n      mstore\n      0x04\n      add\n      tag_135\n      swap1\n      tag_136\n      jump\t// in\n    tag_135:\n      mload(0x40)\n      dup1\n      swap2\n      sub\n      swap1\n      revert\n    tag_134:\n        /* \"contracts/voting.sol\":2968:2974  uint i */\n      0x00\n        /* \"contracts/voting.sol\":2963:3221  for (uint i = 0; i < voterAdress.length; i++){... */\n    tag_137:\n        /* \"contracts/voting.sol\":2984:2995  voterAdress */\n      dup2\n        /* \"contracts/voting.sol\":2984:3002  voterAdress.length */\n      mload\n        /* \"contracts/voting.sol\":2980:2981  i */\n      dup2\n        /* \"contracts/voting.sol\":2980:3002  i < voterAdress.length */\n      lt\n        /* \"contracts/voting.sol\":2963:3221  for (uint i = 0; i < voterAdress.length; i++){... */\n      iszero\n      tag_138\n      jumpi\n        /* \"contracts/voting.sol\":3022:3035  address voter */\n      0x00\n        /* \"contracts/voting.sol\":3038:3049  voterAdress */\n      dup3\n        /* \"contracts/voting.sol\":3050:3051  i */\n      dup3\n        /* \"contracts/voting.sol\":3038:3052  voterAdress[i] */\n      dup2\n      mload\n      dup2\n      lt\n      tag_140\n      jumpi\n      tag_141\n      tag_71\n      jump\t// in\n    tag_141:\n    tag_140:\n      0x20\n      mul\n      0x20\n      add\n      add\n      mload\n        /* \"contracts/voting.sol\":3022:3052  address voter = voterAdress[i] */\n      swap1\n      pop\n        /* \"contracts/voting.sol\":3076:3082  voters */\n      0x01\n        /* \"contracts/voting.sol\":3076:3089  voters[voter] */\n      0x00\n        /* \"contracts/voting.sol\":3083:3088  voter */\n      dup3\n        /* \"contracts/voting.sol\":3076:3089  voters[voter] */\n      0xffffffffffffffffffffffffffffffffffffffff\n      and\n      0xffffffffffffffffffffffffffffffffffffffff\n      and\n      dup2\n      mstore\n      0x20\n      add\n      swap1\n      dup2\n      mstore\n      0x20\n      add\n      0x00\n      keccak256\n        /* \"contracts/voting.sol\":3076:3095  voters[voter].voted */\n      0x01\n      add\n      0x00\n      swap1\n      sload\n      swap1\n      0x0100\n      exp\n      swap1\n      div\n      0xff\n      and\n        /* \"contracts/voting.sol\":3075:3095  !voters[voter].voted */\n      iszero\n        /* \"contracts/voting.sol\":3067:3128  require(!voters[voter].voted, ... */\n      tag_142\n      jumpi\n      mload(0x40)\n      0x08c379a000000000000000000000000000000000000000000000000000000000\n      dup2\n      mstore\n      0x04\n      add\n      tag_143\n      swap1\n      tag_144\n      jump\t// in\n    tag_143:\n      mload(0x40)\n      dup1\n      swap2\n      sub\n      swap1\n      revert\n    tag_142:\n        /* \"contracts/voting.sol\":3170:3171  0 */\n      0x00\n        /* \"contracts/voting.sol\":3146:3152  voters */\n      0x01\n        /* \"contracts/voting.sol\":3146:3159  voters[voter] */\n      0x00\n        /* \"contracts/voting.sol\":3153:3158  voter */\n      dup4\n        /* \"contracts/voting.sol\":3146:3159  voters[voter] */\n      0xffffffffffffffffffffffffffffffffffffffff\n      and\n      0xffffffffffffffffffffffffffffffffffffffff\n      and\n      dup2\n      mstore\n      0x20\n      add\n      swap1\n      dup2\n      mstore\n      0x20\n      add\n      0x00\n      keccak256\n        /* \"contracts/voting.sol\":3146:3166  voters[voter].weight */\n      0x00\n      add\n      sload\n        /* \"contracts/voting.sol\":3146:3171  voters[voter].weight == 0 */\n      eq\n        /* \"contracts/voting.sol\":3138:3172  require(voters[voter].weight == 0) */\n      tag_145\n      jumpi\n      0x00\n      dup1\n      revert\n    tag_145:\n        /* \"contracts/voting.sol\":3209:3210  1 */\n      0x01\n        /* \"contracts/voting.sol\":3186:3192  voters */\n      dup1\n        /* \"contracts/voting.sol\":3186:3199  voters[voter] */\n      0x00\n        /* \"contracts/voting.sol\":3193:3198  voter */\n      dup4\n        /* \"contracts/voting.sol\":3186:3199  voters[voter] */\n      0xffffffffffffffffffffffffffffffffffffffff\n      and\n      0xffffffffffffffffffffffffffffffffffffffff\n      and\n      dup2\n      mstore\n      0x20\n      add\n      swap1\n      dup2\n      mstore\n      0x20\n      add\n      0x00\n      keccak256\n        /* \"contracts/voting.sol\":3186:3206  voters[voter].weight */\n      0x00\n      add\n        /* \"contracts/voting.sol\":3186:3210  voters[voter].weight = 1 */\n      dup2\n      swap1\n      sstore\n      pop\n        /* \"contracts/voting.sol\":3008:3221  {... */\n      pop\n        /* \"contracts/voting.sol\":3004:3007  i++ */\n      dup1\n      dup1\n      0x01\n      add\n      swap2\n      pop\n      pop\n        /* \"contracts/voting.sol\":2963:3221  for (uint i = 0; i < voterAdress.length; i++){... */\n      jump(tag_137)\n    tag_138:\n      pop\n        /* \"contracts/voting.sol\":2787:3236  function giveRightToVoteForAll(address[] memory voterAdress) external {... */\n      pop\n      jump\t// out\n        /* \"contracts/voting.sol\":703:1003  function giveRightToVote(address voter) external {... */\n    tag_45:\n        /* \"contracts/voting.sol\":784:795  chairperson */\n      0x00\n      dup1\n      sload\n      swap1\n      0x0100\n      exp\n      swap1\n      div\n      0xffffffffffffffffffffffffffffffffffffffff\n      and\n        /* \"contracts/voting.sol\":770:795  msg.sender == chairperson */\n      0xffffffffffffffffffffffffffffffffffffffff\n      and\n        /* \"contracts/voting.sol\":770:780  msg.sender */\n      caller\n        /* \"contracts/voting.sol\":770:795  msg.sender == chairperson */\n      0xffffffffffffffffffffffffffffffffffffffff\n      and\n      eq\n        /* \"contracts/voting.sol\":762:847  require(msg.sender == chairperson,... */\n      tag_147\n      jumpi\n      mload(0x40)\n      0x08c379a000000000000000000000000000000000000000000000000000000000\n      dup2\n      mstore\n      0x04\n      add\n      tag_148\n      swap1\n      tag_136\n      jump\t// in\n    tag_148:\n      mload(0x40)\n      dup1\n      swap2\n      sub\n      swap1\n      revert\n    tag_147:\n        /* \"contracts/voting.sol\":866:872  voters */\n      0x01\n        /* \"contracts/voting.sol\":866:879  voters[voter] */\n      0x00\n        /* \"contracts/voting.sol\":873:878  voter */\n      dup3\n        /* \"contracts/voting.sol\":866:879  voters[voter] */\n      0xffffffffffffffffffffffffffffffffffffffff\n      and\n      0xffffffffffffffffffffffffffffffffffffffff\n      and\n      dup2\n      mstore\n      0x20\n      add\n      swap1\n      dup2\n      mstore\n      0x20\n      add\n      0x00\n      keccak256\n        /* \"contracts/voting.sol\":866:885  voters[voter].voted */\n      0x01\n      add\n      0x00\n      swap1\n      sload\n      swap1\n      0x0100\n      exp\n      swap1\n      div\n      0xff\n      and\n        /* \"contracts/voting.sol\":865:885  !voters[voter].voted */\n      iszero\n        /* \"contracts/voting.sol\":857:918  require(!voters[voter].voted, ... */\n      tag_149\n      jumpi\n      mload(0x40)\n      0x08c379a000000000000000000000000000000000000000000000000000000000\n      dup2\n      mstore\n      0x04\n      add\n      tag_150\n      swap1\n      tag_144\n      jump\t// in\n    tag_150:\n      mload(0x40)\n      dup1\n      swap2\n      sub\n      swap1\n      revert\n    tag_149:\n        /* \"contracts/voting.sol\":960:961  0 */\n      0x00\n        /* \"contracts/voting.sol\":936:942  voters */\n      0x01\n        /* \"contracts/voting.sol\":936:949  voters[voter] */\n      0x00\n        /* \"contracts/voting.sol\":943:948  voter */\n      dup4\n        /* \"contracts/voting.sol\":936:949  voters[voter] */\n      0xffffffffffffffffffffffffffffffffffffffff\n      and\n      0xffffffffffffffffffffffffffffffffffffffff\n      and\n      dup2\n      mstore\n      0x20\n      add\n      swap1\n      dup2\n      mstore\n      0x20\n      add\n      0x00\n      keccak256\n        /* \"contracts/voting.sol\":936:956  voters[voter].weight */\n      0x00\n      add\n      sload\n        /* \"contracts/voting.sol\":936:961  voters[voter].weight == 0 */\n      eq\n        /* \"contracts/voting.sol\":928:962  require(voters[voter].weight == 0) */\n      tag_151\n      jumpi\n      0x00\n      dup1\n      revert\n    tag_151:\n        /* \"contracts/voting.sol\":995:996  1 */\n      0x01\n        /* \"contracts/voting.sol\":972:978  voters */\n      dup1\n        /* \"contracts/voting.sol\":972:985  voters[voter] */\n      0x00\n        /* \"contracts/voting.sol\":979:984  voter */\n      dup4\n        /* \"contracts/voting.sol\":972:985  voters[voter] */\n      0xffffffffffffffffffffffffffffffffffffffff\n      and\n      0xffffffffffffffffffffffffffffffffffffffff\n      and\n      dup2\n      mstore\n      0x20\n      add\n      swap1\n      dup2\n      mstore\n      0x20\n      add\n      0x00\n      keccak256\n        /* \"contracts/voting.sol\":972:992  voters[voter].weight */\n      0x00\n      add\n        /* \"contracts/voting.sol\":972:996  voters[voter].weight = 1 */\n      dup2\n      swap1\n      sstore\n      pop\n        /* \"contracts/voting.sol\":703:1003  function giveRightToVote(address voter) external {... */\n      pop\n      jump\t// out\n        /* \"contracts/voting.sol\":311:351  mapping (address => Voter) public voters */\n    tag_48:\n      mstore(0x20, 0x01)\n      dup1\n      0x00\n      mstore\n      keccak256(0x00, 0x40)\n      0x00\n      swap2\n      pop\n      swap1\n      pop\n      dup1\n      0x00\n      add\n      sload\n      swap1\n      dup1\n      0x01\n      add\n      0x00\n      swap1\n      sload\n      swap1\n      0x0100\n      exp\n      swap1\n      div\n      0xff\n      and\n      swap1\n      dup1\n      0x01\n      add\n      0x01\n      swap1\n      sload\n      swap1\n      0x0100\n      exp\n      swap1\n      div\n      0xffffffffffffffffffffffffffffffffffffffff\n      and\n      swap1\n      dup1\n      0x02\n      add\n      sload\n      swap1\n      pop\n      dup5\n      jump\t// out\n        /* \"contracts/voting.sol\":2604:2732  function winnerName() external view returns(bytes32 winnerName_){... */\n    tag_52:\n        /* \"contracts/voting.sol\":2648:2667  bytes32 winnerName_ */\n      0x00\n        /* \"contracts/voting.sol\":2692:2701  proposals */\n      0x02\n        /* \"contracts/voting.sol\":2702:2719  winningProposal() */\n      tag_153\n        /* \"contracts/voting.sol\":2702:2717  winningProposal */\n      tag_36\n        /* \"contracts/voting.sol\":2702:2719  winningProposal() */\n      jump\t// in\n    tag_153:\n        /* \"contracts/voting.sol\":2692:2720  proposals[winningProposal()] */\n      dup2\n      sload\n      dup2\n      lt\n      tag_154\n      jumpi\n      tag_155\n      tag_71\n      jump\t// in\n    tag_155:\n    tag_154:\n      swap1\n      0x00\n      mstore\n      keccak256(0x00, 0x20)\n      swap1\n      0x02\n      mul\n      add\n        /* \"contracts/voting.sol\":2692:2725  proposals[winningProposal()].name */\n      0x00\n      add\n      sload\n        /* \"contracts/voting.sol\":2678:2725  winnerName_ = proposals[winningProposal()].name */\n      swap1\n      pop\n        /* \"contracts/voting.sol\":2604:2732  function winnerName() external view returns(bytes32 winnerName_){... */\n      swap1\n      jump\t// out\n        /* \"contracts/voting.sol\":3844:3948  function getWinningProposals() public view returns (uint[] memory) {... */\n    tag_56:\n        /* \"contracts/voting.sol\":3896:3909  uint[] memory */\n      0x60\n        /* \"contracts/voting.sol\":3928:3941  tiedProposals */\n      0x03\n        /* \"contracts/voting.sol\":3921:3941  return tiedProposals */\n      dup1\n      sload\n      dup1\n      0x20\n      mul\n      0x20\n      add\n      mload(0x40)\n      swap1\n      dup2\n      add\n      0x40\n      mstore\n      dup1\n      swap3\n      swap2\n      swap1\n      dup2\n      dup2\n      mstore\n      0x20\n      add\n      dup3\n      dup1\n      sload\n      dup1\n      iszero\n      tag_158\n      jumpi\n      0x20\n      mul\n      dup3\n      add\n      swap2\n      swap1\n      0x00\n      mstore\n      keccak256(0x00, 0x20)\n      swap1\n    tag_159:\n      dup2\n      sload\n      dup2\n      mstore\n      0x20\n      add\n      swap1\n      0x01\n      add\n      swap1\n      dup1\n      dup4\n      gt\n      tag_159\n      jumpi\n    tag_158:\n      pop\n      pop\n      pop\n      pop\n      pop\n      swap1\n      pop\n        /* \"contracts/voting.sol\":3844:3948  function getWinningProposals() public view returns (uint[] memory) {... */\n      swap1\n      jump\t// out\n        /* \"contracts/voting.sol\":3242:3269  uint[] public tiedProposals */\n    tag_61:\n      0x03\n      dup2\n      dup2\n      sload\n      dup2\n      lt\n      tag_160\n      jumpi\n      0x00\n      dup1\n      revert\n    tag_160:\n      swap1\n      0x00\n      mstore\n      keccak256(0x00, 0x20)\n      add\n      0x00\n      swap2\n      pop\n      swap1\n      pop\n      sload\n      dup2\n      jump\t// out\n    tag_65:\n      pop\n      dup1\n      sload\n      0x00\n      dup3\n      sstore\n      swap1\n      0x00\n      mstore\n      keccak256(0x00, 0x20)\n      swap1\n      dup2\n      add\n      swap1\n      tag_163\n      swap2\n      swap1\n      tag_164\n      jump\t// in\n    tag_163:\n      pop\n      jump\t// out\n    tag_78:\n      dup3\n      dup1\n      sload\n      dup3\n      dup3\n      sstore\n      swap1\n      0x00\n      mstore\n      keccak256(0x00, 0x20)\n      swap1\n      dup2\n      add\n      swap3\n      dup3\n      iszero\n      tag_165\n      jumpi\n      swap2\n      0x20\n      mul\n      dup3\n      add\n    tag_166:\n      dup3\n      dup2\n      gt\n      iszero\n      tag_167\n      jumpi\n      dup3\n      mload\n      dup3\n      sstore\n      swap2\n      0x20\n      add\n      swap2\n      swap1\n      0x01\n      add\n      swap1\n      jump(tag_166)\n    tag_167:\n    tag_165:\n      pop\n      swap1\n      pop\n      tag_168\n      swap2\n      swap1\n      tag_164\n      jump\t// in\n    tag_168:\n      pop\n      swap1\n      jump\t// out\n    tag_164:\n    tag_169:\n      dup1\n      dup3\n      gt\n      iszero\n      tag_170\n      jumpi\n      0x00\n      dup2\n      0x00\n      swap1\n      sstore\n      pop\n      0x01\n      add\n      jump(tag_169)\n    tag_170:\n      pop\n      swap1\n      jump\t// out\n        /* \"#utility.yul\":7:82   */\n    tag_171:\n        /* \"#utility.yul\":40:46   */\n      0x00\n        /* \"#utility.yul\":73:75   */\n      0x40\n        /* \"#utility.yul\":67:76   */\n      mload\n        /* \"#utility.yul\":57:76   */\n      swap1\n      pop\n        /* \"#utility.yul\":7:82   */\n      swap1\n      jump\t// out\n        /* \"#utility.yul\":88:205   */\n    tag_172:\n        /* \"#utility.yul\":197:198   */\n      0x00\n        /* \"#utility.yul\":194:195   */\n      dup1\n        /* \"#utility.yul\":187:199   */\n      revert\n        /* \"#utility.yul\":211:328   */\n    tag_173:\n        /* \"#utility.yul\":320:321   */\n      0x00\n        /* \"#utility.yul\":317:318   */\n      dup1\n        /* \"#utility.yul\":310:322   */\n      revert\n        /* \"#utility.yul\":334:411   */\n    tag_174:\n        /* \"#utility.yul\":371:378   */\n      0x00\n        /* \"#utility.yul\":400:405   */\n      dup2\n        /* \"#utility.yul\":389:405   */\n      swap1\n      pop\n        /* \"#utility.yul\":334:411   */\n      swap2\n      swap1\n      pop\n      jump\t// out\n        /* \"#utility.yul\":417:539   */\n    tag_175:\n        /* \"#utility.yul\":490:514   */\n      tag_227\n        /* \"#utility.yul\":508:513   */\n      dup2\n        /* \"#utility.yul\":490:514   */\n      tag_174\n      jump\t// in\n    tag_227:\n        /* \"#utility.yul\":483:488   */\n      dup2\n        /* \"#utility.yul\":480:515   */\n      eq\n        /* \"#utility.yul\":470:533   */\n      tag_228\n      jumpi\n        /* \"#utility.yul\":529:530   */\n      0x00\n        /* \"#utility.yul\":526:527   */\n      dup1\n        /* \"#utility.yul\":519:531   */\n      revert\n        /* \"#utility.yul\":470:533   */\n    tag_228:\n        /* \"#utility.yul\":417:539   */\n      pop\n      jump\t// out\n        /* \"#utility.yul\":545:684   */\n    tag_176:\n        /* \"#utility.yul\":591:596   */\n      0x00\n        /* \"#utility.yul\":629:635   */\n      dup2\n        /* \"#utility.yul\":616:636   */\n      calldataload\n        /* \"#utility.yul\":607:636   */\n      swap1\n      pop\n        /* \"#utility.yul\":645:678   */\n      tag_230\n        /* \"#utility.yul\":672:677   */\n      dup2\n        /* \"#utility.yul\":645:678   */\n      tag_175\n      jump\t// in\n    tag_230:\n        /* \"#utility.yul\":545:684   */\n      swap3\n      swap2\n      pop\n      pop\n      jump\t// out\n        /* \"#utility.yul\":690:1019   */\n    tag_20:\n        /* \"#utility.yul\":749:755   */\n      0x00\n        /* \"#utility.yul\":798:800   */\n      0x20\n        /* \"#utility.yul\":786:795   */\n      dup3\n        /* \"#utility.yul\":777:784   */\n      dup5\n        /* \"#utility.yul\":773:796   */\n      sub\n        /* \"#utility.yul\":769:801   */\n      slt\n        /* \"#utility.yul\":766:885   */\n      iszero\n      tag_232\n      jumpi\n        /* \"#utility.yul\":804:883   */\n      tag_233\n      tag_172\n      jump\t// in\n    tag_233:\n        /* \"#utility.yul\":766:885   */\n    tag_232:\n        /* \"#utility.yul\":924:925   */\n      0x00\n        /* \"#utility.yul\":949:1002   */\n      tag_234\n        /* \"#utility.yul\":994:1001   */\n      dup5\n        /* \"#utility.yul\":985:991   */\n      dup3\n        /* \"#utility.yul\":974:983   */\n      dup6\n        /* \"#utility.yul\":970:992   */\n      add\n        /* \"#utility.yul\":949:1002   */\n      tag_176\n      jump\t// in\n    tag_234:\n        /* \"#utility.yul\":939:1002   */\n      swap2\n      pop\n        /* \"#utility.yul\":895:1012   */\n      pop\n        /* \"#utility.yul\":690:1019   */\n      swap3\n      swap2\n      pop\n      pop\n      jump\t// out\n        /* \"#utility.yul\":1025:1102   */\n    tag_177:\n        /* \"#utility.yul\":1062:1069   */\n      0x00\n        /* \"#utility.yul\":1091:1096   */\n      dup2\n        /* \"#utility.yul\":1080:1096   */\n      swap1\n      pop\n        /* \"#utility.yul\":1025:1102   */\n      swap2\n      swap1\n      pop\n      jump\t// out\n        /* \"#utility.yul\":1108:1226   */\n    tag_178:\n        /* \"#utility.yul\":1195:1219   */\n      tag_237\n        /* \"#utility.yul\":1213:1218   */\n      dup2\n        /* \"#utility.yul\":1195:1219   */\n      tag_177\n      jump\t// in\n    tag_237:\n        /* \"#utility.yul\":1190:1193   */\n      dup3\n        /* \"#utility.yul\":1183:1220   */\n      mstore\n        /* \"#utility.yul\":1108:1226   */\n      pop\n      pop\n      jump\t// out\n        /* \"#utility.yul\":1232:1350   */\n    tag_179:\n        /* \"#utility.yul\":1319:1343   */\n      tag_239\n        /* \"#utility.yul\":1337:1342   */\n      dup2\n        /* \"#utility.yul\":1319:1343   */\n      tag_174\n      jump\t// in\n    tag_239:\n        /* \"#utility.yul\":1314:1317   */\n      dup3\n        /* \"#utility.yul\":1307:1344   */\n      mstore\n        /* \"#utility.yul\":1232:1350   */\n      pop\n      pop\n      jump\t// out\n        /* \"#utility.yul\":1356:1688   */\n    tag_26:\n        /* \"#utility.yul\":1477:1481   */\n      0x00\n        /* \"#utility.yul\":1515:1517   */\n      0x40\n        /* \"#utility.yul\":1504:1513   */\n      dup3\n        /* \"#utility.yul\":1500:1518   */\n      add\n        /* \"#utility.yul\":1492:1518   */\n      swap1\n      pop\n        /* \"#utility.yul\":1528:1599   */\n      tag_241\n        /* \"#utility.yul\":1596:1597   */\n      0x00\n        /* \"#utility.yul\":1585:1594   */\n      dup4\n        /* \"#utility.yul\":1581:1598   */\n      add\n        /* \"#utility.yul\":1572:1578   */\n      dup6\n        /* \"#utility.yul\":1528:1599   */\n      tag_178\n      jump\t// in\n    tag_241:\n        /* \"#utility.yul\":1609:1681   */\n      tag_242\n        /* \"#utility.yul\":1677:1679   */\n      0x20\n        /* \"#utility.yul\":1666:1675   */\n      dup4\n        /* \"#utility.yul\":1662:1680   */\n      add\n        /* \"#utility.yul\":1653:1659   */\n      dup5\n        /* \"#utility.yul\":1609:1681   */\n      tag_179\n      jump\t// in\n    tag_242:\n        /* \"#utility.yul\":1356:1688   */\n      swap4\n      swap3\n      pop\n      pop\n      pop\n      jump\t// out\n        /* \"#utility.yul\":1694:1820   */\n    tag_180:\n        /* \"#utility.yul\":1731:1738   */\n      0x00\n        /* \"#utility.yul\":1771:1813   */\n      0xffffffffffffffffffffffffffffffffffffffff\n        /* \"#utility.yul\":1764:1769   */\n      dup3\n        /* \"#utility.yul\":1760:1814   */\n      and\n        /* \"#utility.yul\":1749:1814   */\n      swap1\n      pop\n        /* \"#utility.yul\":1694:1820   */\n      swap2\n      swap1\n      pop\n      jump\t// out\n        /* \"#utility.yul\":1826:1922   */\n    tag_181:\n        /* \"#utility.yul\":1863:1870   */\n      0x00\n        /* \"#utility.yul\":1892:1916   */\n      tag_245\n        /* \"#utility.yul\":1910:1915   */\n      dup3\n        /* \"#utility.yul\":1892:1916   */\n      tag_180\n      jump\t// in\n    tag_245:\n        /* \"#utility.yul\":1881:1916   */\n      swap1\n      pop\n        /* \"#utility.yul\":1826:1922   */\n      swap2\n      swap1\n      pop\n      jump\t// out\n        /* \"#utility.yul\":1928:2046   */\n    tag_182:\n        /* \"#utility.yul\":2015:2039   */\n      tag_247\n        /* \"#utility.yul\":2033:2038   */\n      dup2\n        /* \"#utility.yul\":2015:2039   */\n      tag_181\n      jump\t// in\n    tag_247:\n        /* \"#utility.yul\":2010:2013   */\n      dup3\n        /* \"#utility.yul\":2003:2040   */\n      mstore\n        /* \"#utility.yul\":1928:2046   */\n      pop\n      pop\n      jump\t// out\n        /* \"#utility.yul\":2052:2274   */\n    tag_30:\n        /* \"#utility.yul\":2145:2149   */\n      0x00\n        /* \"#utility.yul\":2183:2185   */\n      0x20\n        /* \"#utility.yul\":2172:2181   */\n      dup3\n        /* \"#utility.yul\":2168:2186   */\n      add\n        /* \"#utility.yul\":2160:2186   */\n      swap1\n      pop\n        /* \"#utility.yul\":2196:2267   */\n      tag_249\n        /* \"#utility.yul\":2264:2265   */\n      0x00\n        /* \"#utility.yul\":2253:2262   */\n      dup4\n        /* \"#utility.yul\":2249:2266   */\n      add\n        /* \"#utility.yul\":2240:2246   */\n      dup5\n        /* \"#utility.yul\":2196:2267   */\n      tag_182\n      jump\t// in\n    tag_249:\n        /* \"#utility.yul\":2052:2274   */\n      swap3\n      swap2\n      pop\n      pop\n      jump\t// out\n        /* \"#utility.yul\":2280:2402   */\n    tag_183:\n        /* \"#utility.yul\":2353:2377   */\n      tag_251\n        /* \"#utility.yul\":2371:2376   */\n      dup2\n        /* \"#utility.yul\":2353:2377   */\n      tag_181\n      jump\t// in\n    tag_251:\n        /* \"#utility.yul\":2346:2351   */\n      dup2\n        /* \"#utility.yul\":2343:2378   */\n      eq\n        /* \"#utility.yul\":2333:2396   */\n      tag_252\n      jumpi\n        /* \"#utility.yul\":2392:2393   */\n      0x00\n        /* \"#utility.yul\":2389:2390   */\n      dup1\n        /* \"#utility.yul\":2382:2394   */\n      revert\n        /* \"#utility.yul\":2333:2396   */\n    tag_252:\n        /* \"#utility.yul\":2280:2402   */\n      pop\n      jump\t// out\n        /* \"#utility.yul\":2408:2547   */\n    tag_184:\n        /* \"#utility.yul\":2454:2459   */\n      0x00\n        /* \"#utility.yul\":2492:2498   */\n      dup2\n        /* \"#utility.yul\":2479:2499   */\n      calldataload\n        /* \"#utility.yul\":2470:2499   */\n      swap1\n      pop\n        /* \"#utility.yul\":2508:2541   */\n      tag_254\n        /* \"#utility.yul\":2535:2540   */\n      dup2\n        /* \"#utility.yul\":2508:2541   */\n      tag_183\n      jump\t// in\n    tag_254:\n        /* \"#utility.yul\":2408:2547   */\n      swap3\n      swap2\n      pop\n      pop\n      jump\t// out\n        /* \"#utility.yul\":2553:2882   */\n    tag_33:\n        /* \"#utility.yul\":2612:2618   */\n      0x00\n        /* \"#utility.yul\":2661:2663   */\n      0x20\n        /* \"#utility.yul\":2649:2658   */\n      dup3\n        /* \"#utility.yul\":2640:2647   */\n      dup5\n        /* \"#utility.yul\":2636:2659   */\n      sub\n        /* \"#utility.yul\":2632:2664   */\n      slt\n        /* \"#utility.yul\":2629:2748   */\n      iszero\n      tag_256\n      jumpi\n        /* \"#utility.yul\":2667:2746   */\n      tag_257\n      tag_172\n      jump\t// in\n    tag_257:\n        /* \"#utility.yul\":2629:2748   */\n    tag_256:\n        /* \"#utility.yul\":2787:2788   */\n      0x00\n        /* \"#utility.yul\":2812:2865   */\n      tag_258\n        /* \"#utility.yul\":2857:2864   */\n      dup5\n        /* \"#utility.yul\":2848:2854   */\n      dup3\n        /* \"#utility.yul\":2837:2846   */\n      dup6\n        /* \"#utility.yul\":2833:2855   */\n      add\n        /* \"#utility.yul\":2812:2865   */\n      tag_184\n      jump\t// in\n    tag_258:\n        /* \"#utility.yul\":2802:2865   */\n      swap2\n      pop\n        /* \"#utility.yul\":2758:2875   */\n      pop\n        /* \"#utility.yul\":2553:2882   */\n      swap3\n      swap2\n      pop\n      pop\n      jump\t// out\n        /* \"#utility.yul\":2888:3110   */\n    tag_38:\n        /* \"#utility.yul\":2981:2985   */\n      0x00\n        /* \"#utility.yul\":3019:3021   */\n      0x20\n        /* \"#utility.yul\":3008:3017   */\n      dup3\n        /* \"#utility.yul\":3004:3022   */\n      add\n        /* \"#utility.yul\":2996:3022   */\n      swap1\n      pop\n        /* \"#utility.yul\":3032:3103   */\n      tag_260\n        /* \"#utility.yul\":3100:3101   */\n      0x00\n        /* \"#utility.yul\":3089:3098   */\n      dup4\n        /* \"#utility.yul\":3085:3102   */\n      add\n        /* \"#utility.yul\":3076:3082   */\n      dup5\n        /* \"#utility.yul\":3032:3103   */\n      tag_179\n      jump\t// in\n    tag_260:\n        /* \"#utility.yul\":2888:3110   */\n      swap3\n      swap2\n      pop\n      pop\n      jump\t// out\n        /* \"#utility.yul\":3116:3233   */\n    tag_185:\n        /* \"#utility.yul\":3225:3226   */\n      0x00\n        /* \"#utility.yul\":3222:3223   */\n      dup1\n        /* \"#utility.yul\":3215:3227   */\n      revert\n        /* \"#utility.yul\":3239:3341   */\n    tag_186:\n        /* \"#utility.yul\":3280:3286   */\n      0x00\n        /* \"#utility.yul\":3331:3333   */\n      0x1f\n        /* \"#utility.yul\":3327:3334   */\n      not\n        /* \"#utility.yul\":3322:3324   */\n      0x1f\n        /* \"#utility.yul\":3315:3320   */\n      dup4\n        /* \"#utility.yul\":3311:3325   */\n      add\n        /* \"#utility.yul\":3307:3335   */\n      and\n        /* \"#utility.yul\":3297:3335   */\n      swap1\n      pop\n        /* \"#utility.yul\":3239:3341   */\n      swap2\n      swap1\n      pop\n      jump\t// out\n        /* \"#utility.yul\":3347:3527   */\n    tag_187:\n        /* \"#utility.yul\":3395:3472   */\n      0x4e487b7100000000000000000000000000000000000000000000000000000000\n        /* \"#utility.yul\":3392:3393   */\n      0x00\n        /* \"#utility.yul\":3385:3473   */\n      mstore\n        /* \"#utility.yul\":3492:3496   */\n      0x41\n        /* \"#utility.yul\":3489:3490   */\n      0x04\n        /* \"#utility.yul\":3482:3497   */\n      mstore\n        /* \"#utility.yul\":3516:3520   */\n      0x24\n        /* \"#utility.yul\":3513:3514   */\n      0x00\n        /* \"#utility.yul\":3506:3521   */\n      revert\n        /* \"#utility.yul\":3533:3814   */\n    tag_188:\n        /* \"#utility.yul\":3616:3643   */\n      tag_265\n        /* \"#utility.yul\":3638:3642   */\n      dup3\n        /* \"#utility.yul\":3616:3643   */\n      tag_186\n      jump\t// in\n    tag_265:\n        /* \"#utility.yul\":3608:3614   */\n      dup2\n        /* \"#utility.yul\":3604:3644   */\n      add\n        /* \"#utility.yul\":3746:3752   */\n      dup2\n        /* \"#utility.yul\":3734:3744   */\n      dup2\n        /* \"#utility.yul\":3731:3753   */\n      lt\n        /* \"#utility.yul\":3710:3728   */\n      0xffffffffffffffff\n        /* \"#utility.yul\":3698:3708   */\n      dup3\n        /* \"#utility.yul\":3695:3729   */\n      gt\n        /* \"#utility.yul\":3692:3754   */\n      or\n        /* \"#utility.yul\":3689:3777   */\n      iszero\n      tag_266\n      jumpi\n        /* \"#utility.yul\":3757:3775   */\n      tag_267\n      tag_187\n      jump\t// in\n    tag_267:\n        /* \"#utility.yul\":3689:3777   */\n    tag_266:\n        /* \"#utility.yul\":3797:3807   */\n      dup1\n        /* \"#utility.yul\":3793:3795   */\n      0x40\n        /* \"#utility.yul\":3786:3808   */\n      mstore\n        /* \"#utility.yul\":3576:3814   */\n      pop\n        /* \"#utility.yul\":3533:3814   */\n      pop\n      pop\n      jump\t// out\n        /* \"#utility.yul\":3820:3949   */\n    tag_189:\n        /* \"#utility.yul\":3854:3860   */\n      0x00\n        /* \"#utility.yul\":3881:3901   */\n      tag_269\n      tag_171\n      jump\t// in\n    tag_269:\n        /* \"#utility.yul\":3871:3901   */\n      swap1\n      pop\n        /* \"#utility.yul\":3910:3943   */\n      tag_270\n        /* \"#utility.yul\":3938:3942   */\n      dup3\n        /* \"#utility.yul\":3930:3936   */\n      dup3\n        /* \"#utility.yul\":3910:3943   */\n      tag_188\n      jump\t// in\n    tag_270:\n        /* \"#utility.yul\":3820:3949   */\n      swap2\n      swap1\n      pop\n      jump\t// out\n        /* \"#utility.yul\":3955:4266   */\n    tag_190:\n        /* \"#utility.yul\":4032:4036   */\n      0x00\n        /* \"#utility.yul\":4122:4140   */\n      0xffffffffffffffff\n        /* \"#utility.yul\":4114:4120   */\n      dup3\n        /* \"#utility.yul\":4111:4141   */\n      gt\n        /* \"#utility.yul\":4108:4164   */\n      iszero\n      tag_272\n      jumpi\n        /* \"#utility.yul\":4144:4162   */\n      tag_273\n      tag_187\n      jump\t// in\n    tag_273:\n        /* \"#utility.yul\":4108:4164   */\n    tag_272:\n        /* \"#utility.yul\":4194:4198   */\n      0x20\n        /* \"#utility.yul\":4186:4192   */\n      dup3\n        /* \"#utility.yul\":4182:4199   */\n      mul\n        /* \"#utility.yul\":4174:4199   */\n      swap1\n      pop\n        /* \"#utility.yul\":4254:4258   */\n      0x20\n        /* \"#utility.yul\":4248:4252   */\n      dup2\n        /* \"#utility.yul\":4244:4259   */\n      add\n        /* \"#utility.yul\":4236:4259   */\n      swap1\n      pop\n        /* \"#utility.yul\":3955:4266   */\n      swap2\n      swap1\n      pop\n      jump\t// out\n        /* \"#utility.yul\":4272:4389   */\n    tag_191:\n        /* \"#utility.yul\":4381:4382   */\n      0x00\n        /* \"#utility.yul\":4378:4379   */\n      dup1\n        /* \"#utility.yul\":4371:4383   */\n      revert\n        /* \"#utility.yul\":4412:5122   */\n    tag_192:\n        /* \"#utility.yul\":4508:4513   */\n      0x00\n        /* \"#utility.yul\":4533:4614   */\n      tag_276\n        /* \"#utility.yul\":4549:4613   */\n      tag_277\n        /* \"#utility.yul\":4606:4612   */\n      dup5\n        /* \"#utility.yul\":4549:4613   */\n      tag_190\n      jump\t// in\n    tag_277:\n        /* \"#utility.yul\":4533:4614   */\n      tag_189\n      jump\t// in\n    tag_276:\n        /* \"#utility.yul\":4524:4614   */\n      swap1\n      pop\n        /* \"#utility.yul\":4634:4639   */\n      dup1\n        /* \"#utility.yul\":4663:4669   */\n      dup4\n        /* \"#utility.yul\":4656:4661   */\n      dup3\n        /* \"#utility.yul\":4649:4670   */\n      mstore\n        /* \"#utility.yul\":4697:4701   */\n      0x20\n        /* \"#utility.yul\":4690:4695   */\n      dup3\n        /* \"#utility.yul\":4686:4702   */\n      add\n        /* \"#utility.yul\":4679:4702   */\n      swap1\n      pop\n        /* \"#utility.yul\":4750:4754   */\n      0x20\n        /* \"#utility.yul\":4742:4748   */\n      dup5\n        /* \"#utility.yul\":4738:4755   */\n      mul\n        /* \"#utility.yul\":4730:4736   */\n      dup4\n        /* \"#utility.yul\":4726:4756   */\n      add\n        /* \"#utility.yul\":4779:4782   */\n      dup6\n        /* \"#utility.yul\":4771:4777   */\n      dup2\n        /* \"#utility.yul\":4768:4783   */\n      gt\n        /* \"#utility.yul\":4765:4887   */\n      iszero\n      tag_278\n      jumpi\n        /* \"#utility.yul\":4798:4877   */\n      tag_279\n      tag_191\n      jump\t// in\n    tag_279:\n        /* \"#utility.yul\":4765:4887   */\n    tag_278:\n        /* \"#utility.yul\":4913:4919   */\n      dup4\n        /* \"#utility.yul\":4896:5116   */\n    tag_280:\n        /* \"#utility.yul\":4930:4936   */\n      dup2\n        /* \"#utility.yul\":4925:4928   */\n      dup2\n        /* \"#utility.yul\":4922:4937   */\n      lt\n        /* \"#utility.yul\":4896:5116   */\n      iszero\n      tag_282\n      jumpi\n        /* \"#utility.yul\":5005:5008   */\n      dup1\n        /* \"#utility.yul\":5034:5071   */\n      tag_283\n        /* \"#utility.yul\":5067:5070   */\n      dup9\n        /* \"#utility.yul\":5055:5065   */\n      dup3\n        /* \"#utility.yul\":5034:5071   */\n      tag_184\n      jump\t// in\n    tag_283:\n        /* \"#utility.yul\":5029:5032   */\n      dup5\n        /* \"#utility.yul\":5022:5072   */\n      mstore\n        /* \"#utility.yul\":5101:5105   */\n      0x20\n        /* \"#utility.yul\":5096:5099   */\n      dup5\n        /* \"#utility.yul\":5092:5106   */\n      add\n        /* \"#utility.yul\":5085:5106   */\n      swap4\n      pop\n        /* \"#utility.yul\":4972:5116   */\n      pop\n        /* \"#utility.yul\":4956:4960   */\n      0x20\n        /* \"#utility.yul\":4951:4954   */\n      dup2\n        /* \"#utility.yul\":4947:4961   */\n      add\n        /* \"#utility.yul\":4940:4961   */\n      swap1\n      pop\n        /* \"#utility.yul\":4896:5116   */\n      jump(tag_280)\n    tag_282:\n        /* \"#utility.yul\":4900:4921   */\n      pop\n        /* \"#utility.yul\":4514:5122   */\n      pop\n      pop\n        /* \"#utility.yul\":4412:5122   */\n      swap4\n      swap3\n      pop\n      pop\n      pop\n      jump\t// out\n        /* \"#utility.yul\":5145:5515   */\n    tag_193:\n        /* \"#utility.yul\":5216:5221   */\n      0x00\n        /* \"#utility.yul\":5265:5268   */\n      dup3\n        /* \"#utility.yul\":5258:5262   */\n      0x1f\n        /* \"#utility.yul\":5250:5256   */\n      dup4\n        /* \"#utility.yul\":5246:5263   */\n      add\n        /* \"#utility.yul\":5242:5269   */\n      slt\n        /* \"#utility.yul\":5232:5354   */\n      tag_285\n      jumpi\n        /* \"#utility.yul\":5273:5352   */\n      tag_286\n      tag_185\n      jump\t// in\n    tag_286:\n        /* \"#utility.yul\":5232:5354   */\n    tag_285:\n        /* \"#utility.yul\":5390:5396   */\n      dup2\n        /* \"#utility.yul\":5377:5397   */\n      calldataload\n        /* \"#utility.yul\":5415:5509   */\n      tag_287\n        /* \"#utility.yul\":5505:5508   */\n      dup5\n        /* \"#utility.yul\":5497:5503   */\n      dup3\n        /* \"#utility.yul\":5490:5494   */\n      0x20\n        /* \"#utility.yul\":5482:5488   */\n      dup7\n        /* \"#utility.yul\":5478:5495   */\n      add\n        /* \"#utility.yul\":5415:5509   */\n      tag_192\n      jump\t// in\n    tag_287:\n        /* \"#utility.yul\":5406:5509   */\n      swap2\n      pop\n        /* \"#utility.yul\":5222:5515   */\n      pop\n        /* \"#utility.yul\":5145:5515   */\n      swap3\n      swap2\n      pop\n      pop\n      jump\t// out\n        /* \"#utility.yul\":5521:6060   */\n    tag_41:\n        /* \"#utility.yul\":5605:5611   */\n      0x00\n        /* \"#utility.yul\":5654:5656   */\n      0x20\n        /* \"#utility.yul\":5642:5651   */\n      dup3\n        /* \"#utility.yul\":5633:5640   */\n      dup5\n        /* \"#utility.yul\":5629:5652   */\n      sub\n        /* \"#utility.yul\":5625:5657   */\n      slt\n        /* \"#utility.yul\":5622:5741   */\n      iszero\n      tag_289\n      jumpi\n        /* \"#utility.yul\":5660:5739   */\n      tag_290\n      tag_172\n      jump\t// in\n    tag_290:\n        /* \"#utility.yul\":5622:5741   */\n    tag_289:\n        /* \"#utility.yul\":5808:5809   */\n      0x00\n        /* \"#utility.yul\":5797:5806   */\n      dup3\n        /* \"#utility.yul\":5793:5810   */\n      add\n        /* \"#utility.yul\":5780:5811   */\n      calldataload\n        /* \"#utility.yul\":5838:5856   */\n      0xffffffffffffffff\n        /* \"#utility.yul\":5830:5836   */\n      dup2\n        /* \"#utility.yul\":5827:5857   */\n      gt\n        /* \"#utility.yul\":5824:5941   */\n      iszero\n      tag_291\n      jumpi\n        /* \"#utility.yul\":5860:5939   */\n      tag_292\n      tag_173\n      jump\t// in\n    tag_292:\n        /* \"#utility.yul\":5824:5941   */\n    tag_291:\n        /* \"#utility.yul\":5965:6043   */\n      tag_293\n        /* \"#utility.yul\":6035:6042   */\n      dup5\n        /* \"#utility.yul\":6026:6032   */\n      dup3\n        /* \"#utility.yul\":6015:6024   */\n      dup6\n        /* \"#utility.yul\":6011:6033   */\n      add\n        /* \"#utility.yul\":5965:6043   */\n      tag_193\n      jump\t// in\n    tag_293:\n        /* \"#utility.yul\":5955:6043   */\n      swap2\n      pop\n        /* \"#utility.yul\":5751:6053   */\n      pop\n        /* \"#utility.yul\":5521:6060   */\n      swap3\n      swap2\n      pop\n      pop\n      jump\t// out\n        /* \"#utility.yul\":6066:6156   */\n    tag_194:\n        /* \"#utility.yul\":6100:6107   */\n      0x00\n        /* \"#utility.yul\":6143:6148   */\n      dup2\n        /* \"#utility.yul\":6136:6149   */\n      iszero\n        /* \"#utility.yul\":6129:6150   */\n      iszero\n        /* \"#utility.yul\":6118:6150   */\n      swap1\n      pop\n        /* \"#utility.yul\":6066:6156   */\n      swap2\n      swap1\n      pop\n      jump\t// out\n        /* \"#utility.yul\":6162:6271   */\n    tag_195:\n        /* \"#utility.yul\":6243:6264   */\n      tag_296\n        /* \"#utility.yul\":6258:6263   */\n      dup2\n        /* \"#utility.yul\":6243:6264   */\n      tag_194\n      jump\t// in\n    tag_296:\n        /* \"#utility.yul\":6238:6241   */\n      dup3\n        /* \"#utility.yul\":6231:6265   */\n      mstore\n        /* \"#utility.yul\":6162:6271   */\n      pop\n      pop\n      jump\t// out\n        /* \"#utility.yul\":6277:6818   */\n    tag_50:\n        /* \"#utility.yul\":6448:6452   */\n      0x00\n        /* \"#utility.yul\":6486:6489   */\n      0x80\n        /* \"#utility.yul\":6475:6484   */\n      dup3\n        /* \"#utility.yul\":6471:6490   */\n      add\n        /* \"#utility.yul\":6463:6490   */\n      swap1\n      pop\n        /* \"#utility.yul\":6500:6571   */\n      tag_298\n        /* \"#utility.yul\":6568:6569   */\n      0x00\n        /* \"#utility.yul\":6557:6566   */\n      dup4\n        /* \"#utility.yul\":6553:6570   */\n      add\n        /* \"#utility.yul\":6544:6550   */\n      dup8\n        /* \"#utility.yul\":6500:6571   */\n      tag_179\n      jump\t// in\n    tag_298:\n        /* \"#utility.yul\":6581:6647   */\n      tag_299\n        /* \"#utility.yul\":6643:6645   */\n      0x20\n        /* \"#utility.yul\":6632:6641   */\n      dup4\n        /* \"#utility.yul\":6628:6646   */\n      add\n        /* \"#utility.yul\":6619:6625   */\n      dup7\n        /* \"#utility.yul\":6581:6647   */\n      tag_195\n      jump\t// in\n    tag_299:\n        /* \"#utility.yul\":6657:6729   */\n      tag_300\n        /* \"#utility.yul\":6725:6727   */\n      0x40\n        /* \"#utility.yul\":6714:6723   */\n      dup4\n        /* \"#utility.yul\":6710:6728   */\n      add\n        /* \"#utility.yul\":6701:6707   */\n      dup6\n        /* \"#utility.yul\":6657:6729   */\n      tag_182\n      jump\t// in\n    tag_300:\n        /* \"#utility.yul\":6739:6811   */\n      tag_301\n        /* \"#utility.yul\":6807:6809   */\n      0x60\n        /* \"#utility.yul\":6796:6805   */\n      dup4\n        /* \"#utility.yul\":6792:6810   */\n      add\n        /* \"#utility.yul\":6783:6789   */\n      dup5\n        /* \"#utility.yul\":6739:6811   */\n      tag_179\n      jump\t// in\n    tag_301:\n        /* \"#utility.yul\":6277:6818   */\n      swap6\n      swap5\n      pop\n      pop\n      pop\n      pop\n      pop\n      jump\t// out\n        /* \"#utility.yul\":6824:7046   */\n    tag_54:\n        /* \"#utility.yul\":6917:6921   */\n      0x00\n        /* \"#utility.yul\":6955:6957   */\n      0x20\n        /* \"#utility.yul\":6944:6953   */\n      dup3\n        /* \"#utility.yul\":6940:6958   */\n      add\n        /* \"#utility.yul\":6932:6958   */\n      swap1\n      pop\n        /* \"#utility.yul\":6968:7039   */\n      tag_303\n        /* \"#utility.yul\":7036:7037   */\n      0x00\n        /* \"#utility.yul\":7025:7034   */\n      dup4\n        /* \"#utility.yul\":7021:7038   */\n      add\n        /* \"#utility.yul\":7012:7018   */\n      dup5\n        /* \"#utility.yul\":6968:7039   */\n      tag_178\n      jump\t// in\n    tag_303:\n        /* \"#utility.yul\":6824:7046   */\n      swap3\n      swap2\n      pop\n      pop\n      jump\t// out\n        /* \"#utility.yul\":7052:7166   */\n    tag_196:\n        /* \"#utility.yul\":7119:7125   */\n      0x00\n        /* \"#utility.yul\":7153:7158   */\n      dup2\n        /* \"#utility.yul\":7147:7159   */\n      mload\n        /* \"#utility.yul\":7137:7159   */\n      swap1\n      pop\n        /* \"#utility.yul\":7052:7166   */\n      swap2\n      swap1\n      pop\n      jump\t// out\n        /* \"#utility.yul\":7172:7356   */\n    tag_197:\n        /* \"#utility.yul\":7271:7282   */\n      0x00\n        /* \"#utility.yul\":7305:7311   */\n      dup3\n        /* \"#utility.yul\":7300:7303   */\n      dup3\n        /* \"#utility.yul\":7293:7312   */\n      mstore\n        /* \"#utility.yul\":7345:7349   */\n      0x20\n        /* \"#utility.yul\":7340:7343   */\n      dup3\n        /* \"#utility.yul\":7336:7350   */\n      add\n        /* \"#utility.yul\":7321:7350   */\n      swap1\n      pop\n        /* \"#utility.yul\":7172:7356   */\n      swap3\n      swap2\n      pop\n      pop\n      jump\t// out\n        /* \"#utility.yul\":7362:7494   */\n    tag_198:\n        /* \"#utility.yul\":7429:7433   */\n      0x00\n        /* \"#utility.yul\":7452:7455   */\n      dup2\n        /* \"#utility.yul\":7444:7455   */\n      swap1\n      pop\n        /* \"#utility.yul\":7482:7486   */\n      0x20\n        /* \"#utility.yul\":7477:7480   */\n      dup3\n        /* \"#utility.yul\":7473:7487   */\n      add\n        /* \"#utility.yul\":7465:7487   */\n      swap1\n      pop\n        /* \"#utility.yul\":7362:7494   */\n      swap2\n      swap1\n      pop\n      jump\t// out\n        /* \"#utility.yul\":7500:7608   */\n    tag_199:\n        /* \"#utility.yul\":7577:7601   */\n      tag_308\n        /* \"#utility.yul\":7595:7600   */\n      dup2\n        /* \"#utility.yul\":7577:7601   */\n      tag_174\n      jump\t// in\n    tag_308:\n        /* \"#utility.yul\":7572:7575   */\n      dup3\n        /* \"#utility.yul\":7565:7602   */\n      mstore\n        /* \"#utility.yul\":7500:7608   */\n      pop\n      pop\n      jump\t// out\n        /* \"#utility.yul\":7614:7793   */\n    tag_200:\n        /* \"#utility.yul\":7683:7693   */\n      0x00\n        /* \"#utility.yul\":7704:7750   */\n      tag_310\n        /* \"#utility.yul\":7746:7749   */\n      dup4\n        /* \"#utility.yul\":7738:7744   */\n      dup4\n        /* \"#utility.yul\":7704:7750   */\n      tag_199\n      jump\t// in\n    tag_310:\n        /* \"#utility.yul\":7782:7786   */\n      0x20\n        /* \"#utility.yul\":7777:7780   */\n      dup4\n        /* \"#utility.yul\":7773:7787   */\n      add\n        /* \"#utility.yul\":7759:7787   */\n      swap1\n      pop\n        /* \"#utility.yul\":7614:7793   */\n      swap3\n      swap2\n      pop\n      pop\n      jump\t// out\n        /* \"#utility.yul\":7799:7912   */\n    tag_201:\n        /* \"#utility.yul\":7869:7873   */\n      0x00\n        /* \"#utility.yul\":7901:7905   */\n      0x20\n        /* \"#utility.yul\":7896:7899   */\n      dup3\n        /* \"#utility.yul\":7892:7906   */\n      add\n        /* \"#utility.yul\":7884:7906   */\n      swap1\n      pop\n        /* \"#utility.yul\":7799:7912   */\n      swap2\n      swap1\n      pop\n      jump\t// out\n        /* \"#utility.yul\":7948:8680   */\n    tag_202:\n        /* \"#utility.yul\":8067:8070   */\n      0x00\n        /* \"#utility.yul\":8096:8150   */\n      tag_313\n        /* \"#utility.yul\":8144:8149   */\n      dup3\n        /* \"#utility.yul\":8096:8150   */\n      tag_196\n      jump\t// in\n    tag_313:\n        /* \"#utility.yul\":8166:8252   */\n      tag_314\n        /* \"#utility.yul\":8245:8251   */\n      dup2\n        /* \"#utility.yul\":8240:8243   */\n      dup6\n        /* \"#utility.yul\":8166:8252   */\n      tag_197\n      jump\t// in\n    tag_314:\n        /* \"#utility.yul\":8159:8252   */\n      swap4\n      pop\n        /* \"#utility.yul\":8276:8332   */\n      tag_315\n        /* \"#utility.yul\":8326:8331   */\n      dup4\n        /* \"#utility.yul\":8276:8332   */\n      tag_198\n      jump\t// in\n    tag_315:\n        /* \"#utility.yul\":8355:8362   */\n      dup1\n        /* \"#utility.yul\":8386:8387   */\n      0x00\n        /* \"#utility.yul\":8371:8655   */\n    tag_316:\n        /* \"#utility.yul\":8396:8402   */\n      dup4\n        /* \"#utility.yul\":8393:8394   */\n      dup2\n        /* \"#utility.yul\":8390:8403   */\n      lt\n        /* \"#utility.yul\":8371:8655   */\n      iszero\n      tag_318\n      jumpi\n        /* \"#utility.yul\":8472:8478   */\n      dup2\n        /* \"#utility.yul\":8466:8479   */\n      mload\n        /* \"#utility.yul\":8499:8562   */\n      tag_319\n        /* \"#utility.yul\":8558:8561   */\n      dup9\n        /* \"#utility.yul\":8543:8556   */\n      dup3\n        /* \"#utility.yul\":8499:8562   */\n      tag_200\n      jump\t// in\n    tag_319:\n        /* \"#utility.yul\":8492:8562   */\n      swap8\n      pop\n        /* \"#utility.yul\":8585:8645   */\n      tag_320\n        /* \"#utility.yul\":8638:8644   */\n      dup4\n        /* \"#utility.yul\":8585:8645   */\n      tag_201\n      jump\t// in\n    tag_320:\n        /* \"#utility.yul\":8575:8645   */\n      swap3\n      pop\n        /* \"#utility.yul\":8431:8655   */\n      pop\n        /* \"#utility.yul\":8418:8419   */\n      0x01\n        /* \"#utility.yul\":8415:8416   */\n      dup2\n        /* \"#utility.yul\":8411:8420   */\n      add\n        /* \"#utility.yul\":8406:8420   */\n      swap1\n      pop\n        /* \"#utility.yul\":8371:8655   */\n      jump(tag_316)\n    tag_318:\n        /* \"#utility.yul\":8375:8389   */\n      pop\n        /* \"#utility.yul\":8671:8674   */\n      dup6\n        /* \"#utility.yul\":8664:8674   */\n      swap4\n      pop\n        /* \"#utility.yul\":8072:8680   */\n      pop\n      pop\n      pop\n        /* \"#utility.yul\":7948:8680   */\n      swap3\n      swap2\n      pop\n      pop\n      jump\t// out\n        /* \"#utility.yul\":8686:9059   */\n    tag_58:\n        /* \"#utility.yul\":8829:8833   */\n      0x00\n        /* \"#utility.yul\":8867:8869   */\n      0x20\n        /* \"#utility.yul\":8856:8865   */\n      dup3\n        /* \"#utility.yul\":8852:8870   */\n      add\n        /* \"#utility.yul\":8844:8870   */\n      swap1\n      pop\n        /* \"#utility.yul\":8916:8925   */\n      dup2\n        /* \"#utility.yul\":8910:8914   */\n      dup2\n        /* \"#utility.yul\":8906:8926   */\n      sub\n        /* \"#utility.yul\":8902:8903   */\n      0x00\n        /* \"#utility.yul\":8891:8900   */\n      dup4\n        /* \"#utility.yul\":8887:8904   */\n      add\n        /* \"#utility.yul\":8880:8927   */\n      mstore\n        /* \"#utility.yul\":8944:9052   */\n      tag_322\n        /* \"#utility.yul\":9047:9051   */\n      dup2\n        /* \"#utility.yul\":9038:9044   */\n      dup5\n        /* \"#utility.yul\":8944:9052   */\n      tag_202\n      jump\t// in\n    tag_322:\n        /* \"#utility.yul\":8936:9052   */\n      swap1\n      pop\n        /* \"#utility.yul\":8686:9059   */\n      swap3\n      swap2\n      pop\n      pop\n      jump\t// out\n        /* \"#utility.yul\":9065:9245   */\n    tag_71:\n        /* \"#utility.yul\":9113:9190   */\n      0x4e487b7100000000000000000000000000000000000000000000000000000000\n        /* \"#utility.yul\":9110:9111   */\n      0x00\n        /* \"#utility.yul\":9103:9191   */\n      mstore\n        /* \"#utility.yul\":9210:9214   */\n      0x32\n        /* \"#utility.yul\":9207:9208   */\n      0x04\n        /* \"#utility.yul\":9200:9215   */\n      mstore\n        /* \"#utility.yul\":9234:9238   */\n      0x24\n        /* \"#utility.yul\":9231:9232   */\n      0x00\n        /* \"#utility.yul\":9224:9239   */\n      revert\n        /* \"#utility.yul\":9251:9420   */\n    tag_203:\n        /* \"#utility.yul\":9335:9346   */\n      0x00\n        /* \"#utility.yul\":9369:9375   */\n      dup3\n        /* \"#utility.yul\":9364:9367   */\n      dup3\n        /* \"#utility.yul\":9357:9376   */\n      mstore\n        /* \"#utility.yul\":9409:9413   */\n      0x20\n        /* \"#utility.yul\":9404:9407   */\n      dup3\n        /* \"#utility.yul\":9400:9414   */\n      add\n        /* \"#utility.yul\":9385:9414   */\n      swap1\n      pop\n        /* \"#utility.yul\":9251:9420   */\n      swap3\n      swap2\n      pop\n      pop\n      jump\t// out\n        /* \"#utility.yul\":9426:9596   */\n    tag_204:\n        /* \"#utility.yul\":9566:9588   */\n      0x686173206e6f20726967687420746f20766f7465000000000000000000000000\n        /* \"#utility.yul\":9562:9563   */\n      0x00\n        /* \"#utility.yul\":9554:9560   */\n      dup3\n        /* \"#utility.yul\":9550:9564   */\n      add\n        /* \"#utility.yul\":9543:9589   */\n      mstore\n        /* \"#utility.yul\":9426:9596   */\n      pop\n      jump\t// out\n        /* \"#utility.yul\":9602:9968   */\n    tag_205:\n        /* \"#utility.yul\":9744:9747   */\n      0x00\n        /* \"#utility.yul\":9765:9832   */\n      tag_327\n        /* \"#utility.yul\":9829:9831   */\n      0x14\n        /* \"#utility.yul\":9824:9827   */\n      dup4\n        /* \"#utility.yul\":9765:9832   */\n      tag_203\n      jump\t// in\n    tag_327:\n        /* \"#utility.yul\":9758:9832   */\n      swap2\n      pop\n        /* \"#utility.yul\":9841:9934   */\n      tag_328\n        /* \"#utility.yul\":9930:9933   */\n      dup3\n        /* \"#utility.yul\":9841:9934   */\n      tag_204\n      jump\t// in\n    tag_328:\n        /* \"#utility.yul\":9959:9961   */\n      0x20\n        /* \"#utility.yul\":9954:9957   */\n      dup3\n        /* \"#utility.yul\":9950:9962   */\n      add\n        /* \"#utility.yul\":9943:9962   */\n      swap1\n      pop\n        /* \"#utility.yul\":9602:9968   */\n      swap2\n      swap1\n      pop\n      jump\t// out\n        /* \"#utility.yul\":9974:10393   */\n    tag_88:\n        /* \"#utility.yul\":10140:10144   */\n      0x00\n        /* \"#utility.yul\":10178:10180   */\n      0x20\n        /* \"#utility.yul\":10167:10176   */\n      dup3\n        /* \"#utility.yul\":10163:10181   */\n      add\n        /* \"#utility.yul\":10155:10181   */\n      swap1\n      pop\n        /* \"#utility.yul\":10227:10236   */\n      dup2\n        /* \"#utility.yul\":10221:10225   */\n      dup2\n        /* \"#utility.yul\":10217:10237   */\n      sub\n        /* \"#utility.yul\":10213:10214   */\n      0x00\n        /* \"#utility.yul\":10202:10211   */\n      dup4\n        /* \"#utility.yul\":10198:10215   */\n      add\n        /* \"#utility.yul\":10191:10238   */\n      mstore\n        /* \"#utility.yul\":10255:10386   */\n      tag_330\n        /* \"#utility.yul\":10381:10385   */\n      dup2\n        /* \"#utility.yul\":10255:10386   */\n      tag_205\n      jump\t// in\n    tag_330:\n        /* \"#utility.yul\":10247:10386   */\n      swap1\n      pop\n        /* \"#utility.yul\":9974:10393   */\n      swap2\n      swap1\n      pop\n      jump\t// out\n        /* \"#utility.yul\":10399:10562   */\n    tag_206:\n        /* \"#utility.yul\":10539:10554   */\n      0x616c726561647920766f74656400000000000000000000000000000000000000\n        /* \"#utility.yul\":10535:10536   */\n      0x00\n        /* \"#utility.yul\":10527:10533   */\n      dup3\n        /* \"#utility.yul\":10523:10537   */\n      add\n        /* \"#utility.yul\":10516:10555   */\n      mstore\n        /* \"#utility.yul\":10399:10562   */\n      pop\n      jump\t// out\n        /* \"#utility.yul\":10568:10934   */\n    tag_207:\n        /* \"#utility.yul\":10710:10713   */\n      0x00\n        /* \"#utility.yul\":10731:10798   */\n      tag_333\n        /* \"#utility.yul\":10795:10797   */\n      0x0d\n        /* \"#utility.yul\":10790:10793   */\n      dup4\n        /* \"#utility.yul\":10731:10798   */\n      tag_203\n      jump\t// in\n    tag_333:\n        /* \"#utility.yul\":10724:10798   */\n      swap2\n      pop\n        /* \"#utility.yul\":10807:10900   */\n      tag_334\n        /* \"#utility.yul\":10896:10899   */\n      dup3\n        /* \"#utility.yul\":10807:10900   */\n      tag_206\n      jump\t// in\n    tag_334:\n        /* \"#utility.yul\":10925:10927   */\n      0x20\n        /* \"#utility.yul\":10920:10923   */\n      dup3\n        /* \"#utility.yul\":10916:10928   */\n      add\n        /* \"#utility.yul\":10909:10928   */\n      swap1\n      pop\n        /* \"#utility.yul\":10568:10934   */\n      swap2\n      swap1\n      pop\n      jump\t// out\n        /* \"#utility.yul\":10940:11359   */\n    tag_91:\n        /* \"#utility.yul\":11106:11110   */\n      0x00\n        /* \"#utility.yul\":11144:11146   */\n      0x20\n        /* \"#utility.yul\":11133:11142   */\n      dup3\n        /* \"#utility.yul\":11129:11147   */\n      add\n        /* \"#utility.yul\":11121:11147   */\n      swap1\n      pop\n        /* \"#utility.yul\":11193:11202   */\n      dup2\n        /* \"#utility.yul\":11187:11191   */\n      dup2\n        /* \"#utility.yul\":11183:11203   */\n      sub\n        /* \"#utility.yul\":11179:11180   */\n      0x00\n        /* \"#utility.yul\":11168:11177   */\n      dup4\n        /* \"#utility.yul\":11164:11181   */\n      add\n        /* \"#utility.yul\":11157:11204   */\n      mstore\n        /* \"#utility.yul\":11221:11352   */\n      tag_336\n        /* \"#utility.yul\":11347:11351   */\n      dup2\n        /* \"#utility.yul\":11221:11352   */\n      tag_207\n      jump\t// in\n    tag_336:\n        /* \"#utility.yul\":11213:11352   */\n      swap1\n      pop\n        /* \"#utility.yul\":10940:11359   */\n      swap2\n      swap1\n      pop\n      jump\t// out\n        /* \"#utility.yul\":11365:11545   */\n    tag_208:\n        /* \"#utility.yul\":11413:11490   */\n      0x4e487b7100000000000000000000000000000000000000000000000000000000\n        /* \"#utility.yul\":11410:11411   */\n      0x00\n        /* \"#utility.yul\":11403:11491   */\n      mstore\n        /* \"#utility.yul\":11510:11514   */\n      0x11\n        /* \"#utility.yul\":11507:11508   */\n      0x04\n        /* \"#utility.yul\":11500:11515   */\n      mstore\n        /* \"#utility.yul\":11534:11538   */\n      0x24\n        /* \"#utility.yul\":11531:11532   */\n      0x00\n        /* \"#utility.yul\":11524:11539   */\n      revert\n        /* \"#utility.yul\":11551:11742   */\n    tag_96:\n        /* \"#utility.yul\":11591:11594   */\n      0x00\n        /* \"#utility.yul\":11610:11630   */\n      tag_339\n        /* \"#utility.yul\":11628:11629   */\n      dup3\n        /* \"#utility.yul\":11610:11630   */\n      tag_174\n      jump\t// in\n    tag_339:\n        /* \"#utility.yul\":11605:11630   */\n      swap2\n      pop\n        /* \"#utility.yul\":11644:11664   */\n      tag_340\n        /* \"#utility.yul\":11662:11663   */\n      dup4\n        /* \"#utility.yul\":11644:11664   */\n      tag_174\n      jump\t// in\n    tag_340:\n        /* \"#utility.yul\":11639:11664   */\n      swap3\n      pop\n        /* \"#utility.yul\":11687:11688   */\n      dup3\n        /* \"#utility.yul\":11684:11685   */\n      dup3\n        /* \"#utility.yul\":11680:11689   */\n      add\n        /* \"#utility.yul\":11673:11689   */\n      swap1\n      pop\n        /* \"#utility.yul\":11708:11711   */\n      dup1\n        /* \"#utility.yul\":11705:11706   */\n      dup3\n        /* \"#utility.yul\":11702:11712   */\n      gt\n        /* \"#utility.yul\":11699:11735   */\n      iszero\n      tag_341\n      jumpi\n        /* \"#utility.yul\":11715:11733   */\n      tag_342\n      tag_208\n      jump\t// in\n    tag_342:\n        /* \"#utility.yul\":11699:11735   */\n    tag_341:\n        /* \"#utility.yul\":11551:11742   */\n      swap3\n      swap2\n      pop\n      pop\n      jump\t// out\n        /* \"#utility.yul\":11748:11923   */\n    tag_209:\n        /* \"#utility.yul\":11888:11915   */\n      0x796f752068617665206e6f20726967746820746f20766f746500000000000000\n        /* \"#utility.yul\":11884:11885   */\n      0x00\n        /* \"#utility.yul\":11876:11882   */\n      dup3\n        /* \"#utility.yul\":11872:11886   */\n      add\n        /* \"#utility.yul\":11865:11916   */\n      mstore\n        /* \"#utility.yul\":11748:11923   */\n      pop\n      jump\t// out\n        /* \"#utility.yul\":11929:12295   */\n    tag_210:\n        /* \"#utility.yul\":12071:12074   */\n      0x00\n        /* \"#utility.yul\":12092:12159   */\n      tag_345\n        /* \"#utility.yul\":12156:12158   */\n      0x19\n        /* \"#utility.yul\":12151:12154   */\n      dup4\n        /* \"#utility.yul\":12092:12159   */\n      tag_203\n      jump\t// in\n    tag_345:\n        /* \"#utility.yul\":12085:12159   */\n      swap2\n      pop\n        /* \"#utility.yul\":12168:12261   */\n      tag_346\n        /* \"#utility.yul\":12257:12260   */\n      dup3\n        /* \"#utility.yul\":12168:12261   */\n      tag_209\n      jump\t// in\n    tag_346:\n        /* \"#utility.yul\":12286:12288   */\n      0x20\n        /* \"#utility.yul\":12281:12284   */\n      dup3\n        /* \"#utility.yul\":12277:12289   */\n      add\n        /* \"#utility.yul\":12270:12289   */\n      swap1\n      pop\n        /* \"#utility.yul\":11929:12295   */\n      swap2\n      swap1\n      pop\n      jump\t// out\n        /* \"#utility.yul\":12301:12720   */\n    tag_102:\n        /* \"#utility.yul\":12467:12471   */\n      0x00\n        /* \"#utility.yul\":12505:12507   */\n      0x20\n        /* \"#utility.yul\":12494:12503   */\n      dup3\n        /* \"#utility.yul\":12490:12508   */\n      add\n        /* \"#utility.yul\":12482:12508   */\n      swap1\n      pop\n        /* \"#utility.yul\":12554:12563   */\n      dup2\n        /* \"#utility.yul\":12548:12552   */\n      dup2\n        /* \"#utility.yul\":12544:12564   */\n      sub\n        /* \"#utility.yul\":12540:12541   */\n      0x00\n        /* \"#utility.yul\":12529:12538   */\n      dup4\n        /* \"#utility.yul\":12525:12542   */\n      add\n        /* \"#utility.yul\":12518:12565   */\n      mstore\n        /* \"#utility.yul\":12582:12713   */\n      tag_348\n        /* \"#utility.yul\":12708:12712   */\n      dup2\n        /* \"#utility.yul\":12582:12713   */\n      tag_210\n      jump\t// in\n    tag_348:\n        /* \"#utility.yul\":12574:12713   */\n      swap1\n      pop\n        /* \"#utility.yul\":12301:12720   */\n      swap2\n      swap1\n      pop\n      jump\t// out\n        /* \"#utility.yul\":12726:12893   */\n    tag_211:\n        /* \"#utility.yul\":12866:12885   */\n      0x796f7520616c726561647920766f746564000000000000000000000000000000\n        /* \"#utility.yul\":12862:12863   */\n      0x00\n        /* \"#utility.yul\":12854:12860   */\n      dup3\n        /* \"#utility.yul\":12850:12864   */\n      add\n        /* \"#utility.yul\":12843:12886   */\n      mstore\n        /* \"#utility.yul\":12726:12893   */\n      pop\n      jump\t// out\n        /* \"#utility.yul\":12899:13265   */\n    tag_212:\n        /* \"#utility.yul\":13041:13044   */\n      0x00\n        /* \"#utility.yul\":13062:13129   */\n      tag_351\n        /* \"#utility.yul\":13126:13128   */\n      0x11\n        /* \"#utility.yul\":13121:13124   */\n      dup4\n        /* \"#utility.yul\":13062:13129   */\n      tag_203\n      jump\t// in\n    tag_351:\n        /* \"#utility.yul\":13055:13129   */\n      swap2\n      pop\n        /* \"#utility.yul\":13138:13231   */\n      tag_352\n        /* \"#utility.yul\":13227:13230   */\n      dup3\n        /* \"#utility.yul\":13138:13231   */\n      tag_211\n      jump\t// in\n    tag_352:\n        /* \"#utility.yul\":13256:13258   */\n      0x20\n        /* \"#utility.yul\":13251:13254   */\n      dup3\n        /* \"#utility.yul\":13247:13259   */\n      add\n        /* \"#utility.yul\":13240:13259   */\n      swap1\n      pop\n        /* \"#utility.yul\":12899:13265   */\n      swap2\n      swap1\n      pop\n      jump\t// out\n        /* \"#utility.yul\":13271:13690   */\n    tag_105:\n        /* \"#utility.yul\":13437:13441   */\n      0x00\n        /* \"#utility.yul\":13475:13477   */\n      0x20\n        /* \"#utility.yul\":13464:13473   */\n      dup3\n        /* \"#utility.yul\":13460:13478   */\n      add\n        /* \"#utility.yul\":13452:13478   */\n      swap1\n      pop\n        /* \"#utility.yul\":13524:13533   */\n      dup2\n        /* \"#utility.yul\":13518:13522   */\n      dup2\n        /* \"#utility.yul\":13514:13534   */\n      sub\n        /* \"#utility.yul\":13510:13511   */\n      0x00\n        /* \"#utility.yul\":13499:13508   */\n      dup4\n        /* \"#utility.yul\":13495:13512   */\n      add\n        /* \"#utility.yul\":13488:13535   */\n      mstore\n        /* \"#utility.yul\":13552:13683   */\n      tag_354\n        /* \"#utility.yul\":13678:13682   */\n      dup2\n        /* \"#utility.yul\":13552:13683   */\n      tag_212\n      jump\t// in\n    tag_354:\n        /* \"#utility.yul\":13544:13683   */\n      swap1\n      pop\n        /* \"#utility.yul\":13271:13690   */\n      swap2\n      swap1\n      pop\n      jump\t// out\n        /* \"#utility.yul\":13696:13875   */\n    tag_213:\n        /* \"#utility.yul\":13836:13867   */\n      0x73656c662d64656c65676174696f6e2069736e277420616c6c6f776564000000\n        /* \"#utility.yul\":13832:13833   */\n      0x00\n        /* \"#utility.yul\":13824:13830   */\n      dup3\n        /* \"#utility.yul\":13820:13834   */\n      add\n        /* \"#utility.yul\":13813:13868   */\n      mstore\n        /* \"#utility.yul\":13696:13875   */\n      pop\n      jump\t// out\n        /* \"#utility.yul\":13881:14247   */\n    tag_214:\n        /* \"#utility.yul\":14023:14026   */\n      0x00\n        /* \"#utility.yul\":14044:14111   */\n      tag_357\n        /* \"#utility.yul\":14108:14110   */\n      0x1d\n        /* \"#utility.yul\":14103:14106   */\n      dup4\n        /* \"#utility.yul\":14044:14111   */\n      tag_203\n      jump\t// in\n    tag_357:\n        /* \"#utility.yul\":14037:14111   */\n      swap2\n      pop\n        /* \"#utility.yul\":14120:14213   */\n      tag_358\n        /* \"#utility.yul\":14209:14212   */\n      dup3\n        /* \"#utility.yul\":14120:14213   */\n      tag_213\n      jump\t// in\n    tag_358:\n        /* \"#utility.yul\":14238:14240   */\n      0x20\n        /* \"#utility.yul\":14233:14236   */\n      dup3\n        /* \"#utility.yul\":14229:14241   */\n      add\n        /* \"#utility.yul\":14222:14241   */\n      swap1\n      pop\n        /* \"#utility.yul\":13881:14247   */\n      swap2\n      swap1\n      pop\n      jump\t// out\n        /* \"#utility.yul\":14253:14672   */\n    tag_108:\n        /* \"#utility.yul\":14419:14423   */\n      0x00\n        /* \"#utility.yul\":14457:14459   */\n      0x20\n        /* \"#utility.yul\":14446:14455   */\n      dup3\n        /* \"#utility.yul\":14442:14460   */\n      add\n        /* \"#utility.yul\":14434:14460   */\n      swap1\n      pop\n        /* \"#utility.yul\":14506:14515   */\n      dup2\n        /* \"#utility.yul\":14500:14504   */\n      dup2\n        /* \"#utility.yul\":14496:14516   */\n      sub\n        /* \"#utility.yul\":14492:14493   */\n      0x00\n        /* \"#utility.yul\":14481:14490   */\n      dup4\n        /* \"#utility.yul\":14477:14494   */\n      add\n        /* \"#utility.yul\":14470:14517   */\n      mstore\n        /* \"#utility.yul\":14534:14665   */\n      tag_360\n        /* \"#utility.yul\":14660:14664   */\n      dup2\n        /* \"#utility.yul\":14534:14665   */\n      tag_214\n      jump\t// in\n    tag_360:\n        /* \"#utility.yul\":14526:14665   */\n      swap1\n      pop\n        /* \"#utility.yul\":14253:14672   */\n      swap2\n      swap1\n      pop\n      jump\t// out\n        /* \"#utility.yul\":14678:14852   */\n    tag_215:\n        /* \"#utility.yul\":14818:14844   */\n      0x466f756e64206c6f6f7020696e2064656c65676174696f6e0000000000000000\n        /* \"#utility.yul\":14814:14815   */\n      0x00\n        /* \"#utility.yul\":14806:14812   */\n      dup3\n        /* \"#utility.yul\":14802:14816   */\n      add\n        /* \"#utility.yul\":14795:14845   */\n      mstore\n        /* \"#utility.yul\":14678:14852   */\n      pop\n      jump\t// out\n        /* \"#utility.yul\":14858:15224   */\n    tag_216:\n        /* \"#utility.yul\":15000:15003   */\n      0x00\n        /* \"#utility.yul\":15021:15088   */\n      tag_363\n        /* \"#utility.yul\":15085:15087   */\n      0x18\n        /* \"#utility.yul\":15080:15083   */\n      dup4\n        /* \"#utility.yul\":15021:15088   */\n      tag_203\n      jump\t// in\n    tag_363:\n        /* \"#utility.yul\":15014:15088   */\n      swap2\n      pop\n        /* \"#utility.yul\":15097:15190   */\n      tag_364\n        /* \"#utility.yul\":15186:15189   */\n      dup3\n        /* \"#utility.yul\":15097:15190   */\n      tag_215\n      jump\t// in\n    tag_364:\n        /* \"#utility.yul\":15215:15217   */\n      0x20\n        /* \"#utility.yul\":15210:15213   */\n      dup3\n        /* \"#utility.yul\":15206:15218   */\n      add\n        /* \"#utility.yul\":15199:15218   */\n      swap1\n      pop\n        /* \"#utility.yul\":14858:15224   */\n      swap2\n      swap1\n      pop\n      jump\t// out\n        /* \"#utility.yul\":15230:15649   */\n    tag_113:\n        /* \"#utility.yul\":15396:15400   */\n      0x00\n        /* \"#utility.yul\":15434:15436   */\n      0x20\n        /* \"#utility.yul\":15423:15432   */\n      dup3\n        /* \"#utility.yul\":15419:15437   */\n      add\n        /* \"#utility.yul\":15411:15437   */\n      swap1\n      pop\n        /* \"#utility.yul\":15483:15492   */\n      dup2\n        /* \"#utility.yul\":15477:15481   */\n      dup2\n        /* \"#utility.yul\":15473:15493   */\n      sub\n        /* \"#utility.yul\":15469:15470   */\n      0x00\n        /* \"#utility.yul\":15458:15467   */\n      dup4\n        /* \"#utility.yul\":15454:15471   */\n      add\n        /* \"#utility.yul\":15447:15494   */\n      mstore\n        /* \"#utility.yul\":15511:15642   */\n      tag_366\n        /* \"#utility.yul\":15637:15641   */\n      dup2\n        /* \"#utility.yul\":15511:15642   */\n      tag_216\n      jump\t// in\n    tag_366:\n        /* \"#utility.yul\":15503:15642   */\n      swap1\n      pop\n        /* \"#utility.yul\":15230:15649   */\n      swap2\n      swap1\n      pop\n      jump\t// out\n        /* \"#utility.yul\":15655:15881   */\n    tag_217:\n        /* \"#utility.yul\":15795:15829   */\n      0x6f6e6c79206368616972706572736f6e2063616e206769766520726967687420\n        /* \"#utility.yul\":15791:15792   */\n      0x00\n        /* \"#utility.yul\":15783:15789   */\n      dup3\n        /* \"#utility.yul\":15779:15793   */\n      add\n        /* \"#utility.yul\":15772:15830   */\n      mstore\n        /* \"#utility.yul\":15864:15873   */\n      0x746f20766f746500000000000000000000000000000000000000000000000000\n        /* \"#utility.yul\":15859:15861   */\n      0x20\n        /* \"#utility.yul\":15851:15857   */\n      dup3\n        /* \"#utility.yul\":15847:15862   */\n      add\n        /* \"#utility.yul\":15840:15874   */\n      mstore\n        /* \"#utility.yul\":15655:15881   */\n      pop\n      jump\t// out\n        /* \"#utility.yul\":15887:16253   */\n    tag_218:\n        /* \"#utility.yul\":16029:16032   */\n      0x00\n        /* \"#utility.yul\":16050:16117   */\n      tag_369\n        /* \"#utility.yul\":16114:16116   */\n      0x27\n        /* \"#utility.yul\":16109:16112   */\n      dup4\n        /* \"#utility.yul\":16050:16117   */\n      tag_203\n      jump\t// in\n    tag_369:\n        /* \"#utility.yul\":16043:16117   */\n      swap2\n      pop\n        /* \"#utility.yul\":16126:16219   */\n      tag_370\n        /* \"#utility.yul\":16215:16218   */\n      dup3\n        /* \"#utility.yul\":16126:16219   */\n      tag_217\n      jump\t// in\n    tag_370:\n        /* \"#utility.yul\":16244:16246   */\n      0x40\n        /* \"#utility.yul\":16239:16242   */\n      dup3\n        /* \"#utility.yul\":16235:16247   */\n      add\n        /* \"#utility.yul\":16228:16247   */\n      swap1\n      pop\n        /* \"#utility.yul\":15887:16253   */\n      swap2\n      swap1\n      pop\n      jump\t// out\n        /* \"#utility.yul\":16259:16678   */\n    tag_136:\n        /* \"#utility.yul\":16425:16429   */\n      0x00\n        /* \"#utility.yul\":16463:16465   */\n      0x20\n        /* \"#utility.yul\":16452:16461   */\n      dup3\n        /* \"#utility.yul\":16448:16466   */\n      add\n        /* \"#utility.yul\":16440:16466   */\n      swap1\n      pop\n        /* \"#utility.yul\":16512:16521   */\n      dup2\n        /* \"#utility.yul\":16506:16510   */\n      dup2\n        /* \"#utility.yul\":16502:16522   */\n      sub\n        /* \"#utility.yul\":16498:16499   */\n      0x00\n        /* \"#utility.yul\":16487:16496   */\n      dup4\n        /* \"#utility.yul\":16483:16500   */\n      add\n        /* \"#utility.yul\":16476:16523   */\n      mstore\n        /* \"#utility.yul\":16540:16671   */\n      tag_372\n        /* \"#utility.yul\":16666:16670   */\n      dup2\n        /* \"#utility.yul\":16540:16671   */\n      tag_218\n      jump\t// in\n    tag_372:\n        /* \"#utility.yul\":16532:16671   */\n      swap1\n      pop\n        /* \"#utility.yul\":16259:16678   */\n      swap2\n      swap1\n      pop\n      jump\t// out\n        /* \"#utility.yul\":16684:16853   */\n    tag_219:\n        /* \"#utility.yul\":16824:16845   */\n      0x566f74657220616c726561647920766f74656400000000000000000000000000\n        /* \"#utility.yul\":16820:16821   */\n      0x00\n        /* \"#utility.yul\":16812:16818   */\n      dup3\n        /* \"#utility.yul\":16808:16822   */\n      add\n        /* \"#utility.yul\":16801:16846   */\n      mstore\n        /* \"#utility.yul\":16684:16853   */\n      pop\n      jump\t// out\n        /* \"#utility.yul\":16859:17225   */\n    tag_220:\n        /* \"#utility.yul\":17001:17004   */\n      0x00\n        /* \"#utility.yul\":17022:17089   */\n      tag_375\n        /* \"#utility.yul\":17086:17088   */\n      0x13\n        /* \"#utility.yul\":17081:17084   */\n      dup4\n        /* \"#utility.yul\":17022:17089   */\n      tag_203\n      jump\t// in\n    tag_375:\n        /* \"#utility.yul\":17015:17089   */\n      swap2\n      pop\n        /* \"#utility.yul\":17098:17191   */\n      tag_376\n        /* \"#utility.yul\":17187:17190   */\n      dup3\n        /* \"#utility.yul\":17098:17191   */\n      tag_219\n      jump\t// in\n    tag_376:\n        /* \"#utility.yul\":17216:17218   */\n      0x20\n        /* \"#utility.yul\":17211:17214   */\n      dup3\n        /* \"#utility.yul\":17207:17219   */\n      add\n        /* \"#utility.yul\":17200:17219   */\n      swap1\n      pop\n        /* \"#utility.yul\":16859:17225   */\n      swap2\n      swap1\n      pop\n      jump\t// out\n        /* \"#utility.yul\":17231:17650   */\n    tag_144:\n        /* \"#utility.yul\":17397:17401   */\n      0x00\n        /* \"#utility.yul\":17435:17437   */\n      0x20\n        /* \"#utility.yul\":17424:17433   */\n      dup3\n        /* \"#utility.yul\":17420:17438   */\n      add\n        /* \"#utility.yul\":17412:17438   */\n      swap1\n      pop\n        /* \"#utility.yul\":17484:17493   */\n      dup2\n        /* \"#utility.yul\":17478:17482   */\n      dup2\n        /* \"#utility.yul\":17474:17494   */\n      sub\n        /* \"#utility.yul\":17470:17471   */\n      0x00\n        /* \"#utility.yul\":17459:17468   */\n      dup4\n        /* \"#utility.yul\":17455:17472   */\n      add\n        /* \"#utility.yul\":17448:17495   */\n      mstore\n        /* \"#utility.yul\":17512:17643   */\n      tag_378\n        /* \"#utility.yul\":17638:17642   */\n      dup2\n        /* \"#utility.yul\":17512:17643   */\n      tag_220\n      jump\t// in\n    tag_378:\n        /* \"#utility.yul\":17504:17643   */\n      swap1\n      pop\n        /* \"#utility.yul\":17231:17650   */\n      swap2\n      swap1\n      pop\n      jump\t// out\n\n    auxdata: 0xa26469706673582212207011308da42e76b3c18f5a64e616c7574590bc7ca7b59d6a117f9593105ae68664736f6c634300081a0033\n}\n",
				"bytecode": {
					"linkReferences": {},
					"object": "608060405234801561000f575f80fd5b50604051611a36380380611a36833981810160405281019061003191906102f2565b335f806101000a81548173ffffffffffffffffffffffffffffffffffffffff021916908373ffffffffffffffffffffffffffffffffffffffff1602179055506001805f805f9054906101000a900473ffffffffffffffffffffffffffffffffffffffff1673ffffffffffffffffffffffffffffffffffffffff1673ffffffffffffffffffffffffffffffffffffffff1681526020019081526020015f205f01819055505f5b815181101561015757600260405180604001604052808484815181106100ff576100fe610339565b5b602002602001015181526020015f815250908060018154018082558091505060019003905f5260205f2090600202015f909190919091505f820151815f015560208201518160010155505080806001019150506100d6565b5050610366565b5f604051905090565b5f80fd5b5f80fd5b5f80fd5b5f601f19601f8301169050919050565b7f4e487b71000000000000000000000000000000000000000000000000000000005f52604160045260245ffd5b6101b982610173565b810181811067ffffffffffffffff821117156101d8576101d7610183565b5b80604052505050565b5f6101ea61015e565b90506101f682826101b0565b919050565b5f67ffffffffffffffff82111561021557610214610183565b5b602082029050602081019050919050565b5f80fd5b5f819050919050565b61023c8161022a565b8114610246575f80fd5b50565b5f8151905061025781610233565b92915050565b5f61026f61026a846101fb565b6101e1565b9050808382526020820190506020840283018581111561029257610291610226565b5b835b818110156102bb57806102a78882610249565b845260208401935050602081019050610294565b5050509392505050565b5f82601f8301126102d9576102d861016f565b5b81516102e984826020860161025d565b91505092915050565b5f6020828403121561030757610306610167565b5b5f82015167ffffffffffffffff8111156103245761032361016b565b5b610330848285016102c5565b91505092915050565b7f4e487b71000000000000000000000000000000000000000000000000000000005f52603260045260245ffd5b6116c3806103735f395ff3fe608060405234801561000f575f80fd5b50600436106100b1575f3560e01c8063716c6cb41161006f578063716c6cb4146101645780639e7b8d6114610180578063a3ec138d1461019c578063e2ba53f0146101cf578063ef788cd5146101ed578063f3219dc41461020b576100b1565b8062e218f1146100b55780630121b93f146100bf578063013cf08b146100db5780632e4176cf1461010c5780635c19a95c1461012a578063609ff1bd14610146575b5f80fd5b6100bd61023b565b005b6100d960048036038101906100d49190610e67565b610331565b005b6100f560048036038101906100f09190610e67565b61046c565b604051610103929190610eb9565b60405180910390f35b61011461049b565b6040516101219190610f1f565b60405180910390f35b610144600480360381019061013f9190610f62565b6104be565b005b61014e610898565b60405161015b9190610f8d565b60405180910390f35b61017e600480360381019061017991906110f6565b610913565b005b61019a60048036038101906101959190610f62565b610af6565b005b6101b660048036038101906101b19190610f62565b610ca1565b6040516101c69493929190611157565b60405180910390f35b6101d7610cf9565b6040516101e4919061119a565b60405180910390f35b6101f5610d29565b604051610202919061126a565b60405180910390f35b61022560048036038101906102209190610e67565b610d7f565b6040516102329190610f8d565b60405180910390f35b5f60035f6102499190610d9f565b5f5b60028054905081101561032d57816002828154811061026d5761026c61128a565b5b905f5260205f2090600202016001015411156102ce57600281815481106102975761029661128a565b5b905f5260205f20906002020160010154915060405180602001604052808281525060039060016102c8929190610dbd565b50610320565b81600282815481106102e3576102e261128a565b5b905f5260205f209060020201600101540361031f57600381908060018154018082558091505060019003905f5260205f20015f90919091909150555b5b808060010191505061024b565b5050565b5f60015f3373ffffffffffffffffffffffffffffffffffffffff1673ffffffffffffffffffffffffffffffffffffffff1681526020019081526020015f2090505f815f0154036103b6576040517f08c379a00000000000000000000000000000000000000000000000000000000081526004016103ad90611311565b60405180910390fd5b806001015f9054906101000a900460ff1615610407576040517f08c379a00000000000000000000000000000000000000000000000000000000081526004016103fe90611379565b60405180910390fd5b6001816001015f6101000a81548160ff021916908315150217905550818160020181905550805f0154600283815481106104445761044361128a565b5b905f5260205f2090600202016001015f82825461046191906113c4565b925050819055505050565b6002818154811061047b575f80fd5b905f5260205f2090600202015f91509050805f0154908060010154905082565b5f8054906101000a900473ffffffffffffffffffffffffffffffffffffffff1681565b5f60015f3373ffffffffffffffffffffffffffffffffffffffff1673ffffffffffffffffffffffffffffffffffffffff1681526020019081526020015f2090505f815f015403610543576040517f08c379a000000000000000000000000000000000000000000000000000000000815260040161053a90611441565b60405180910390fd5b806001015f9054906101000a900460ff1615610594576040517f08c379a000000000000000000000000000000000000000000000000000000000815260040161058b906114a9565b60405180910390fd5b3373ffffffffffffffffffffffffffffffffffffffff168273ffffffffffffffffffffffffffffffffffffffff1614610602576040517f08c379a00000000000000000000000000000000000000000000000000000000081526004016105f990611511565b60405180910390fd5b5b5f73ffffffffffffffffffffffffffffffffffffffff1660015f8473ffffffffffffffffffffffffffffffffffffffff1673ffffffffffffffffffffffffffffffffffffffff1681526020019081526020015f2060010160019054906101000a900473ffffffffffffffffffffffffffffffffffffffff1673ffffffffffffffffffffffffffffffffffffffff161461076c5760015f8373ffffffffffffffffffffffffffffffffffffffff1673ffffffffffffffffffffffffffffffffffffffff1681526020019081526020015f2060010160019054906101000a900473ffffffffffffffffffffffffffffffffffffffff1691503373ffffffffffffffffffffffffffffffffffffffff168273ffffffffffffffffffffffffffffffffffffffff1603610767576040517f08c379a000000000000000000000000000000000000000000000000000000000815260040161075e90611579565b60405180910390fd5b610603565b5f60015f8473ffffffffffffffffffffffffffffffffffffffff1673ffffffffffffffffffffffffffffffffffffffff1681526020019081526020015f2090506001815f015410156107bc575f80fd5b6001826001015f6101000a81548160ff021916908315150217905550828260010160016101000a81548173ffffffffffffffffffffffffffffffffffffffff021916908373ffffffffffffffffffffffffffffffffffffffff160217905550806001015f9054906101000a900460ff161561087657815f0154600282600201548154811061084d5761084c61128a565b5b905f5260205f2090600202016001015f82825461086a91906113c4565b92505081905550610893565b815f0154815f015f82825461088b91906113c4565b925050819055505b505050565b5f805f90505f5b60028054905081101561090e5781600282815481106108c1576108c061128a565b5b905f5260205f20906002020160010154111561090157600281815481106108eb576108ea61128a565b5b905f5260205f2090600202016001015491508092505b808060010191505061089f565b505090565b5f8054906101000a900473ffffffffffffffffffffffffffffffffffffffff1673ffffffffffffffffffffffffffffffffffffffff163373ffffffffffffffffffffffffffffffffffffffff16146109a0576040517f08c379a000000000000000000000000000000000000000000000000000000000815260040161099790611607565b60405180910390fd5b5f5b8151811015610af2575f8282815181106109bf576109be61128a565b5b6020026020010151905060015f8273ffffffffffffffffffffffffffffffffffffffff1673ffffffffffffffffffffffffffffffffffffffff1681526020019081526020015f206001015f9054906101000a900460ff1615610a56576040517f08c379a0000000000000000000000000000000000000000000000000000000008152600401610a4d9061166f565b60405180910390fd5b5f60015f8373ffffffffffffffffffffffffffffffffffffffff1673ffffffffffffffffffffffffffffffffffffffff1681526020019081526020015f205f015414610aa0575f80fd5b6001805f8373ffffffffffffffffffffffffffffffffffffffff1673ffffffffffffffffffffffffffffffffffffffff1681526020019081526020015f205f01819055505080806001019150506109a2565b5050565b5f8054906101000a900473ffffffffffffffffffffffffffffffffffffffff1673ffffffffffffffffffffffffffffffffffffffff163373ffffffffffffffffffffffffffffffffffffffff1614610b83576040517f08c379a0000000000000000000000000000000000000000000000000000000008152600401610b7a90611607565b60405180910390fd5b60015f8273ffffffffffffffffffffffffffffffffffffffff1673ffffffffffffffffffffffffffffffffffffffff1681526020019081526020015f206001015f9054906101000a900460ff1615610c10576040517f08c379a0000000000000000000000000000000000000000000000000000000008152600401610c079061166f565b60405180910390fd5b5f60015f8373ffffffffffffffffffffffffffffffffffffffff1673ffffffffffffffffffffffffffffffffffffffff1681526020019081526020015f205f015414610c5a575f80fd5b6001805f8373ffffffffffffffffffffffffffffffffffffffff1673ffffffffffffffffffffffffffffffffffffffff1681526020019081526020015f205f018190555050565b6001602052805f5260405f205f91509050805f015490806001015f9054906101000a900460ff16908060010160019054906101000a900473ffffffffffffffffffffffffffffffffffffffff16908060020154905084565b5f6002610d04610898565b81548110610d1557610d1461128a565b5b905f5260205f2090600202015f0154905090565b60606003805480602002602001604051908101604052809291908181526020018280548015610d7557602002820191905f5260205f20905b815481526020019060010190808311610d61575b5050505050905090565b60038181548110610d8e575f80fd5b905f5260205f20015f915090505481565b5080545f8255905f5260205f2090810190610dba9190610e08565b50565b828054828255905f5260205f20908101928215610df7579160200282015b82811115610df6578251825591602001919060010190610ddb565b5b509050610e049190610e08565b5090565b5b80821115610e1f575f815f905550600101610e09565b5090565b5f604051905090565b5f80fd5b5f80fd5b5f819050919050565b610e4681610e34565b8114610e50575f80fd5b50565b5f81359050610e6181610e3d565b92915050565b5f60208284031215610e7c57610e7b610e2c565b5b5f610e8984828501610e53565b91505092915050565b5f819050919050565b610ea481610e92565b82525050565b610eb381610e34565b82525050565b5f604082019050610ecc5f830185610e9b565b610ed96020830184610eaa565b9392505050565b5f73ffffffffffffffffffffffffffffffffffffffff82169050919050565b5f610f0982610ee0565b9050919050565b610f1981610eff565b82525050565b5f602082019050610f325f830184610f10565b92915050565b610f4181610eff565b8114610f4b575f80fd5b50565b5f81359050610f5c81610f38565b92915050565b5f60208284031215610f7757610f76610e2c565b5b5f610f8484828501610f4e565b91505092915050565b5f602082019050610fa05f830184610eaa565b92915050565b5f80fd5b5f601f19601f8301169050919050565b7f4e487b71000000000000000000000000000000000000000000000000000000005f52604160045260245ffd5b610ff082610faa565b810181811067ffffffffffffffff8211171561100f5761100e610fba565b5b80604052505050565b5f611021610e23565b905061102d8282610fe7565b919050565b5f67ffffffffffffffff82111561104c5761104b610fba565b5b602082029050602081019050919050565b5f80fd5b5f61107361106e84611032565b611018565b905080838252602082019050602084028301858111156110965761109561105d565b5b835b818110156110bf57806110ab8882610f4e565b845260208401935050602081019050611098565b5050509392505050565b5f82601f8301126110dd576110dc610fa6565b5b81356110ed848260208601611061565b91505092915050565b5f6020828403121561110b5761110a610e2c565b5b5f82013567ffffffffffffffff81111561112857611127610e30565b5b611134848285016110c9565b91505092915050565b5f8115159050919050565b6111518161113d565b82525050565b5f60808201905061116a5f830187610eaa565b6111776020830186611148565b6111846040830185610f10565b6111916060830184610eaa565b95945050505050565b5f6020820190506111ad5f830184610e9b565b92915050565b5f81519050919050565b5f82825260208201905092915050565b5f819050602082019050919050565b6111e581610e34565b82525050565b5f6111f683836111dc565b60208301905092915050565b5f602082019050919050565b5f611218826111b3565b61122281856111bd565b935061122d836111cd565b805f5b8381101561125d57815161124488826111eb565b975061124f83611202565b925050600181019050611230565b5085935050505092915050565b5f6020820190508181035f830152611282818461120e565b905092915050565b7f4e487b71000000000000000000000000000000000000000000000000000000005f52603260045260245ffd5b5f82825260208201905092915050565b7f686173206e6f20726967687420746f20766f74650000000000000000000000005f82015250565b5f6112fb6014836112b7565b9150611306826112c7565b602082019050919050565b5f6020820190508181035f830152611328816112ef565b9050919050565b7f616c726561647920766f746564000000000000000000000000000000000000005f82015250565b5f611363600d836112b7565b915061136e8261132f565b602082019050919050565b5f6020820190508181035f83015261139081611357565b9050919050565b7f4e487b71000000000000000000000000000000000000000000000000000000005f52601160045260245ffd5b5f6113ce82610e34565b91506113d983610e34565b92508282019050808211156113f1576113f0611397565b5b92915050565b7f796f752068617665206e6f20726967746820746f20766f7465000000000000005f82015250565b5f61142b6019836112b7565b9150611436826113f7565b602082019050919050565b5f6020820190508181035f8301526114588161141f565b9050919050565b7f796f7520616c726561647920766f7465640000000000000000000000000000005f82015250565b5f6114936011836112b7565b915061149e8261145f565b602082019050919050565b5f6020820190508181035f8301526114c081611487565b9050919050565b7f73656c662d64656c65676174696f6e2069736e277420616c6c6f7765640000005f82015250565b5f6114fb601d836112b7565b9150611506826114c7565b602082019050919050565b5f6020820190508181035f830152611528816114ef565b9050919050565b7f466f756e64206c6f6f7020696e2064656c65676174696f6e00000000000000005f82015250565b5f6115636018836112b7565b915061156e8261152f565b602082019050919050565b5f6020820190508181035f83015261159081611557565b9050919050565b7f6f6e6c79206368616972706572736f6e2063616e2067697665207269676874205f8201527f746f20766f746500000000000000000000000000000000000000000000000000602082015250565b5f6115f16027836112b7565b91506115fc82611597565b604082019050919050565b5f6020820190508181035f83015261161e816115e5565b9050919050565b7f566f74657220616c726561647920766f746564000000000000000000000000005f82015250565b5f6116596013836112b7565b915061166482611625565b602082019050919050565b5f6020820190508181035f8301526116868161164d565b905091905056fea26469706673582212207011308da42e76b3c18f5a64e616c7574590bc7ca7b59d6a117f9593105ae68664736f6c634300081a0033",
					"opcodes": "PUSH1 0x80 PUSH1 0x40 MSTORE CALLVALUE DUP1 ISZERO PUSH2 0xF JUMPI PUSH0 DUP1 REVERT JUMPDEST POP PUSH1 0x40 MLOAD PUSH2 0x1A36 CODESIZE SUB DUP1 PUSH2 0x1A36 DUP4 CODECOPY DUP2 DUP2 ADD PUSH1 0x40 MSTORE DUP2 ADD SWAP1 PUSH2 0x31 SWAP2 SWAP1 PUSH2 0x2F2 JUMP JUMPDEST CALLER PUSH0 DUP1 PUSH2 0x100 EXP DUP2 SLOAD DUP2 PUSH20 0xFFFFFFFFFFFFFFFFFFFFFFFFFFFFFFFFFFFFFFFF MUL NOT AND SWAP1 DUP4 PUSH20 0xFFFFFFFFFFFFFFFFFFFFFFFFFFFFFFFFFFFFFFFF AND MUL OR SWAP1 SSTORE POP PUSH1 0x1 DUP1 PUSH0 DUP1 PUSH0 SWAP1 SLOAD SWAP1 PUSH2 0x100 EXP SWAP1 DIV PUSH20 0xFFFFFFFFFFFFFFFFFFFFFFFFFFFFFFFFFFFFFFFF AND PUSH20 0xFFFFFFFFFFFFFFFFFFFFFFFFFFFFFFFFFFFFFFFF AND PUSH20 0xFFFFFFFFFFFFFFFFFFFFFFFFFFFFFFFFFFFFFFFF AND DUP2 MSTORE PUSH1 0x20 ADD SWAP1 DUP2 MSTORE PUSH1 0x20 ADD PUSH0 KECCAK256 PUSH0 ADD DUP2 SWAP1 SSTORE POP PUSH0 JUMPDEST DUP2 MLOAD DUP2 LT ISZERO PUSH2 0x157 JUMPI PUSH1 0x2 PUSH1 0x40 MLOAD DUP1 PUSH1 0x40 ADD PUSH1 0x40 MSTORE DUP1 DUP5 DUP5 DUP2 MLOAD DUP2 LT PUSH2 0xFF JUMPI PUSH2 0xFE PUSH2 0x339 JUMP JUMPDEST JUMPDEST PUSH1 0x20 MUL PUSH1 0x20 ADD ADD MLOAD DUP2 MSTORE PUSH1 0x20 ADD PUSH0 DUP2 MSTORE POP SWAP1 DUP1 PUSH1 0x1 DUP2 SLOAD ADD DUP1 DUP3 SSTORE DUP1 SWAP2 POP POP PUSH1 0x1 SWAP1 SUB SWAP1 PUSH0 MSTORE PUSH1 0x20 PUSH0 KECCAK256 SWAP1 PUSH1 0x2 MUL ADD PUSH0 SWAP1 SWAP2 SWAP1 SWAP2 SWAP1 SWAP2 POP PUSH0 DUP3 ADD MLOAD DUP2 PUSH0 ADD SSTORE PUSH1 0x20 DUP3 ADD MLOAD DUP2 PUSH1 0x1 ADD SSTORE POP POP DUP1 DUP1 PUSH1 0x1 ADD SWAP2 POP POP PUSH2 0xD6 JUMP JUMPDEST POP POP PUSH2 0x366 JUMP JUMPDEST PUSH0 PUSH1 0x40 MLOAD SWAP1 POP SWAP1 JUMP JUMPDEST PUSH0 DUP1 REVERT JUMPDEST PUSH0 DUP1 REVERT JUMPDEST PUSH0 DUP1 REVERT JUMPDEST PUSH0 PUSH1 0x1F NOT PUSH1 0x1F DUP4 ADD AND SWAP1 POP SWAP2 SWAP1 POP JUMP JUMPDEST PUSH32 0x4E487B7100000000000000000000000000000000000000000000000000000000 PUSH0 MSTORE PUSH1 0x41 PUSH1 0x4 MSTORE PUSH1 0x24 PUSH0 REVERT JUMPDEST PUSH2 0x1B9 DUP3 PUSH2 0x173 JUMP JUMPDEST DUP2 ADD DUP2 DUP2 LT PUSH8 0xFFFFFFFFFFFFFFFF DUP3 GT OR ISZERO PUSH2 0x1D8 JUMPI PUSH2 0x1D7 PUSH2 0x183 JUMP JUMPDEST JUMPDEST DUP1 PUSH1 0x40 MSTORE POP POP POP JUMP JUMPDEST PUSH0 PUSH2 0x1EA PUSH2 0x15E JUMP JUMPDEST SWAP1 POP PUSH2 0x1F6 DUP3 DUP3 PUSH2 0x1B0 JUMP JUMPDEST SWAP2 SWAP1 POP JUMP JUMPDEST PUSH0 PUSH8 0xFFFFFFFFFFFFFFFF DUP3 GT ISZERO PUSH2 0x215 JUMPI PUSH2 0x214 PUSH2 0x183 JUMP JUMPDEST JUMPDEST PUSH1 0x20 DUP3 MUL SWAP1 POP PUSH1 0x20 DUP2 ADD SWAP1 POP SWAP2 SWAP1 POP JUMP JUMPDEST PUSH0 DUP1 REVERT JUMPDEST PUSH0 DUP2 SWAP1 POP SWAP2 SWAP1 POP JUMP JUMPDEST PUSH2 0x23C DUP2 PUSH2 0x22A JUMP JUMPDEST DUP2 EQ PUSH2 0x246 JUMPI PUSH0 DUP1 REVERT JUMPDEST POP JUMP JUMPDEST PUSH0 DUP2 MLOAD SWAP1 POP PUSH2 0x257 DUP2 PUSH2 0x233 JUMP JUMPDEST SWAP3 SWAP2 POP POP JUMP JUMPDEST PUSH0 PUSH2 0x26F PUSH2 0x26A DUP5 PUSH2 0x1FB JUMP JUMPDEST PUSH2 0x1E1 JUMP JUMPDEST SWAP1 POP DUP1 DUP4 DUP3 MSTORE PUSH1 0x20 DUP3 ADD SWAP1 POP PUSH1 0x20 DUP5 MUL DUP4 ADD DUP6 DUP2 GT ISZERO PUSH2 0x292 JUMPI PUSH2 0x291 PUSH2 0x226 JUMP JUMPDEST JUMPDEST DUP4 JUMPDEST DUP2 DUP2 LT ISZERO PUSH2 0x2BB JUMPI DUP1 PUSH2 0x2A7 DUP9 DUP3 PUSH2 0x249 JUMP JUMPDEST DUP5 MSTORE PUSH1 0x20 DUP5 ADD SWAP4 POP POP PUSH1 0x20 DUP2 ADD SWAP1 POP PUSH2 0x294 JUMP JUMPDEST POP POP POP SWAP4 SWAP3 POP POP POP JUMP JUMPDEST PUSH0 DUP3 PUSH1 0x1F DUP4 ADD SLT PUSH2 0x2D9 JUMPI PUSH2 0x2D8 PUSH2 0x16F JUMP JUMPDEST JUMPDEST DUP2 MLOAD PUSH2 0x2E9 DUP5 DUP3 PUSH1 0x20 DUP7 ADD PUSH2 0x25D JUMP JUMPDEST SWAP2 POP POP SWAP3 SWAP2 POP POP JUMP JUMPDEST PUSH0 PUSH1 0x20 DUP3 DUP5 SUB SLT ISZERO PUSH2 0x307 JUMPI PUSH2 0x306 PUSH2 0x167 JUMP JUMPDEST JUMPDEST PUSH0 DUP3 ADD MLOAD PUSH8 0xFFFFFFFFFFFFFFFF DUP2 GT ISZERO PUSH2 0x324 JUMPI PUSH2 0x323 PUSH2 0x16B JUMP JUMPDEST JUMPDEST PUSH2 0x330 DUP5 DUP3 DUP6 ADD PUSH2 0x2C5 JUMP JUMPDEST SWAP2 POP POP SWAP3 SWAP2 POP POP JUMP JUMPDEST PUSH32 0x4E487B7100000000000000000000000000000000000000000000000000000000 PUSH0 MSTORE PUSH1 0x32 PUSH1 0x4 MSTORE PUSH1 0x24 PUSH0 REVERT JUMPDEST PUSH2 0x16C3 DUP1 PUSH2 0x373 PUSH0 CODECOPY PUSH0 RETURN INVALID PUSH1 0x80 PUSH1 0x40 MSTORE CALLVALUE DUP1 ISZERO PUSH2 0xF JUMPI PUSH0 DUP1 REVERT JUMPDEST POP PUSH1 0x4 CALLDATASIZE LT PUSH2 0xB1 JUMPI PUSH0 CALLDATALOAD PUSH1 0xE0 SHR DUP1 PUSH4 0x716C6CB4 GT PUSH2 0x6F JUMPI DUP1 PUSH4 0x716C6CB4 EQ PUSH2 0x164 JUMPI DUP1 PUSH4 0x9E7B8D61 EQ PUSH2 0x180 JUMPI DUP1 PUSH4 0xA3EC138D EQ PUSH2 0x19C JUMPI DUP1 PUSH4 0xE2BA53F0 EQ PUSH2 0x1CF JUMPI DUP1 PUSH4 0xEF788CD5 EQ PUSH2 0x1ED JUMPI DUP1 PUSH4 0xF3219DC4 EQ PUSH2 0x20B JUMPI PUSH2 0xB1 JUMP JUMPDEST DUP1 PUSH3 0xE218F1 EQ PUSH2 0xB5 JUMPI DUP1 PUSH4 0x121B93F EQ PUSH2 0xBF JUMPI DUP1 PUSH4 0x13CF08B EQ PUSH2 0xDB JUMPI DUP1 PUSH4 0x2E4176CF EQ PUSH2 0x10C JUMPI DUP1 PUSH4 0x5C19A95C EQ PUSH2 0x12A JUMPI DUP1 PUSH4 0x609FF1BD EQ PUSH2 0x146 JUMPI JUMPDEST PUSH0 DUP1 REVERT JUMPDEST PUSH2 0xBD PUSH2 0x23B JUMP JUMPDEST STOP JUMPDEST PUSH2 0xD9 PUSH1 0x4 DUP1 CALLDATASIZE SUB DUP2 ADD SWAP1 PUSH2 0xD4 SWAP2 SWAP1 PUSH2 0xE67 JUMP JUMPDEST PUSH2 0x331 JUMP JUMPDEST STOP JUMPDEST PUSH2 0xF5 PUSH1 0x4 DUP1 CALLDATASIZE SUB DUP2 ADD SWAP1 PUSH2 0xF0 SWAP2 SWAP1 PUSH2 0xE67 JUMP JUMPDEST PUSH2 0x46C JUMP JUMPDEST PUSH1 0x40 MLOAD PUSH2 0x103 SWAP3 SWAP2 SWAP1 PUSH2 0xEB9 JUMP JUMPDEST PUSH1 0x40 MLOAD DUP1 SWAP2 SUB SWAP1 RETURN JUMPDEST PUSH2 0x114 PUSH2 0x49B JUMP JUMPDEST PUSH1 0x40 MLOAD PUSH2 0x121 SWAP2 SWAP1 PUSH2 0xF1F JUMP JUMPDEST PUSH1 0x40 MLOAD DUP1 SWAP2 SUB SWAP1 RETURN JUMPDEST PUSH2 0x144 PUSH1 0x4 DUP1 CALLDATASIZE SUB DUP2 ADD SWAP1 PUSH2 0x13F SWAP2 SWAP1 PUSH2 0xF62 JUMP JUMPDEST PUSH2 0x4BE JUMP JUMPDEST STOP JUMPDEST PUSH2 0x14E PUSH2 0x898 JUMP JUMPDEST PUSH1 0x40 MLOAD PUSH2 0x15B SWAP2 SWAP1 PUSH2 0xF8D JUMP JUMPDEST PUSH1 0x40 MLOAD DUP1 SWAP2 SUB SWAP1 RETURN JUMPDEST PUSH2 0x17E PUSH1 0x4 DUP1 CALLDATASIZE SUB DUP2 ADD SWAP1 PUSH2 0x179 SWAP2 SWAP1 PUSH2 0x10F6 JUMP JUMPDEST PUSH2 0x913 JUMP JUMPDEST STOP JUMPDEST PUSH2 0x19A PUSH1 0x4 DUP1 CALLDATASIZE SUB DUP2 ADD SWAP1 PUSH2 0x195 SWAP2 SWAP1 PUSH2 0xF62 JUMP JUMPDEST PUSH2 0xAF6 JUMP JUMPDEST STOP JUMPDEST PUSH2 0x1B6 PUSH1 0x4 DUP1 CALLDATASIZE SUB DUP2 ADD SWAP1 PUSH2 0x1B1 SWAP2 SWAP1 PUSH2 0xF62 JUMP JUMPDEST PUSH2 0xCA1 JUMP JUMPDEST PUSH1 0x40 MLOAD PUSH2 0x1C6 SWAP5 SWAP4 SWAP3 SWAP2 SWAP1 PUSH2 0x1157 JUMP JUMPDEST PUSH1 0x40 MLOAD DUP1 SWAP2 SUB SWAP1 RETURN JUMPDEST PUSH2 0x1D7 PUSH2 0xCF9 JUMP JUMPDEST PUSH1 0x40 MLOAD PUSH2 0x1E4 SWAP2 SWAP1 PUSH2 0x119A JUMP JUMPDEST PUSH1 0x40 MLOAD DUP1 SWAP2 SUB SWAP1 RETURN JUMPDEST PUSH2 0x1F5 PUSH2 0xD29 JUMP JUMPDEST PUSH1 0x40 MLOAD PUSH2 0x202 SWAP2 SWAP1 PUSH2 0x126A JUMP JUMPDEST PUSH1 0x40 MLOAD DUP1 SWAP2 SUB SWAP1 RETURN JUMPDEST PUSH2 0x225 PUSH1 0x4 DUP1 CALLDATASIZE SUB DUP2 ADD SWAP1 PUSH2 0x220 SWAP2 SWAP1 PUSH2 0xE67 JUMP JUMPDEST PUSH2 0xD7F JUMP JUMPDEST PUSH1 0x40 MLOAD PUSH2 0x232 SWAP2 SWAP1 PUSH2 0xF8D JUMP JUMPDEST PUSH1 0x40 MLOAD DUP1 SWAP2 SUB SWAP1 RETURN JUMPDEST PUSH0 PUSH1 0x3 PUSH0 PUSH2 0x249 SWAP2 SWAP1 PUSH2 0xD9F JUMP JUMPDEST PUSH0 JUMPDEST PUSH1 0x2 DUP1 SLOAD SWAP1 POP DUP2 LT ISZERO PUSH2 0x32D JUMPI DUP2 PUSH1 0x2 DUP3 DUP2 SLOAD DUP2 LT PUSH2 0x26D JUMPI PUSH2 0x26C PUSH2 0x128A JUMP JUMPDEST JUMPDEST SWAP1 PUSH0 MSTORE PUSH1 0x20 PUSH0 KECCAK256 SWAP1 PUSH1 0x2 MUL ADD PUSH1 0x1 ADD SLOAD GT ISZERO PUSH2 0x2CE JUMPI PUSH1 0x2 DUP2 DUP2 SLOAD DUP2 LT PUSH2 0x297 JUMPI PUSH2 0x296 PUSH2 0x128A JUMP JUMPDEST JUMPDEST SWAP1 PUSH0 MSTORE PUSH1 0x20 PUSH0 KECCAK256 SWAP1 PUSH1 0x2 MUL ADD PUSH1 0x1 ADD SLOAD SWAP2 POP PUSH1 0x40 MLOAD DUP1 PUSH1 0x20 ADD PUSH1 0x40 MSTORE DUP1 DUP3 DUP2 MSTORE POP PUSH1 0x3 SWAP1 PUSH1 0x1 PUSH2 0x2C8 SWAP3 SWAP2 SWAP1 PUSH2 0xDBD JUMP JUMPDEST POP PUSH2 0x320 JUMP JUMPDEST DUP2 PUSH1 0x2 DUP3 DUP2 SLOAD DUP2 LT PUSH2 0x2E3 JUMPI PUSH2 0x2E2 PUSH2 0x128A JUMP JUMPDEST JUMPDEST SWAP1 PUSH0 MSTORE PUSH1 0x20 PUSH0 KECCAK256 SWAP1 PUSH1 0x2 MUL ADD PUSH1 0x1 ADD SLOAD SUB PUSH2 0x31F JUMPI PUSH1 0x3 DUP2 SWAP1 DUP1 PUSH1 0x1 DUP2 SLOAD ADD DUP1 DUP3 SSTORE DUP1 SWAP2 POP POP PUSH1 0x1 SWAP1 SUB SWAP1 PUSH0 MSTORE PUSH1 0x20 PUSH0 KECCAK256 ADD PUSH0 SWAP1 SWAP2 SWAP1 SWAP2 SWAP1 SWAP2 POP SSTORE JUMPDEST JUMPDEST DUP1 DUP1 PUSH1 0x1 ADD SWAP2 POP POP PUSH2 0x24B JUMP JUMPDEST POP POP JUMP JUMPDEST PUSH0 PUSH1 0x1 PUSH0 CALLER PUSH20 0xFFFFFFFFFFFFFFFFFFFFFFFFFFFFFFFFFFFFFFFF AND PUSH20 0xFFFFFFFFFFFFFFFFFFFFFFFFFFFFFFFFFFFFFFFF AND DUP2 MSTORE PUSH1 0x20 ADD SWAP1 DUP2 MSTORE PUSH1 0x20 ADD PUSH0 KECCAK256 SWAP1 POP PUSH0 DUP2 PUSH0 ADD SLOAD SUB PUSH2 0x3B6 JUMPI PUSH1 0x40 MLOAD PUSH32 0x8C379A000000000000000000000000000000000000000000000000000000000 DUP2 MSTORE PUSH1 0x4 ADD PUSH2 0x3AD SWAP1 PUSH2 0x1311 JUMP JUMPDEST PUSH1 0x40 MLOAD DUP1 SWAP2 SUB SWAP1 REVERT JUMPDEST DUP1 PUSH1 0x1 ADD PUSH0 SWAP1 SLOAD SWAP1 PUSH2 0x100 EXP SWAP1 DIV PUSH1 0xFF AND ISZERO PUSH2 0x407 JUMPI PUSH1 0x40 MLOAD PUSH32 0x8C379A000000000000000000000000000000000000000000000000000000000 DUP2 MSTORE PUSH1 0x4 ADD PUSH2 0x3FE SWAP1 PUSH2 0x1379 JUMP JUMPDEST PUSH1 0x40 MLOAD DUP1 SWAP2 SUB SWAP1 REVERT JUMPDEST PUSH1 0x1 DUP2 PUSH1 0x1 ADD PUSH0 PUSH2 0x100 EXP DUP2 SLOAD DUP2 PUSH1 0xFF MUL NOT AND SWAP1 DUP4 ISZERO ISZERO MUL OR SWAP1 SSTORE POP DUP2 DUP2 PUSH1 0x2 ADD DUP2 SWAP1 SSTORE POP DUP1 PUSH0 ADD SLOAD PUSH1 0x2 DUP4 DUP2 SLOAD DUP2 LT PUSH2 0x444 JUMPI PUSH2 0x443 PUSH2 0x128A JUMP JUMPDEST JUMPDEST SWAP1 PUSH0 MSTORE PUSH1 0x20 PUSH0 KECCAK256 SWAP1 PUSH1 0x2 MUL ADD PUSH1 0x1 ADD PUSH0 DUP3 DUP3 SLOAD PUSH2 0x461 SWAP2 SWAP1 PUSH2 0x13C4 JUMP JUMPDEST SWAP3 POP POP DUP2 SWAP1 SSTORE POP POP POP JUMP JUMPDEST PUSH1 0x2 DUP2 DUP2 SLOAD DUP2 LT PUSH2 0x47B JUMPI PUSH0 DUP1 REVERT JUMPDEST SWAP1 PUSH0 MSTORE PUSH1 0x20 PUSH0 KECCAK256 SWAP1 PUSH1 0x2 MUL ADD PUSH0 SWAP2 POP SWAP1 POP DUP1 PUSH0 ADD SLOAD SWAP1 DUP1 PUSH1 0x1 ADD SLOAD SWAP1 POP DUP3 JUMP JUMPDEST PUSH0 DUP1 SLOAD SWAP1 PUSH2 0x100 EXP SWAP1 DIV PUSH20 0xFFFFFFFFFFFFFFFFFFFFFFFFFFFFFFFFFFFFFFFF AND DUP2 JUMP JUMPDEST PUSH0 PUSH1 0x1 PUSH0 CALLER PUSH20 0xFFFFFFFFFFFFFFFFFFFFFFFFFFFFFFFFFFFFFFFF AND PUSH20 0xFFFFFFFFFFFFFFFFFFFFFFFFFFFFFFFFFFFFFFFF AND DUP2 MSTORE PUSH1 0x20 ADD SWAP1 DUP2 MSTORE PUSH1 0x20 ADD PUSH0 KECCAK256 SWAP1 POP PUSH0 DUP2 PUSH0 ADD SLOAD SUB PUSH2 0x543 JUMPI PUSH1 0x40 MLOAD PUSH32 0x8C379A000000000000000000000000000000000000000000000000000000000 DUP2 MSTORE PUSH1 0x4 ADD PUSH2 0x53A SWAP1 PUSH2 0x1441 JUMP JUMPDEST PUSH1 0x40 MLOAD DUP1 SWAP2 SUB SWAP1 REVERT JUMPDEST DUP1 PUSH1 0x1 ADD PUSH0 SWAP1 SLOAD SWAP1 PUSH2 0x100 EXP SWAP1 DIV PUSH1 0xFF AND ISZERO PUSH2 0x594 JUMPI PUSH1 0x40 MLOAD PUSH32 0x8C379A000000000000000000000000000000000000000000000000000000000 DUP2 MSTORE PUSH1 0x4 ADD PUSH2 0x58B SWAP1 PUSH2 0x14A9 JUMP JUMPDEST PUSH1 0x40 MLOAD DUP1 SWAP2 SUB SWAP1 REVERT JUMPDEST CALLER PUSH20 0xFFFFFFFFFFFFFFFFFFFFFFFFFFFFFFFFFFFFFFFF AND DUP3 PUSH20 0xFFFFFFFFFFFFFFFFFFFFFFFFFFFFFFFFFFFFFFFF AND EQ PUSH2 0x602 JUMPI PUSH1 0x40 MLOAD PUSH32 0x8C379A000000000000000000000000000000000000000000000000000000000 DUP2 MSTORE PUSH1 0x4 ADD PUSH2 0x5F9 SWAP1 PUSH2 0x1511 JUMP JUMPDEST PUSH1 0x40 MLOAD DUP1 SWAP2 SUB SWAP1 REVERT JUMPDEST JUMPDEST PUSH0 PUSH20 0xFFFFFFFFFFFFFFFFFFFFFFFFFFFFFFFFFFFFFFFF AND PUSH1 0x1 PUSH0 DUP5 PUSH20 0xFFFFFFFFFFFFFFFFFFFFFFFFFFFFFFFFFFFFFFFF AND PUSH20 0xFFFFFFFFFFFFFFFFFFFFFFFFFFFFFFFFFFFFFFFF AND DUP2 MSTORE PUSH1 0x20 ADD SWAP1 DUP2 MSTORE PUSH1 0x20 ADD PUSH0 KECCAK256 PUSH1 0x1 ADD PUSH1 0x1 SWAP1 SLOAD SWAP1 PUSH2 0x100 EXP SWAP1 DIV PUSH20 0xFFFFFFFFFFFFFFFFFFFFFFFFFFFFFFFFFFFFFFFF AND PUSH20 0xFFFFFFFFFFFFFFFFFFFFFFFFFFFFFFFFFFFFFFFF AND EQ PUSH2 0x76C JUMPI PUSH1 0x1 PUSH0 DUP4 PUSH20 0xFFFFFFFFFFFFFFFFFFFFFFFFFFFFFFFFFFFFFFFF AND PUSH20 0xFFFFFFFFFFFFFFFFFFFFFFFFFFFFFFFFFFFFFFFF AND DUP2 MSTORE PUSH1 0x20 ADD SWAP1 DUP2 MSTORE PUSH1 0x20 ADD PUSH0 KECCAK256 PUSH1 0x1 ADD PUSH1 0x1 SWAP1 SLOAD SWAP1 PUSH2 0x100 EXP SWAP1 DIV PUSH20 0xFFFFFFFFFFFFFFFFFFFFFFFFFFFFFFFFFFFFFFFF AND SWAP2 POP CALLER PUSH20 0xFFFFFFFFFFFFFFFFFFFFFFFFFFFFFFFFFFFFFFFF AND DUP3 PUSH20 0xFFFFFFFFFFFFFFFFFFFFFFFFFFFFFFFFFFFFFFFF AND SUB PUSH2 0x767 JUMPI PUSH1 0x40 MLOAD PUSH32 0x8C379A000000000000000000000000000000000000000000000000000000000 DUP2 MSTORE PUSH1 0x4 ADD PUSH2 0x75E SWAP1 PUSH2 0x1579 JUMP JUMPDEST PUSH1 0x40 MLOAD DUP1 SWAP2 SUB SWAP1 REVERT JUMPDEST PUSH2 0x603 JUMP JUMPDEST PUSH0 PUSH1 0x1 PUSH0 DUP5 PUSH20 0xFFFFFFFFFFFFFFFFFFFFFFFFFFFFFFFFFFFFFFFF AND PUSH20 0xFFFFFFFFFFFFFFFFFFFFFFFFFFFFFFFFFFFFFFFF AND DUP2 MSTORE PUSH1 0x20 ADD SWAP1 DUP2 MSTORE PUSH1 0x20 ADD PUSH0 KECCAK256 SWAP1 POP PUSH1 0x1 DUP2 PUSH0 ADD SLOAD LT ISZERO PUSH2 0x7BC JUMPI PUSH0 DUP1 REVERT JUMPDEST PUSH1 0x1 DUP3 PUSH1 0x1 ADD PUSH0 PUSH2 0x100 EXP DUP2 SLOAD DUP2 PUSH1 0xFF MUL NOT AND SWAP1 DUP4 ISZERO ISZERO MUL OR SWAP1 SSTORE POP DUP3 DUP3 PUSH1 0x1 ADD PUSH1 0x1 PUSH2 0x100 EXP DUP2 SLOAD DUP2 PUSH20 0xFFFFFFFFFFFFFFFFFFFFFFFFFFFFFFFFFFFFFFFF MUL NOT AND SWAP1 DUP4 PUSH20 0xFFFFFFFFFFFFFFFFFFFFFFFFFFFFFFFFFFFFFFFF AND MUL OR SWAP1 SSTORE POP DUP1 PUSH1 0x1 ADD PUSH0 SWAP1 SLOAD SWAP1 PUSH2 0x100 EXP SWAP1 DIV PUSH1 0xFF AND ISZERO PUSH2 0x876 JUMPI DUP2 PUSH0 ADD SLOAD PUSH1 0x2 DUP3 PUSH1 0x2 ADD SLOAD DUP2 SLOAD DUP2 LT PUSH2 0x84D JUMPI PUSH2 0x84C PUSH2 0x128A JUMP JUMPDEST JUMPDEST SWAP1 PUSH0 MSTORE PUSH1 0x20 PUSH0 KECCAK256 SWAP1 PUSH1 0x2 MUL ADD PUSH1 0x1 ADD PUSH0 DUP3 DUP3 SLOAD PUSH2 0x86A SWAP2 SWAP1 PUSH2 0x13C4 JUMP JUMPDEST SWAP3 POP POP DUP2 SWAP1 SSTORE POP PUSH2 0x893 JUMP JUMPDEST DUP2 PUSH0 ADD SLOAD DUP2 PUSH0 ADD PUSH0 DUP3 DUP3 SLOAD PUSH2 0x88B SWAP2 SWAP1 PUSH2 0x13C4 JUMP JUMPDEST SWAP3 POP POP DUP2 SWAP1 SSTORE POP JUMPDEST POP POP POP JUMP JUMPDEST PUSH0 DUP1 PUSH0 SWAP1 POP PUSH0 JUMPDEST PUSH1 0x2 DUP1 SLOAD SWAP1 POP DUP2 LT ISZERO PUSH2 0x90E JUMPI DUP2 PUSH1 0x2 DUP3 DUP2 SLOAD DUP2 LT PUSH2 0x8C1 JUMPI PUSH2 0x8C0 PUSH2 0x128A JUMP JUMPDEST JUMPDEST SWAP1 PUSH0 MSTORE PUSH1 0x20 PUSH0 KECCAK256 SWAP1 PUSH1 0x2 MUL ADD PUSH1 0x1 ADD SLOAD GT ISZERO PUSH2 0x901 JUMPI PUSH1 0x2 DUP2 DUP2 SLOAD DUP2 LT PUSH2 0x8EB JUMPI PUSH2 0x8EA PUSH2 0x128A JUMP JUMPDEST JUMPDEST SWAP1 PUSH0 MSTORE PUSH1 0x20 PUSH0 KECCAK256 SWAP1 PUSH1 0x2 MUL ADD PUSH1 0x1 ADD SLOAD SWAP2 POP DUP1 SWAP3 POP JUMPDEST DUP1 DUP1 PUSH1 0x1 ADD SWAP2 POP POP PUSH2 0x89F JUMP JUMPDEST POP POP SWAP1 JUMP JUMPDEST PUSH0 DUP1 SLOAD SWAP1 PUSH2 0x100 EXP SWAP1 DIV PUSH20 0xFFFFFFFFFFFFFFFFFFFFFFFFFFFFFFFFFFFFFFFF AND PUSH20 0xFFFFFFFFFFFFFFFFFFFFFFFFFFFFFFFFFFFFFFFF AND CALLER PUSH20 0xFFFFFFFFFFFFFFFFFFFFFFFFFFFFFFFFFFFFFFFF AND EQ PUSH2 0x9A0 JUMPI PUSH1 0x40 MLOAD PUSH32 0x8C379A000000000000000000000000000000000000000000000000000000000 DUP2 MSTORE PUSH1 0x4 ADD PUSH2 0x997 SWAP1 PUSH2 0x1607 JUMP JUMPDEST PUSH1 0x40 MLOAD DUP1 SWAP2 SUB SWAP1 REVERT JUMPDEST PUSH0 JUMPDEST DUP2 MLOAD DUP2 LT ISZERO PUSH2 0xAF2 JUMPI PUSH0 DUP3 DUP3 DUP2 MLOAD DUP2 LT PUSH2 0x9BF JUMPI PUSH2 0x9BE PUSH2 0x128A JUMP JUMPDEST JUMPDEST PUSH1 0x20 MUL PUSH1 0x20 ADD ADD MLOAD SWAP1 POP PUSH1 0x1 PUSH0 DUP3 PUSH20 0xFFFFFFFFFFFFFFFFFFFFFFFFFFFFFFFFFFFFFFFF AND PUSH20 0xFFFFFFFFFFFFFFFFFFFFFFFFFFFFFFFFFFFFFFFF AND DUP2 MSTORE PUSH1 0x20 ADD SWAP1 DUP2 MSTORE PUSH1 0x20 ADD PUSH0 KECCAK256 PUSH1 0x1 ADD PUSH0 SWAP1 SLOAD SWAP1 PUSH2 0x100 EXP SWAP1 DIV PUSH1 0xFF AND ISZERO PUSH2 0xA56 JUMPI PUSH1 0x40 MLOAD PUSH32 0x8C379A000000000000000000000000000000000000000000000000000000000 DUP2 MSTORE PUSH1 0x4 ADD PUSH2 0xA4D SWAP1 PUSH2 0x166F JUMP JUMPDEST PUSH1 0x40 MLOAD DUP1 SWAP2 SUB SWAP1 REVERT JUMPDEST PUSH0 PUSH1 0x1 PUSH0 DUP4 PUSH20 0xFFFFFFFFFFFFFFFFFFFFFFFFFFFFFFFFFFFFFFFF AND PUSH20 0xFFFFFFFFFFFFFFFFFFFFFFFFFFFFFFFFFFFFFFFF AND DUP2 MSTORE PUSH1 0x20 ADD SWAP1 DUP2 MSTORE PUSH1 0x20 ADD PUSH0 KECCAK256 PUSH0 ADD SLOAD EQ PUSH2 0xAA0 JUMPI PUSH0 DUP1 REVERT JUMPDEST PUSH1 0x1 DUP1 PUSH0 DUP4 PUSH20 0xFFFFFFFFFFFFFFFFFFFFFFFFFFFFFFFFFFFFFFFF AND PUSH20 0xFFFFFFFFFFFFFFFFFFFFFFFFFFFFFFFFFFFFFFFF AND DUP2 MSTORE PUSH1 0x20 ADD SWAP1 DUP2 MSTORE PUSH1 0x20 ADD PUSH0 KECCAK256 PUSH0 ADD DUP2 SWAP1 SSTORE POP POP DUP1 DUP1 PUSH1 0x1 ADD SWAP2 POP POP PUSH2 0x9A2 JUMP JUMPDEST POP POP JUMP JUMPDEST PUSH0 DUP1 SLOAD SWAP1 PUSH2 0x100 EXP SWAP1 DIV PUSH20 0xFFFFFFFFFFFFFFFFFFFFFFFFFFFFFFFFFFFFFFFF AND PUSH20 0xFFFFFFFFFFFFFFFFFFFFFFFFFFFFFFFFFFFFFFFF AND CALLER PUSH20 0xFFFFFFFFFFFFFFFFFFFFFFFFFFFFFFFFFFFFFFFF AND EQ PUSH2 0xB83 JUMPI PUSH1 0x40 MLOAD PUSH32 0x8C379A000000000000000000000000000000000000000000000000000000000 DUP2 MSTORE PUSH1 0x4 ADD PUSH2 0xB7A SWAP1 PUSH2 0x1607 JUMP JUMPDEST PUSH1 0x40 MLOAD DUP1 SWAP2 SUB SWAP1 REVERT JUMPDEST PUSH1 0x1 PUSH0 DUP3 PUSH20 0xFFFFFFFFFFFFFFFFFFFFFFFFFFFFFFFFFFFFFFFF AND PUSH20 0xFFFFFFFFFFFFFFFFFFFFFFFFFFFFFFFFFFFFFFFF AND DUP2 MSTORE PUSH1 0x20 ADD SWAP1 DUP2 MSTORE PUSH1 0x20 ADD PUSH0 KECCAK256 PUSH1 0x1 ADD PUSH0 SWAP1 SLOAD SWAP1 PUSH2 0x100 EXP SWAP1 DIV PUSH1 0xFF AND ISZERO PUSH2 0xC10 JUMPI PUSH1 0x40 MLOAD PUSH32 0x8C379A000000000000000000000000000000000000000000000000000000000 DUP2 MSTORE PUSH1 0x4 ADD PUSH2 0xC07 SWAP1 PUSH2 0x166F JUMP JUMPDEST PUSH1 0x40 MLOAD DUP1 SWAP2 SUB SWAP1 REVERT JUMPDEST PUSH0 PUSH1 0x1 PUSH0 DUP4 PUSH20 0xFFFFFFFFFFFFFFFFFFFFFFFFFFFFFFFFFFFFFFFF AND PUSH20 0xFFFFFFFFFFFFFFFFFFFFFFFFFFFFFFFFFFFFFFFF AND DUP2 MSTORE PUSH1 0x20 ADD SWAP1 DUP2 MSTORE PUSH1 0x20 ADD PUSH0 KECCAK256 PUSH0 ADD SLOAD EQ PUSH2 0xC5A JUMPI PUSH0 DUP1 REVERT JUMPDEST PUSH1 0x1 DUP1 PUSH0 DUP4 PUSH20 0xFFFFFFFFFFFFFFFFFFFFFFFFFFFFFFFFFFFFFFFF AND PUSH20 0xFFFFFFFFFFFFFFFFFFFFFFFFFFFFFFFFFFFFFFFF AND DUP2 MSTORE PUSH1 0x20 ADD SWAP1 DUP2 MSTORE PUSH1 0x20 ADD PUSH0 KECCAK256 PUSH0 ADD DUP2 SWAP1 SSTORE POP POP JUMP JUMPDEST PUSH1 0x1 PUSH1 0x20 MSTORE DUP1 PUSH0 MSTORE PUSH1 0x40 PUSH0 KECCAK256 PUSH0 SWAP2 POP SWAP1 POP DUP1 PUSH0 ADD SLOAD SWAP1 DUP1 PUSH1 0x1 ADD PUSH0 SWAP1 SLOAD SWAP1 PUSH2 0x100 EXP SWAP1 DIV PUSH1 0xFF AND SWAP1 DUP1 PUSH1 0x1 ADD PUSH1 0x1 SWAP1 SLOAD SWAP1 PUSH2 0x100 EXP SWAP1 DIV PUSH20 0xFFFFFFFFFFFFFFFFFFFFFFFFFFFFFFFFFFFFFFFF AND SWAP1 DUP1 PUSH1 0x2 ADD SLOAD SWAP1 POP DUP5 JUMP JUMPDEST PUSH0 PUSH1 0x2 PUSH2 0xD04 PUSH2 0x898 JUMP JUMPDEST DUP2 SLOAD DUP2 LT PUSH2 0xD15 JUMPI PUSH2 0xD14 PUSH2 0x128A JUMP JUMPDEST JUMPDEST SWAP1 PUSH0 MSTORE PUSH1 0x20 PUSH0 KECCAK256 SWAP1 PUSH1 0x2 MUL ADD PUSH0 ADD SLOAD SWAP1 POP SWAP1 JUMP JUMPDEST PUSH1 0x60 PUSH1 0x3 DUP1 SLOAD DUP1 PUSH1 0x20 MUL PUSH1 0x20 ADD PUSH1 0x40 MLOAD SWAP1 DUP2 ADD PUSH1 0x40 MSTORE DUP1 SWAP3 SWAP2 SWAP1 DUP2 DUP2 MSTORE PUSH1 0x20 ADD DUP3 DUP1 SLOAD DUP1 ISZERO PUSH2 0xD75 JUMPI PUSH1 0x20 MUL DUP3 ADD SWAP2 SWAP1 PUSH0 MSTORE PUSH1 0x20 PUSH0 KECCAK256 SWAP1 JUMPDEST DUP2 SLOAD DUP2 MSTORE PUSH1 0x20 ADD SWAP1 PUSH1 0x1 ADD SWAP1 DUP1 DUP4 GT PUSH2 0xD61 JUMPI JUMPDEST POP POP POP POP POP SWAP1 POP SWAP1 JUMP JUMPDEST PUSH1 0x3 DUP2 DUP2 SLOAD DUP2 LT PUSH2 0xD8E JUMPI PUSH0 DUP1 REVERT JUMPDEST SWAP1 PUSH0 MSTORE PUSH1 0x20 PUSH0 KECCAK256 ADD PUSH0 SWAP2 POP SWAP1 POP SLOAD DUP2 JUMP JUMPDEST POP DUP1 SLOAD PUSH0 DUP3 SSTORE SWAP1 PUSH0 MSTORE PUSH1 0x20 PUSH0 KECCAK256 SWAP1 DUP2 ADD SWAP1 PUSH2 0xDBA SWAP2 SWAP1 PUSH2 0xE08 JUMP JUMPDEST POP JUMP JUMPDEST DUP3 DUP1 SLOAD DUP3 DUP3 SSTORE SWAP1 PUSH0 MSTORE PUSH1 0x20 PUSH0 KECCAK256 SWAP1 DUP2 ADD SWAP3 DUP3 ISZERO PUSH2 0xDF7 JUMPI SWAP2 PUSH1 0x20 MUL DUP3 ADD JUMPDEST DUP3 DUP2 GT ISZERO PUSH2 0xDF6 JUMPI DUP3 MLOAD DUP3 SSTORE SWAP2 PUSH1 0x20 ADD SWAP2 SWAP1 PUSH1 0x1 ADD SWAP1 PUSH2 0xDDB JUMP JUMPDEST JUMPDEST POP SWAP1 POP PUSH2 0xE04 SWAP2 SWAP1 PUSH2 0xE08 JUMP JUMPDEST POP SWAP1 JUMP JUMPDEST JUMPDEST DUP1 DUP3 GT ISZERO PUSH2 0xE1F JUMPI PUSH0 DUP2 PUSH0 SWAP1 SSTORE POP PUSH1 0x1 ADD PUSH2 0xE09 JUMP JUMPDEST POP SWAP1 JUMP JUMPDEST PUSH0 PUSH1 0x40 MLOAD SWAP1 POP SWAP1 JUMP JUMPDEST PUSH0 DUP1 REVERT JUMPDEST PUSH0 DUP1 REVERT JUMPDEST PUSH0 DUP2 SWAP1 POP SWAP2 SWAP1 POP JUMP JUMPDEST PUSH2 0xE46 DUP2 PUSH2 0xE34 JUMP JUMPDEST DUP2 EQ PUSH2 0xE50 JUMPI PUSH0 DUP1 REVERT JUMPDEST POP JUMP JUMPDEST PUSH0 DUP2 CALLDATALOAD SWAP1 POP PUSH2 0xE61 DUP2 PUSH2 0xE3D JUMP JUMPDEST SWAP3 SWAP2 POP POP JUMP JUMPDEST PUSH0 PUSH1 0x20 DUP3 DUP5 SUB SLT ISZERO PUSH2 0xE7C JUMPI PUSH2 0xE7B PUSH2 0xE2C JUMP JUMPDEST JUMPDEST PUSH0 PUSH2 0xE89 DUP5 DUP3 DUP6 ADD PUSH2 0xE53 JUMP JUMPDEST SWAP2 POP POP SWAP3 SWAP2 POP POP JUMP JUMPDEST PUSH0 DUP2 SWAP1 POP SWAP2 SWAP1 POP JUMP JUMPDEST PUSH2 0xEA4 DUP2 PUSH2 0xE92 JUMP JUMPDEST DUP3 MSTORE POP POP JUMP JUMPDEST PUSH2 0xEB3 DUP2 PUSH2 0xE34 JUMP JUMPDEST DUP3 MSTORE POP POP JUMP JUMPDEST PUSH0 PUSH1 0x40 DUP3 ADD SWAP1 POP PUSH2 0xECC PUSH0 DUP4 ADD DUP6 PUSH2 0xE9B JUMP JUMPDEST PUSH2 0xED9 PUSH1 0x20 DUP4 ADD DUP5 PUSH2 0xEAA JUMP JUMPDEST SWAP4 SWAP3 POP POP POP JUMP JUMPDEST PUSH0 PUSH20 0xFFFFFFFFFFFFFFFFFFFFFFFFFFFFFFFFFFFFFFFF DUP3 AND SWAP1 POP SWAP2 SWAP1 POP JUMP JUMPDEST PUSH0 PUSH2 0xF09 DUP3 PUSH2 0xEE0 JUMP JUMPDEST SWAP1 POP SWAP2 SWAP1 POP JUMP JUMPDEST PUSH2 0xF19 DUP2 PUSH2 0xEFF JUMP JUMPDEST DUP3 MSTORE POP POP JUMP JUMPDEST PUSH0 PUSH1 0x20 DUP3 ADD SWAP1 POP PUSH2 0xF32 PUSH0 DUP4 ADD DUP5 PUSH2 0xF10 JUMP JUMPDEST SWAP3 SWAP2 POP POP JUMP JUMPDEST PUSH2 0xF41 DUP2 PUSH2 0xEFF JUMP JUMPDEST DUP2 EQ PUSH2 0xF4B JUMPI PUSH0 DUP1 REVERT JUMPDEST POP JUMP JUMPDEST PUSH0 DUP2 CALLDATALOAD SWAP1 POP PUSH2 0xF5C DUP2 PUSH2 0xF38 JUMP JUMPDEST SWAP3 SWAP2 POP POP JUMP JUMPDEST PUSH0 PUSH1 0x20 DUP3 DUP5 SUB SLT ISZERO PUSH2 0xF77 JUMPI PUSH2 0xF76 PUSH2 0xE2C JUMP JUMPDEST JUMPDEST PUSH0 PUSH2 0xF84 DUP5 DUP3 DUP6 ADD PUSH2 0xF4E JUMP JUMPDEST SWAP2 POP POP SWAP3 SWAP2 POP POP JUMP JUMPDEST PUSH0 PUSH1 0x20 DUP3 ADD SWAP1 POP PUSH2 0xFA0 PUSH0 DUP4 ADD DUP5 PUSH2 0xEAA JUMP JUMPDEST SWAP3 SWAP2 POP POP JUMP JUMPDEST PUSH0 DUP1 REVERT JUMPDEST PUSH0 PUSH1 0x1F NOT PUSH1 0x1F DUP4 ADD AND SWAP1 POP SWAP2 SWAP1 POP JUMP JUMPDEST PUSH32 0x4E487B7100000000000000000000000000000000000000000000000000000000 PUSH0 MSTORE PUSH1 0x41 PUSH1 0x4 MSTORE PUSH1 0x24 PUSH0 REVERT JUMPDEST PUSH2 0xFF0 DUP3 PUSH2 0xFAA JUMP JUMPDEST DUP2 ADD DUP2 DUP2 LT PUSH8 0xFFFFFFFFFFFFFFFF DUP3 GT OR ISZERO PUSH2 0x100F JUMPI PUSH2 0x100E PUSH2 0xFBA JUMP JUMPDEST JUMPDEST DUP1 PUSH1 0x40 MSTORE POP POP POP JUMP JUMPDEST PUSH0 PUSH2 0x1021 PUSH2 0xE23 JUMP JUMPDEST SWAP1 POP PUSH2 0x102D DUP3 DUP3 PUSH2 0xFE7 JUMP JUMPDEST SWAP2 SWAP1 POP JUMP JUMPDEST PUSH0 PUSH8 0xFFFFFFFFFFFFFFFF DUP3 GT ISZERO PUSH2 0x104C JUMPI PUSH2 0x104B PUSH2 0xFBA JUMP JUMPDEST JUMPDEST PUSH1 0x20 DUP3 MUL SWAP1 POP PUSH1 0x20 DUP2 ADD SWAP1 POP SWAP2 SWAP1 POP JUMP JUMPDEST PUSH0 DUP1 REVERT JUMPDEST PUSH0 PUSH2 0x1073 PUSH2 0x106E DUP5 PUSH2 0x1032 JUMP JUMPDEST PUSH2 0x1018 JUMP JUMPDEST SWAP1 POP DUP1 DUP4 DUP3 MSTORE PUSH1 0x20 DUP3 ADD SWAP1 POP PUSH1 0x20 DUP5 MUL DUP4 ADD DUP6 DUP2 GT ISZERO PUSH2 0x1096 JUMPI PUSH2 0x1095 PUSH2 0x105D JUMP JUMPDEST JUMPDEST DUP4 JUMPDEST DUP2 DUP2 LT ISZERO PUSH2 0x10BF JUMPI DUP1 PUSH2 0x10AB DUP9 DUP3 PUSH2 0xF4E JUMP JUMPDEST DUP5 MSTORE PUSH1 0x20 DUP5 ADD SWAP4 POP POP PUSH1 0x20 DUP2 ADD SWAP1 POP PUSH2 0x1098 JUMP JUMPDEST POP POP POP SWAP4 SWAP3 POP POP POP JUMP JUMPDEST PUSH0 DUP3 PUSH1 0x1F DUP4 ADD SLT PUSH2 0x10DD JUMPI PUSH2 0x10DC PUSH2 0xFA6 JUMP JUMPDEST JUMPDEST DUP2 CALLDATALOAD PUSH2 0x10ED DUP5 DUP3 PUSH1 0x20 DUP7 ADD PUSH2 0x1061 JUMP JUMPDEST SWAP2 POP POP SWAP3 SWAP2 POP POP JUMP JUMPDEST PUSH0 PUSH1 0x20 DUP3 DUP5 SUB SLT ISZERO PUSH2 0x110B JUMPI PUSH2 0x110A PUSH2 0xE2C JUMP JUMPDEST JUMPDEST PUSH0 DUP3 ADD CALLDATALOAD PUSH8 0xFFFFFFFFFFFFFFFF DUP2 GT ISZERO PUSH2 0x1128 JUMPI PUSH2 0x1127 PUSH2 0xE30 JUMP JUMPDEST JUMPDEST PUSH2 0x1134 DUP5 DUP3 DUP6 ADD PUSH2 0x10C9 JUMP JUMPDEST SWAP2 POP POP SWAP3 SWAP2 POP POP JUMP JUMPDEST PUSH0 DUP2 ISZERO ISZERO SWAP1 POP SWAP2 SWAP1 POP JUMP JUMPDEST PUSH2 0x1151 DUP2 PUSH2 0x113D JUMP JUMPDEST DUP3 MSTORE POP POP JUMP JUMPDEST PUSH0 PUSH1 0x80 DUP3 ADD SWAP1 POP PUSH2 0x116A PUSH0 DUP4 ADD DUP8 PUSH2 0xEAA JUMP JUMPDEST PUSH2 0x1177 PUSH1 0x20 DUP4 ADD DUP7 PUSH2 0x1148 JUMP JUMPDEST PUSH2 0x1184 PUSH1 0x40 DUP4 ADD DUP6 PUSH2 0xF10 JUMP JUMPDEST PUSH2 0x1191 PUSH1 0x60 DUP4 ADD DUP5 PUSH2 0xEAA JUMP JUMPDEST SWAP6 SWAP5 POP POP POP POP POP JUMP JUMPDEST PUSH0 PUSH1 0x20 DUP3 ADD SWAP1 POP PUSH2 0x11AD PUSH0 DUP4 ADD DUP5 PUSH2 0xE9B JUMP JUMPDEST SWAP3 SWAP2 POP POP JUMP JUMPDEST PUSH0 DUP2 MLOAD SWAP1 POP SWAP2 SWAP1 POP JUMP JUMPDEST PUSH0 DUP3 DUP3 MSTORE PUSH1 0x20 DUP3 ADD SWAP1 POP SWAP3 SWAP2 POP POP JUMP JUMPDEST PUSH0 DUP2 SWAP1 POP PUSH1 0x20 DUP3 ADD SWAP1 POP SWAP2 SWAP1 POP JUMP JUMPDEST PUSH2 0x11E5 DUP2 PUSH2 0xE34 JUMP JUMPDEST DUP3 MSTORE POP POP JUMP JUMPDEST PUSH0 PUSH2 0x11F6 DUP4 DUP4 PUSH2 0x11DC JUMP JUMPDEST PUSH1 0x20 DUP4 ADD SWAP1 POP SWAP3 SWAP2 POP POP JUMP JUMPDEST PUSH0 PUSH1 0x20 DUP3 ADD SWAP1 POP SWAP2 SWAP1 POP JUMP JUMPDEST PUSH0 PUSH2 0x1218 DUP3 PUSH2 0x11B3 JUMP JUMPDEST PUSH2 0x1222 DUP2 DUP6 PUSH2 0x11BD JUMP JUMPDEST SWAP4 POP PUSH2 0x122D DUP4 PUSH2 0x11CD JUMP JUMPDEST DUP1 PUSH0 JUMPDEST DUP4 DUP2 LT ISZERO PUSH2 0x125D JUMPI DUP2 MLOAD PUSH2 0x1244 DUP9 DUP3 PUSH2 0x11EB JUMP JUMPDEST SWAP8 POP PUSH2 0x124F DUP4 PUSH2 0x1202 JUMP JUMPDEST SWAP3 POP POP PUSH1 0x1 DUP2 ADD SWAP1 POP PUSH2 0x1230 JUMP JUMPDEST POP DUP6 SWAP4 POP POP POP POP SWAP3 SWAP2 POP POP JUMP JUMPDEST PUSH0 PUSH1 0x20 DUP3 ADD SWAP1 POP DUP2 DUP2 SUB PUSH0 DUP4 ADD MSTORE PUSH2 0x1282 DUP2 DUP5 PUSH2 0x120E JUMP JUMPDEST SWAP1 POP SWAP3 SWAP2 POP POP JUMP JUMPDEST PUSH32 0x4E487B7100000000000000000000000000000000000000000000000000000000 PUSH0 MSTORE PUSH1 0x32 PUSH1 0x4 MSTORE PUSH1 0x24 PUSH0 REVERT JUMPDEST PUSH0 DUP3 DUP3 MSTORE PUSH1 0x20 DUP3 ADD SWAP1 POP SWAP3 SWAP2 POP POP JUMP JUMPDEST PUSH32 0x686173206E6F20726967687420746F20766F7465000000000000000000000000 PUSH0 DUP3 ADD MSTORE POP JUMP JUMPDEST PUSH0 PUSH2 0x12FB PUSH1 0x14 DUP4 PUSH2 0x12B7 JUMP JUMPDEST SWAP2 POP PUSH2 0x1306 DUP3 PUSH2 0x12C7 JUMP JUMPDEST PUSH1 0x20 DUP3 ADD SWAP1 POP SWAP2 SWAP1 POP JUMP JUMPDEST PUSH0 PUSH1 0x20 DUP3 ADD SWAP1 POP DUP2 DUP2 SUB PUSH0 DUP4 ADD MSTORE PUSH2 0x1328 DUP2 PUSH2 0x12EF JUMP JUMPDEST SWAP1 POP SWAP2 SWAP1 POP JUMP JUMPDEST PUSH32 0x616C726561647920766F74656400000000000000000000000000000000000000 PUSH0 DUP3 ADD MSTORE POP JUMP JUMPDEST PUSH0 PUSH2 0x1363 PUSH1 0xD DUP4 PUSH2 0x12B7 JUMP JUMPDEST SWAP2 POP PUSH2 0x136E DUP3 PUSH2 0x132F JUMP JUMPDEST PUSH1 0x20 DUP3 ADD SWAP1 POP SWAP2 SWAP1 POP JUMP JUMPDEST PUSH0 PUSH1 0x20 DUP3 ADD SWAP1 POP DUP2 DUP2 SUB PUSH0 DUP4 ADD MSTORE PUSH2 0x1390 DUP2 PUSH2 0x1357 JUMP JUMPDEST SWAP1 POP SWAP2 SWAP1 POP JUMP JUMPDEST PUSH32 0x4E487B7100000000000000000000000000000000000000000000000000000000 PUSH0 MSTORE PUSH1 0x11 PUSH1 0x4 MSTORE PUSH1 0x24 PUSH0 REVERT JUMPDEST PUSH0 PUSH2 0x13CE DUP3 PUSH2 0xE34 JUMP JUMPDEST SWAP2 POP PUSH2 0x13D9 DUP4 PUSH2 0xE34 JUMP JUMPDEST SWAP3 POP DUP3 DUP3 ADD SWAP1 POP DUP1 DUP3 GT ISZERO PUSH2 0x13F1 JUMPI PUSH2 0x13F0 PUSH2 0x1397 JUMP JUMPDEST JUMPDEST SWAP3 SWAP2 POP POP JUMP JUMPDEST PUSH32 0x796F752068617665206E6F20726967746820746F20766F746500000000000000 PUSH0 DUP3 ADD MSTORE POP JUMP JUMPDEST PUSH0 PUSH2 0x142B PUSH1 0x19 DUP4 PUSH2 0x12B7 JUMP JUMPDEST SWAP2 POP PUSH2 0x1436 DUP3 PUSH2 0x13F7 JUMP JUMPDEST PUSH1 0x20 DUP3 ADD SWAP1 POP SWAP2 SWAP1 POP JUMP JUMPDEST PUSH0 PUSH1 0x20 DUP3 ADD SWAP1 POP DUP2 DUP2 SUB PUSH0 DUP4 ADD MSTORE PUSH2 0x1458 DUP2 PUSH2 0x141F JUMP JUMPDEST SWAP1 POP SWAP2 SWAP1 POP JUMP JUMPDEST PUSH32 0x796F7520616C726561647920766F746564000000000000000000000000000000 PUSH0 DUP3 ADD MSTORE POP JUMP JUMPDEST PUSH0 PUSH2 0x1493 PUSH1 0x11 DUP4 PUSH2 0x12B7 JUMP JUMPDEST SWAP2 POP PUSH2 0x149E DUP3 PUSH2 0x145F JUMP JUMPDEST PUSH1 0x20 DUP3 ADD SWAP1 POP SWAP2 SWAP1 POP JUMP JUMPDEST PUSH0 PUSH1 0x20 DUP3 ADD SWAP1 POP DUP2 DUP2 SUB PUSH0 DUP4 ADD MSTORE PUSH2 0x14C0 DUP2 PUSH2 0x1487 JUMP JUMPDEST SWAP1 POP SWAP2 SWAP1 POP JUMP JUMPDEST PUSH32 0x73656C662D64656C65676174696F6E2069736E277420616C6C6F776564000000 PUSH0 DUP3 ADD MSTORE POP JUMP JUMPDEST PUSH0 PUSH2 0x14FB PUSH1 0x1D DUP4 PUSH2 0x12B7 JUMP JUMPDEST SWAP2 POP PUSH2 0x1506 DUP3 PUSH2 0x14C7 JUMP JUMPDEST PUSH1 0x20 DUP3 ADD SWAP1 POP SWAP2 SWAP1 POP JUMP JUMPDEST PUSH0 PUSH1 0x20 DUP3 ADD SWAP1 POP DUP2 DUP2 SUB PUSH0 DUP4 ADD MSTORE PUSH2 0x1528 DUP2 PUSH2 0x14EF JUMP JUMPDEST SWAP1 POP SWAP2 SWAP1 POP JUMP JUMPDEST PUSH32 0x466F756E64206C6F6F7020696E2064656C65676174696F6E0000000000000000 PUSH0 DUP3 ADD MSTORE POP JUMP JUMPDEST PUSH0 PUSH2 0x1563 PUSH1 0x18 DUP4 PUSH2 0x12B7 JUMP JUMPDEST SWAP2 POP PUSH2 0x156E DUP3 PUSH2 0x152F JUMP JUMPDEST PUSH1 0x20 DUP3 ADD SWAP1 POP SWAP2 SWAP1 POP JUMP JUMPDEST PUSH0 PUSH1 0x20 DUP3 ADD SWAP1 POP DUP2 DUP2 SUB PUSH0 DUP4 ADD MSTORE PUSH2 0x1590 DUP2 PUSH2 0x1557 JUMP JUMPDEST SWAP1 POP SWAP2 SWAP1 POP JUMP JUMPDEST PUSH32 0x6F6E6C79206368616972706572736F6E2063616E206769766520726967687420 PUSH0 DUP3 ADD MSTORE PUSH32 0x746F20766F746500000000000000000000000000000000000000000000000000 PUSH1 0x20 DUP3 ADD MSTORE POP JUMP JUMPDEST PUSH0 PUSH2 0x15F1 PUSH1 0x27 DUP4 PUSH2 0x12B7 JUMP JUMPDEST SWAP2 POP PUSH2 0x15FC DUP3 PUSH2 0x1597 JUMP JUMPDEST PUSH1 0x40 DUP3 ADD SWAP1 POP SWAP2 SWAP1 POP JUMP JUMPDEST PUSH0 PUSH1 0x20 DUP3 ADD SWAP1 POP DUP2 DUP2 SUB PUSH0 DUP4 ADD MSTORE PUSH2 0x161E DUP2 PUSH2 0x15E5 JUMP JUMPDEST SWAP1 POP SWAP2 SWAP1 POP JUMP JUMPDEST PUSH32 0x566F74657220616C726561647920766F74656400000000000000000000000000 PUSH0 DUP3 ADD MSTORE POP JUMP JUMPDEST PUSH0 PUSH2 0x1659 PUSH1 0x13 DUP4 PUSH2 0x12B7 JUMP JUMPDEST SWAP2 POP PUSH2 0x1664 DUP3 PUSH2 0x1625 JUMP JUMPDEST PUSH1 0x20 DUP3 ADD SWAP1 POP SWAP2 SWAP1 POP JUMP JUMPDEST PUSH0 PUSH1 0x20 DUP3 ADD SWAP1 POP DUP2 DUP2 SUB PUSH0 DUP4 ADD MSTORE PUSH2 0x1686 DUP2 PUSH2 0x164D JUMP JUMPDEST SWAP1 POP SWAP2 SWAP1 POP JUMP INVALID LOG2 PUSH5 0x6970667358 0x22 SLT KECCAK256 PUSH17 0x11308DA42E76B3C18F5A64E616C7574590 0xBC PUSH29 0xA7B59D6A117F9593105AE68664736F6C634300081A0033000000000000 "
				},
				"gasEstimates": {
					"creation": {
						"codeDepositCost": "1165400",
						"executionCost": "infinite",
						"totalCost": "infinite"
					},
					"external": {
						"calculateWinningProposals()": "infinite",
						"chairperson()": "2572",
						"delegate(address)": "infinite",
						"getWinningProposals()": "infinite",
						"giveRightToVote(address)": "29308",
						"giveRightToVoteForAll(address[])": "infinite",
						"proposals(uint256)": "infinite",
						"tiedProposals(uint256)": "infinite",
						"vote(uint256)": "infinite",
						"voters(address)": "infinite",
						"winnerName()": "infinite",
						"winningProposal()": "infinite"
					}
				},
				"methodIdentifiers": {
					"calculateWinningProposals()": "00e218f1",
					"chairperson()": "2e4176cf",
					"delegate(address)": "5c19a95c",
					"getWinningProposals()": "ef788cd5",
					"giveRightToVote(address)": "9e7b8d61",
					"giveRightToVoteForAll(address[])": "716c6cb4",
					"proposals(uint256)": "013cf08b",
					"tiedProposals(uint256)": "f3219dc4",
					"vote(uint256)": "0121b93f",
					"voters(address)": "a3ec138d",
					"winnerName()": "e2ba53f0",
					"winningProposal()": "609ff1bd"
				}
			},
			"storageLayout": {
				"storage": [
					{
						"astId": 17,
						"contract": "contracts/voting.sol:Ballot",
						"label": "chairperson",
						"offset": 0,
						"slot": "0",
						"type": "t_address"
					},
					{
						"astId": 22,
						"contract": "contracts/voting.sol:Ballot",
						"label": "voters",
						"offset": 0,
						"slot": "1",
						"type": "t_mapping(t_address,t_struct(Voter)10_storage)"
					},
					{
						"astId": 26,
						"contract": "contracts/voting.sol:Ballot",
						"label": "proposals",
						"offset": 0,
						"slot": "2",
						"type": "t_array(t_struct(Proposals)15_storage)dyn_storage"
					},
					{
						"astId": 385,
						"contract": "contracts/voting.sol:Ballot",
						"label": "tiedProposals",
						"offset": 0,
						"slot": "3",
						"type": "t_array(t_uint256)dyn_storage"
					}
				],
				"types": {
					"t_address": {
						"encoding": "inplace",
						"label": "address",
						"numberOfBytes": "20"
					},
					"t_array(t_struct(Proposals)15_storage)dyn_storage": {
						"base": "t_struct(Proposals)15_storage",
						"encoding": "dynamic_array",
						"label": "struct Ballot.Proposals[]",
						"numberOfBytes": "32"
					},
					"t_array(t_uint256)dyn_storage": {
						"base": "t_uint256",
						"encoding": "dynamic_array",
						"label": "uint256[]",
						"numberOfBytes": "32"
					},
					"t_bool": {
						"encoding": "inplace",
						"label": "bool",
						"numberOfBytes": "1"
					},
					"t_bytes32": {
						"encoding": "inplace",
						"label": "bytes32",
						"numberOfBytes": "32"
					},
					"t_mapping(t_address,t_struct(Voter)10_storage)": {
						"encoding": "mapping",
						"key": "t_address",
						"label": "mapping(address => struct Ballot.Voter)",
						"numberOfBytes": "32",
						"value": "t_struct(Voter)10_storage"
					},
					"t_struct(Proposals)15_storage": {
						"encoding": "inplace",
						"label": "struct Ballot.Proposals",
						"members": [
							{
								"astId": 12,
								"contract": "contracts/voting.sol:Ballot",
								"label": "name",
								"offset": 0,
								"slot": "0",
								"type": "t_bytes32"
							},
							{
								"astId": 14,
								"contract": "contracts/voting.sol:Ballot",
								"label": "voteCount",
								"offset": 0,
								"slot": "1",
								"type": "t_uint256"
							}
						],
						"numberOfBytes": "64"
					},
					"t_struct(Voter)10_storage": {
						"encoding": "inplace",
						"label": "struct Ballot.Voter",
						"members": [
							{
								"astId": 3,
								"contract": "contracts/voting.sol:Ballot",
								"label": "weight",
								"offset": 0,
								"slot": "0",
								"type": "t_uint256"
							},
							{
								"astId": 5,
								"contract": "contracts/voting.sol:Ballot",
								"label": "voted",
								"offset": 0,
								"slot": "1",
								"type": "t_bool"
							},
							{
								"astId": 7,
								"contract": "contracts/voting.sol:Ballot",
								"label": "delegate",
								"offset": 1,
								"slot": "1",
								"type": "t_address"
							},
							{
								"astId": 9,
								"contract": "contracts/voting.sol:Ballot",
								"label": "vote",
								"offset": 0,
								"slot": "2",
								"type": "t_uint256"
							}
						],
						"numberOfBytes": "96"
					},
					"t_uint256": {
						"encoding": "inplace",
						"label": "uint256",
						"numberOfBytes": "32"
					}
				}
			},
			"userdoc": {
				"kind": "user",
				"methods": {},
				"version": 1
			}
		}
	}
}