{
	"contracts/voting.sol": {
		"Ballot": {
			"abi": [
				{
					"inputs": [
						{
							"internalType": "bytes32[]",
							"name": "proposalNames",
							"type": "bytes32[]"
						}
					],
					"stateMutability": "nonpayable",
					"type": "constructor"
				},
				{
					"inputs": [],
					"name": "chairperson",
					"outputs": [
						{
							"internalType": "address",
							"name": "",
							"type": "address"
						}
					],
					"stateMutability": "view",
					"type": "function"
				},
				{
					"inputs": [
						{
							"internalType": "address",
							"name": "to",
							"type": "address"
						}
					],
					"name": "delegate",
					"outputs": [],
					"stateMutability": "nonpayable",
					"type": "function"
				},
				{
					"inputs": [
						{
							"internalType": "address",
							"name": "voter",
							"type": "address"
						}
					],
					"name": "giveRightToVote",
					"outputs": [],
					"stateMutability": "nonpayable",
					"type": "function"
				},
				{
					"inputs": [
						{
							"internalType": "address[]",
							"name": "voterAdress",
							"type": "address[]"
						}
					],
					"name": "giveRightToVoteForAll",
					"outputs": [],
					"stateMutability": "nonpayable",
					"type": "function"
				},
				{
					"inputs": [
						{
							"internalType": "uint256",
							"name": "",
							"type": "uint256"
						}
					],
					"name": "proposals",
					"outputs": [
						{
							"internalType": "bytes32",
							"name": "name",
							"type": "bytes32"
						},
						{
							"internalType": "uint256",
							"name": "voteCount",
							"type": "uint256"
						}
					],
					"stateMutability": "view",
					"type": "function"
				},
				{
					"inputs": [
						{
							"internalType": "uint256",
							"name": "proposal",
							"type": "uint256"
						}
					],
					"name": "vote",
					"outputs": [],
					"stateMutability": "nonpayable",
					"type": "function"
				},
				{
					"inputs": [
						{
							"internalType": "address",
							"name": "",
							"type": "address"
						}
					],
					"name": "voters",
					"outputs": [
						{
							"internalType": "uint256",
							"name": "weight",
							"type": "uint256"
						},
						{
							"internalType": "bool",
							"name": "voted",
							"type": "bool"
						},
						{
							"internalType": "address",
							"name": "delegate",
							"type": "address"
						},
						{
							"internalType": "uint256",
							"name": "vote",
							"type": "uint256"
						}
					],
					"stateMutability": "view",
					"type": "function"
				},
				{
					"inputs": [],
					"name": "winnerName",
					"outputs": [
						{
							"internalType": "bytes32",
							"name": "winnerName_",
							"type": "bytes32"
						}
					],
					"stateMutability": "view",
					"type": "function"
				},
				{
					"inputs": [],
					"name": "winningProposal",
					"outputs": [
						{
							"internalType": "uint256",
							"name": "winningProposal_",
							"type": "uint256"
						}
					],
					"stateMutability": "view",
					"type": "function"
				}
			],
			"devdoc": {
				"kind": "dev",
				"methods": {},
				"version": 1
			},
			"evm": {
				"assembly": "    /* \"contracts/voting.sol\":69:3239  contract Ballot {... */\n  mstore(0x40, 0x80)\n    /* \"contracts/voting.sol\":392:697  constructor(bytes32[] memory proposalNames) {... */\n  callvalue\n  dup1\n  iszero\n  tag_1\n  jumpi\n  0x00\n  dup1\n  revert\ntag_1:\n  pop\n  mload(0x40)\n  sub(codesize, bytecodeSize)\n  dup1\n  bytecodeSize\n  dup4\n  codecopy\n  dup2\n  dup2\n  add\n  0x40\n  mstore\n  dup2\n  add\n  swap1\n  tag_2\n  swap2\n  swap1\n  tag_3\n  jump\t// in\ntag_2:\n    /* \"contracts/voting.sol\":460:470  msg.sender */\n  caller\n    /* \"contracts/voting.sol\":446:457  chairperson */\n  0x00\n  dup1\n    /* \"contracts/voting.sol\":446:470  chairperson = msg.sender */\n  0x0100\n  exp\n  dup2\n  sload\n  dup2\n  0xffffffffffffffffffffffffffffffffffffffff\n  mul\n  not\n  and\n  swap1\n  dup4\n  0xffffffffffffffffffffffffffffffffffffffff\n  and\n  mul\n  or\n  swap1\n  sstore\n  pop\n    /* \"contracts/voting.sol\":509:510  1 */\n  0x01\n    /* \"contracts/voting.sol\":480:486  voters */\n  dup1\n    /* \"contracts/voting.sol\":480:499  voters[chairperson] */\n  0x00\n    /* \"contracts/voting.sol\":487:498  chairperson */\n  dup1\n  0x00\n  swap1\n  sload\n  swap1\n  0x0100\n  exp\n  swap1\n  div\n  0xffffffffffffffffffffffffffffffffffffffff\n  and\n    /* \"contracts/voting.sol\":480:499  voters[chairperson] */\n  0xffffffffffffffffffffffffffffffffffffffff\n  and\n  0xffffffffffffffffffffffffffffffffffffffff\n  and\n  dup2\n  mstore\n  0x20\n  add\n  swap1\n  dup2\n  mstore\n  0x20\n  add\n  0x00\n  keccak256\n    /* \"contracts/voting.sol\":480:506  voters[chairperson].weight */\n  0x00\n  add\n    /* \"contracts/voting.sol\":480:510  voters[chairperson].weight = 1 */\n  dup2\n  swap1\n  sstore\n  pop\n    /* \"contracts/voting.sol\":525:531  uint i */\n  0x00\n    /* \"contracts/voting.sol\":521:691  for(uint i = 0; i < proposalNames.length; i++) {... */\ntag_6:\n    /* \"contracts/voting.sol\":541:554  proposalNames */\n  dup2\n    /* \"contracts/voting.sol\":541:561  proposalNames.length */\n  mload\n    /* \"contracts/voting.sol\":537:538  i */\n  dup2\n    /* \"contracts/voting.sol\":537:561  i < proposalNames.length */\n  lt\n    /* \"contracts/voting.sol\":521:691  for(uint i = 0; i < proposalNames.length; i++) {... */\n  iszero\n  tag_7\n  jumpi\n    /* \"contracts/voting.sol\":582:591  proposals */\n  0x02\n    /* \"contracts/voting.sol\":597:679  Proposals({... */\n  mload(0x40)\n  dup1\n  0x40\n  add\n  0x40\n  mstore\n  dup1\n    /* \"contracts/voting.sol\":631:644  proposalNames */\n  dup5\n    /* \"contracts/voting.sol\":645:646  i */\n  dup5\n    /* \"contracts/voting.sol\":631:647  proposalNames[i] */\n  dup2\n  mload\n  dup2\n  lt\n  tag_9\n  jumpi\n  tag_10\n  tag_11\n  jump\t// in\ntag_10:\ntag_9:\n  0x20\n  mul\n  0x20\n  add\n  add\n  mload\n    /* \"contracts/voting.sol\":597:679  Proposals({... */\n  dup2\n  mstore\n  0x20\n  add\n    /* \"contracts/voting.sol\":676:677  0 */\n  0x00\n    /* \"contracts/voting.sol\":597:679  Proposals({... */\n  dup2\n  mstore\n  pop\n    /* \"contracts/voting.sol\":582:680  proposals.push(Proposals({... */\n  swap1\n  dup1\n  0x01\n  dup2\n  sload\n  add\n  dup1\n  dup3\n  sstore\n  dup1\n  swap2\n  pop\n  pop\n  0x01\n  swap1\n  sub\n  swap1\n  0x00\n  mstore\n  keccak256(0x00, 0x20)\n  swap1\n  0x02\n  mul\n  add\n  0x00\n  swap1\n  swap2\n  swap1\n  swap2\n  swap1\n  swap2\n  pop\n  0x00\n  dup3\n  add\n  mload\n  dup2\n  0x00\n  add\n  sstore\n  0x20\n  dup3\n  add\n  mload\n  dup2\n  0x01\n  add\n  sstore\n  pop\n  pop\n    /* \"contracts/voting.sol\":563:566  i++ */\n  dup1\n  dup1\n  0x01\n  add\n  swap2\n  pop\n  pop\n    /* \"contracts/voting.sol\":521:691  for(uint i = 0; i < proposalNames.length; i++) {... */\n  jump(tag_6)\ntag_7:\n  pop\n    /* \"contracts/voting.sol\":392:697  constructor(bytes32[] memory proposalNames) {... */\n  pop\n    /* \"contracts/voting.sol\":69:3239  contract Ballot {... */\n  jump(tag_13)\n    /* \"#utility.yul\":7:82   */\ntag_14:\n    /* \"#utility.yul\":40:46   */\n  0x00\n    /* \"#utility.yul\":73:75   */\n  0x40\n    /* \"#utility.yul\":67:76   */\n  mload\n    /* \"#utility.yul\":57:76   */\n  swap1\n  pop\n    /* \"#utility.yul\":7:82   */\n  swap1\n  jump\t// out\n    /* \"#utility.yul\":88:205   */\ntag_15:\n    /* \"#utility.yul\":197:198   */\n  0x00\n    /* \"#utility.yul\":194:195   */\n  dup1\n    /* \"#utility.yul\":187:199   */\n  revert\n    /* \"#utility.yul\":211:328   */\ntag_16:\n    /* \"#utility.yul\":320:321   */\n  0x00\n    /* \"#utility.yul\":317:318   */\n  dup1\n    /* \"#utility.yul\":310:322   */\n  revert\n    /* \"#utility.yul\":334:451   */\ntag_17:\n    /* \"#utility.yul\":443:444   */\n  0x00\n    /* \"#utility.yul\":440:441   */\n  dup1\n    /* \"#utility.yul\":433:445   */\n  revert\n    /* \"#utility.yul\":457:559   */\ntag_18:\n    /* \"#utility.yul\":498:504   */\n  0x00\n    /* \"#utility.yul\":549:551   */\n  0x1f\n    /* \"#utility.yul\":545:552   */\n  not\n    /* \"#utility.yul\":540:542   */\n  0x1f\n    /* \"#utility.yul\":533:538   */\n  dup4\n    /* \"#utility.yul\":529:543   */\n  add\n    /* \"#utility.yul\":525:553   */\n  and\n    /* \"#utility.yul\":515:553   */\n  swap1\n  pop\n    /* \"#utility.yul\":457:559   */\n  swap2\n  swap1\n  pop\n  jump\t// out\n    /* \"#utility.yul\":565:745   */\ntag_19:\n    /* \"#utility.yul\":613:690   */\n  0x4e487b7100000000000000000000000000000000000000000000000000000000\n    /* \"#utility.yul\":610:611   */\n  0x00\n    /* \"#utility.yul\":603:691   */\n  mstore\n    /* \"#utility.yul\":710:714   */\n  0x41\n    /* \"#utility.yul\":707:708   */\n  0x04\n    /* \"#utility.yul\":700:715   */\n  mstore\n    /* \"#utility.yul\":734:738   */\n  0x24\n    /* \"#utility.yul\":731:732   */\n  0x00\n    /* \"#utility.yul\":724:739   */\n  revert\n    /* \"#utility.yul\":751:1032   */\ntag_20:\n    /* \"#utility.yul\":834:861   */\n  tag_37\n    /* \"#utility.yul\":856:860   */\n  dup3\n    /* \"#utility.yul\":834:861   */\n  tag_18\n  jump\t// in\ntag_37:\n    /* \"#utility.yul\":826:832   */\n  dup2\n    /* \"#utility.yul\":822:862   */\n  add\n    /* \"#utility.yul\":964:970   */\n  dup2\n    /* \"#utility.yul\":952:962   */\n  dup2\n    /* \"#utility.yul\":949:971   */\n  lt\n    /* \"#utility.yul\":928:946   */\n  0xffffffffffffffff\n    /* \"#utility.yul\":916:926   */\n  dup3\n    /* \"#utility.yul\":913:947   */\n  gt\n    /* \"#utility.yul\":910:972   */\n  or\n    /* \"#utility.yul\":907:995   */\n  iszero\n  tag_38\n  jumpi\n    /* \"#utility.yul\":975:993   */\n  tag_39\n  tag_19\n  jump\t// in\ntag_39:\n    /* \"#utility.yul\":907:995   */\ntag_38:\n    /* \"#utility.yul\":1015:1025   */\n  dup1\n    /* \"#utility.yul\":1011:1013   */\n  0x40\n    /* \"#utility.yul\":1004:1026   */\n  mstore\n    /* \"#utility.yul\":794:1032   */\n  pop\n    /* \"#utility.yul\":751:1032   */\n  pop\n  pop\n  jump\t// out\n    /* \"#utility.yul\":1038:1167   */\ntag_21:\n    /* \"#utility.yul\":1072:1078   */\n  0x00\n    /* \"#utility.yul\":1099:1119   */\n  tag_41\n  tag_14\n  jump\t// in\ntag_41:\n    /* \"#utility.yul\":1089:1119   */\n  swap1\n  pop\n    /* \"#utility.yul\":1128:1161   */\n  tag_42\n    /* \"#utility.yul\":1156:1160   */\n  dup3\n    /* \"#utility.yul\":1148:1154   */\n  dup3\n    /* \"#utility.yul\":1128:1161   */\n  tag_20\n  jump\t// in\ntag_42:\n    /* \"#utility.yul\":1038:1167   */\n  swap2\n  swap1\n  pop\n  jump\t// out\n    /* \"#utility.yul\":1173:1484   */\ntag_22:\n    /* \"#utility.yul\":1250:1254   */\n  0x00\n    /* \"#utility.yul\":1340:1358   */\n  0xffffffffffffffff\n    /* \"#utility.yul\":1332:1338   */\n  dup3\n    /* \"#utility.yul\":1329:1359   */\n  gt\n    /* \"#utility.yul\":1326:1382   */\n  iszero\n  tag_44\n  jumpi\n    /* \"#utility.yul\":1362:1380   */\n  tag_45\n  tag_19\n  jump\t// in\ntag_45:\n    /* \"#utility.yul\":1326:1382   */\ntag_44:\n    /* \"#utility.yul\":1412:1416   */\n  0x20\n    /* \"#utility.yul\":1404:1410   */\n  dup3\n    /* \"#utility.yul\":1400:1417   */\n  mul\n    /* \"#utility.yul\":1392:1417   */\n  swap1\n  pop\n    /* \"#utility.yul\":1472:1476   */\n  0x20\n    /* \"#utility.yul\":1466:1470   */\n  dup2\n    /* \"#utility.yul\":1462:1477   */\n  add\n    /* \"#utility.yul\":1454:1477   */\n  swap1\n  pop\n    /* \"#utility.yul\":1173:1484   */\n  swap2\n  swap1\n  pop\n  jump\t// out\n    /* \"#utility.yul\":1490:1607   */\ntag_23:\n    /* \"#utility.yul\":1599:1600   */\n  0x00\n    /* \"#utility.yul\":1596:1597   */\n  dup1\n    /* \"#utility.yul\":1589:1601   */\n  revert\n    /* \"#utility.yul\":1613:1690   */\ntag_24:\n    /* \"#utility.yul\":1650:1657   */\n  0x00\n    /* \"#utility.yul\":1679:1684   */\n  dup2\n    /* \"#utility.yul\":1668:1684   */\n  swap1\n  pop\n    /* \"#utility.yul\":1613:1690   */\n  swap2\n  swap1\n  pop\n  jump\t// out\n    /* \"#utility.yul\":1696:1818   */\ntag_25:\n    /* \"#utility.yul\":1769:1793   */\n  tag_49\n    /* \"#utility.yul\":1787:1792   */\n  dup2\n    /* \"#utility.yul\":1769:1793   */\n  tag_24\n  jump\t// in\ntag_49:\n    /* \"#utility.yul\":1762:1767   */\n  dup2\n    /* \"#utility.yul\":1759:1794   */\n  eq\n    /* \"#utility.yul\":1749:1812   */\n  tag_50\n  jumpi\n    /* \"#utility.yul\":1808:1809   */\n  0x00\n    /* \"#utility.yul\":1805:1806   */\n  dup1\n    /* \"#utility.yul\":1798:1810   */\n  revert\n    /* \"#utility.yul\":1749:1812   */\ntag_50:\n    /* \"#utility.yul\":1696:1818   */\n  pop\n  jump\t// out\n    /* \"#utility.yul\":1824:1967   */\ntag_26:\n    /* \"#utility.yul\":1881:1886   */\n  0x00\n    /* \"#utility.yul\":1912:1918   */\n  dup2\n    /* \"#utility.yul\":1906:1919   */\n  mload\n    /* \"#utility.yul\":1897:1919   */\n  swap1\n  pop\n    /* \"#utility.yul\":1928:1961   */\n  tag_52\n    /* \"#utility.yul\":1955:1960   */\n  dup2\n    /* \"#utility.yul\":1928:1961   */\n  tag_25\n  jump\t// in\ntag_52:\n    /* \"#utility.yul\":1824:1967   */\n  swap3\n  swap2\n  pop\n  pop\n  jump\t// out\n    /* \"#utility.yul\":1990:2722   */\ntag_27:\n    /* \"#utility.yul\":2097:2102   */\n  0x00\n    /* \"#utility.yul\":2122:2203   */\n  tag_54\n    /* \"#utility.yul\":2138:2202   */\n  tag_55\n    /* \"#utility.yul\":2195:2201   */\n  dup5\n    /* \"#utility.yul\":2138:2202   */\n  tag_22\n  jump\t// in\ntag_55:\n    /* \"#utility.yul\":2122:2203   */\n  tag_21\n  jump\t// in\ntag_54:\n    /* \"#utility.yul\":2113:2203   */\n  swap1\n  pop\n    /* \"#utility.yul\":2223:2228   */\n  dup1\n    /* \"#utility.yul\":2252:2258   */\n  dup4\n    /* \"#utility.yul\":2245:2250   */\n  dup3\n    /* \"#utility.yul\":2238:2259   */\n  mstore\n    /* \"#utility.yul\":2286:2290   */\n  0x20\n    /* \"#utility.yul\":2279:2284   */\n  dup3\n    /* \"#utility.yul\":2275:2291   */\n  add\n    /* \"#utility.yul\":2268:2291   */\n  swap1\n  pop\n    /* \"#utility.yul\":2339:2343   */\n  0x20\n    /* \"#utility.yul\":2331:2337   */\n  dup5\n    /* \"#utility.yul\":2327:2344   */\n  mul\n    /* \"#utility.yul\":2319:2325   */\n  dup4\n    /* \"#utility.yul\":2315:2345   */\n  add\n    /* \"#utility.yul\":2368:2371   */\n  dup6\n    /* \"#utility.yul\":2360:2366   */\n  dup2\n    /* \"#utility.yul\":2357:2372   */\n  gt\n    /* \"#utility.yul\":2354:2476   */\n  iszero\n  tag_56\n  jumpi\n    /* \"#utility.yul\":2387:2466   */\n  tag_57\n  tag_23\n  jump\t// in\ntag_57:\n    /* \"#utility.yul\":2354:2476   */\ntag_56:\n    /* \"#utility.yul\":2502:2508   */\n  dup4\n    /* \"#utility.yul\":2485:2716   */\ntag_58:\n    /* \"#utility.yul\":2519:2525   */\n  dup2\n    /* \"#utility.yul\":2514:2517   */\n  dup2\n    /* \"#utility.yul\":2511:2526   */\n  lt\n    /* \"#utility.yul\":2485:2716   */\n  iszero\n  tag_60\n  jumpi\n    /* \"#utility.yul\":2594:2597   */\n  dup1\n    /* \"#utility.yul\":2623:2671   */\n  tag_61\n    /* \"#utility.yul\":2667:2670   */\n  dup9\n    /* \"#utility.yul\":2655:2665   */\n  dup3\n    /* \"#utility.yul\":2623:2671   */\n  tag_26\n  jump\t// in\ntag_61:\n    /* \"#utility.yul\":2618:2621   */\n  dup5\n    /* \"#utility.yul\":2611:2672   */\n  mstore\n    /* \"#utility.yul\":2701:2705   */\n  0x20\n    /* \"#utility.yul\":2696:2699   */\n  dup5\n    /* \"#utility.yul\":2692:2706   */\n  add\n    /* \"#utility.yul\":2685:2706   */\n  swap4\n  pop\n    /* \"#utility.yul\":2561:2716   */\n  pop\n    /* \"#utility.yul\":2545:2549   */\n  0x20\n    /* \"#utility.yul\":2540:2543   */\n  dup2\n    /* \"#utility.yul\":2536:2550   */\n  add\n    /* \"#utility.yul\":2529:2550   */\n  swap1\n  pop\n    /* \"#utility.yul\":2485:2716   */\n  jump(tag_58)\ntag_60:\n    /* \"#utility.yul\":2489:2510   */\n  pop\n    /* \"#utility.yul\":2103:2722   */\n  pop\n  pop\n    /* \"#utility.yul\":1990:2722   */\n  swap4\n  swap3\n  pop\n  pop\n  pop\n  jump\t// out\n    /* \"#utility.yul\":2745:3130   */\ntag_28:\n    /* \"#utility.yul\":2827:2832   */\n  0x00\n    /* \"#utility.yul\":2876:2879   */\n  dup3\n    /* \"#utility.yul\":2869:2873   */\n  0x1f\n    /* \"#utility.yul\":2861:2867   */\n  dup4\n    /* \"#utility.yul\":2857:2874   */\n  add\n    /* \"#utility.yul\":2853:2880   */\n  slt\n    /* \"#utility.yul\":2843:2965   */\n  tag_63\n  jumpi\n    /* \"#utility.yul\":2884:2963   */\n  tag_64\n  tag_17\n  jump\t// in\ntag_64:\n    /* \"#utility.yul\":2843:2965   */\ntag_63:\n    /* \"#utility.yul\":2994:3000   */\n  dup2\n    /* \"#utility.yul\":2988:3001   */\n  mload\n    /* \"#utility.yul\":3019:3124   */\n  tag_65\n    /* \"#utility.yul\":3120:3123   */\n  dup5\n    /* \"#utility.yul\":3112:3118   */\n  dup3\n    /* \"#utility.yul\":3105:3109   */\n  0x20\n    /* \"#utility.yul\":3097:3103   */\n  dup7\n    /* \"#utility.yul\":3093:3110   */\n  add\n    /* \"#utility.yul\":3019:3124   */\n  tag_27\n  jump\t// in\ntag_65:\n    /* \"#utility.yul\":3010:3124   */\n  swap2\n  pop\n    /* \"#utility.yul\":2833:3130   */\n  pop\n    /* \"#utility.yul\":2745:3130   */\n  swap3\n  swap2\n  pop\n  pop\n  jump\t// out\n    /* \"#utility.yul\":3136:3690   */\ntag_3:\n    /* \"#utility.yul\":3231:3237   */\n  0x00\n    /* \"#utility.yul\":3280:3282   */\n  0x20\n    /* \"#utility.yul\":3268:3277   */\n  dup3\n    /* \"#utility.yul\":3259:3266   */\n  dup5\n    /* \"#utility.yul\":3255:3278   */\n  sub\n    /* \"#utility.yul\":3251:3283   */\n  slt\n    /* \"#utility.yul\":3248:3367   */\n  iszero\n  tag_67\n  jumpi\n    /* \"#utility.yul\":3286:3365   */\n  tag_68\n  tag_15\n  jump\t// in\ntag_68:\n    /* \"#utility.yul\":3248:3367   */\ntag_67:\n    /* \"#utility.yul\":3427:3428   */\n  0x00\n    /* \"#utility.yul\":3416:3425   */\n  dup3\n    /* \"#utility.yul\":3412:3429   */\n  add\n    /* \"#utility.yul\":3406:3430   */\n  mload\n    /* \"#utility.yul\":3457:3475   */\n  0xffffffffffffffff\n    /* \"#utility.yul\":3449:3455   */\n  dup2\n    /* \"#utility.yul\":3446:3476   */\n  gt\n    /* \"#utility.yul\":3443:3560   */\n  iszero\n  tag_69\n  jumpi\n    /* \"#utility.yul\":3479:3558   */\n  tag_70\n  tag_16\n  jump\t// in\ntag_70:\n    /* \"#utility.yul\":3443:3560   */\ntag_69:\n    /* \"#utility.yul\":3584:3673   */\n  tag_71\n    /* \"#utility.yul\":3665:3672   */\n  dup5\n    /* \"#utility.yul\":3656:3662   */\n  dup3\n    /* \"#utility.yul\":3645:3654   */\n  dup6\n    /* \"#utility.yul\":3641:3663   */\n  add\n    /* \"#utility.yul\":3584:3673   */\n  tag_28\n  jump\t// in\ntag_71:\n    /* \"#utility.yul\":3574:3673   */\n  swap2\n  pop\n    /* \"#utility.yul\":3377:3683   */\n  pop\n    /* \"#utility.yul\":3136:3690   */\n  swap3\n  swap2\n  pop\n  pop\n  jump\t// out\n    /* \"#utility.yul\":3696:3876   */\ntag_11:\n    /* \"#utility.yul\":3744:3821   */\n  0x4e487b7100000000000000000000000000000000000000000000000000000000\n    /* \"#utility.yul\":3741:3742   */\n  0x00\n    /* \"#utility.yul\":3734:3822   */\n  mstore\n    /* \"#utility.yul\":3841:3845   */\n  0x32\n    /* \"#utility.yul\":3838:3839   */\n  0x04\n    /* \"#utility.yul\":3831:3846   */\n  mstore\n    /* \"#utility.yul\":3865:3869   */\n  0x24\n    /* \"#utility.yul\":3862:3863   */\n  0x00\n    /* \"#utility.yul\":3855:3870   */\n  revert\n    /* \"contracts/voting.sol\":69:3239  contract Ballot {... */\ntag_13:\n  dataSize(sub_0)\n  dup1\n  dataOffset(sub_0)\n  0x00\n  codecopy\n  0x00\n  return\nstop\n\nsub_0: assembly {\n        /* \"contracts/voting.sol\":69:3239  contract Ballot {... */\n      mstore(0x40, 0x80)\n      callvalue\n      dup1\n      iszero\n      tag_1\n      jumpi\n      0x00\n      dup1\n      revert\n    tag_1:\n      pop\n      jumpi(tag_2, lt(calldatasize, 0x04))\n      shr(0xe0, calldataload(0x00))\n      dup1\n      0x609ff1bd\n      gt\n      tag_12\n      jumpi\n      dup1\n      0x609ff1bd\n      eq\n      tag_7\n      jumpi\n      dup1\n      0x716c6cb4\n      eq\n      tag_8\n      jumpi\n      dup1\n      0x9e7b8d61\n      eq\n      tag_9\n      jumpi\n      dup1\n      0xa3ec138d\n      eq\n      tag_10\n      jumpi\n      dup1\n      0xe2ba53f0\n      eq\n      tag_11\n      jumpi\n      jump(tag_2)\n    tag_12:\n      dup1\n      0x0121b93f\n      eq\n      tag_3\n      jumpi\n      dup1\n      0x013cf08b\n      eq\n      tag_4\n      jumpi\n      dup1\n      0x2e4176cf\n      eq\n      tag_5\n      jumpi\n      dup1\n      0x5c19a95c\n      eq\n      tag_6\n      jumpi\n    tag_2:\n      0x00\n      dup1\n      revert\n        /* \"contracts/voting.sol\":1921:2248  function vote(uint256 proposal) external {... */\n    tag_3:\n      tag_13\n      0x04\n      dup1\n      calldatasize\n      sub\n      dup2\n      add\n      swap1\n      tag_14\n      swap2\n      swap1\n      tag_15\n      jump\t// in\n    tag_14:\n      tag_16\n      jump\t// in\n    tag_13:\n      stop\n        /* \"contracts/voting.sol\":357:385  Proposals[] public proposals */\n    tag_4:\n      tag_17\n      0x04\n      dup1\n      calldatasize\n      sub\n      dup2\n      add\n      swap1\n      tag_18\n      swap2\n      swap1\n      tag_15\n      jump\t// in\n    tag_18:\n      tag_19\n      jump\t// in\n    tag_17:\n      mload(0x40)\n      tag_20\n      swap3\n      swap2\n      swap1\n      tag_21\n      jump\t// in\n    tag_20:\n      mload(0x40)\n      dup1\n      swap2\n      sub\n      swap1\n      return\n        /* \"contracts/voting.sol\":279:305  address public chairperson */\n    tag_5:\n      tag_22\n      tag_23\n      jump\t// in\n    tag_22:\n      mload(0x40)\n      tag_24\n      swap2\n      swap1\n      tag_25\n      jump\t// in\n    tag_24:\n      mload(0x40)\n      dup1\n      swap2\n      sub\n      swap1\n      return\n        /* \"contracts/voting.sol\":1009:1915  function delegate(address to) external {... */\n    tag_6:\n      tag_26\n      0x04\n      dup1\n      calldatasize\n      sub\n      dup2\n      add\n      swap1\n      tag_27\n      swap2\n      swap1\n      tag_28\n      jump\t// in\n    tag_27:\n      tag_29\n      jump\t// in\n    tag_26:\n      stop\n        /* \"contracts/voting.sol\":2254:2598  function winningProposal() public view returns (uint winningProposal_){... */\n    tag_7:\n      tag_30\n      tag_31\n      jump\t// in\n    tag_30:\n      mload(0x40)\n      tag_32\n      swap2\n      swap1\n      tag_33\n      jump\t// in\n    tag_32:\n      mload(0x40)\n      dup1\n      swap2\n      sub\n      swap1\n      return\n        /* \"contracts/voting.sol\":2787:3236  function giveRightToVoteForAll(address[] memory voterAdress) external {... */\n    tag_8:\n      tag_34\n      0x04\n      dup1\n      calldatasize\n      sub\n      dup2\n      add\n      swap1\n      tag_35\n      swap2\n      swap1\n      tag_36\n      jump\t// in\n    tag_35:\n      tag_37\n      jump\t// in\n    tag_34:\n      stop\n        /* \"contracts/voting.sol\":703:1003  function giveRightToVote(address voter) external {... */\n    tag_9:\n      tag_38\n      0x04\n      dup1\n      calldatasize\n      sub\n      dup2\n      add\n      swap1\n      tag_39\n      swap2\n      swap1\n      tag_28\n      jump\t// in\n    tag_39:\n      tag_40\n      jump\t// in\n    tag_38:\n      stop\n        /* \"contracts/voting.sol\":311:351  mapping (address => Voter) public voters */\n    tag_10:\n      tag_41\n      0x04\n      dup1\n      calldatasize\n      sub\n      dup2\n      add\n      swap1\n      tag_42\n      swap2\n      swap1\n      tag_28\n      jump\t// in\n    tag_42:\n      tag_43\n      jump\t// in\n    tag_41:\n      mload(0x40)\n      tag_44\n      swap5\n      swap4\n      swap3\n      swap2\n      swap1\n      tag_45\n      jump\t// in\n    tag_44:\n      mload(0x40)\n      dup1\n      swap2\n      sub\n      swap1\n      return\n        /* \"contracts/voting.sol\":2604:2732  function winnerName() external view returns(bytes32 winnerName_){... */\n    tag_11:\n      tag_46\n      tag_47\n      jump\t// in\n    tag_46:\n      mload(0x40)\n      tag_48\n      swap2\n      swap1\n      tag_49\n      jump\t// in\n    tag_48:\n      mload(0x40)\n      dup1\n      swap2\n      sub\n      swap1\n      return\n        /* \"contracts/voting.sol\":1921:2248  function vote(uint256 proposal) external {... */\n    tag_16:\n        /* \"contracts/voting.sol\":1972:1992  Voter storage sender */\n      0x00\n        /* \"contracts/voting.sol\":1995:2001  voters */\n      0x01\n        /* \"contracts/voting.sol\":1995:2013  voters[msg.sender] */\n      0x00\n        /* \"contracts/voting.sol\":2002:2012  msg.sender */\n      caller\n        /* \"contracts/voting.sol\":1995:2013  voters[msg.sender] */\n      0xffffffffffffffffffffffffffffffffffffffff\n      and\n      0xffffffffffffffffffffffffffffffffffffffff\n      and\n      dup2\n      mstore\n      0x20\n      add\n      swap1\n      dup2\n      mstore\n      0x20\n      add\n      0x00\n      keccak256\n        /* \"contracts/voting.sol\":1972:2013  Voter storage sender = voters[msg.sender] */\n      swap1\n      pop\n        /* \"contracts/voting.sol\":2048:2049  0 */\n      0x00\n        /* \"contracts/voting.sol\":2031:2037  sender */\n      dup2\n        /* \"contracts/voting.sol\":2031:2044  sender.weight */\n      0x00\n      add\n      sload\n        /* \"contracts/voting.sol\":2031:2049  sender.weight != 0 */\n      sub\n        /* \"contracts/voting.sol\":2023:2074  require(sender.weight != 0, \"has no right to vote\") */\n      tag_51\n      jumpi\n      mload(0x40)\n      0x08c379a000000000000000000000000000000000000000000000000000000000\n      dup2\n      mstore\n      0x04\n      add\n      tag_52\n      swap1\n      tag_53\n      jump\t// in\n    tag_52:\n      mload(0x40)\n      dup1\n      swap2\n      sub\n      swap1\n      revert\n    tag_51:\n        /* \"contracts/voting.sol\":2093:2099  sender */\n      dup1\n        /* \"contracts/voting.sol\":2093:2105  sender.voted */\n      0x01\n      add\n      0x00\n      swap1\n      sload\n      swap1\n      0x0100\n      exp\n      swap1\n      div\n      0xff\n      and\n        /* \"contracts/voting.sol\":2092:2105  !sender.voted */\n      iszero\n        /* \"contracts/voting.sol\":2084:2123  require(!sender.voted, \"already voted\") */\n      tag_54\n      jumpi\n      mload(0x40)\n      0x08c379a000000000000000000000000000000000000000000000000000000000\n      dup2\n      mstore\n      0x04\n      add\n      tag_55\n      swap1\n      tag_56\n      jump\t// in\n    tag_55:\n      mload(0x40)\n      dup1\n      swap2\n      sub\n      swap1\n      revert\n    tag_54:\n        /* \"contracts/voting.sol\":2148:2152  true */\n      0x01\n        /* \"contracts/voting.sol\":2133:2139  sender */\n      dup2\n        /* \"contracts/voting.sol\":2133:2145  sender.voted */\n      0x01\n      add\n      0x00\n        /* \"contracts/voting.sol\":2133:2152  sender.voted = true */\n      0x0100\n      exp\n      dup2\n      sload\n      dup2\n      0xff\n      mul\n      not\n      and\n      swap1\n      dup4\n      iszero\n      iszero\n      mul\n      or\n      swap1\n      sstore\n      pop\n        /* \"contracts/voting.sol\":2176:2184  proposal */\n      dup2\n        /* \"contracts/voting.sol\":2162:2168  sender */\n      dup2\n        /* \"contracts/voting.sol\":2162:2173  sender.vote */\n      0x02\n      add\n        /* \"contracts/voting.sol\":2162:2184  sender.vote = proposal */\n      dup2\n      swap1\n      sstore\n      pop\n        /* \"contracts/voting.sol\":2228:2234  sender */\n      dup1\n        /* \"contracts/voting.sol\":2228:2241  sender.weight */\n      0x00\n      add\n      sload\n        /* \"contracts/voting.sol\":2195:2204  proposals */\n      0x02\n        /* \"contracts/voting.sol\":2205:2213  proposal */\n      dup4\n        /* \"contracts/voting.sol\":2195:2214  proposals[proposal] */\n      dup2\n      sload\n      dup2\n      lt\n      tag_57\n      jumpi\n      tag_58\n      tag_59\n      jump\t// in\n    tag_58:\n    tag_57:\n      swap1\n      0x00\n      mstore\n      keccak256(0x00, 0x20)\n      swap1\n      0x02\n      mul\n      add\n        /* \"contracts/voting.sol\":2195:2224  proposals[proposal].voteCount */\n      0x01\n      add\n      0x00\n        /* \"contracts/voting.sol\":2195:2241  proposals[proposal].voteCount += sender.weight */\n      dup3\n      dup3\n      sload\n      tag_61\n      swap2\n      swap1\n      tag_62\n      jump\t// in\n    tag_61:\n      swap3\n      pop\n      pop\n      dup2\n      swap1\n      sstore\n      pop\n        /* \"contracts/voting.sol\":1962:2248  {... */\n      pop\n        /* \"contracts/voting.sol\":1921:2248  function vote(uint256 proposal) external {... */\n      pop\n      jump\t// out\n        /* \"contracts/voting.sol\":357:385  Proposals[] public proposals */\n    tag_19:\n      0x02\n      dup2\n      dup2\n      sload\n      dup2\n      lt\n      tag_63\n      jumpi\n      0x00\n      dup1\n      revert\n    tag_63:\n      swap1\n      0x00\n      mstore\n      keccak256(0x00, 0x20)\n      swap1\n      0x02\n      mul\n      add\n      0x00\n      swap2\n      pop\n      swap1\n      pop\n      dup1\n      0x00\n      add\n      sload\n      swap1\n      dup1\n      0x01\n      add\n      sload\n      swap1\n      pop\n      dup3\n      jump\t// out\n        /* \"contracts/voting.sol\":279:305  address public chairperson */\n    tag_23:\n      0x00\n      dup1\n      sload\n      swap1\n      0x0100\n      exp\n      swap1\n      div\n      0xffffffffffffffffffffffffffffffffffffffff\n      and\n      dup2\n      jump\t// out\n        /* \"contracts/voting.sol\":1009:1915  function delegate(address to) external {... */\n    tag_29:\n        /* \"contracts/voting.sol\":1058:1078  Voter storage sender */\n      0x00\n        /* \"contracts/voting.sol\":1081:1087  voters */\n      0x01\n        /* \"contracts/voting.sol\":1081:1099  voters[msg.sender] */\n      0x00\n        /* \"contracts/voting.sol\":1088:1098  msg.sender */\n      caller\n        /* \"contracts/voting.sol\":1081:1099  voters[msg.sender] */\n      0xffffffffffffffffffffffffffffffffffffffff\n      and\n      0xffffffffffffffffffffffffffffffffffffffff\n      and\n      dup2\n      mstore\n      0x20\n      add\n      swap1\n      dup2\n      mstore\n      0x20\n      add\n      0x00\n      keccak256\n        /* \"contracts/voting.sol\":1058:1099  Voter storage sender = voters[msg.sender] */\n      swap1\n      pop\n        /* \"contracts/voting.sol\":1134:1135  0 */\n      0x00\n        /* \"contracts/voting.sol\":1117:1123  sender */\n      dup2\n        /* \"contracts/voting.sol\":1117:1130  sender.weight */\n      0x00\n      add\n      sload\n        /* \"contracts/voting.sol\":1117:1135  sender.weight != 0 */\n      sub\n        /* \"contracts/voting.sol\":1109:1165  require(sender.weight != 0, \"you have no rigth to vote\") */\n      tag_66\n      jumpi\n      mload(0x40)\n      0x08c379a000000000000000000000000000000000000000000000000000000000\n      dup2\n      mstore\n      0x04\n      add\n      tag_67\n      swap1\n      tag_68\n      jump\t// in\n    tag_67:\n      mload(0x40)\n      dup1\n      swap2\n      sub\n      swap1\n      revert\n    tag_66:\n        /* \"contracts/voting.sol\":1184:1190  sender */\n      dup1\n        /* \"contracts/voting.sol\":1184:1196  sender.voted */\n      0x01\n      add\n      0x00\n      swap1\n      sload\n      swap1\n      0x0100\n      exp\n      swap1\n      div\n      0xff\n      and\n        /* \"contracts/voting.sol\":1183:1196  !sender.voted */\n      iszero\n        /* \"contracts/voting.sol\":1175:1218  require(!sender.voted, \"you already voted\") */\n      tag_69\n      jumpi\n      mload(0x40)\n      0x08c379a000000000000000000000000000000000000000000000000000000000\n      dup2\n      mstore\n      0x04\n      add\n      tag_70\n      swap1\n      tag_71\n      jump\t// in\n    tag_70:\n      mload(0x40)\n      dup1\n      swap2\n      sub\n      swap1\n      revert\n    tag_69:\n        /* \"contracts/voting.sol\":1242:1252  msg.sender */\n      caller\n        /* \"contracts/voting.sol\":1236:1252  to == msg.sender */\n      0xffffffffffffffffffffffffffffffffffffffff\n      and\n        /* \"contracts/voting.sol\":1236:1238  to */\n      dup3\n        /* \"contracts/voting.sol\":1236:1252  to == msg.sender */\n      0xffffffffffffffffffffffffffffffffffffffff\n      and\n      eq\n        /* \"contracts/voting.sol\":1228:1286  require(to == msg.sender, \"self-delegation isn't allowed\") */\n      tag_72\n      jumpi\n      mload(0x40)\n      0x08c379a000000000000000000000000000000000000000000000000000000000\n      dup2\n      mstore\n      0x04\n      add\n      tag_73\n      swap1\n      tag_74\n      jump\t// in\n    tag_73:\n      mload(0x40)\n      dup1\n      swap2\n      sub\n      swap1\n      revert\n    tag_72:\n        /* \"contracts/voting.sol\":1297:1455  while (voters[to].delegate != address(0)) {... */\n    tag_75:\n        /* \"contracts/voting.sol\":1335:1336  0 */\n      0x00\n        /* \"contracts/voting.sol\":1304:1337  voters[to].delegate != address(0) */\n      0xffffffffffffffffffffffffffffffffffffffff\n      and\n        /* \"contracts/voting.sol\":1304:1310  voters */\n      0x01\n        /* \"contracts/voting.sol\":1304:1314  voters[to] */\n      0x00\n        /* \"contracts/voting.sol\":1311:1313  to */\n      dup5\n        /* \"contracts/voting.sol\":1304:1314  voters[to] */\n      0xffffffffffffffffffffffffffffffffffffffff\n      and\n      0xffffffffffffffffffffffffffffffffffffffff\n      and\n      dup2\n      mstore\n      0x20\n      add\n      swap1\n      dup2\n      mstore\n      0x20\n      add\n      0x00\n      keccak256\n        /* \"contracts/voting.sol\":1304:1323  voters[to].delegate */\n      0x01\n      add\n      0x01\n      swap1\n      sload\n      swap1\n      0x0100\n      exp\n      swap1\n      div\n      0xffffffffffffffffffffffffffffffffffffffff\n      and\n        /* \"contracts/voting.sol\":1304:1337  voters[to].delegate != address(0) */\n      0xffffffffffffffffffffffffffffffffffffffff\n      and\n      eq\n        /* \"contracts/voting.sol\":1297:1455  while (voters[to].delegate != address(0)) {... */\n      tag_76\n      jumpi\n        /* \"contracts/voting.sol\":1358:1364  voters */\n      0x01\n        /* \"contracts/voting.sol\":1358:1368  voters[to] */\n      0x00\n        /* \"contracts/voting.sol\":1365:1367  to */\n      dup4\n        /* \"contracts/voting.sol\":1358:1368  voters[to] */\n      0xffffffffffffffffffffffffffffffffffffffff\n      and\n      0xffffffffffffffffffffffffffffffffffffffff\n      and\n      dup2\n      mstore\n      0x20\n      add\n      swap1\n      dup2\n      mstore\n      0x20\n      add\n      0x00\n      keccak256\n        /* \"contracts/voting.sol\":1358:1377  voters[to].delegate */\n      0x01\n      add\n      0x01\n      swap1\n      sload\n      swap1\n      0x0100\n      exp\n      swap1\n      div\n      0xffffffffffffffffffffffffffffffffffffffff\n      and\n        /* \"contracts/voting.sol\":1353:1377  to = voters[to].delegate */\n      swap2\n      pop\n        /* \"contracts/voting.sol\":1405:1415  msg.sender */\n      caller\n        /* \"contracts/voting.sol\":1399:1415  to != msg.sender */\n      0xffffffffffffffffffffffffffffffffffffffff\n      and\n        /* \"contracts/voting.sol\":1399:1401  to */\n      dup3\n        /* \"contracts/voting.sol\":1399:1415  to != msg.sender */\n      0xffffffffffffffffffffffffffffffffffffffff\n      and\n      sub\n        /* \"contracts/voting.sol\":1391:1444  require(to != msg.sender, \"Found loop in delegation\") */\n      tag_77\n      jumpi\n      mload(0x40)\n      0x08c379a000000000000000000000000000000000000000000000000000000000\n      dup2\n      mstore\n      0x04\n      add\n      tag_78\n      swap1\n      tag_79\n      jump\t// in\n    tag_78:\n      mload(0x40)\n      dup1\n      swap2\n      sub\n      swap1\n      revert\n    tag_77:\n        /* \"contracts/voting.sol\":1297:1455  while (voters[to].delegate != address(0)) {... */\n      jump(tag_75)\n    tag_76:\n        /* \"contracts/voting.sol\":1465:1488  Voter storage delegate_ */\n      0x00\n        /* \"contracts/voting.sol\":1491:1497  voters */\n      0x01\n        /* \"contracts/voting.sol\":1491:1501  voters[to] */\n      0x00\n        /* \"contracts/voting.sol\":1498:1500  to */\n      dup5\n        /* \"contracts/voting.sol\":1491:1501  voters[to] */\n      0xffffffffffffffffffffffffffffffffffffffff\n      and\n      0xffffffffffffffffffffffffffffffffffffffff\n      and\n      dup2\n      mstore\n      0x20\n      add\n      swap1\n      dup2\n      mstore\n      0x20\n      add\n      0x00\n      keccak256\n        /* \"contracts/voting.sol\":1465:1501  Voter storage delegate_ = voters[to] */\n      swap1\n      pop\n        /* \"contracts/voting.sol\":1593:1594  1 */\n      0x01\n        /* \"contracts/voting.sol\":1573:1582  delegate_ */\n      dup2\n        /* \"contracts/voting.sol\":1573:1589  delegate_.weight */\n      0x00\n      add\n      sload\n        /* \"contracts/voting.sol\":1573:1594  delegate_.weight >= 1 */\n      lt\n      iszero\n        /* \"contracts/voting.sol\":1565:1595  require(delegate_.weight >= 1) */\n      tag_80\n      jumpi\n      0x00\n      dup1\n      revert\n    tag_80:\n        /* \"contracts/voting.sol\":1620:1624  true */\n      0x01\n        /* \"contracts/voting.sol\":1605:1611  sender */\n      dup3\n        /* \"contracts/voting.sol\":1605:1617  sender.voted */\n      0x01\n      add\n      0x00\n        /* \"contracts/voting.sol\":1605:1624  sender.voted = true */\n      0x0100\n      exp\n      dup2\n      sload\n      dup2\n      0xff\n      mul\n      not\n      and\n      swap1\n      dup4\n      iszero\n      iszero\n      mul\n      or\n      swap1\n      sstore\n      pop\n        /* \"contracts/voting.sol\":1652:1654  to */\n      dup3\n        /* \"contracts/voting.sol\":1634:1640  sender */\n      dup3\n        /* \"contracts/voting.sol\":1634:1649  sender.delegate */\n      0x01\n      add\n      0x01\n        /* \"contracts/voting.sol\":1634:1654  sender.delegate = to */\n      0x0100\n      exp\n      dup2\n      sload\n      dup2\n      0xffffffffffffffffffffffffffffffffffffffff\n      mul\n      not\n      and\n      swap1\n      dup4\n      0xffffffffffffffffffffffffffffffffffffffff\n      and\n      mul\n      or\n      swap1\n      sstore\n      pop\n        /* \"contracts/voting.sol\":1668:1677  delegate_ */\n      dup1\n        /* \"contracts/voting.sol\":1668:1683  delegate_.voted */\n      0x01\n      add\n      0x00\n      swap1\n      sload\n      swap1\n      0x0100\n      exp\n      swap1\n      div\n      0xff\n      and\n        /* \"contracts/voting.sol\":1665:1909  if(delegate_.voted){... */\n      iszero\n      tag_81\n      jumpi\n        /* \"contracts/voting.sol\":1820:1826  sender */\n      dup2\n        /* \"contracts/voting.sol\":1820:1833  sender.weight */\n      0x00\n      add\n      sload\n        /* \"contracts/voting.sol\":1781:1790  proposals */\n      0x02\n        /* \"contracts/voting.sol\":1791:1800  delegate_ */\n      dup3\n        /* \"contracts/voting.sol\":1791:1805  delegate_.vote */\n      0x02\n      add\n      sload\n        /* \"contracts/voting.sol\":1781:1806  proposals[delegate_.vote] */\n      dup2\n      sload\n      dup2\n      lt\n      tag_82\n      jumpi\n      tag_83\n      tag_59\n      jump\t// in\n    tag_83:\n    tag_82:\n      swap1\n      0x00\n      mstore\n      keccak256(0x00, 0x20)\n      swap1\n      0x02\n      mul\n      add\n        /* \"contracts/voting.sol\":1781:1816  proposals[delegate_.vote].voteCount */\n      0x01\n      add\n      0x00\n        /* \"contracts/voting.sol\":1781:1833  proposals[delegate_.vote].voteCount += sender.weight */\n      dup3\n      dup3\n      sload\n      tag_85\n      swap2\n      swap1\n      tag_62\n      jump\t// in\n    tag_85:\n      swap3\n      pop\n      pop\n      dup2\n      swap1\n      sstore\n      pop\n        /* \"contracts/voting.sol\":1665:1909  if(delegate_.voted){... */\n      jump(tag_86)\n    tag_81:\n        /* \"contracts/voting.sol\":1885:1891  sender */\n      dup2\n        /* \"contracts/voting.sol\":1885:1898  sender.weight */\n      0x00\n      add\n      sload\n        /* \"contracts/voting.sol\":1865:1874  delegate_ */\n      dup2\n        /* \"contracts/voting.sol\":1865:1881  delegate_.weight */\n      0x00\n      add\n      0x00\n        /* \"contracts/voting.sol\":1865:1898  delegate_.weight += sender.weight */\n      dup3\n      dup3\n      sload\n      tag_87\n      swap2\n      swap1\n      tag_62\n      jump\t// in\n    tag_87:\n      swap3\n      pop\n      pop\n      dup2\n      swap1\n      sstore\n      pop\n        /* \"contracts/voting.sol\":1665:1909  if(delegate_.voted){... */\n    tag_86:\n        /* \"contracts/voting.sol\":1048:1915  {... */\n      pop\n      pop\n        /* \"contracts/voting.sol\":1009:1915  function delegate(address to) external {... */\n      pop\n      jump\t// out\n        /* \"contracts/voting.sol\":2254:2598  function winningProposal() public view returns (uint winningProposal_){... */\n    tag_31:\n        /* \"contracts/voting.sol\":2302:2323  uint winningProposal_ */\n      0x00\n        /* \"contracts/voting.sol\":2334:2355  uint winningVoteCount */\n      dup1\n        /* \"contracts/voting.sol\":2358:2359  0 */\n      0x00\n        /* \"contracts/voting.sol\":2334:2359  uint winningVoteCount = 0 */\n      swap1\n      pop\n        /* \"contracts/voting.sol\":2373:2379  uint i */\n      0x00\n        /* \"contracts/voting.sol\":2369:2592  for(uint i = 0; i < proposals.length; i++){... */\n    tag_89:\n        /* \"contracts/voting.sol\":2389:2398  proposals */\n      0x02\n        /* \"contracts/voting.sol\":2389:2405  proposals.length */\n      dup1\n      sload\n      swap1\n      pop\n        /* \"contracts/voting.sol\":2385:2386  i */\n      dup2\n        /* \"contracts/voting.sol\":2385:2405  i < proposals.length */\n      lt\n        /* \"contracts/voting.sol\":2369:2592  for(uint i = 0; i < proposals.length; i++){... */\n      iszero\n      tag_90\n      jumpi\n        /* \"contracts/voting.sol\":2453:2469  winningVoteCount */\n      dup2\n        /* \"contracts/voting.sol\":2428:2437  proposals */\n      0x02\n        /* \"contracts/voting.sol\":2438:2439  i */\n      dup3\n        /* \"contracts/voting.sol\":2428:2440  proposals[i] */\n      dup2\n      sload\n      dup2\n      lt\n      tag_92\n      jumpi\n      tag_93\n      tag_59\n      jump\t// in\n    tag_93:\n    tag_92:\n      swap1\n      0x00\n      mstore\n      keccak256(0x00, 0x20)\n      swap1\n      0x02\n      mul\n      add\n        /* \"contracts/voting.sol\":2428:2450  proposals[i].voteCount */\n      0x01\n      add\n      sload\n        /* \"contracts/voting.sol\":2428:2469  proposals[i].voteCount > winningVoteCount */\n      gt\n        /* \"contracts/voting.sol\":2425:2582  if(proposals[i].voteCount > winningVoteCount){... */\n      iszero\n      tag_95\n      jumpi\n        /* \"contracts/voting.sol\":2507:2516  proposals */\n      0x02\n        /* \"contracts/voting.sol\":2517:2518  i */\n      dup2\n        /* \"contracts/voting.sol\":2507:2519  proposals[i] */\n      dup2\n      sload\n      dup2\n      lt\n      tag_96\n      jumpi\n      tag_97\n      tag_59\n      jump\t// in\n    tag_97:\n    tag_96:\n      swap1\n      0x00\n      mstore\n      keccak256(0x00, 0x20)\n      swap1\n      0x02\n      mul\n      add\n        /* \"contracts/voting.sol\":2507:2529  proposals[i].voteCount */\n      0x01\n      add\n      sload\n        /* \"contracts/voting.sol\":2488:2529  winningVoteCount = proposals[i].voteCount */\n      swap2\n      pop\n        /* \"contracts/voting.sol\":2566:2567  i */\n      dup1\n        /* \"contracts/voting.sol\":2547:2567  winningProposal_ = i */\n      swap3\n      pop\n        /* \"contracts/voting.sol\":2425:2582  if(proposals[i].voteCount > winningVoteCount){... */\n    tag_95:\n        /* \"contracts/voting.sol\":2407:2410  i++ */\n      dup1\n      dup1\n      0x01\n      add\n      swap2\n      pop\n      pop\n        /* \"contracts/voting.sol\":2369:2592  for(uint i = 0; i < proposals.length; i++){... */\n      jump(tag_89)\n    tag_90:\n      pop\n        /* \"contracts/voting.sol\":2324:2598  {... */\n      pop\n        /* \"contracts/voting.sol\":2254:2598  function winningProposal() public view returns (uint winningProposal_){... */\n      swap1\n      jump\t// out\n        /* \"contracts/voting.sol\":2787:3236  function giveRightToVoteForAll(address[] memory voterAdress) external {... */\n    tag_37:\n        /* \"contracts/voting.sol\":2889:2900  chairperson */\n      0x00\n      dup1\n      sload\n      swap1\n      0x0100\n      exp\n      swap1\n      div\n      0xffffffffffffffffffffffffffffffffffffffff\n      and\n        /* \"contracts/voting.sol\":2875:2900  msg.sender == chairperson */\n      0xffffffffffffffffffffffffffffffffffffffff\n      and\n        /* \"contracts/voting.sol\":2875:2885  msg.sender */\n      caller\n        /* \"contracts/voting.sol\":2875:2900  msg.sender == chairperson */\n      0xffffffffffffffffffffffffffffffffffffffff\n      and\n      eq\n        /* \"contracts/voting.sol\":2867:2952  require(msg.sender == chairperson,... */\n      tag_100\n      jumpi\n      mload(0x40)\n      0x08c379a000000000000000000000000000000000000000000000000000000000\n      dup2\n      mstore\n      0x04\n      add\n      tag_101\n      swap1\n      tag_102\n      jump\t// in\n    tag_101:\n      mload(0x40)\n      dup1\n      swap2\n      sub\n      swap1\n      revert\n    tag_100:\n        /* \"contracts/voting.sol\":2968:2974  uint i */\n      0x00\n        /* \"contracts/voting.sol\":2963:3221  for (uint i = 0; i < voterAdress.length; i++){... */\n    tag_103:\n        /* \"contracts/voting.sol\":2984:2995  voterAdress */\n      dup2\n        /* \"contracts/voting.sol\":2984:3002  voterAdress.length */\n      mload\n        /* \"contracts/voting.sol\":2980:2981  i */\n      dup2\n        /* \"contracts/voting.sol\":2980:3002  i < voterAdress.length */\n      lt\n        /* \"contracts/voting.sol\":2963:3221  for (uint i = 0; i < voterAdress.length; i++){... */\n      iszero\n      tag_104\n      jumpi\n        /* \"contracts/voting.sol\":3022:3035  address voter */\n      0x00\n        /* \"contracts/voting.sol\":3038:3049  voterAdress */\n      dup3\n        /* \"contracts/voting.sol\":3050:3051  i */\n      dup3\n        /* \"contracts/voting.sol\":3038:3052  voterAdress[i] */\n      dup2\n      mload\n      dup2\n      lt\n      tag_106\n      jumpi\n      tag_107\n      tag_59\n      jump\t// in\n    tag_107:\n    tag_106:\n      0x20\n      mul\n      0x20\n      add\n      add\n      mload\n        /* \"contracts/voting.sol\":3022:3052  address voter = voterAdress[i] */\n      swap1\n      pop\n        /* \"contracts/voting.sol\":3076:3082  voters */\n      0x01\n        /* \"contracts/voting.sol\":3076:3089  voters[voter] */\n      0x00\n        /* \"contracts/voting.sol\":3083:3088  voter */\n      dup3\n        /* \"contracts/voting.sol\":3076:3089  voters[voter] */\n      0xffffffffffffffffffffffffffffffffffffffff\n      and\n      0xffffffffffffffffffffffffffffffffffffffff\n      and\n      dup2\n      mstore\n      0x20\n      add\n      swap1\n      dup2\n      mstore\n      0x20\n      add\n      0x00\n      keccak256\n        /* \"contracts/voting.sol\":3076:3095  voters[voter].voted */\n      0x01\n      add\n      0x00\n      swap1\n      sload\n      swap1\n      0x0100\n      exp\n      swap1\n      div\n      0xff\n      and\n        /* \"contracts/voting.sol\":3075:3095  !voters[voter].voted */\n      iszero\n        /* \"contracts/voting.sol\":3067:3128  require(!voters[voter].voted, ... */\n      tag_108\n      jumpi\n      mload(0x40)\n      0x08c379a000000000000000000000000000000000000000000000000000000000\n      dup2\n      mstore\n      0x04\n      add\n      tag_109\n      swap1\n      tag_110\n      jump\t// in\n    tag_109:\n      mload(0x40)\n      dup1\n      swap2\n      sub\n      swap1\n      revert\n    tag_108:\n        /* \"contracts/voting.sol\":3170:3171  0 */\n      0x00\n        /* \"contracts/voting.sol\":3146:3152  voters */\n      0x01\n        /* \"contracts/voting.sol\":3146:3159  voters[voter] */\n      0x00\n        /* \"contracts/voting.sol\":3153:3158  voter */\n      dup4\n        /* \"contracts/voting.sol\":3146:3159  voters[voter] */\n      0xffffffffffffffffffffffffffffffffffffffff\n      and\n      0xffffffffffffffffffffffffffffffffffffffff\n      and\n      dup2\n      mstore\n      0x20\n      add\n      swap1\n      dup2\n      mstore\n      0x20\n      add\n      0x00\n      keccak256\n        /* \"contracts/voting.sol\":3146:3166  voters[voter].weight */\n      0x00\n      add\n      sload\n        /* \"contracts/voting.sol\":3146:3171  voters[voter].weight == 0 */\n      eq\n        /* \"contracts/voting.sol\":3138:3172  require(voters[voter].weight == 0) */\n      tag_111\n      jumpi\n      0x00\n      dup1\n      revert\n    tag_111:\n        /* \"contracts/voting.sol\":3209:3210  1 */\n      0x01\n        /* \"contracts/voting.sol\":3186:3192  voters */\n      dup1\n        /* \"contracts/voting.sol\":3186:3199  voters[voter] */\n      0x00\n        /* \"contracts/voting.sol\":3193:3198  voter */\n      dup4\n        /* \"contracts/voting.sol\":3186:3199  voters[voter] */\n      0xffffffffffffffffffffffffffffffffffffffff\n      and\n      0xffffffffffffffffffffffffffffffffffffffff\n      and\n      dup2\n      mstore\n      0x20\n      add\n      swap1\n      dup2\n      mstore\n      0x20\n      add\n      0x00\n      keccak256\n        /* \"contracts/voting.sol\":3186:3206  voters[voter].weight */\n      0x00\n      add\n        /* \"contracts/voting.sol\":3186:3210  voters[voter].weight = 1 */\n      dup2\n      swap1\n      sstore\n      pop\n        /* \"contracts/voting.sol\":3008:3221  {... */\n      pop\n        /* \"contracts/voting.sol\":3004:3007  i++ */\n      dup1\n      dup1\n      0x01\n      add\n      swap2\n      pop\n      pop\n        /* \"contracts/voting.sol\":2963:3221  for (uint i = 0; i < voterAdress.length; i++){... */\n      jump(tag_103)\n    tag_104:\n      pop\n        /* \"contracts/voting.sol\":2787:3236  function giveRightToVoteForAll(address[] memory voterAdress) external {... */\n      pop\n      jump\t// out\n        /* \"contracts/voting.sol\":703:1003  function giveRightToVote(address voter) external {... */\n    tag_40:\n        /* \"contracts/voting.sol\":784:795  chairperson */\n      0x00\n      dup1\n      sload\n      swap1\n      0x0100\n      exp\n      swap1\n      div\n      0xffffffffffffffffffffffffffffffffffffffff\n      and\n        /* \"contracts/voting.sol\":770:795  msg.sender == chairperson */\n      0xffffffffffffffffffffffffffffffffffffffff\n      and\n        /* \"contracts/voting.sol\":770:780  msg.sender */\n      caller\n        /* \"contracts/voting.sol\":770:795  msg.sender == chairperson */\n      0xffffffffffffffffffffffffffffffffffffffff\n      and\n      eq\n        /* \"contracts/voting.sol\":762:847  require(msg.sender == chairperson,... */\n      tag_113\n      jumpi\n      mload(0x40)\n      0x08c379a000000000000000000000000000000000000000000000000000000000\n      dup2\n      mstore\n      0x04\n      add\n      tag_114\n      swap1\n      tag_102\n      jump\t// in\n    tag_114:\n      mload(0x40)\n      dup1\n      swap2\n      sub\n      swap1\n      revert\n    tag_113:\n        /* \"contracts/voting.sol\":866:872  voters */\n      0x01\n        /* \"contracts/voting.sol\":866:879  voters[voter] */\n      0x00\n        /* \"contracts/voting.sol\":873:878  voter */\n      dup3\n        /* \"contracts/voting.sol\":866:879  voters[voter] */\n      0xffffffffffffffffffffffffffffffffffffffff\n      and\n      0xffffffffffffffffffffffffffffffffffffffff\n      and\n      dup2\n      mstore\n      0x20\n      add\n      swap1\n      dup2\n      mstore\n      0x20\n      add\n      0x00\n      keccak256\n        /* \"contracts/voting.sol\":866:885  voters[voter].voted */\n      0x01\n      add\n      0x00\n      swap1\n      sload\n      swap1\n      0x0100\n      exp\n      swap1\n      div\n      0xff\n      and\n        /* \"contracts/voting.sol\":865:885  !voters[voter].voted */\n      iszero\n        /* \"contracts/voting.sol\":857:918  require(!voters[voter].voted, ... */\n      tag_115\n      jumpi\n      mload(0x40)\n      0x08c379a000000000000000000000000000000000000000000000000000000000\n      dup2\n      mstore\n      0x04\n      add\n      tag_116\n      swap1\n      tag_110\n      jump\t// in\n    tag_116:\n      mload(0x40)\n      dup1\n      swap2\n      sub\n      swap1\n      revert\n    tag_115:\n        /* \"contracts/voting.sol\":960:961  0 */\n      0x00\n        /* \"contracts/voting.sol\":936:942  voters */\n      0x01\n        /* \"contracts/voting.sol\":936:949  voters[voter] */\n      0x00\n        /* \"contracts/voting.sol\":943:948  voter */\n      dup4\n        /* \"contracts/voting.sol\":936:949  voters[voter] */\n      0xffffffffffffffffffffffffffffffffffffffff\n      and\n      0xffffffffffffffffffffffffffffffffffffffff\n      and\n      dup2\n      mstore\n      0x20\n      add\n      swap1\n      dup2\n      mstore\n      0x20\n      add\n      0x00\n      keccak256\n        /* \"contracts/voting.sol\":936:956  voters[voter].weight */\n      0x00\n      add\n      sload\n        /* \"contracts/voting.sol\":936:961  voters[voter].weight == 0 */\n      eq\n        /* \"contracts/voting.sol\":928:962  require(voters[voter].weight == 0) */\n      tag_117\n      jumpi\n      0x00\n      dup1\n      revert\n    tag_117:\n        /* \"contracts/voting.sol\":995:996  1 */\n      0x01\n        /* \"contracts/voting.sol\":972:978  voters */\n      dup1\n        /* \"contracts/voting.sol\":972:985  voters[voter] */\n      0x00\n        /* \"contracts/voting.sol\":979:984  voter */\n      dup4\n        /* \"contracts/voting.sol\":972:985  voters[voter] */\n      0xffffffffffffffffffffffffffffffffffffffff\n      and\n      0xffffffffffffffffffffffffffffffffffffffff\n      and\n      dup2\n      mstore\n      0x20\n      add\n      swap1\n      dup2\n      mstore\n      0x20\n      add\n      0x00\n      keccak256\n        /* \"contracts/voting.sol\":972:992  voters[voter].weight */\n      0x00\n      add\n        /* \"contracts/voting.sol\":972:996  voters[voter].weight = 1 */\n      dup2\n      swap1\n      sstore\n      pop\n        /* \"contracts/voting.sol\":703:1003  function giveRightToVote(address voter) external {... */\n      pop\n      jump\t// out\n        /* \"contracts/voting.sol\":311:351  mapping (address => Voter) public voters */\n    tag_43:\n      mstore(0x20, 0x01)\n      dup1\n      0x00\n      mstore\n      keccak256(0x00, 0x40)\n      0x00\n      swap2\n      pop\n      swap1\n      pop\n      dup1\n      0x00\n      add\n      sload\n      swap1\n      dup1\n      0x01\n      add\n      0x00\n      swap1\n      sload\n      swap1\n      0x0100\n      exp\n      swap1\n      div\n      0xff\n      and\n      swap1\n      dup1\n      0x01\n      add\n      0x01\n      swap1\n      sload\n      swap1\n      0x0100\n      exp\n      swap1\n      div\n      0xffffffffffffffffffffffffffffffffffffffff\n      and\n      swap1\n      dup1\n      0x02\n      add\n      sload\n      swap1\n      pop\n      dup5\n      jump\t// out\n        /* \"contracts/voting.sol\":2604:2732  function winnerName() external view returns(bytes32 winnerName_){... */\n    tag_47:\n        /* \"contracts/voting.sol\":2648:2667  bytes32 winnerName_ */\n      0x00\n        /* \"contracts/voting.sol\":2692:2701  proposals */\n      0x02\n        /* \"contracts/voting.sol\":2702:2719  winningProposal() */\n      tag_119\n        /* \"contracts/voting.sol\":2702:2717  winningProposal */\n      tag_31\n        /* \"contracts/voting.sol\":2702:2719  winningProposal() */\n      jump\t// in\n    tag_119:\n        /* \"contracts/voting.sol\":2692:2720  proposals[winningProposal()] */\n      dup2\n      sload\n      dup2\n      lt\n      tag_120\n      jumpi\n      tag_121\n      tag_59\n      jump\t// in\n    tag_121:\n    tag_120:\n      swap1\n      0x00\n      mstore\n      keccak256(0x00, 0x20)\n      swap1\n      0x02\n      mul\n      add\n        /* \"contracts/voting.sol\":2692:2725  proposals[winningProposal()].name */\n      0x00\n      add\n      sload\n        /* \"contracts/voting.sol\":2678:2725  winnerName_ = proposals[winningProposal()].name */\n      swap1\n      pop\n        /* \"contracts/voting.sol\":2604:2732  function winnerName() external view returns(bytes32 winnerName_){... */\n      swap1\n      jump\t// out\n        /* \"#utility.yul\":7:82   */\n    tag_123:\n        /* \"#utility.yul\":40:46   */\n      0x00\n        /* \"#utility.yul\":73:75   */\n      0x40\n        /* \"#utility.yul\":67:76   */\n      mload\n        /* \"#utility.yul\":57:76   */\n      swap1\n      pop\n        /* \"#utility.yul\":7:82   */\n      swap1\n      jump\t// out\n        /* \"#utility.yul\":88:205   */\n    tag_124:\n        /* \"#utility.yul\":197:198   */\n      0x00\n        /* \"#utility.yul\":194:195   */\n      dup1\n        /* \"#utility.yul\":187:199   */\n      revert\n        /* \"#utility.yul\":211:328   */\n    tag_125:\n        /* \"#utility.yul\":320:321   */\n      0x00\n        /* \"#utility.yul\":317:318   */\n      dup1\n        /* \"#utility.yul\":310:322   */\n      revert\n        /* \"#utility.yul\":334:411   */\n    tag_126:\n        /* \"#utility.yul\":371:378   */\n      0x00\n        /* \"#utility.yul\":400:405   */\n      dup2\n        /* \"#utility.yul\":389:405   */\n      swap1\n      pop\n        /* \"#utility.yul\":334:411   */\n      swap2\n      swap1\n      pop\n      jump\t// out\n        /* \"#utility.yul\":417:539   */\n    tag_127:\n        /* \"#utility.yul\":490:514   */\n      tag_172\n        /* \"#utility.yul\":508:513   */\n      dup2\n        /* \"#utility.yul\":490:514   */\n      tag_126\n      jump\t// in\n    tag_172:\n        /* \"#utility.yul\":483:488   */\n      dup2\n        /* \"#utility.yul\":480:515   */\n      eq\n        /* \"#utility.yul\":470:533   */\n      tag_173\n      jumpi\n        /* \"#utility.yul\":529:530   */\n      0x00\n        /* \"#utility.yul\":526:527   */\n      dup1\n        /* \"#utility.yul\":519:531   */\n      revert\n        /* \"#utility.yul\":470:533   */\n    tag_173:\n        /* \"#utility.yul\":417:539   */\n      pop\n      jump\t// out\n        /* \"#utility.yul\":545:684   */\n    tag_128:\n        /* \"#utility.yul\":591:596   */\n      0x00\n        /* \"#utility.yul\":629:635   */\n      dup2\n        /* \"#utility.yul\":616:636   */\n      calldataload\n        /* \"#utility.yul\":607:636   */\n      swap1\n      pop\n        /* \"#utility.yul\":645:678   */\n      tag_175\n        /* \"#utility.yul\":672:677   */\n      dup2\n        /* \"#utility.yul\":645:678   */\n      tag_127\n      jump\t// in\n    tag_175:\n        /* \"#utility.yul\":545:684   */\n      swap3\n      swap2\n      pop\n      pop\n      jump\t// out\n        /* \"#utility.yul\":690:1019   */\n    tag_15:\n        /* \"#utility.yul\":749:755   */\n      0x00\n        /* \"#utility.yul\":798:800   */\n      0x20\n        /* \"#utility.yul\":786:795   */\n      dup3\n        /* \"#utility.yul\":777:784   */\n      dup5\n        /* \"#utility.yul\":773:796   */\n      sub\n        /* \"#utility.yul\":769:801   */\n      slt\n        /* \"#utility.yul\":766:885   */\n      iszero\n      tag_177\n      jumpi\n        /* \"#utility.yul\":804:883   */\n      tag_178\n      tag_124\n      jump\t// in\n    tag_178:\n        /* \"#utility.yul\":766:885   */\n    tag_177:\n        /* \"#utility.yul\":924:925   */\n      0x00\n        /* \"#utility.yul\":949:1002   */\n      tag_179\n        /* \"#utility.yul\":994:1001   */\n      dup5\n        /* \"#utility.yul\":985:991   */\n      dup3\n        /* \"#utility.yul\":974:983   */\n      dup6\n        /* \"#utility.yul\":970:992   */\n      add\n        /* \"#utility.yul\":949:1002   */\n      tag_128\n      jump\t// in\n    tag_179:\n        /* \"#utility.yul\":939:1002   */\n      swap2\n      pop\n        /* \"#utility.yul\":895:1012   */\n      pop\n        /* \"#utility.yul\":690:1019   */\n      swap3\n      swap2\n      pop\n      pop\n      jump\t// out\n        /* \"#utility.yul\":1025:1102   */\n    tag_129:\n        /* \"#utility.yul\":1062:1069   */\n      0x00\n        /* \"#utility.yul\":1091:1096   */\n      dup2\n        /* \"#utility.yul\":1080:1096   */\n      swap1\n      pop\n        /* \"#utility.yul\":1025:1102   */\n      swap2\n      swap1\n      pop\n      jump\t// out\n        /* \"#utility.yul\":1108:1226   */\n    tag_130:\n        /* \"#utility.yul\":1195:1219   */\n      tag_182\n        /* \"#utility.yul\":1213:1218   */\n      dup2\n        /* \"#utility.yul\":1195:1219   */\n      tag_129\n      jump\t// in\n    tag_182:\n        /* \"#utility.yul\":1190:1193   */\n      dup3\n        /* \"#utility.yul\":1183:1220   */\n      mstore\n        /* \"#utility.yul\":1108:1226   */\n      pop\n      pop\n      jump\t// out\n        /* \"#utility.yul\":1232:1350   */\n    tag_131:\n        /* \"#utility.yul\":1319:1343   */\n      tag_184\n        /* \"#utility.yul\":1337:1342   */\n      dup2\n        /* \"#utility.yul\":1319:1343   */\n      tag_126\n      jump\t// in\n    tag_184:\n        /* \"#utility.yul\":1314:1317   */\n      dup3\n        /* \"#utility.yul\":1307:1344   */\n      mstore\n        /* \"#utility.yul\":1232:1350   */\n      pop\n      pop\n      jump\t// out\n        /* \"#utility.yul\":1356:1688   */\n    tag_21:\n        /* \"#utility.yul\":1477:1481   */\n      0x00\n        /* \"#utility.yul\":1515:1517   */\n      0x40\n        /* \"#utility.yul\":1504:1513   */\n      dup3\n        /* \"#utility.yul\":1500:1518   */\n      add\n        /* \"#utility.yul\":1492:1518   */\n      swap1\n      pop\n        /* \"#utility.yul\":1528:1599   */\n      tag_186\n        /* \"#utility.yul\":1596:1597   */\n      0x00\n        /* \"#utility.yul\":1585:1594   */\n      dup4\n        /* \"#utility.yul\":1581:1598   */\n      add\n        /* \"#utility.yul\":1572:1578   */\n      dup6\n        /* \"#utility.yul\":1528:1599   */\n      tag_130\n      jump\t// in\n    tag_186:\n        /* \"#utility.yul\":1609:1681   */\n      tag_187\n        /* \"#utility.yul\":1677:1679   */\n      0x20\n        /* \"#utility.yul\":1666:1675   */\n      dup4\n        /* \"#utility.yul\":1662:1680   */\n      add\n        /* \"#utility.yul\":1653:1659   */\n      dup5\n        /* \"#utility.yul\":1609:1681   */\n      tag_131\n      jump\t// in\n    tag_187:\n        /* \"#utility.yul\":1356:1688   */\n      swap4\n      swap3\n      pop\n      pop\n      pop\n      jump\t// out\n        /* \"#utility.yul\":1694:1820   */\n    tag_132:\n        /* \"#utility.yul\":1731:1738   */\n      0x00\n        /* \"#utility.yul\":1771:1813   */\n      0xffffffffffffffffffffffffffffffffffffffff\n        /* \"#utility.yul\":1764:1769   */\n      dup3\n        /* \"#utility.yul\":1760:1814   */\n      and\n        /* \"#utility.yul\":1749:1814   */\n      swap1\n      pop\n        /* \"#utility.yul\":1694:1820   */\n      swap2\n      swap1\n      pop\n      jump\t// out\n        /* \"#utility.yul\":1826:1922   */\n    tag_133:\n        /* \"#utility.yul\":1863:1870   */\n      0x00\n        /* \"#utility.yul\":1892:1916   */\n      tag_190\n        /* \"#utility.yul\":1910:1915   */\n      dup3\n        /* \"#utility.yul\":1892:1916   */\n      tag_132\n      jump\t// in\n    tag_190:\n        /* \"#utility.yul\":1881:1916   */\n      swap1\n      pop\n        /* \"#utility.yul\":1826:1922   */\n      swap2\n      swap1\n      pop\n      jump\t// out\n        /* \"#utility.yul\":1928:2046   */\n    tag_134:\n        /* \"#utility.yul\":2015:2039   */\n      tag_192\n        /* \"#utility.yul\":2033:2038   */\n      dup2\n        /* \"#utility.yul\":2015:2039   */\n      tag_133\n      jump\t// in\n    tag_192:\n        /* \"#utility.yul\":2010:2013   */\n      dup3\n        /* \"#utility.yul\":2003:2040   */\n      mstore\n        /* \"#utility.yul\":1928:2046   */\n      pop\n      pop\n      jump\t// out\n        /* \"#utility.yul\":2052:2274   */\n    tag_25:\n        /* \"#utility.yul\":2145:2149   */\n      0x00\n        /* \"#utility.yul\":2183:2185   */\n      0x20\n        /* \"#utility.yul\":2172:2181   */\n      dup3\n        /* \"#utility.yul\":2168:2186   */\n      add\n        /* \"#utility.yul\":2160:2186   */\n      swap1\n      pop\n        /* \"#utility.yul\":2196:2267   */\n      tag_194\n        /* \"#utility.yul\":2264:2265   */\n      0x00\n        /* \"#utility.yul\":2253:2262   */\n      dup4\n        /* \"#utility.yul\":2249:2266   */\n      add\n        /* \"#utility.yul\":2240:2246   */\n      dup5\n        /* \"#utility.yul\":2196:2267   */\n      tag_134\n      jump\t// in\n    tag_194:\n        /* \"#utility.yul\":2052:2274   */\n      swap3\n      swap2\n      pop\n      pop\n      jump\t// out\n        /* \"#utility.yul\":2280:2402   */\n    tag_135:\n        /* \"#utility.yul\":2353:2377   */\n      tag_196\n        /* \"#utility.yul\":2371:2376   */\n      dup2\n        /* \"#utility.yul\":2353:2377   */\n      tag_133\n      jump\t// in\n    tag_196:\n        /* \"#utility.yul\":2346:2351   */\n      dup2\n        /* \"#utility.yul\":2343:2378   */\n      eq\n        /* \"#utility.yul\":2333:2396   */\n      tag_197\n      jumpi\n        /* \"#utility.yul\":2392:2393   */\n      0x00\n        /* \"#utility.yul\":2389:2390   */\n      dup1\n        /* \"#utility.yul\":2382:2394   */\n      revert\n        /* \"#utility.yul\":2333:2396   */\n    tag_197:\n        /* \"#utility.yul\":2280:2402   */\n      pop\n      jump\t// out\n        /* \"#utility.yul\":2408:2547   */\n    tag_136:\n        /* \"#utility.yul\":2454:2459   */\n      0x00\n        /* \"#utility.yul\":2492:2498   */\n      dup2\n        /* \"#utility.yul\":2479:2499   */\n      calldataload\n        /* \"#utility.yul\":2470:2499   */\n      swap1\n      pop\n        /* \"#utility.yul\":2508:2541   */\n      tag_199\n        /* \"#utility.yul\":2535:2540   */\n      dup2\n        /* \"#utility.yul\":2508:2541   */\n      tag_135\n      jump\t// in\n    tag_199:\n        /* \"#utility.yul\":2408:2547   */\n      swap3\n      swap2\n      pop\n      pop\n      jump\t// out\n        /* \"#utility.yul\":2553:2882   */\n    tag_28:\n        /* \"#utility.yul\":2612:2618   */\n      0x00\n        /* \"#utility.yul\":2661:2663   */\n      0x20\n        /* \"#utility.yul\":2649:2658   */\n      dup3\n        /* \"#utility.yul\":2640:2647   */\n      dup5\n        /* \"#utility.yul\":2636:2659   */\n      sub\n        /* \"#utility.yul\":2632:2664   */\n      slt\n        /* \"#utility.yul\":2629:2748   */\n      iszero\n      tag_201\n      jumpi\n        /* \"#utility.yul\":2667:2746   */\n      tag_202\n      tag_124\n      jump\t// in\n    tag_202:\n        /* \"#utility.yul\":2629:2748   */\n    tag_201:\n        /* \"#utility.yul\":2787:2788   */\n      0x00\n        /* \"#utility.yul\":2812:2865   */\n      tag_203\n        /* \"#utility.yul\":2857:2864   */\n      dup5\n        /* \"#utility.yul\":2848:2854   */\n      dup3\n        /* \"#utility.yul\":2837:2846   */\n      dup6\n        /* \"#utility.yul\":2833:2855   */\n      add\n        /* \"#utility.yul\":2812:2865   */\n      tag_136\n      jump\t// in\n    tag_203:\n        /* \"#utility.yul\":2802:2865   */\n      swap2\n      pop\n        /* \"#utility.yul\":2758:2875   */\n      pop\n        /* \"#utility.yul\":2553:2882   */\n      swap3\n      swap2\n      pop\n      pop\n      jump\t// out\n        /* \"#utility.yul\":2888:3110   */\n    tag_33:\n        /* \"#utility.yul\":2981:2985   */\n      0x00\n        /* \"#utility.yul\":3019:3021   */\n      0x20\n        /* \"#utility.yul\":3008:3017   */\n      dup3\n        /* \"#utility.yul\":3004:3022   */\n      add\n        /* \"#utility.yul\":2996:3022   */\n      swap1\n      pop\n        /* \"#utility.yul\":3032:3103   */\n      tag_205\n        /* \"#utility.yul\":3100:3101   */\n      0x00\n        /* \"#utility.yul\":3089:3098   */\n      dup4\n        /* \"#utility.yul\":3085:3102   */\n      add\n        /* \"#utility.yul\":3076:3082   */\n      dup5\n        /* \"#utility.yul\":3032:3103   */\n      tag_131\n      jump\t// in\n    tag_205:\n        /* \"#utility.yul\":2888:3110   */\n      swap3\n      swap2\n      pop\n      pop\n      jump\t// out\n        /* \"#utility.yul\":3116:3233   */\n    tag_137:\n        /* \"#utility.yul\":3225:3226   */\n      0x00\n        /* \"#utility.yul\":3222:3223   */\n      dup1\n        /* \"#utility.yul\":3215:3227   */\n      revert\n        /* \"#utility.yul\":3239:3341   */\n    tag_138:\n        /* \"#utility.yul\":3280:3286   */\n      0x00\n        /* \"#utility.yul\":3331:3333   */\n      0x1f\n        /* \"#utility.yul\":3327:3334   */\n      not\n        /* \"#utility.yul\":3322:3324   */\n      0x1f\n        /* \"#utility.yul\":3315:3320   */\n      dup4\n        /* \"#utility.yul\":3311:3325   */\n      add\n        /* \"#utility.yul\":3307:3335   */\n      and\n        /* \"#utility.yul\":3297:3335   */\n      swap1\n      pop\n        /* \"#utility.yul\":3239:3341   */\n      swap2\n      swap1\n      pop\n      jump\t// out\n        /* \"#utility.yul\":3347:3527   */\n    tag_139:\n        /* \"#utility.yul\":3395:3472   */\n      0x4e487b7100000000000000000000000000000000000000000000000000000000\n        /* \"#utility.yul\":3392:3393   */\n      0x00\n        /* \"#utility.yul\":3385:3473   */\n      mstore\n        /* \"#utility.yul\":3492:3496   */\n      0x41\n        /* \"#utility.yul\":3489:3490   */\n      0x04\n        /* \"#utility.yul\":3482:3497   */\n      mstore\n        /* \"#utility.yul\":3516:3520   */\n      0x24\n        /* \"#utility.yul\":3513:3514   */\n      0x00\n        /* \"#utility.yul\":3506:3521   */\n      revert\n        /* \"#utility.yul\":3533:3814   */\n    tag_140:\n        /* \"#utility.yul\":3616:3643   */\n      tag_210\n        /* \"#utility.yul\":3638:3642   */\n      dup3\n        /* \"#utility.yul\":3616:3643   */\n      tag_138\n      jump\t// in\n    tag_210:\n        /* \"#utility.yul\":3608:3614   */\n      dup2\n        /* \"#utility.yul\":3604:3644   */\n      add\n        /* \"#utility.yul\":3746:3752   */\n      dup2\n        /* \"#utility.yul\":3734:3744   */\n      dup2\n        /* \"#utility.yul\":3731:3753   */\n      lt\n        /* \"#utility.yul\":3710:3728   */\n      0xffffffffffffffff\n        /* \"#utility.yul\":3698:3708   */\n      dup3\n        /* \"#utility.yul\":3695:3729   */\n      gt\n        /* \"#utility.yul\":3692:3754   */\n      or\n        /* \"#utility.yul\":3689:3777   */\n      iszero\n      tag_211\n      jumpi\n        /* \"#utility.yul\":3757:3775   */\n      tag_212\n      tag_139\n      jump\t// in\n    tag_212:\n        /* \"#utility.yul\":3689:3777   */\n    tag_211:\n        /* \"#utility.yul\":3797:3807   */\n      dup1\n        /* \"#utility.yul\":3793:3795   */\n      0x40\n        /* \"#utility.yul\":3786:3808   */\n      mstore\n        /* \"#utility.yul\":3576:3814   */\n      pop\n        /* \"#utility.yul\":3533:3814   */\n      pop\n      pop\n      jump\t// out\n        /* \"#utility.yul\":3820:3949   */\n    tag_141:\n        /* \"#utility.yul\":3854:3860   */\n      0x00\n        /* \"#utility.yul\":3881:3901   */\n      tag_214\n      tag_123\n      jump\t// in\n    tag_214:\n        /* \"#utility.yul\":3871:3901   */\n      swap1\n      pop\n        /* \"#utility.yul\":3910:3943   */\n      tag_215\n        /* \"#utility.yul\":3938:3942   */\n      dup3\n        /* \"#utility.yul\":3930:3936   */\n      dup3\n        /* \"#utility.yul\":3910:3943   */\n      tag_140\n      jump\t// in\n    tag_215:\n        /* \"#utility.yul\":3820:3949   */\n      swap2\n      swap1\n      pop\n      jump\t// out\n        /* \"#utility.yul\":3955:4266   */\n    tag_142:\n        /* \"#utility.yul\":4032:4036   */\n      0x00\n        /* \"#utility.yul\":4122:4140   */\n      0xffffffffffffffff\n        /* \"#utility.yul\":4114:4120   */\n      dup3\n        /* \"#utility.yul\":4111:4141   */\n      gt\n        /* \"#utility.yul\":4108:4164   */\n      iszero\n      tag_217\n      jumpi\n        /* \"#utility.yul\":4144:4162   */\n      tag_218\n      tag_139\n      jump\t// in\n    tag_218:\n        /* \"#utility.yul\":4108:4164   */\n    tag_217:\n        /* \"#utility.yul\":4194:4198   */\n      0x20\n        /* \"#utility.yul\":4186:4192   */\n      dup3\n        /* \"#utility.yul\":4182:4199   */\n      mul\n        /* \"#utility.yul\":4174:4199   */\n      swap1\n      pop\n        /* \"#utility.yul\":4254:4258   */\n      0x20\n        /* \"#utility.yul\":4248:4252   */\n      dup2\n        /* \"#utility.yul\":4244:4259   */\n      add\n        /* \"#utility.yul\":4236:4259   */\n      swap1\n      pop\n        /* \"#utility.yul\":3955:4266   */\n      swap2\n      swap1\n      pop\n      jump\t// out\n        /* \"#utility.yul\":4272:4389   */\n    tag_143:\n        /* \"#utility.yul\":4381:4382   */\n      0x00\n        /* \"#utility.yul\":4378:4379   */\n      dup1\n        /* \"#utility.yul\":4371:4383   */\n      revert\n        /* \"#utility.yul\":4412:5122   */\n    tag_144:\n        /* \"#utility.yul\":4508:4513   */\n      0x00\n        /* \"#utility.yul\":4533:4614   */\n      tag_221\n        /* \"#utility.yul\":4549:4613   */\n      tag_222\n        /* \"#utility.yul\":4606:4612   */\n      dup5\n        /* \"#utility.yul\":4549:4613   */\n      tag_142\n      jump\t// in\n    tag_222:\n        /* \"#utility.yul\":4533:4614   */\n      tag_141\n      jump\t// in\n    tag_221:\n        /* \"#utility.yul\":4524:4614   */\n      swap1\n      pop\n        /* \"#utility.yul\":4634:4639   */\n      dup1\n        /* \"#utility.yul\":4663:4669   */\n      dup4\n        /* \"#utility.yul\":4656:4661   */\n      dup3\n        /* \"#utility.yul\":4649:4670   */\n      mstore\n        /* \"#utility.yul\":4697:4701   */\n      0x20\n        /* \"#utility.yul\":4690:4695   */\n      dup3\n        /* \"#utility.yul\":4686:4702   */\n      add\n        /* \"#utility.yul\":4679:4702   */\n      swap1\n      pop\n        /* \"#utility.yul\":4750:4754   */\n      0x20\n        /* \"#utility.yul\":4742:4748   */\n      dup5\n        /* \"#utility.yul\":4738:4755   */\n      mul\n        /* \"#utility.yul\":4730:4736   */\n      dup4\n        /* \"#utility.yul\":4726:4756   */\n      add\n        /* \"#utility.yul\":4779:4782   */\n      dup6\n        /* \"#utility.yul\":4771:4777   */\n      dup2\n        /* \"#utility.yul\":4768:4783   */\n      gt\n        /* \"#utility.yul\":4765:4887   */\n      iszero\n      tag_223\n      jumpi\n        /* \"#utility.yul\":4798:4877   */\n      tag_224\n      tag_143\n      jump\t// in\n    tag_224:\n        /* \"#utility.yul\":4765:4887   */\n    tag_223:\n        /* \"#utility.yul\":4913:4919   */\n      dup4\n        /* \"#utility.yul\":4896:5116   */\n    tag_225:\n        /* \"#utility.yul\":4930:4936   */\n      dup2\n        /* \"#utility.yul\":4925:4928   */\n      dup2\n        /* \"#utility.yul\":4922:4937   */\n      lt\n        /* \"#utility.yul\":4896:5116   */\n      iszero\n      tag_227\n      jumpi\n        /* \"#utility.yul\":5005:5008   */\n      dup1\n        /* \"#utility.yul\":5034:5071   */\n      tag_228\n        /* \"#utility.yul\":5067:5070   */\n      dup9\n        /* \"#utility.yul\":5055:5065   */\n      dup3\n        /* \"#utility.yul\":5034:5071   */\n      tag_136\n      jump\t// in\n    tag_228:\n        /* \"#utility.yul\":5029:5032   */\n      dup5\n        /* \"#utility.yul\":5022:5072   */\n      mstore\n        /* \"#utility.yul\":5101:5105   */\n      0x20\n        /* \"#utility.yul\":5096:5099   */\n      dup5\n        /* \"#utility.yul\":5092:5106   */\n      add\n        /* \"#utility.yul\":5085:5106   */\n      swap4\n      pop\n        /* \"#utility.yul\":4972:5116   */\n      pop\n        /* \"#utility.yul\":4956:4960   */\n      0x20\n        /* \"#utility.yul\":4951:4954   */\n      dup2\n        /* \"#utility.yul\":4947:4961   */\n      add\n        /* \"#utility.yul\":4940:4961   */\n      swap1\n      pop\n        /* \"#utility.yul\":4896:5116   */\n      jump(tag_225)\n    tag_227:\n        /* \"#utility.yul\":4900:4921   */\n      pop\n        /* \"#utility.yul\":4514:5122   */\n      pop\n      pop\n        /* \"#utility.yul\":4412:5122   */\n      swap4\n      swap3\n      pop\n      pop\n      pop\n      jump\t// out\n        /* \"#utility.yul\":5145:5515   */\n    tag_145:\n        /* \"#utility.yul\":5216:5221   */\n      0x00\n        /* \"#utility.yul\":5265:5268   */\n      dup3\n        /* \"#utility.yul\":5258:5262   */\n      0x1f\n        /* \"#utility.yul\":5250:5256   */\n      dup4\n        /* \"#utility.yul\":5246:5263   */\n      add\n        /* \"#utility.yul\":5242:5269   */\n      slt\n        /* \"#utility.yul\":5232:5354   */\n      tag_230\n      jumpi\n        /* \"#utility.yul\":5273:5352   */\n      tag_231\n      tag_137\n      jump\t// in\n    tag_231:\n        /* \"#utility.yul\":5232:5354   */\n    tag_230:\n        /* \"#utility.yul\":5390:5396   */\n      dup2\n        /* \"#utility.yul\":5377:5397   */\n      calldataload\n        /* \"#utility.yul\":5415:5509   */\n      tag_232\n        /* \"#utility.yul\":5505:5508   */\n      dup5\n        /* \"#utility.yul\":5497:5503   */\n      dup3\n        /* \"#utility.yul\":5490:5494   */\n      0x20\n        /* \"#utility.yul\":5482:5488   */\n      dup7\n        /* \"#utility.yul\":5478:5495   */\n      add\n        /* \"#utility.yul\":5415:5509   */\n      tag_144\n      jump\t// in\n    tag_232:\n        /* \"#utility.yul\":5406:5509   */\n      swap2\n      pop\n        /* \"#utility.yul\":5222:5515   */\n      pop\n        /* \"#utility.yul\":5145:5515   */\n      swap3\n      swap2\n      pop\n      pop\n      jump\t// out\n        /* \"#utility.yul\":5521:6060   */\n    tag_36:\n        /* \"#utility.yul\":5605:5611   */\n      0x00\n        /* \"#utility.yul\":5654:5656   */\n      0x20\n        /* \"#utility.yul\":5642:5651   */\n      dup3\n        /* \"#utility.yul\":5633:5640   */\n      dup5\n        /* \"#utility.yul\":5629:5652   */\n      sub\n        /* \"#utility.yul\":5625:5657   */\n      slt\n        /* \"#utility.yul\":5622:5741   */\n      iszero\n      tag_234\n      jumpi\n        /* \"#utility.yul\":5660:5739   */\n      tag_235\n      tag_124\n      jump\t// in\n    tag_235:\n        /* \"#utility.yul\":5622:5741   */\n    tag_234:\n        /* \"#utility.yul\":5808:5809   */\n      0x00\n        /* \"#utility.yul\":5797:5806   */\n      dup3\n        /* \"#utility.yul\":5793:5810   */\n      add\n        /* \"#utility.yul\":5780:5811   */\n      calldataload\n        /* \"#utility.yul\":5838:5856   */\n      0xffffffffffffffff\n        /* \"#utility.yul\":5830:5836   */\n      dup2\n        /* \"#utility.yul\":5827:5857   */\n      gt\n        /* \"#utility.yul\":5824:5941   */\n      iszero\n      tag_236\n      jumpi\n        /* \"#utility.yul\":5860:5939   */\n      tag_237\n      tag_125\n      jump\t// in\n    tag_237:\n        /* \"#utility.yul\":5824:5941   */\n    tag_236:\n        /* \"#utility.yul\":5965:6043   */\n      tag_238\n        /* \"#utility.yul\":6035:6042   */\n      dup5\n        /* \"#utility.yul\":6026:6032   */\n      dup3\n        /* \"#utility.yul\":6015:6024   */\n      dup6\n        /* \"#utility.yul\":6011:6033   */\n      add\n        /* \"#utility.yul\":5965:6043   */\n      tag_145\n      jump\t// in\n    tag_238:\n        /* \"#utility.yul\":5955:6043   */\n      swap2\n      pop\n        /* \"#utility.yul\":5751:6053   */\n      pop\n        /* \"#utility.yul\":5521:6060   */\n      swap3\n      swap2\n      pop\n      pop\n      jump\t// out\n        /* \"#utility.yul\":6066:6156   */\n    tag_146:\n        /* \"#utility.yul\":6100:6107   */\n      0x00\n        /* \"#utility.yul\":6143:6148   */\n      dup2\n        /* \"#utility.yul\":6136:6149   */\n      iszero\n        /* \"#utility.yul\":6129:6150   */\n      iszero\n        /* \"#utility.yul\":6118:6150   */\n      swap1\n      pop\n        /* \"#utility.yul\":6066:6156   */\n      swap2\n      swap1\n      pop\n      jump\t// out\n        /* \"#utility.yul\":6162:6271   */\n    tag_147:\n        /* \"#utility.yul\":6243:6264   */\n      tag_241\n        /* \"#utility.yul\":6258:6263   */\n      dup2\n        /* \"#utility.yul\":6243:6264   */\n      tag_146\n      jump\t// in\n    tag_241:\n        /* \"#utility.yul\":6238:6241   */\n      dup3\n        /* \"#utility.yul\":6231:6265   */\n      mstore\n        /* \"#utility.yul\":6162:6271   */\n      pop\n      pop\n      jump\t// out\n        /* \"#utility.yul\":6277:6818   */\n    tag_45:\n        /* \"#utility.yul\":6448:6452   */\n      0x00\n        /* \"#utility.yul\":6486:6489   */\n      0x80\n        /* \"#utility.yul\":6475:6484   */\n      dup3\n        /* \"#utility.yul\":6471:6490   */\n      add\n        /* \"#utility.yul\":6463:6490   */\n      swap1\n      pop\n        /* \"#utility.yul\":6500:6571   */\n      tag_243\n        /* \"#utility.yul\":6568:6569   */\n      0x00\n        /* \"#utility.yul\":6557:6566   */\n      dup4\n        /* \"#utility.yul\":6553:6570   */\n      add\n        /* \"#utility.yul\":6544:6550   */\n      dup8\n        /* \"#utility.yul\":6500:6571   */\n      tag_131\n      jump\t// in\n    tag_243:\n        /* \"#utility.yul\":6581:6647   */\n      tag_244\n        /* \"#utility.yul\":6643:6645   */\n      0x20\n        /* \"#utility.yul\":6632:6641   */\n      dup4\n        /* \"#utility.yul\":6628:6646   */\n      add\n        /* \"#utility.yul\":6619:6625   */\n      dup7\n        /* \"#utility.yul\":6581:6647   */\n      tag_147\n      jump\t// in\n    tag_244:\n        /* \"#utility.yul\":6657:6729   */\n      tag_245\n        /* \"#utility.yul\":6725:6727   */\n      0x40\n        /* \"#utility.yul\":6714:6723   */\n      dup4\n        /* \"#utility.yul\":6710:6728   */\n      add\n        /* \"#utility.yul\":6701:6707   */\n      dup6\n        /* \"#utility.yul\":6657:6729   */\n      tag_134\n      jump\t// in\n    tag_245:\n        /* \"#utility.yul\":6739:6811   */\n      tag_246\n        /* \"#utility.yul\":6807:6809   */\n      0x60\n        /* \"#utility.yul\":6796:6805   */\n      dup4\n        /* \"#utility.yul\":6792:6810   */\n      add\n        /* \"#utility.yul\":6783:6789   */\n      dup5\n        /* \"#utility.yul\":6739:6811   */\n      tag_131\n      jump\t// in\n    tag_246:\n        /* \"#utility.yul\":6277:6818   */\n      swap6\n      swap5\n      pop\n      pop\n      pop\n      pop\n      pop\n      jump\t// out\n        /* \"#utility.yul\":6824:7046   */\n    tag_49:\n        /* \"#utility.yul\":6917:6921   */\n      0x00\n        /* \"#utility.yul\":6955:6957   */\n      0x20\n        /* \"#utility.yul\":6944:6953   */\n      dup3\n        /* \"#utility.yul\":6940:6958   */\n      add\n        /* \"#utility.yul\":6932:6958   */\n      swap1\n      pop\n        /* \"#utility.yul\":6968:7039   */\n      tag_248\n        /* \"#utility.yul\":7036:7037   */\n      0x00\n        /* \"#utility.yul\":7025:7034   */\n      dup4\n        /* \"#utility.yul\":7021:7038   */\n      add\n        /* \"#utility.yul\":7012:7018   */\n      dup5\n        /* \"#utility.yul\":6968:7039   */\n      tag_130\n      jump\t// in\n    tag_248:\n        /* \"#utility.yul\":6824:7046   */\n      swap3\n      swap2\n      pop\n      pop\n      jump\t// out\n        /* \"#utility.yul\":7052:7221   */\n    tag_148:\n        /* \"#utility.yul\":7136:7147   */\n      0x00\n        /* \"#utility.yul\":7170:7176   */\n      dup3\n        /* \"#utility.yul\":7165:7168   */\n      dup3\n        /* \"#utility.yul\":7158:7177   */\n      mstore\n        /* \"#utility.yul\":7210:7214   */\n      0x20\n        /* \"#utility.yul\":7205:7208   */\n      dup3\n        /* \"#utility.yul\":7201:7215   */\n      add\n        /* \"#utility.yul\":7186:7215   */\n      swap1\n      pop\n        /* \"#utility.yul\":7052:7221   */\n      swap3\n      swap2\n      pop\n      pop\n      jump\t// out\n        /* \"#utility.yul\":7227:7397   */\n    tag_149:\n        /* \"#utility.yul\":7367:7389   */\n      0x686173206e6f20726967687420746f20766f7465000000000000000000000000\n        /* \"#utility.yul\":7363:7364   */\n      0x00\n        /* \"#utility.yul\":7355:7361   */\n      dup3\n        /* \"#utility.yul\":7351:7365   */\n      add\n        /* \"#utility.yul\":7344:7390   */\n      mstore\n        /* \"#utility.yul\":7227:7397   */\n      pop\n      jump\t// out\n        /* \"#utility.yul\":7403:7769   */\n    tag_150:\n        /* \"#utility.yul\":7545:7548   */\n      0x00\n        /* \"#utility.yul\":7566:7633   */\n      tag_252\n        /* \"#utility.yul\":7630:7632   */\n      0x14\n        /* \"#utility.yul\":7625:7628   */\n      dup4\n        /* \"#utility.yul\":7566:7633   */\n      tag_148\n      jump\t// in\n    tag_252:\n        /* \"#utility.yul\":7559:7633   */\n      swap2\n      pop\n        /* \"#utility.yul\":7642:7735   */\n      tag_253\n        /* \"#utility.yul\":7731:7734   */\n      dup3\n        /* \"#utility.yul\":7642:7735   */\n      tag_149\n      jump\t// in\n    tag_253:\n        /* \"#utility.yul\":7760:7762   */\n      0x20\n        /* \"#utility.yul\":7755:7758   */\n      dup3\n        /* \"#utility.yul\":7751:7763   */\n      add\n        /* \"#utility.yul\":7744:7763   */\n      swap1\n      pop\n        /* \"#utility.yul\":7403:7769   */\n      swap2\n      swap1\n      pop\n      jump\t// out\n        /* \"#utility.yul\":7775:8194   */\n    tag_53:\n        /* \"#utility.yul\":7941:7945   */\n      0x00\n        /* \"#utility.yul\":7979:7981   */\n      0x20\n        /* \"#utility.yul\":7968:7977   */\n      dup3\n        /* \"#utility.yul\":7964:7982   */\n      add\n        /* \"#utility.yul\":7956:7982   */\n      swap1\n      pop\n        /* \"#utility.yul\":8028:8037   */\n      dup2\n        /* \"#utility.yul\":8022:8026   */\n      dup2\n        /* \"#utility.yul\":8018:8038   */\n      sub\n        /* \"#utility.yul\":8014:8015   */\n      0x00\n        /* \"#utility.yul\":8003:8012   */\n      dup4\n        /* \"#utility.yul\":7999:8016   */\n      add\n        /* \"#utility.yul\":7992:8039   */\n      mstore\n        /* \"#utility.yul\":8056:8187   */\n      tag_255\n        /* \"#utility.yul\":8182:8186   */\n      dup2\n        /* \"#utility.yul\":8056:8187   */\n      tag_150\n      jump\t// in\n    tag_255:\n        /* \"#utility.yul\":8048:8187   */\n      swap1\n      pop\n        /* \"#utility.yul\":7775:8194   */\n      swap2\n      swap1\n      pop\n      jump\t// out\n        /* \"#utility.yul\":8200:8363   */\n    tag_151:\n        /* \"#utility.yul\":8340:8355   */\n      0x616c726561647920766f74656400000000000000000000000000000000000000\n        /* \"#utility.yul\":8336:8337   */\n      0x00\n        /* \"#utility.yul\":8328:8334   */\n      dup3\n        /* \"#utility.yul\":8324:8338   */\n      add\n        /* \"#utility.yul\":8317:8356   */\n      mstore\n        /* \"#utility.yul\":8200:8363   */\n      pop\n      jump\t// out\n        /* \"#utility.yul\":8369:8735   */\n    tag_152:\n        /* \"#utility.yul\":8511:8514   */\n      0x00\n        /* \"#utility.yul\":8532:8599   */\n      tag_258\n        /* \"#utility.yul\":8596:8598   */\n      0x0d\n        /* \"#utility.yul\":8591:8594   */\n      dup4\n        /* \"#utility.yul\":8532:8599   */\n      tag_148\n      jump\t// in\n    tag_258:\n        /* \"#utility.yul\":8525:8599   */\n      swap2\n      pop\n        /* \"#utility.yul\":8608:8701   */\n      tag_259\n        /* \"#utility.yul\":8697:8700   */\n      dup3\n        /* \"#utility.yul\":8608:8701   */\n      tag_151\n      jump\t// in\n    tag_259:\n        /* \"#utility.yul\":8726:8728   */\n      0x20\n        /* \"#utility.yul\":8721:8724   */\n      dup3\n        /* \"#utility.yul\":8717:8729   */\n      add\n        /* \"#utility.yul\":8710:8729   */\n      swap1\n      pop\n        /* \"#utility.yul\":8369:8735   */\n      swap2\n      swap1\n      pop\n      jump\t// out\n        /* \"#utility.yul\":8741:9160   */\n    tag_56:\n        /* \"#utility.yul\":8907:8911   */\n      0x00\n        /* \"#utility.yul\":8945:8947   */\n      0x20\n        /* \"#utility.yul\":8934:8943   */\n      dup3\n        /* \"#utility.yul\":8930:8948   */\n      add\n        /* \"#utility.yul\":8922:8948   */\n      swap1\n      pop\n        /* \"#utility.yul\":8994:9003   */\n      dup2\n        /* \"#utility.yul\":8988:8992   */\n      dup2\n        /* \"#utility.yul\":8984:9004   */\n      sub\n        /* \"#utility.yul\":8980:8981   */\n      0x00\n        /* \"#utility.yul\":8969:8978   */\n      dup4\n        /* \"#utility.yul\":8965:8982   */\n      add\n        /* \"#utility.yul\":8958:9005   */\n      mstore\n        /* \"#utility.yul\":9022:9153   */\n      tag_261\n        /* \"#utility.yul\":9148:9152   */\n      dup2\n        /* \"#utility.yul\":9022:9153   */\n      tag_152\n      jump\t// in\n    tag_261:\n        /* \"#utility.yul\":9014:9153   */\n      swap1\n      pop\n        /* \"#utility.yul\":8741:9160   */\n      swap2\n      swap1\n      pop\n      jump\t// out\n        /* \"#utility.yul\":9166:9346   */\n    tag_59:\n        /* \"#utility.yul\":9214:9291   */\n      0x4e487b7100000000000000000000000000000000000000000000000000000000\n        /* \"#utility.yul\":9211:9212   */\n      0x00\n        /* \"#utility.yul\":9204:9292   */\n      mstore\n        /* \"#utility.yul\":9311:9315   */\n      0x32\n        /* \"#utility.yul\":9308:9309   */\n      0x04\n        /* \"#utility.yul\":9301:9316   */\n      mstore\n        /* \"#utility.yul\":9335:9339   */\n      0x24\n        /* \"#utility.yul\":9332:9333   */\n      0x00\n        /* \"#utility.yul\":9325:9340   */\n      revert\n        /* \"#utility.yul\":9352:9532   */\n    tag_153:\n        /* \"#utility.yul\":9400:9477   */\n      0x4e487b7100000000000000000000000000000000000000000000000000000000\n        /* \"#utility.yul\":9397:9398   */\n      0x00\n        /* \"#utility.yul\":9390:9478   */\n      mstore\n        /* \"#utility.yul\":9497:9501   */\n      0x11\n        /* \"#utility.yul\":9494:9495   */\n      0x04\n        /* \"#utility.yul\":9487:9502   */\n      mstore\n        /* \"#utility.yul\":9521:9525   */\n      0x24\n        /* \"#utility.yul\":9518:9519   */\n      0x00\n        /* \"#utility.yul\":9511:9526   */\n      revert\n        /* \"#utility.yul\":9538:9729   */\n    tag_62:\n        /* \"#utility.yul\":9578:9581   */\n      0x00\n        /* \"#utility.yul\":9597:9617   */\n      tag_265\n        /* \"#utility.yul\":9615:9616   */\n      dup3\n        /* \"#utility.yul\":9597:9617   */\n      tag_126\n      jump\t// in\n    tag_265:\n        /* \"#utility.yul\":9592:9617   */\n      swap2\n      pop\n        /* \"#utility.yul\":9631:9651   */\n      tag_266\n        /* \"#utility.yul\":9649:9650   */\n      dup4\n        /* \"#utility.yul\":9631:9651   */\n      tag_126\n      jump\t// in\n    tag_266:\n        /* \"#utility.yul\":9626:9651   */\n      swap3\n      pop\n        /* \"#utility.yul\":9674:9675   */\n      dup3\n        /* \"#utility.yul\":9671:9672   */\n      dup3\n        /* \"#utility.yul\":9667:9676   */\n      add\n        /* \"#utility.yul\":9660:9676   */\n      swap1\n      pop\n        /* \"#utility.yul\":9695:9698   */\n      dup1\n        /* \"#utility.yul\":9692:9693   */\n      dup3\n        /* \"#utility.yul\":9689:9699   */\n      gt\n        /* \"#utility.yul\":9686:9722   */\n      iszero\n      tag_267\n      jumpi\n        /* \"#utility.yul\":9702:9720   */\n      tag_268\n      tag_153\n      jump\t// in\n    tag_268:\n        /* \"#utility.yul\":9686:9722   */\n    tag_267:\n        /* \"#utility.yul\":9538:9729   */\n      swap3\n      swap2\n      pop\n      pop\n      jump\t// out\n        /* \"#utility.yul\":9735:9910   */\n    tag_154:\n        /* \"#utility.yul\":9875:9902   */\n      0x796f752068617665206e6f20726967746820746f20766f746500000000000000\n        /* \"#utility.yul\":9871:9872   */\n      0x00\n        /* \"#utility.yul\":9863:9869   */\n      dup3\n        /* \"#utility.yul\":9859:9873   */\n      add\n        /* \"#utility.yul\":9852:9903   */\n      mstore\n        /* \"#utility.yul\":9735:9910   */\n      pop\n      jump\t// out\n        /* \"#utility.yul\":9916:10282   */\n    tag_155:\n        /* \"#utility.yul\":10058:10061   */\n      0x00\n        /* \"#utility.yul\":10079:10146   */\n      tag_271\n        /* \"#utility.yul\":10143:10145   */\n      0x19\n        /* \"#utility.yul\":10138:10141   */\n      dup4\n        /* \"#utility.yul\":10079:10146   */\n      tag_148\n      jump\t// in\n    tag_271:\n        /* \"#utility.yul\":10072:10146   */\n      swap2\n      pop\n        /* \"#utility.yul\":10155:10248   */\n      tag_272\n        /* \"#utility.yul\":10244:10247   */\n      dup3\n        /* \"#utility.yul\":10155:10248   */\n      tag_154\n      jump\t// in\n    tag_272:\n        /* \"#utility.yul\":10273:10275   */\n      0x20\n        /* \"#utility.yul\":10268:10271   */\n      dup3\n        /* \"#utility.yul\":10264:10276   */\n      add\n        /* \"#utility.yul\":10257:10276   */\n      swap1\n      pop\n        /* \"#utility.yul\":9916:10282   */\n      swap2\n      swap1\n      pop\n      jump\t// out\n        /* \"#utility.yul\":10288:10707   */\n    tag_68:\n        /* \"#utility.yul\":10454:10458   */\n      0x00\n        /* \"#utility.yul\":10492:10494   */\n      0x20\n        /* \"#utility.yul\":10481:10490   */\n      dup3\n        /* \"#utility.yul\":10477:10495   */\n      add\n        /* \"#utility.yul\":10469:10495   */\n      swap1\n      pop\n        /* \"#utility.yul\":10541:10550   */\n      dup2\n        /* \"#utility.yul\":10535:10539   */\n      dup2\n        /* \"#utility.yul\":10531:10551   */\n      sub\n        /* \"#utility.yul\":10527:10528   */\n      0x00\n        /* \"#utility.yul\":10516:10525   */\n      dup4\n        /* \"#utility.yul\":10512:10529   */\n      add\n        /* \"#utility.yul\":10505:10552   */\n      mstore\n        /* \"#utility.yul\":10569:10700   */\n      tag_274\n        /* \"#utility.yul\":10695:10699   */\n      dup2\n        /* \"#utility.yul\":10569:10700   */\n      tag_155\n      jump\t// in\n    tag_274:\n        /* \"#utility.yul\":10561:10700   */\n      swap1\n      pop\n        /* \"#utility.yul\":10288:10707   */\n      swap2\n      swap1\n      pop\n      jump\t// out\n        /* \"#utility.yul\":10713:10880   */\n    tag_156:\n        /* \"#utility.yul\":10853:10872   */\n      0x796f7520616c726561647920766f746564000000000000000000000000000000\n        /* \"#utility.yul\":10849:10850   */\n      0x00\n        /* \"#utility.yul\":10841:10847   */\n      dup3\n        /* \"#utility.yul\":10837:10851   */\n      add\n        /* \"#utility.yul\":10830:10873   */\n      mstore\n        /* \"#utility.yul\":10713:10880   */\n      pop\n      jump\t// out\n        /* \"#utility.yul\":10886:11252   */\n    tag_157:\n        /* \"#utility.yul\":11028:11031   */\n      0x00\n        /* \"#utility.yul\":11049:11116   */\n      tag_277\n        /* \"#utility.yul\":11113:11115   */\n      0x11\n        /* \"#utility.yul\":11108:11111   */\n      dup4\n        /* \"#utility.yul\":11049:11116   */\n      tag_148\n      jump\t// in\n    tag_277:\n        /* \"#utility.yul\":11042:11116   */\n      swap2\n      pop\n        /* \"#utility.yul\":11125:11218   */\n      tag_278\n        /* \"#utility.yul\":11214:11217   */\n      dup3\n        /* \"#utility.yul\":11125:11218   */\n      tag_156\n      jump\t// in\n    tag_278:\n        /* \"#utility.yul\":11243:11245   */\n      0x20\n        /* \"#utility.yul\":11238:11241   */\n      dup3\n        /* \"#utility.yul\":11234:11246   */\n      add\n        /* \"#utility.yul\":11227:11246   */\n      swap1\n      pop\n        /* \"#utility.yul\":10886:11252   */\n      swap2\n      swap1\n      pop\n      jump\t// out\n        /* \"#utility.yul\":11258:11677   */\n    tag_71:\n        /* \"#utility.yul\":11424:11428   */\n      0x00\n        /* \"#utility.yul\":11462:11464   */\n      0x20\n        /* \"#utility.yul\":11451:11460   */\n      dup3\n        /* \"#utility.yul\":11447:11465   */\n      add\n        /* \"#utility.yul\":11439:11465   */\n      swap1\n      pop\n        /* \"#utility.yul\":11511:11520   */\n      dup2\n        /* \"#utility.yul\":11505:11509   */\n      dup2\n        /* \"#utility.yul\":11501:11521   */\n      sub\n        /* \"#utility.yul\":11497:11498   */\n      0x00\n        /* \"#utility.yul\":11486:11495   */\n      dup4\n        /* \"#utility.yul\":11482:11499   */\n      add\n        /* \"#utility.yul\":11475:11522   */\n      mstore\n        /* \"#utility.yul\":11539:11670   */\n      tag_280\n        /* \"#utility.yul\":11665:11669   */\n      dup2\n        /* \"#utility.yul\":11539:11670   */\n      tag_157\n      jump\t// in\n    tag_280:\n        /* \"#utility.yul\":11531:11670   */\n      swap1\n      pop\n        /* \"#utility.yul\":11258:11677   */\n      swap2\n      swap1\n      pop\n      jump\t// out\n        /* \"#utility.yul\":11683:11862   */\n    tag_158:\n        /* \"#utility.yul\":11823:11854   */\n      0x73656c662d64656c65676174696f6e2069736e277420616c6c6f776564000000\n        /* \"#utility.yul\":11819:11820   */\n      0x00\n        /* \"#utility.yul\":11811:11817   */\n      dup3\n        /* \"#utility.yul\":11807:11821   */\n      add\n        /* \"#utility.yul\":11800:11855   */\n      mstore\n        /* \"#utility.yul\":11683:11862   */\n      pop\n      jump\t// out\n        /* \"#utility.yul\":11868:12234   */\n    tag_159:\n        /* \"#utility.yul\":12010:12013   */\n      0x00\n        /* \"#utility.yul\":12031:12098   */\n      tag_283\n        /* \"#utility.yul\":12095:12097   */\n      0x1d\n        /* \"#utility.yul\":12090:12093   */\n      dup4\n        /* \"#utility.yul\":12031:12098   */\n      tag_148\n      jump\t// in\n    tag_283:\n        /* \"#utility.yul\":12024:12098   */\n      swap2\n      pop\n        /* \"#utility.yul\":12107:12200   */\n      tag_284\n        /* \"#utility.yul\":12196:12199   */\n      dup3\n        /* \"#utility.yul\":12107:12200   */\n      tag_158\n      jump\t// in\n    tag_284:\n        /* \"#utility.yul\":12225:12227   */\n      0x20\n        /* \"#utility.yul\":12220:12223   */\n      dup3\n        /* \"#utility.yul\":12216:12228   */\n      add\n        /* \"#utility.yul\":12209:12228   */\n      swap1\n      pop\n        /* \"#utility.yul\":11868:12234   */\n      swap2\n      swap1\n      pop\n      jump\t// out\n        /* \"#utility.yul\":12240:12659   */\n    tag_74:\n        /* \"#utility.yul\":12406:12410   */\n      0x00\n        /* \"#utility.yul\":12444:12446   */\n      0x20\n        /* \"#utility.yul\":12433:12442   */\n      dup3\n        /* \"#utility.yul\":12429:12447   */\n      add\n        /* \"#utility.yul\":12421:12447   */\n      swap1\n      pop\n        /* \"#utility.yul\":12493:12502   */\n      dup2\n        /* \"#utility.yul\":12487:12491   */\n      dup2\n        /* \"#utility.yul\":12483:12503   */\n      sub\n        /* \"#utility.yul\":12479:12480   */\n      0x00\n        /* \"#utility.yul\":12468:12477   */\n      dup4\n        /* \"#utility.yul\":12464:12481   */\n      add\n        /* \"#utility.yul\":12457:12504   */\n      mstore\n        /* \"#utility.yul\":12521:12652   */\n      tag_286\n        /* \"#utility.yul\":12647:12651   */\n      dup2\n        /* \"#utility.yul\":12521:12652   */\n      tag_159\n      jump\t// in\n    tag_286:\n        /* \"#utility.yul\":12513:12652   */\n      swap1\n      pop\n        /* \"#utility.yul\":12240:12659   */\n      swap2\n      swap1\n      pop\n      jump\t// out\n        /* \"#utility.yul\":12665:12839   */\n    tag_160:\n        /* \"#utility.yul\":12805:12831   */\n      0x466f756e64206c6f6f7020696e2064656c65676174696f6e0000000000000000\n        /* \"#utility.yul\":12801:12802   */\n      0x00\n        /* \"#utility.yul\":12793:12799   */\n      dup3\n        /* \"#utility.yul\":12789:12803   */\n      add\n        /* \"#utility.yul\":12782:12832   */\n      mstore\n        /* \"#utility.yul\":12665:12839   */\n      pop\n      jump\t// out\n        /* \"#utility.yul\":12845:13211   */\n    tag_161:\n        /* \"#utility.yul\":12987:12990   */\n      0x00\n        /* \"#utility.yul\":13008:13075   */\n      tag_289\n        /* \"#utility.yul\":13072:13074   */\n      0x18\n        /* \"#utility.yul\":13067:13070   */\n      dup4\n        /* \"#utility.yul\":13008:13075   */\n      tag_148\n      jump\t// in\n    tag_289:\n        /* \"#utility.yul\":13001:13075   */\n      swap2\n      pop\n        /* \"#utility.yul\":13084:13177   */\n      tag_290\n        /* \"#utility.yul\":13173:13176   */\n      dup3\n        /* \"#utility.yul\":13084:13177   */\n      tag_160\n      jump\t// in\n    tag_290:\n        /* \"#utility.yul\":13202:13204   */\n      0x20\n        /* \"#utility.yul\":13197:13200   */\n      dup3\n        /* \"#utility.yul\":13193:13205   */\n      add\n        /* \"#utility.yul\":13186:13205   */\n      swap1\n      pop\n        /* \"#utility.yul\":12845:13211   */\n      swap2\n      swap1\n      pop\n      jump\t// out\n        /* \"#utility.yul\":13217:13636   */\n    tag_79:\n        /* \"#utility.yul\":13383:13387   */\n      0x00\n        /* \"#utility.yul\":13421:13423   */\n      0x20\n        /* \"#utility.yul\":13410:13419   */\n      dup3\n        /* \"#utility.yul\":13406:13424   */\n      add\n        /* \"#utility.yul\":13398:13424   */\n      swap1\n      pop\n        /* \"#utility.yul\":13470:13479   */\n      dup2\n        /* \"#utility.yul\":13464:13468   */\n      dup2\n        /* \"#utility.yul\":13460:13480   */\n      sub\n        /* \"#utility.yul\":13456:13457   */\n      0x00\n        /* \"#utility.yul\":13445:13454   */\n      dup4\n        /* \"#utility.yul\":13441:13458   */\n      add\n        /* \"#utility.yul\":13434:13481   */\n      mstore\n        /* \"#utility.yul\":13498:13629   */\n      tag_292\n        /* \"#utility.yul\":13624:13628   */\n      dup2\n        /* \"#utility.yul\":13498:13629   */\n      tag_161\n      jump\t// in\n    tag_292:\n        /* \"#utility.yul\":13490:13629   */\n      swap1\n      pop\n        /* \"#utility.yul\":13217:13636   */\n      swap2\n      swap1\n      pop\n      jump\t// out\n        /* \"#utility.yul\":13642:13868   */\n    tag_162:\n        /* \"#utility.yul\":13782:13816   */\n      0x6f6e6c79206368616972706572736f6e2063616e206769766520726967687420\n        /* \"#utility.yul\":13778:13779   */\n      0x00\n        /* \"#utility.yul\":13770:13776   */\n      dup3\n        /* \"#utility.yul\":13766:13780   */\n      add\n        /* \"#utility.yul\":13759:13817   */\n      mstore\n        /* \"#utility.yul\":13851:13860   */\n      0x746f20766f746500000000000000000000000000000000000000000000000000\n        /* \"#utility.yul\":13846:13848   */\n      0x20\n        /* \"#utility.yul\":13838:13844   */\n      dup3\n        /* \"#utility.yul\":13834:13849   */\n      add\n        /* \"#utility.yul\":13827:13861   */\n      mstore\n        /* \"#utility.yul\":13642:13868   */\n      pop\n      jump\t// out\n        /* \"#utility.yul\":13874:14240   */\n    tag_163:\n        /* \"#utility.yul\":14016:14019   */\n      0x00\n        /* \"#utility.yul\":14037:14104   */\n      tag_295\n        /* \"#utility.yul\":14101:14103   */\n      0x27\n        /* \"#utility.yul\":14096:14099   */\n      dup4\n        /* \"#utility.yul\":14037:14104   */\n      tag_148\n      jump\t// in\n    tag_295:\n        /* \"#utility.yul\":14030:14104   */\n      swap2\n      pop\n        /* \"#utility.yul\":14113:14206   */\n      tag_296\n        /* \"#utility.yul\":14202:14205   */\n      dup3\n        /* \"#utility.yul\":14113:14206   */\n      tag_162\n      jump\t// in\n    tag_296:\n        /* \"#utility.yul\":14231:14233   */\n      0x40\n        /* \"#utility.yul\":14226:14229   */\n      dup3\n        /* \"#utility.yul\":14222:14234   */\n      add\n        /* \"#utility.yul\":14215:14234   */\n      swap1\n      pop\n        /* \"#utility.yul\":13874:14240   */\n      swap2\n      swap1\n      pop\n      jump\t// out\n        /* \"#utility.yul\":14246:14665   */\n    tag_102:\n        /* \"#utility.yul\":14412:14416   */\n      0x00\n        /* \"#utility.yul\":14450:14452   */\n      0x20\n        /* \"#utility.yul\":14439:14448   */\n      dup3\n        /* \"#utility.yul\":14435:14453   */\n      add\n        /* \"#utility.yul\":14427:14453   */\n      swap1\n      pop\n        /* \"#utility.yul\":14499:14508   */\n      dup2\n        /* \"#utility.yul\":14493:14497   */\n      dup2\n        /* \"#utility.yul\":14489:14509   */\n      sub\n        /* \"#utility.yul\":14485:14486   */\n      0x00\n        /* \"#utility.yul\":14474:14483   */\n      dup4\n        /* \"#utility.yul\":14470:14487   */\n      add\n        /* \"#utility.yul\":14463:14510   */\n      mstore\n        /* \"#utility.yul\":14527:14658   */\n      tag_298\n        /* \"#utility.yul\":14653:14657   */\n      dup2\n        /* \"#utility.yul\":14527:14658   */\n      tag_163\n      jump\t// in\n    tag_298:\n        /* \"#utility.yul\":14519:14658   */\n      swap1\n      pop\n        /* \"#utility.yul\":14246:14665   */\n      swap2\n      swap1\n      pop\n      jump\t// out\n        /* \"#utility.yul\":14671:14840   */\n    tag_164:\n        /* \"#utility.yul\":14811:14832   */\n      0x566f74657220616c726561647920766f74656400000000000000000000000000\n        /* \"#utility.yul\":14807:14808   */\n      0x00\n        /* \"#utility.yul\":14799:14805   */\n      dup3\n        /* \"#utility.yul\":14795:14809   */\n      add\n        /* \"#utility.yul\":14788:14833   */\n      mstore\n        /* \"#utility.yul\":14671:14840   */\n      pop\n      jump\t// out\n        /* \"#utility.yul\":14846:15212   */\n    tag_165:\n        /* \"#utility.yul\":14988:14991   */\n      0x00\n        /* \"#utility.yul\":15009:15076   */\n      tag_301\n        /* \"#utility.yul\":15073:15075   */\n      0x13\n        /* \"#utility.yul\":15068:15071   */\n      dup4\n        /* \"#utility.yul\":15009:15076   */\n      tag_148\n      jump\t// in\n    tag_301:\n        /* \"#utility.yul\":15002:15076   */\n      swap2\n      pop\n        /* \"#utility.yul\":15085:15178   */\n      tag_302\n        /* \"#utility.yul\":15174:15177   */\n      dup3\n        /* \"#utility.yul\":15085:15178   */\n      tag_164\n      jump\t// in\n    tag_302:\n        /* \"#utility.yul\":15203:15205   */\n      0x20\n        /* \"#utility.yul\":15198:15201   */\n      dup3\n        /* \"#utility.yul\":15194:15206   */\n      add\n        /* \"#utility.yul\":15187:15206   */\n      swap1\n      pop\n        /* \"#utility.yul\":14846:15212   */\n      swap2\n      swap1\n      pop\n      jump\t// out\n        /* \"#utility.yul\":15218:15637   */\n    tag_110:\n        /* \"#utility.yul\":15384:15388   */\n      0x00\n        /* \"#utility.yul\":15422:15424   */\n      0x20\n        /* \"#utility.yul\":15411:15420   */\n      dup3\n        /* \"#utility.yul\":15407:15425   */\n      add\n        /* \"#utility.yul\":15399:15425   */\n      swap1\n      pop\n        /* \"#utility.yul\":15471:15480   */\n      dup2\n        /* \"#utility.yul\":15465:15469   */\n      dup2\n        /* \"#utility.yul\":15461:15481   */\n      sub\n        /* \"#utility.yul\":15457:15458   */\n      0x00\n        /* \"#utility.yul\":15446:15455   */\n      dup4\n        /* \"#utility.yul\":15442:15459   */\n      add\n        /* \"#utility.yul\":15435:15482   */\n      mstore\n        /* \"#utility.yul\":15499:15630   */\n      tag_304\n        /* \"#utility.yul\":15625:15629   */\n      dup2\n        /* \"#utility.yul\":15499:15630   */\n      tag_165\n      jump\t// in\n    tag_304:\n        /* \"#utility.yul\":15491:15630   */\n      swap1\n      pop\n        /* \"#utility.yul\":15218:15637   */\n      swap2\n      swap1\n      pop\n      jump\t// out\n\n    auxdata: 0xa2646970667358221220fe20f824791ef5a1744acb168d7f7e95f68d59ba5874b2ce8ee7cef1b53d97e764736f6c634300081a0033\n}\n",
				"bytecode": {
					"linkReferences": {},
					"object": "608060405234801561000f575f80fd5b506040516116f73803806116f7833981810160405281019061003191906102f2565b335f806101000a81548173ffffffffffffffffffffffffffffffffffffffff021916908373ffffffffffffffffffffffffffffffffffffffff1602179055506001805f805f9054906101000a900473ffffffffffffffffffffffffffffffffffffffff1673ffffffffffffffffffffffffffffffffffffffff1673ffffffffffffffffffffffffffffffffffffffff1681526020019081526020015f205f01819055505f5b815181101561015757600260405180604001604052808484815181106100ff576100fe610339565b5b602002602001015181526020015f815250908060018154018082558091505060019003905f5260205f2090600202015f909190919091505f820151815f015560208201518160010155505080806001019150506100d6565b5050610366565b5f604051905090565b5f80fd5b5f80fd5b5f80fd5b5f601f19601f8301169050919050565b7f4e487b71000000000000000000000000000000000000000000000000000000005f52604160045260245ffd5b6101b982610173565b810181811067ffffffffffffffff821117156101d8576101d7610183565b5b80604052505050565b5f6101ea61015e565b90506101f682826101b0565b919050565b5f67ffffffffffffffff82111561021557610214610183565b5b602082029050602081019050919050565b5f80fd5b5f819050919050565b61023c8161022a565b8114610246575f80fd5b50565b5f8151905061025781610233565b92915050565b5f61026f61026a846101fb565b6101e1565b9050808382526020820190506020840283018581111561029257610291610226565b5b835b818110156102bb57806102a78882610249565b845260208401935050602081019050610294565b5050509392505050565b5f82601f8301126102d9576102d861016f565b5b81516102e984826020860161025d565b91505092915050565b5f6020828403121561030757610306610167565b5b5f82015167ffffffffffffffff8111156103245761032361016b565b5b610330848285016102c5565b91505092915050565b7f4e487b71000000000000000000000000000000000000000000000000000000005f52603260045260245ffd5b611384806103735f395ff3fe608060405234801561000f575f80fd5b5060043610610091575f3560e01c8063609ff1bd11610064578063609ff1bd1461011c578063716c6cb41461013a5780639e7b8d6114610156578063a3ec138d14610172578063e2ba53f0146101a557610091565b80630121b93f14610095578063013cf08b146100b15780632e4176cf146100e25780635c19a95c14610100575b5f80fd5b6100af60048036038101906100aa9190610bff565b6101c3565b005b6100cb60048036038101906100c69190610bff565b6102fe565b6040516100d9929190610c51565b60405180910390f35b6100ea61032d565b6040516100f79190610cb7565b60405180910390f35b61011a60048036038101906101159190610cfa565b610350565b005b61012461072a565b6040516101319190610d25565b60405180910390f35b610154600480360381019061014f9190610e8e565b6107a5565b005b610170600480360381019061016b9190610cfa565b610988565b005b61018c60048036038101906101879190610cfa565b610b33565b60405161019c9493929190610eef565b60405180910390f35b6101ad610b8b565b6040516101ba9190610f32565b60405180910390f35b5f60015f3373ffffffffffffffffffffffffffffffffffffffff1673ffffffffffffffffffffffffffffffffffffffff1681526020019081526020015f2090505f815f015403610248576040517f08c379a000000000000000000000000000000000000000000000000000000000815260040161023f90610fa5565b60405180910390fd5b806001015f9054906101000a900460ff1615610299576040517f08c379a00000000000000000000000000000000000000000000000000000000081526004016102909061100d565b60405180910390fd5b6001816001015f6101000a81548160ff021916908315150217905550818160020181905550805f0154600283815481106102d6576102d561102b565b5b905f5260205f2090600202016001015f8282546102f39190611085565b925050819055505050565b6002818154811061030d575f80fd5b905f5260205f2090600202015f91509050805f0154908060010154905082565b5f8054906101000a900473ffffffffffffffffffffffffffffffffffffffff1681565b5f60015f3373ffffffffffffffffffffffffffffffffffffffff1673ffffffffffffffffffffffffffffffffffffffff1681526020019081526020015f2090505f815f0154036103d5576040517f08c379a00000000000000000000000000000000000000000000000000000000081526004016103cc90611102565b60405180910390fd5b806001015f9054906101000a900460ff1615610426576040517f08c379a000000000000000000000000000000000000000000000000000000000815260040161041d9061116a565b60405180910390fd5b3373ffffffffffffffffffffffffffffffffffffffff168273ffffffffffffffffffffffffffffffffffffffff1614610494576040517f08c379a000000000000000000000000000000000000000000000000000000000815260040161048b906111d2565b60405180910390fd5b5b5f73ffffffffffffffffffffffffffffffffffffffff1660015f8473ffffffffffffffffffffffffffffffffffffffff1673ffffffffffffffffffffffffffffffffffffffff1681526020019081526020015f2060010160019054906101000a900473ffffffffffffffffffffffffffffffffffffffff1673ffffffffffffffffffffffffffffffffffffffff16146105fe5760015f8373ffffffffffffffffffffffffffffffffffffffff1673ffffffffffffffffffffffffffffffffffffffff1681526020019081526020015f2060010160019054906101000a900473ffffffffffffffffffffffffffffffffffffffff1691503373ffffffffffffffffffffffffffffffffffffffff168273ffffffffffffffffffffffffffffffffffffffff16036105f9576040517f08c379a00000000000000000000000000000000000000000000000000000000081526004016105f09061123a565b60405180910390fd5b610495565b5f60015f8473ffffffffffffffffffffffffffffffffffffffff1673ffffffffffffffffffffffffffffffffffffffff1681526020019081526020015f2090506001815f0154101561064e575f80fd5b6001826001015f6101000a81548160ff021916908315150217905550828260010160016101000a81548173ffffffffffffffffffffffffffffffffffffffff021916908373ffffffffffffffffffffffffffffffffffffffff160217905550806001015f9054906101000a900460ff161561070857815f015460028260020154815481106106df576106de61102b565b5b905f5260205f2090600202016001015f8282546106fc9190611085565b92505081905550610725565b815f0154815f015f82825461071d9190611085565b925050819055505b505050565b5f805f90505f5b6002805490508110156107a05781600282815481106107535761075261102b565b5b905f5260205f209060020201600101541115610793576002818154811061077d5761077c61102b565b5b905f5260205f2090600202016001015491508092505b8080600101915050610731565b505090565b5f8054906101000a900473ffffffffffffffffffffffffffffffffffffffff1673ffffffffffffffffffffffffffffffffffffffff163373ffffffffffffffffffffffffffffffffffffffff1614610832576040517f08c379a0000000000000000000000000000000000000000000000000000000008152600401610829906112c8565b60405180910390fd5b5f5b8151811015610984575f8282815181106108515761085061102b565b5b6020026020010151905060015f8273ffffffffffffffffffffffffffffffffffffffff1673ffffffffffffffffffffffffffffffffffffffff1681526020019081526020015f206001015f9054906101000a900460ff16156108e8576040517f08c379a00000000000000000000000000000000000000000000000000000000081526004016108df90611330565b60405180910390fd5b5f60015f8373ffffffffffffffffffffffffffffffffffffffff1673ffffffffffffffffffffffffffffffffffffffff1681526020019081526020015f205f015414610932575f80fd5b6001805f8373ffffffffffffffffffffffffffffffffffffffff1673ffffffffffffffffffffffffffffffffffffffff1681526020019081526020015f205f0181905550508080600101915050610834565b5050565b5f8054906101000a900473ffffffffffffffffffffffffffffffffffffffff1673ffffffffffffffffffffffffffffffffffffffff163373ffffffffffffffffffffffffffffffffffffffff1614610a15576040517f08c379a0000000000000000000000000000000000000000000000000000000008152600401610a0c906112c8565b60405180910390fd5b60015f8273ffffffffffffffffffffffffffffffffffffffff1673ffffffffffffffffffffffffffffffffffffffff1681526020019081526020015f206001015f9054906101000a900460ff1615610aa2576040517f08c379a0000000000000000000000000000000000000000000000000000000008152600401610a9990611330565b60405180910390fd5b5f60015f8373ffffffffffffffffffffffffffffffffffffffff1673ffffffffffffffffffffffffffffffffffffffff1681526020019081526020015f205f015414610aec575f80fd5b6001805f8373ffffffffffffffffffffffffffffffffffffffff1673ffffffffffffffffffffffffffffffffffffffff1681526020019081526020015f205f018190555050565b6001602052805f5260405f205f91509050805f015490806001015f9054906101000a900460ff16908060010160019054906101000a900473ffffffffffffffffffffffffffffffffffffffff16908060020154905084565b5f6002610b9661072a565b81548110610ba757610ba661102b565b5b905f5260205f2090600202015f0154905090565b5f604051905090565b5f80fd5b5f80fd5b5f819050919050565b610bde81610bcc565b8114610be8575f80fd5b50565b5f81359050610bf981610bd5565b92915050565b5f60208284031215610c1457610c13610bc4565b5b5f610c2184828501610beb565b91505092915050565b5f819050919050565b610c3c81610c2a565b82525050565b610c4b81610bcc565b82525050565b5f604082019050610c645f830185610c33565b610c716020830184610c42565b9392505050565b5f73ffffffffffffffffffffffffffffffffffffffff82169050919050565b5f610ca182610c78565b9050919050565b610cb181610c97565b82525050565b5f602082019050610cca5f830184610ca8565b92915050565b610cd981610c97565b8114610ce3575f80fd5b50565b5f81359050610cf481610cd0565b92915050565b5f60208284031215610d0f57610d0e610bc4565b5b5f610d1c84828501610ce6565b91505092915050565b5f602082019050610d385f830184610c42565b92915050565b5f80fd5b5f601f19601f8301169050919050565b7f4e487b71000000000000000000000000000000000000000000000000000000005f52604160045260245ffd5b610d8882610d42565b810181811067ffffffffffffffff82111715610da757610da6610d52565b5b80604052505050565b5f610db9610bbb565b9050610dc58282610d7f565b919050565b5f67ffffffffffffffff821115610de457610de3610d52565b5b602082029050602081019050919050565b5f80fd5b5f610e0b610e0684610dca565b610db0565b90508083825260208201905060208402830185811115610e2e57610e2d610df5565b5b835b81811015610e575780610e438882610ce6565b845260208401935050602081019050610e30565b5050509392505050565b5f82601f830112610e7557610e74610d3e565b5b8135610e85848260208601610df9565b91505092915050565b5f60208284031215610ea357610ea2610bc4565b5b5f82013567ffffffffffffffff811115610ec057610ebf610bc8565b5b610ecc84828501610e61565b91505092915050565b5f8115159050919050565b610ee981610ed5565b82525050565b5f608082019050610f025f830187610c42565b610f0f6020830186610ee0565b610f1c6040830185610ca8565b610f296060830184610c42565b95945050505050565b5f602082019050610f455f830184610c33565b92915050565b5f82825260208201905092915050565b7f686173206e6f20726967687420746f20766f74650000000000000000000000005f82015250565b5f610f8f601483610f4b565b9150610f9a82610f5b565b602082019050919050565b5f6020820190508181035f830152610fbc81610f83565b9050919050565b7f616c726561647920766f746564000000000000000000000000000000000000005f82015250565b5f610ff7600d83610f4b565b915061100282610fc3565b602082019050919050565b5f6020820190508181035f83015261102481610feb565b9050919050565b7f4e487b71000000000000000000000000000000000000000000000000000000005f52603260045260245ffd5b7f4e487b71000000000000000000000000000000000000000000000000000000005f52601160045260245ffd5b5f61108f82610bcc565b915061109a83610bcc565b92508282019050808211156110b2576110b1611058565b5b92915050565b7f796f752068617665206e6f20726967746820746f20766f7465000000000000005f82015250565b5f6110ec601983610f4b565b91506110f7826110b8565b602082019050919050565b5f6020820190508181035f830152611119816110e0565b9050919050565b7f796f7520616c726561647920766f7465640000000000000000000000000000005f82015250565b5f611154601183610f4b565b915061115f82611120565b602082019050919050565b5f6020820190508181035f83015261118181611148565b9050919050565b7f73656c662d64656c65676174696f6e2069736e277420616c6c6f7765640000005f82015250565b5f6111bc601d83610f4b565b91506111c782611188565b602082019050919050565b5f6020820190508181035f8301526111e9816111b0565b9050919050565b7f466f756e64206c6f6f7020696e2064656c65676174696f6e00000000000000005f82015250565b5f611224601883610f4b565b915061122f826111f0565b602082019050919050565b5f6020820190508181035f83015261125181611218565b9050919050565b7f6f6e6c79206368616972706572736f6e2063616e2067697665207269676874205f8201527f746f20766f746500000000000000000000000000000000000000000000000000602082015250565b5f6112b2602783610f4b565b91506112bd82611258565b604082019050919050565b5f6020820190508181035f8301526112df816112a6565b9050919050565b7f566f74657220616c726561647920766f746564000000000000000000000000005f82015250565b5f61131a601383610f4b565b9150611325826112e6565b602082019050919050565b5f6020820190508181035f8301526113478161130e565b905091905056fea2646970667358221220fe20f824791ef5a1744acb168d7f7e95f68d59ba5874b2ce8ee7cef1b53d97e764736f6c634300081a0033",
					"opcodes": "PUSH1 0x80 PUSH1 0x40 MSTORE CALLVALUE DUP1 ISZERO PUSH2 0xF JUMPI PUSH0 DUP1 REVERT JUMPDEST POP PUSH1 0x40 MLOAD PUSH2 0x16F7 CODESIZE SUB DUP1 PUSH2 0x16F7 DUP4 CODECOPY DUP2 DUP2 ADD PUSH1 0x40 MSTORE DUP2 ADD SWAP1 PUSH2 0x31 SWAP2 SWAP1 PUSH2 0x2F2 JUMP JUMPDEST CALLER PUSH0 DUP1 PUSH2 0x100 EXP DUP2 SLOAD DUP2 PUSH20 0xFFFFFFFFFFFFFFFFFFFFFFFFFFFFFFFFFFFFFFFF MUL NOT AND SWAP1 DUP4 PUSH20 0xFFFFFFFFFFFFFFFFFFFFFFFFFFFFFFFFFFFFFFFF AND MUL OR SWAP1 SSTORE POP PUSH1 0x1 DUP1 PUSH0 DUP1 PUSH0 SWAP1 SLOAD SWAP1 PUSH2 0x100 EXP SWAP1 DIV PUSH20 0xFFFFFFFFFFFFFFFFFFFFFFFFFFFFFFFFFFFFFFFF AND PUSH20 0xFFFFFFFFFFFFFFFFFFFFFFFFFFFFFFFFFFFFFFFF AND PUSH20 0xFFFFFFFFFFFFFFFFFFFFFFFFFFFFFFFFFFFFFFFF AND DUP2 MSTORE PUSH1 0x20 ADD SWAP1 DUP2 MSTORE PUSH1 0x20 ADD PUSH0 KECCAK256 PUSH0 ADD DUP2 SWAP1 SSTORE POP PUSH0 JUMPDEST DUP2 MLOAD DUP2 LT ISZERO PUSH2 0x157 JUMPI PUSH1 0x2 PUSH1 0x40 MLOAD DUP1 PUSH1 0x40 ADD PUSH1 0x40 MSTORE DUP1 DUP5 DUP5 DUP2 MLOAD DUP2 LT PUSH2 0xFF JUMPI PUSH2 0xFE PUSH2 0x339 JUMP JUMPDEST JUMPDEST PUSH1 0x20 MUL PUSH1 0x20 ADD ADD MLOAD DUP2 MSTORE PUSH1 0x20 ADD PUSH0 DUP2 MSTORE POP SWAP1 DUP1 PUSH1 0x1 DUP2 SLOAD ADD DUP1 DUP3 SSTORE DUP1 SWAP2 POP POP PUSH1 0x1 SWAP1 SUB SWAP1 PUSH0 MSTORE PUSH1 0x20 PUSH0 KECCAK256 SWAP1 PUSH1 0x2 MUL ADD PUSH0 SWAP1 SWAP2 SWAP1 SWAP2 SWAP1 SWAP2 POP PUSH0 DUP3 ADD MLOAD DUP2 PUSH0 ADD SSTORE PUSH1 0x20 DUP3 ADD MLOAD DUP2 PUSH1 0x1 ADD SSTORE POP POP DUP1 DUP1 PUSH1 0x1 ADD SWAP2 POP POP PUSH2 0xD6 JUMP JUMPDEST POP POP PUSH2 0x366 JUMP JUMPDEST PUSH0 PUSH1 0x40 MLOAD SWAP1 POP SWAP1 JUMP JUMPDEST PUSH0 DUP1 REVERT JUMPDEST PUSH0 DUP1 REVERT JUMPDEST PUSH0 DUP1 REVERT JUMPDEST PUSH0 PUSH1 0x1F NOT PUSH1 0x1F DUP4 ADD AND SWAP1 POP SWAP2 SWAP1 POP JUMP JUMPDEST PUSH32 0x4E487B7100000000000000000000000000000000000000000000000000000000 PUSH0 MSTORE PUSH1 0x41 PUSH1 0x4 MSTORE PUSH1 0x24 PUSH0 REVERT JUMPDEST PUSH2 0x1B9 DUP3 PUSH2 0x173 JUMP JUMPDEST DUP2 ADD DUP2 DUP2 LT PUSH8 0xFFFFFFFFFFFFFFFF DUP3 GT OR ISZERO PUSH2 0x1D8 JUMPI PUSH2 0x1D7 PUSH2 0x183 JUMP JUMPDEST JUMPDEST DUP1 PUSH1 0x40 MSTORE POP POP POP JUMP JUMPDEST PUSH0 PUSH2 0x1EA PUSH2 0x15E JUMP JUMPDEST SWAP1 POP PUSH2 0x1F6 DUP3 DUP3 PUSH2 0x1B0 JUMP JUMPDEST SWAP2 SWAP1 POP JUMP JUMPDEST PUSH0 PUSH8 0xFFFFFFFFFFFFFFFF DUP3 GT ISZERO PUSH2 0x215 JUMPI PUSH2 0x214 PUSH2 0x183 JUMP JUMPDEST JUMPDEST PUSH1 0x20 DUP3 MUL SWAP1 POP PUSH1 0x20 DUP2 ADD SWAP1 POP SWAP2 SWAP1 POP JUMP JUMPDEST PUSH0 DUP1 REVERT JUMPDEST PUSH0 DUP2 SWAP1 POP SWAP2 SWAP1 POP JUMP JUMPDEST PUSH2 0x23C DUP2 PUSH2 0x22A JUMP JUMPDEST DUP2 EQ PUSH2 0x246 JUMPI PUSH0 DUP1 REVERT JUMPDEST POP JUMP JUMPDEST PUSH0 DUP2 MLOAD SWAP1 POP PUSH2 0x257 DUP2 PUSH2 0x233 JUMP JUMPDEST SWAP3 SWAP2 POP POP JUMP JUMPDEST PUSH0 PUSH2 0x26F PUSH2 0x26A DUP5 PUSH2 0x1FB JUMP JUMPDEST PUSH2 0x1E1 JUMP JUMPDEST SWAP1 POP DUP1 DUP4 DUP3 MSTORE PUSH1 0x20 DUP3 ADD SWAP1 POP PUSH1 0x20 DUP5 MUL DUP4 ADD DUP6 DUP2 GT ISZERO PUSH2 0x292 JUMPI PUSH2 0x291 PUSH2 0x226 JUMP JUMPDEST JUMPDEST DUP4 JUMPDEST DUP2 DUP2 LT ISZERO PUSH2 0x2BB JUMPI DUP1 PUSH2 0x2A7 DUP9 DUP3 PUSH2 0x249 JUMP JUMPDEST DUP5 MSTORE PUSH1 0x20 DUP5 ADD SWAP4 POP POP PUSH1 0x20 DUP2 ADD SWAP1 POP PUSH2 0x294 JUMP JUMPDEST POP POP POP SWAP4 SWAP3 POP POP POP JUMP JUMPDEST PUSH0 DUP3 PUSH1 0x1F DUP4 ADD SLT PUSH2 0x2D9 JUMPI PUSH2 0x2D8 PUSH2 0x16F JUMP JUMPDEST JUMPDEST DUP2 MLOAD PUSH2 0x2E9 DUP5 DUP3 PUSH1 0x20 DUP7 ADD PUSH2 0x25D JUMP JUMPDEST SWAP2 POP POP SWAP3 SWAP2 POP POP JUMP JUMPDEST PUSH0 PUSH1 0x20 DUP3 DUP5 SUB SLT ISZERO PUSH2 0x307 JUMPI PUSH2 0x306 PUSH2 0x167 JUMP JUMPDEST JUMPDEST PUSH0 DUP3 ADD MLOAD PUSH8 0xFFFFFFFFFFFFFFFF DUP2 GT ISZERO PUSH2 0x324 JUMPI PUSH2 0x323 PUSH2 0x16B JUMP JUMPDEST JUMPDEST PUSH2 0x330 DUP5 DUP3 DUP6 ADD PUSH2 0x2C5 JUMP JUMPDEST SWAP2 POP POP SWAP3 SWAP2 POP POP JUMP JUMPDEST PUSH32 0x4E487B7100000000000000000000000000000000000000000000000000000000 PUSH0 MSTORE PUSH1 0x32 PUSH1 0x4 MSTORE PUSH1 0x24 PUSH0 REVERT JUMPDEST PUSH2 0x1384 DUP1 PUSH2 0x373 PUSH0 CODECOPY PUSH0 RETURN INVALID PUSH1 0x80 PUSH1 0x40 MSTORE CALLVALUE DUP1 ISZERO PUSH2 0xF JUMPI PUSH0 DUP1 REVERT JUMPDEST POP PUSH1 0x4 CALLDATASIZE LT PUSH2 0x91 JUMPI PUSH0 CALLDATALOAD PUSH1 0xE0 SHR DUP1 PUSH4 0x609FF1BD GT PUSH2 0x64 JUMPI DUP1 PUSH4 0x609FF1BD EQ PUSH2 0x11C JUMPI DUP1 PUSH4 0x716C6CB4 EQ PUSH2 0x13A JUMPI DUP1 PUSH4 0x9E7B8D61 EQ PUSH2 0x156 JUMPI DUP1 PUSH4 0xA3EC138D EQ PUSH2 0x172 JUMPI DUP1 PUSH4 0xE2BA53F0 EQ PUSH2 0x1A5 JUMPI PUSH2 0x91 JUMP JUMPDEST DUP1 PUSH4 0x121B93F EQ PUSH2 0x95 JUMPI DUP1 PUSH4 0x13CF08B EQ PUSH2 0xB1 JUMPI DUP1 PUSH4 0x2E4176CF EQ PUSH2 0xE2 JUMPI DUP1 PUSH4 0x5C19A95C EQ PUSH2 0x100 JUMPI JUMPDEST PUSH0 DUP1 REVERT JUMPDEST PUSH2 0xAF PUSH1 0x4 DUP1 CALLDATASIZE SUB DUP2 ADD SWAP1 PUSH2 0xAA SWAP2 SWAP1 PUSH2 0xBFF JUMP JUMPDEST PUSH2 0x1C3 JUMP JUMPDEST STOP JUMPDEST PUSH2 0xCB PUSH1 0x4 DUP1 CALLDATASIZE SUB DUP2 ADD SWAP1 PUSH2 0xC6 SWAP2 SWAP1 PUSH2 0xBFF JUMP JUMPDEST PUSH2 0x2FE JUMP JUMPDEST PUSH1 0x40 MLOAD PUSH2 0xD9 SWAP3 SWAP2 SWAP1 PUSH2 0xC51 JUMP JUMPDEST PUSH1 0x40 MLOAD DUP1 SWAP2 SUB SWAP1 RETURN JUMPDEST PUSH2 0xEA PUSH2 0x32D JUMP JUMPDEST PUSH1 0x40 MLOAD PUSH2 0xF7 SWAP2 SWAP1 PUSH2 0xCB7 JUMP JUMPDEST PUSH1 0x40 MLOAD DUP1 SWAP2 SUB SWAP1 RETURN JUMPDEST PUSH2 0x11A PUSH1 0x4 DUP1 CALLDATASIZE SUB DUP2 ADD SWAP1 PUSH2 0x115 SWAP2 SWAP1 PUSH2 0xCFA JUMP JUMPDEST PUSH2 0x350 JUMP JUMPDEST STOP JUMPDEST PUSH2 0x124 PUSH2 0x72A JUMP JUMPDEST PUSH1 0x40 MLOAD PUSH2 0x131 SWAP2 SWAP1 PUSH2 0xD25 JUMP JUMPDEST PUSH1 0x40 MLOAD DUP1 SWAP2 SUB SWAP1 RETURN JUMPDEST PUSH2 0x154 PUSH1 0x4 DUP1 CALLDATASIZE SUB DUP2 ADD SWAP1 PUSH2 0x14F SWAP2 SWAP1 PUSH2 0xE8E JUMP JUMPDEST PUSH2 0x7A5 JUMP JUMPDEST STOP JUMPDEST PUSH2 0x170 PUSH1 0x4 DUP1 CALLDATASIZE SUB DUP2 ADD SWAP1 PUSH2 0x16B SWAP2 SWAP1 PUSH2 0xCFA JUMP JUMPDEST PUSH2 0x988 JUMP JUMPDEST STOP JUMPDEST PUSH2 0x18C PUSH1 0x4 DUP1 CALLDATASIZE SUB DUP2 ADD SWAP1 PUSH2 0x187 SWAP2 SWAP1 PUSH2 0xCFA JUMP JUMPDEST PUSH2 0xB33 JUMP JUMPDEST PUSH1 0x40 MLOAD PUSH2 0x19C SWAP5 SWAP4 SWAP3 SWAP2 SWAP1 PUSH2 0xEEF JUMP JUMPDEST PUSH1 0x40 MLOAD DUP1 SWAP2 SUB SWAP1 RETURN JUMPDEST PUSH2 0x1AD PUSH2 0xB8B JUMP JUMPDEST PUSH1 0x40 MLOAD PUSH2 0x1BA SWAP2 SWAP1 PUSH2 0xF32 JUMP JUMPDEST PUSH1 0x40 MLOAD DUP1 SWAP2 SUB SWAP1 RETURN JUMPDEST PUSH0 PUSH1 0x1 PUSH0 CALLER PUSH20 0xFFFFFFFFFFFFFFFFFFFFFFFFFFFFFFFFFFFFFFFF AND PUSH20 0xFFFFFFFFFFFFFFFFFFFFFFFFFFFFFFFFFFFFFFFF AND DUP2 MSTORE PUSH1 0x20 ADD SWAP1 DUP2 MSTORE PUSH1 0x20 ADD PUSH0 KECCAK256 SWAP1 POP PUSH0 DUP2 PUSH0 ADD SLOAD SUB PUSH2 0x248 JUMPI PUSH1 0x40 MLOAD PUSH32 0x8C379A000000000000000000000000000000000000000000000000000000000 DUP2 MSTORE PUSH1 0x4 ADD PUSH2 0x23F SWAP1 PUSH2 0xFA5 JUMP JUMPDEST PUSH1 0x40 MLOAD DUP1 SWAP2 SUB SWAP1 REVERT JUMPDEST DUP1 PUSH1 0x1 ADD PUSH0 SWAP1 SLOAD SWAP1 PUSH2 0x100 EXP SWAP1 DIV PUSH1 0xFF AND ISZERO PUSH2 0x299 JUMPI PUSH1 0x40 MLOAD PUSH32 0x8C379A000000000000000000000000000000000000000000000000000000000 DUP2 MSTORE PUSH1 0x4 ADD PUSH2 0x290 SWAP1 PUSH2 0x100D JUMP JUMPDEST PUSH1 0x40 MLOAD DUP1 SWAP2 SUB SWAP1 REVERT JUMPDEST PUSH1 0x1 DUP2 PUSH1 0x1 ADD PUSH0 PUSH2 0x100 EXP DUP2 SLOAD DUP2 PUSH1 0xFF MUL NOT AND SWAP1 DUP4 ISZERO ISZERO MUL OR SWAP1 SSTORE POP DUP2 DUP2 PUSH1 0x2 ADD DUP2 SWAP1 SSTORE POP DUP1 PUSH0 ADD SLOAD PUSH1 0x2 DUP4 DUP2 SLOAD DUP2 LT PUSH2 0x2D6 JUMPI PUSH2 0x2D5 PUSH2 0x102B JUMP JUMPDEST JUMPDEST SWAP1 PUSH0 MSTORE PUSH1 0x20 PUSH0 KECCAK256 SWAP1 PUSH1 0x2 MUL ADD PUSH1 0x1 ADD PUSH0 DUP3 DUP3 SLOAD PUSH2 0x2F3 SWAP2 SWAP1 PUSH2 0x1085 JUMP JUMPDEST SWAP3 POP POP DUP2 SWAP1 SSTORE POP POP POP JUMP JUMPDEST PUSH1 0x2 DUP2 DUP2 SLOAD DUP2 LT PUSH2 0x30D JUMPI PUSH0 DUP1 REVERT JUMPDEST SWAP1 PUSH0 MSTORE PUSH1 0x20 PUSH0 KECCAK256 SWAP1 PUSH1 0x2 MUL ADD PUSH0 SWAP2 POP SWAP1 POP DUP1 PUSH0 ADD SLOAD SWAP1 DUP1 PUSH1 0x1 ADD SLOAD SWAP1 POP DUP3 JUMP JUMPDEST PUSH0 DUP1 SLOAD SWAP1 PUSH2 0x100 EXP SWAP1 DIV PUSH20 0xFFFFFFFFFFFFFFFFFFFFFFFFFFFFFFFFFFFFFFFF AND DUP2 JUMP JUMPDEST PUSH0 PUSH1 0x1 PUSH0 CALLER PUSH20 0xFFFFFFFFFFFFFFFFFFFFFFFFFFFFFFFFFFFFFFFF AND PUSH20 0xFFFFFFFFFFFFFFFFFFFFFFFFFFFFFFFFFFFFFFFF AND DUP2 MSTORE PUSH1 0x20 ADD SWAP1 DUP2 MSTORE PUSH1 0x20 ADD PUSH0 KECCAK256 SWAP1 POP PUSH0 DUP2 PUSH0 ADD SLOAD SUB PUSH2 0x3D5 JUMPI PUSH1 0x40 MLOAD PUSH32 0x8C379A000000000000000000000000000000000000000000000000000000000 DUP2 MSTORE PUSH1 0x4 ADD PUSH2 0x3CC SWAP1 PUSH2 0x1102 JUMP JUMPDEST PUSH1 0x40 MLOAD DUP1 SWAP2 SUB SWAP1 REVERT JUMPDEST DUP1 PUSH1 0x1 ADD PUSH0 SWAP1 SLOAD SWAP1 PUSH2 0x100 EXP SWAP1 DIV PUSH1 0xFF AND ISZERO PUSH2 0x426 JUMPI PUSH1 0x40 MLOAD PUSH32 0x8C379A000000000000000000000000000000000000000000000000000000000 DUP2 MSTORE PUSH1 0x4 ADD PUSH2 0x41D SWAP1 PUSH2 0x116A JUMP JUMPDEST PUSH1 0x40 MLOAD DUP1 SWAP2 SUB SWAP1 REVERT JUMPDEST CALLER PUSH20 0xFFFFFFFFFFFFFFFFFFFFFFFFFFFFFFFFFFFFFFFF AND DUP3 PUSH20 0xFFFFFFFFFFFFFFFFFFFFFFFFFFFFFFFFFFFFFFFF AND EQ PUSH2 0x494 JUMPI PUSH1 0x40 MLOAD PUSH32 0x8C379A000000000000000000000000000000000000000000000000000000000 DUP2 MSTORE PUSH1 0x4 ADD PUSH2 0x48B SWAP1 PUSH2 0x11D2 JUMP JUMPDEST PUSH1 0x40 MLOAD DUP1 SWAP2 SUB SWAP1 REVERT JUMPDEST JUMPDEST PUSH0 PUSH20 0xFFFFFFFFFFFFFFFFFFFFFFFFFFFFFFFFFFFFFFFF AND PUSH1 0x1 PUSH0 DUP5 PUSH20 0xFFFFFFFFFFFFFFFFFFFFFFFFFFFFFFFFFFFFFFFF AND PUSH20 0xFFFFFFFFFFFFFFFFFFFFFFFFFFFFFFFFFFFFFFFF AND DUP2 MSTORE PUSH1 0x20 ADD SWAP1 DUP2 MSTORE PUSH1 0x20 ADD PUSH0 KECCAK256 PUSH1 0x1 ADD PUSH1 0x1 SWAP1 SLOAD SWAP1 PUSH2 0x100 EXP SWAP1 DIV PUSH20 0xFFFFFFFFFFFFFFFFFFFFFFFFFFFFFFFFFFFFFFFF AND PUSH20 0xFFFFFFFFFFFFFFFFFFFFFFFFFFFFFFFFFFFFFFFF AND EQ PUSH2 0x5FE JUMPI PUSH1 0x1 PUSH0 DUP4 PUSH20 0xFFFFFFFFFFFFFFFFFFFFFFFFFFFFFFFFFFFFFFFF AND PUSH20 0xFFFFFFFFFFFFFFFFFFFFFFFFFFFFFFFFFFFFFFFF AND DUP2 MSTORE PUSH1 0x20 ADD SWAP1 DUP2 MSTORE PUSH1 0x20 ADD PUSH0 KECCAK256 PUSH1 0x1 ADD PUSH1 0x1 SWAP1 SLOAD SWAP1 PUSH2 0x100 EXP SWAP1 DIV PUSH20 0xFFFFFFFFFFFFFFFFFFFFFFFFFFFFFFFFFFFFFFFF AND SWAP2 POP CALLER PUSH20 0xFFFFFFFFFFFFFFFFFFFFFFFFFFFFFFFFFFFFFFFF AND DUP3 PUSH20 0xFFFFFFFFFFFFFFFFFFFFFFFFFFFFFFFFFFFFFFFF AND SUB PUSH2 0x5F9 JUMPI PUSH1 0x40 MLOAD PUSH32 0x8C379A000000000000000000000000000000000000000000000000000000000 DUP2 MSTORE PUSH1 0x4 ADD PUSH2 0x5F0 SWAP1 PUSH2 0x123A JUMP JUMPDEST PUSH1 0x40 MLOAD DUP1 SWAP2 SUB SWAP1 REVERT JUMPDEST PUSH2 0x495 JUMP JUMPDEST PUSH0 PUSH1 0x1 PUSH0 DUP5 PUSH20 0xFFFFFFFFFFFFFFFFFFFFFFFFFFFFFFFFFFFFFFFF AND PUSH20 0xFFFFFFFFFFFFFFFFFFFFFFFFFFFFFFFFFFFFFFFF AND DUP2 MSTORE PUSH1 0x20 ADD SWAP1 DUP2 MSTORE PUSH1 0x20 ADD PUSH0 KECCAK256 SWAP1 POP PUSH1 0x1 DUP2 PUSH0 ADD SLOAD LT ISZERO PUSH2 0x64E JUMPI PUSH0 DUP1 REVERT JUMPDEST PUSH1 0x1 DUP3 PUSH1 0x1 ADD PUSH0 PUSH2 0x100 EXP DUP2 SLOAD DUP2 PUSH1 0xFF MUL NOT AND SWAP1 DUP4 ISZERO ISZERO MUL OR SWAP1 SSTORE POP DUP3 DUP3 PUSH1 0x1 ADD PUSH1 0x1 PUSH2 0x100 EXP DUP2 SLOAD DUP2 PUSH20 0xFFFFFFFFFFFFFFFFFFFFFFFFFFFFFFFFFFFFFFFF MUL NOT AND SWAP1 DUP4 PUSH20 0xFFFFFFFFFFFFFFFFFFFFFFFFFFFFFFFFFFFFFFFF AND MUL OR SWAP1 SSTORE POP DUP1 PUSH1 0x1 ADD PUSH0 SWAP1 SLOAD SWAP1 PUSH2 0x100 EXP SWAP1 DIV PUSH1 0xFF AND ISZERO PUSH2 0x708 JUMPI DUP2 PUSH0 ADD SLOAD PUSH1 0x2 DUP3 PUSH1 0x2 ADD SLOAD DUP2 SLOAD DUP2 LT PUSH2 0x6DF JUMPI PUSH2 0x6DE PUSH2 0x102B JUMP JUMPDEST JUMPDEST SWAP1 PUSH0 MSTORE PUSH1 0x20 PUSH0 KECCAK256 SWAP1 PUSH1 0x2 MUL ADD PUSH1 0x1 ADD PUSH0 DUP3 DUP3 SLOAD PUSH2 0x6FC SWAP2 SWAP1 PUSH2 0x1085 JUMP JUMPDEST SWAP3 POP POP DUP2 SWAP1 SSTORE POP PUSH2 0x725 JUMP JUMPDEST DUP2 PUSH0 ADD SLOAD DUP2 PUSH0 ADD PUSH0 DUP3 DUP3 SLOAD PUSH2 0x71D SWAP2 SWAP1 PUSH2 0x1085 JUMP JUMPDEST SWAP3 POP POP DUP2 SWAP1 SSTORE POP JUMPDEST POP POP POP JUMP JUMPDEST PUSH0 DUP1 PUSH0 SWAP1 POP PUSH0 JUMPDEST PUSH1 0x2 DUP1 SLOAD SWAP1 POP DUP2 LT ISZERO PUSH2 0x7A0 JUMPI DUP2 PUSH1 0x2 DUP3 DUP2 SLOAD DUP2 LT PUSH2 0x753 JUMPI PUSH2 0x752 PUSH2 0x102B JUMP JUMPDEST JUMPDEST SWAP1 PUSH0 MSTORE PUSH1 0x20 PUSH0 KECCAK256 SWAP1 PUSH1 0x2 MUL ADD PUSH1 0x1 ADD SLOAD GT ISZERO PUSH2 0x793 JUMPI PUSH1 0x2 DUP2 DUP2 SLOAD DUP2 LT PUSH2 0x77D JUMPI PUSH2 0x77C PUSH2 0x102B JUMP JUMPDEST JUMPDEST SWAP1 PUSH0 MSTORE PUSH1 0x20 PUSH0 KECCAK256 SWAP1 PUSH1 0x2 MUL ADD PUSH1 0x1 ADD SLOAD SWAP2 POP DUP1 SWAP3 POP JUMPDEST DUP1 DUP1 PUSH1 0x1 ADD SWAP2 POP POP PUSH2 0x731 JUMP JUMPDEST POP POP SWAP1 JUMP JUMPDEST PUSH0 DUP1 SLOAD SWAP1 PUSH2 0x100 EXP SWAP1 DIV PUSH20 0xFFFFFFFFFFFFFFFFFFFFFFFFFFFFFFFFFFFFFFFF AND PUSH20 0xFFFFFFFFFFFFFFFFFFFFFFFFFFFFFFFFFFFFFFFF AND CALLER PUSH20 0xFFFFFFFFFFFFFFFFFFFFFFFFFFFFFFFFFFFFFFFF AND EQ PUSH2 0x832 JUMPI PUSH1 0x40 MLOAD PUSH32 0x8C379A000000000000000000000000000000000000000000000000000000000 DUP2 MSTORE PUSH1 0x4 ADD PUSH2 0x829 SWAP1 PUSH2 0x12C8 JUMP JUMPDEST PUSH1 0x40 MLOAD DUP1 SWAP2 SUB SWAP1 REVERT JUMPDEST PUSH0 JUMPDEST DUP2 MLOAD DUP2 LT ISZERO PUSH2 0x984 JUMPI PUSH0 DUP3 DUP3 DUP2 MLOAD DUP2 LT PUSH2 0x851 JUMPI PUSH2 0x850 PUSH2 0x102B JUMP JUMPDEST JUMPDEST PUSH1 0x20 MUL PUSH1 0x20 ADD ADD MLOAD SWAP1 POP PUSH1 0x1 PUSH0 DUP3 PUSH20 0xFFFFFFFFFFFFFFFFFFFFFFFFFFFFFFFFFFFFFFFF AND PUSH20 0xFFFFFFFFFFFFFFFFFFFFFFFFFFFFFFFFFFFFFFFF AND DUP2 MSTORE PUSH1 0x20 ADD SWAP1 DUP2 MSTORE PUSH1 0x20 ADD PUSH0 KECCAK256 PUSH1 0x1 ADD PUSH0 SWAP1 SLOAD SWAP1 PUSH2 0x100 EXP SWAP1 DIV PUSH1 0xFF AND ISZERO PUSH2 0x8E8 JUMPI PUSH1 0x40 MLOAD PUSH32 0x8C379A000000000000000000000000000000000000000000000000000000000 DUP2 MSTORE PUSH1 0x4 ADD PUSH2 0x8DF SWAP1 PUSH2 0x1330 JUMP JUMPDEST PUSH1 0x40 MLOAD DUP1 SWAP2 SUB SWAP1 REVERT JUMPDEST PUSH0 PUSH1 0x1 PUSH0 DUP4 PUSH20 0xFFFFFFFFFFFFFFFFFFFFFFFFFFFFFFFFFFFFFFFF AND PUSH20 0xFFFFFFFFFFFFFFFFFFFFFFFFFFFFFFFFFFFFFFFF AND DUP2 MSTORE PUSH1 0x20 ADD SWAP1 DUP2 MSTORE PUSH1 0x20 ADD PUSH0 KECCAK256 PUSH0 ADD SLOAD EQ PUSH2 0x932 JUMPI PUSH0 DUP1 REVERT JUMPDEST PUSH1 0x1 DUP1 PUSH0 DUP4 PUSH20 0xFFFFFFFFFFFFFFFFFFFFFFFFFFFFFFFFFFFFFFFF AND PUSH20 0xFFFFFFFFFFFFFFFFFFFFFFFFFFFFFFFFFFFFFFFF AND DUP2 MSTORE PUSH1 0x20 ADD SWAP1 DUP2 MSTORE PUSH1 0x20 ADD PUSH0 KECCAK256 PUSH0 ADD DUP2 SWAP1 SSTORE POP POP DUP1 DUP1 PUSH1 0x1 ADD SWAP2 POP POP PUSH2 0x834 JUMP JUMPDEST POP POP JUMP JUMPDEST PUSH0 DUP1 SLOAD SWAP1 PUSH2 0x100 EXP SWAP1 DIV PUSH20 0xFFFFFFFFFFFFFFFFFFFFFFFFFFFFFFFFFFFFFFFF AND PUSH20 0xFFFFFFFFFFFFFFFFFFFFFFFFFFFFFFFFFFFFFFFF AND CALLER PUSH20 0xFFFFFFFFFFFFFFFFFFFFFFFFFFFFFFFFFFFFFFFF AND EQ PUSH2 0xA15 JUMPI PUSH1 0x40 MLOAD PUSH32 0x8C379A000000000000000000000000000000000000000000000000000000000 DUP2 MSTORE PUSH1 0x4 ADD PUSH2 0xA0C SWAP1 PUSH2 0x12C8 JUMP JUMPDEST PUSH1 0x40 MLOAD DUP1 SWAP2 SUB SWAP1 REVERT JUMPDEST PUSH1 0x1 PUSH0 DUP3 PUSH20 0xFFFFFFFFFFFFFFFFFFFFFFFFFFFFFFFFFFFFFFFF AND PUSH20 0xFFFFFFFFFFFFFFFFFFFFFFFFFFFFFFFFFFFFFFFF AND DUP2 MSTORE PUSH1 0x20 ADD SWAP1 DUP2 MSTORE PUSH1 0x20 ADD PUSH0 KECCAK256 PUSH1 0x1 ADD PUSH0 SWAP1 SLOAD SWAP1 PUSH2 0x100 EXP SWAP1 DIV PUSH1 0xFF AND ISZERO PUSH2 0xAA2 JUMPI PUSH1 0x40 MLOAD PUSH32 0x8C379A000000000000000000000000000000000000000000000000000000000 DUP2 MSTORE PUSH1 0x4 ADD PUSH2 0xA99 SWAP1 PUSH2 0x1330 JUMP JUMPDEST PUSH1 0x40 MLOAD DUP1 SWAP2 SUB SWAP1 REVERT JUMPDEST PUSH0 PUSH1 0x1 PUSH0 DUP4 PUSH20 0xFFFFFFFFFFFFFFFFFFFFFFFFFFFFFFFFFFFFFFFF AND PUSH20 0xFFFFFFFFFFFFFFFFFFFFFFFFFFFFFFFFFFFFFFFF AND DUP2 MSTORE PUSH1 0x20 ADD SWAP1 DUP2 MSTORE PUSH1 0x20 ADD PUSH0 KECCAK256 PUSH0 ADD SLOAD EQ PUSH2 0xAEC JUMPI PUSH0 DUP1 REVERT JUMPDEST PUSH1 0x1 DUP1 PUSH0 DUP4 PUSH20 0xFFFFFFFFFFFFFFFFFFFFFFFFFFFFFFFFFFFFFFFF AND PUSH20 0xFFFFFFFFFFFFFFFFFFFFFFFFFFFFFFFFFFFFFFFF AND DUP2 MSTORE PUSH1 0x20 ADD SWAP1 DUP2 MSTORE PUSH1 0x20 ADD PUSH0 KECCAK256 PUSH0 ADD DUP2 SWAP1 SSTORE POP POP JUMP JUMPDEST PUSH1 0x1 PUSH1 0x20 MSTORE DUP1 PUSH0 MSTORE PUSH1 0x40 PUSH0 KECCAK256 PUSH0 SWAP2 POP SWAP1 POP DUP1 PUSH0 ADD SLOAD SWAP1 DUP1 PUSH1 0x1 ADD PUSH0 SWAP1 SLOAD SWAP1 PUSH2 0x100 EXP SWAP1 DIV PUSH1 0xFF AND SWAP1 DUP1 PUSH1 0x1 ADD PUSH1 0x1 SWAP1 SLOAD SWAP1 PUSH2 0x100 EXP SWAP1 DIV PUSH20 0xFFFFFFFFFFFFFFFFFFFFFFFFFFFFFFFFFFFFFFFF AND SWAP1 DUP1 PUSH1 0x2 ADD SLOAD SWAP1 POP DUP5 JUMP JUMPDEST PUSH0 PUSH1 0x2 PUSH2 0xB96 PUSH2 0x72A JUMP JUMPDEST DUP2 SLOAD DUP2 LT PUSH2 0xBA7 JUMPI PUSH2 0xBA6 PUSH2 0x102B JUMP JUMPDEST JUMPDEST SWAP1 PUSH0 MSTORE PUSH1 0x20 PUSH0 KECCAK256 SWAP1 PUSH1 0x2 MUL ADD PUSH0 ADD SLOAD SWAP1 POP SWAP1 JUMP JUMPDEST PUSH0 PUSH1 0x40 MLOAD SWAP1 POP SWAP1 JUMP JUMPDEST PUSH0 DUP1 REVERT JUMPDEST PUSH0 DUP1 REVERT JUMPDEST PUSH0 DUP2 SWAP1 POP SWAP2 SWAP1 POP JUMP JUMPDEST PUSH2 0xBDE DUP2 PUSH2 0xBCC JUMP JUMPDEST DUP2 EQ PUSH2 0xBE8 JUMPI PUSH0 DUP1 REVERT JUMPDEST POP JUMP JUMPDEST PUSH0 DUP2 CALLDATALOAD SWAP1 POP PUSH2 0xBF9 DUP2 PUSH2 0xBD5 JUMP JUMPDEST SWAP3 SWAP2 POP POP JUMP JUMPDEST PUSH0 PUSH1 0x20 DUP3 DUP5 SUB SLT ISZERO PUSH2 0xC14 JUMPI PUSH2 0xC13 PUSH2 0xBC4 JUMP JUMPDEST JUMPDEST PUSH0 PUSH2 0xC21 DUP5 DUP3 DUP6 ADD PUSH2 0xBEB JUMP JUMPDEST SWAP2 POP POP SWAP3 SWAP2 POP POP JUMP JUMPDEST PUSH0 DUP2 SWAP1 POP SWAP2 SWAP1 POP JUMP JUMPDEST PUSH2 0xC3C DUP2 PUSH2 0xC2A JUMP JUMPDEST DUP3 MSTORE POP POP JUMP JUMPDEST PUSH2 0xC4B DUP2 PUSH2 0xBCC JUMP JUMPDEST DUP3 MSTORE POP POP JUMP JUMPDEST PUSH0 PUSH1 0x40 DUP3 ADD SWAP1 POP PUSH2 0xC64 PUSH0 DUP4 ADD DUP6 PUSH2 0xC33 JUMP JUMPDEST PUSH2 0xC71 PUSH1 0x20 DUP4 ADD DUP5 PUSH2 0xC42 JUMP JUMPDEST SWAP4 SWAP3 POP POP POP JUMP JUMPDEST PUSH0 PUSH20 0xFFFFFFFFFFFFFFFFFFFFFFFFFFFFFFFFFFFFFFFF DUP3 AND SWAP1 POP SWAP2 SWAP1 POP JUMP JUMPDEST PUSH0 PUSH2 0xCA1 DUP3 PUSH2 0xC78 JUMP JUMPDEST SWAP1 POP SWAP2 SWAP1 POP JUMP JUMPDEST PUSH2 0xCB1 DUP2 PUSH2 0xC97 JUMP JUMPDEST DUP3 MSTORE POP POP JUMP JUMPDEST PUSH0 PUSH1 0x20 DUP3 ADD SWAP1 POP PUSH2 0xCCA PUSH0 DUP4 ADD DUP5 PUSH2 0xCA8 JUMP JUMPDEST SWAP3 SWAP2 POP POP JUMP JUMPDEST PUSH2 0xCD9 DUP2 PUSH2 0xC97 JUMP JUMPDEST DUP2 EQ PUSH2 0xCE3 JUMPI PUSH0 DUP1 REVERT JUMPDEST POP JUMP JUMPDEST PUSH0 DUP2 CALLDATALOAD SWAP1 POP PUSH2 0xCF4 DUP2 PUSH2 0xCD0 JUMP JUMPDEST SWAP3 SWAP2 POP POP JUMP JUMPDEST PUSH0 PUSH1 0x20 DUP3 DUP5 SUB SLT ISZERO PUSH2 0xD0F JUMPI PUSH2 0xD0E PUSH2 0xBC4 JUMP JUMPDEST JUMPDEST PUSH0 PUSH2 0xD1C DUP5 DUP3 DUP6 ADD PUSH2 0xCE6 JUMP JUMPDEST SWAP2 POP POP SWAP3 SWAP2 POP POP JUMP JUMPDEST PUSH0 PUSH1 0x20 DUP3 ADD SWAP1 POP PUSH2 0xD38 PUSH0 DUP4 ADD DUP5 PUSH2 0xC42 JUMP JUMPDEST SWAP3 SWAP2 POP POP JUMP JUMPDEST PUSH0 DUP1 REVERT JUMPDEST PUSH0 PUSH1 0x1F NOT PUSH1 0x1F DUP4 ADD AND SWAP1 POP SWAP2 SWAP1 POP JUMP JUMPDEST PUSH32 0x4E487B7100000000000000000000000000000000000000000000000000000000 PUSH0 MSTORE PUSH1 0x41 PUSH1 0x4 MSTORE PUSH1 0x24 PUSH0 REVERT JUMPDEST PUSH2 0xD88 DUP3 PUSH2 0xD42 JUMP JUMPDEST DUP2 ADD DUP2 DUP2 LT PUSH8 0xFFFFFFFFFFFFFFFF DUP3 GT OR ISZERO PUSH2 0xDA7 JUMPI PUSH2 0xDA6 PUSH2 0xD52 JUMP JUMPDEST JUMPDEST DUP1 PUSH1 0x40 MSTORE POP POP POP JUMP JUMPDEST PUSH0 PUSH2 0xDB9 PUSH2 0xBBB JUMP JUMPDEST SWAP1 POP PUSH2 0xDC5 DUP3 DUP3 PUSH2 0xD7F JUMP JUMPDEST SWAP2 SWAP1 POP JUMP JUMPDEST PUSH0 PUSH8 0xFFFFFFFFFFFFFFFF DUP3 GT ISZERO PUSH2 0xDE4 JUMPI PUSH2 0xDE3 PUSH2 0xD52 JUMP JUMPDEST JUMPDEST PUSH1 0x20 DUP3 MUL SWAP1 POP PUSH1 0x20 DUP2 ADD SWAP1 POP SWAP2 SWAP1 POP JUMP JUMPDEST PUSH0 DUP1 REVERT JUMPDEST PUSH0 PUSH2 0xE0B PUSH2 0xE06 DUP5 PUSH2 0xDCA JUMP JUMPDEST PUSH2 0xDB0 JUMP JUMPDEST SWAP1 POP DUP1 DUP4 DUP3 MSTORE PUSH1 0x20 DUP3 ADD SWAP1 POP PUSH1 0x20 DUP5 MUL DUP4 ADD DUP6 DUP2 GT ISZERO PUSH2 0xE2E JUMPI PUSH2 0xE2D PUSH2 0xDF5 JUMP JUMPDEST JUMPDEST DUP4 JUMPDEST DUP2 DUP2 LT ISZERO PUSH2 0xE57 JUMPI DUP1 PUSH2 0xE43 DUP9 DUP3 PUSH2 0xCE6 JUMP JUMPDEST DUP5 MSTORE PUSH1 0x20 DUP5 ADD SWAP4 POP POP PUSH1 0x20 DUP2 ADD SWAP1 POP PUSH2 0xE30 JUMP JUMPDEST POP POP POP SWAP4 SWAP3 POP POP POP JUMP JUMPDEST PUSH0 DUP3 PUSH1 0x1F DUP4 ADD SLT PUSH2 0xE75 JUMPI PUSH2 0xE74 PUSH2 0xD3E JUMP JUMPDEST JUMPDEST DUP2 CALLDATALOAD PUSH2 0xE85 DUP5 DUP3 PUSH1 0x20 DUP7 ADD PUSH2 0xDF9 JUMP JUMPDEST SWAP2 POP POP SWAP3 SWAP2 POP POP JUMP JUMPDEST PUSH0 PUSH1 0x20 DUP3 DUP5 SUB SLT ISZERO PUSH2 0xEA3 JUMPI PUSH2 0xEA2 PUSH2 0xBC4 JUMP JUMPDEST JUMPDEST PUSH0 DUP3 ADD CALLDATALOAD PUSH8 0xFFFFFFFFFFFFFFFF DUP2 GT ISZERO PUSH2 0xEC0 JUMPI PUSH2 0xEBF PUSH2 0xBC8 JUMP JUMPDEST JUMPDEST PUSH2 0xECC DUP5 DUP3 DUP6 ADD PUSH2 0xE61 JUMP JUMPDEST SWAP2 POP POP SWAP3 SWAP2 POP POP JUMP JUMPDEST PUSH0 DUP2 ISZERO ISZERO SWAP1 POP SWAP2 SWAP1 POP JUMP JUMPDEST PUSH2 0xEE9 DUP2 PUSH2 0xED5 JUMP JUMPDEST DUP3 MSTORE POP POP JUMP JUMPDEST PUSH0 PUSH1 0x80 DUP3 ADD SWAP1 POP PUSH2 0xF02 PUSH0 DUP4 ADD DUP8 PUSH2 0xC42 JUMP JUMPDEST PUSH2 0xF0F PUSH1 0x20 DUP4 ADD DUP7 PUSH2 0xEE0 JUMP JUMPDEST PUSH2 0xF1C PUSH1 0x40 DUP4 ADD DUP6 PUSH2 0xCA8 JUMP JUMPDEST PUSH2 0xF29 PUSH1 0x60 DUP4 ADD DUP5 PUSH2 0xC42 JUMP JUMPDEST SWAP6 SWAP5 POP POP POP POP POP JUMP JUMPDEST PUSH0 PUSH1 0x20 DUP3 ADD SWAP1 POP PUSH2 0xF45 PUSH0 DUP4 ADD DUP5 PUSH2 0xC33 JUMP JUMPDEST SWAP3 SWAP2 POP POP JUMP JUMPDEST PUSH0 DUP3 DUP3 MSTORE PUSH1 0x20 DUP3 ADD SWAP1 POP SWAP3 SWAP2 POP POP JUMP JUMPDEST PUSH32 0x686173206E6F20726967687420746F20766F7465000000000000000000000000 PUSH0 DUP3 ADD MSTORE POP JUMP JUMPDEST PUSH0 PUSH2 0xF8F PUSH1 0x14 DUP4 PUSH2 0xF4B JUMP JUMPDEST SWAP2 POP PUSH2 0xF9A DUP3 PUSH2 0xF5B JUMP JUMPDEST PUSH1 0x20 DUP3 ADD SWAP1 POP SWAP2 SWAP1 POP JUMP JUMPDEST PUSH0 PUSH1 0x20 DUP3 ADD SWAP1 POP DUP2 DUP2 SUB PUSH0 DUP4 ADD MSTORE PUSH2 0xFBC DUP2 PUSH2 0xF83 JUMP JUMPDEST SWAP1 POP SWAP2 SWAP1 POP JUMP JUMPDEST PUSH32 0x616C726561647920766F74656400000000000000000000000000000000000000 PUSH0 DUP3 ADD MSTORE POP JUMP JUMPDEST PUSH0 PUSH2 0xFF7 PUSH1 0xD DUP4 PUSH2 0xF4B JUMP JUMPDEST SWAP2 POP PUSH2 0x1002 DUP3 PUSH2 0xFC3 JUMP JUMPDEST PUSH1 0x20 DUP3 ADD SWAP1 POP SWAP2 SWAP1 POP JUMP JUMPDEST PUSH0 PUSH1 0x20 DUP3 ADD SWAP1 POP DUP2 DUP2 SUB PUSH0 DUP4 ADD MSTORE PUSH2 0x1024 DUP2 PUSH2 0xFEB JUMP JUMPDEST SWAP1 POP SWAP2 SWAP1 POP JUMP JUMPDEST PUSH32 0x4E487B7100000000000000000000000000000000000000000000000000000000 PUSH0 MSTORE PUSH1 0x32 PUSH1 0x4 MSTORE PUSH1 0x24 PUSH0 REVERT JUMPDEST PUSH32 0x4E487B7100000000000000000000000000000000000000000000000000000000 PUSH0 MSTORE PUSH1 0x11 PUSH1 0x4 MSTORE PUSH1 0x24 PUSH0 REVERT JUMPDEST PUSH0 PUSH2 0x108F DUP3 PUSH2 0xBCC JUMP JUMPDEST SWAP2 POP PUSH2 0x109A DUP4 PUSH2 0xBCC JUMP JUMPDEST SWAP3 POP DUP3 DUP3 ADD SWAP1 POP DUP1 DUP3 GT ISZERO PUSH2 0x10B2 JUMPI PUSH2 0x10B1 PUSH2 0x1058 JUMP JUMPDEST JUMPDEST SWAP3 SWAP2 POP POP JUMP JUMPDEST PUSH32 0x796F752068617665206E6F20726967746820746F20766F746500000000000000 PUSH0 DUP3 ADD MSTORE POP JUMP JUMPDEST PUSH0 PUSH2 0x10EC PUSH1 0x19 DUP4 PUSH2 0xF4B JUMP JUMPDEST SWAP2 POP PUSH2 0x10F7 DUP3 PUSH2 0x10B8 JUMP JUMPDEST PUSH1 0x20 DUP3 ADD SWAP1 POP SWAP2 SWAP1 POP JUMP JUMPDEST PUSH0 PUSH1 0x20 DUP3 ADD SWAP1 POP DUP2 DUP2 SUB PUSH0 DUP4 ADD MSTORE PUSH2 0x1119 DUP2 PUSH2 0x10E0 JUMP JUMPDEST SWAP1 POP SWAP2 SWAP1 POP JUMP JUMPDEST PUSH32 0x796F7520616C726561647920766F746564000000000000000000000000000000 PUSH0 DUP3 ADD MSTORE POP JUMP JUMPDEST PUSH0 PUSH2 0x1154 PUSH1 0x11 DUP4 PUSH2 0xF4B JUMP JUMPDEST SWAP2 POP PUSH2 0x115F DUP3 PUSH2 0x1120 JUMP JUMPDEST PUSH1 0x20 DUP3 ADD SWAP1 POP SWAP2 SWAP1 POP JUMP JUMPDEST PUSH0 PUSH1 0x20 DUP3 ADD SWAP1 POP DUP2 DUP2 SUB PUSH0 DUP4 ADD MSTORE PUSH2 0x1181 DUP2 PUSH2 0x1148 JUMP JUMPDEST SWAP1 POP SWAP2 SWAP1 POP JUMP JUMPDEST PUSH32 0x73656C662D64656C65676174696F6E2069736E277420616C6C6F776564000000 PUSH0 DUP3 ADD MSTORE POP JUMP JUMPDEST PUSH0 PUSH2 0x11BC PUSH1 0x1D DUP4 PUSH2 0xF4B JUMP JUMPDEST SWAP2 POP PUSH2 0x11C7 DUP3 PUSH2 0x1188 JUMP JUMPDEST PUSH1 0x20 DUP3 ADD SWAP1 POP SWAP2 SWAP1 POP JUMP JUMPDEST PUSH0 PUSH1 0x20 DUP3 ADD SWAP1 POP DUP2 DUP2 SUB PUSH0 DUP4 ADD MSTORE PUSH2 0x11E9 DUP2 PUSH2 0x11B0 JUMP JUMPDEST SWAP1 POP SWAP2 SWAP1 POP JUMP JUMPDEST PUSH32 0x466F756E64206C6F6F7020696E2064656C65676174696F6E0000000000000000 PUSH0 DUP3 ADD MSTORE POP JUMP JUMPDEST PUSH0 PUSH2 0x1224 PUSH1 0x18 DUP4 PUSH2 0xF4B JUMP JUMPDEST SWAP2 POP PUSH2 0x122F DUP3 PUSH2 0x11F0 JUMP JUMPDEST PUSH1 0x20 DUP3 ADD SWAP1 POP SWAP2 SWAP1 POP JUMP JUMPDEST PUSH0 PUSH1 0x20 DUP3 ADD SWAP1 POP DUP2 DUP2 SUB PUSH0 DUP4 ADD MSTORE PUSH2 0x1251 DUP2 PUSH2 0x1218 JUMP JUMPDEST SWAP1 POP SWAP2 SWAP1 POP JUMP JUMPDEST PUSH32 0x6F6E6C79206368616972706572736F6E2063616E206769766520726967687420 PUSH0 DUP3 ADD MSTORE PUSH32 0x746F20766F746500000000000000000000000000000000000000000000000000 PUSH1 0x20 DUP3 ADD MSTORE POP JUMP JUMPDEST PUSH0 PUSH2 0x12B2 PUSH1 0x27 DUP4 PUSH2 0xF4B JUMP JUMPDEST SWAP2 POP PUSH2 0x12BD DUP3 PUSH2 0x1258 JUMP JUMPDEST PUSH1 0x40 DUP3 ADD SWAP1 POP SWAP2 SWAP1 POP JUMP JUMPDEST PUSH0 PUSH1 0x20 DUP3 ADD SWAP1 POP DUP2 DUP2 SUB PUSH0 DUP4 ADD MSTORE PUSH2 0x12DF DUP2 PUSH2 0x12A6 JUMP JUMPDEST SWAP1 POP SWAP2 SWAP1 POP JUMP JUMPDEST PUSH32 0x566F74657220616C726561647920766F74656400000000000000000000000000 PUSH0 DUP3 ADD MSTORE POP JUMP JUMPDEST PUSH0 PUSH2 0x131A PUSH1 0x13 DUP4 PUSH2 0xF4B JUMP JUMPDEST SWAP2 POP PUSH2 0x1325 DUP3 PUSH2 0x12E6 JUMP JUMPDEST PUSH1 0x20 DUP3 ADD SWAP1 POP SWAP2 SWAP1 POP JUMP JUMPDEST PUSH0 PUSH1 0x20 DUP3 ADD SWAP1 POP DUP2 DUP2 SUB PUSH0 DUP4 ADD MSTORE PUSH2 0x1347 DUP2 PUSH2 0x130E JUMP JUMPDEST SWAP1 POP SWAP2 SWAP1 POP JUMP INVALID LOG2 PUSH5 0x6970667358 0x22 SLT KECCAK256 INVALID KECCAK256 0xF8 0x24 PUSH26 0x1EF5A1744ACB168D7F7E95F68D59BA5874B2CE8EE7CEF1B53D97 0xE7 PUSH5 0x736F6C6343 STOP ADDMOD BYTE STOP CALLER "
				},
				"gasEstimates": {
					"creation": {
						"codeDepositCost": "999200",
						"executionCost": "infinite",
						"totalCost": "infinite"
					},
					"external": {
						"chairperson()": "2550",
						"delegate(address)": "infinite",
						"giveRightToVote(address)": "29330",
						"giveRightToVoteForAll(address[])": "infinite",
						"proposals(uint256)": "infinite",
						"vote(uint256)": "infinite",
						"voters(address)": "infinite",
						"winnerName()": "infinite",
						"winningProposal()": "infinite"
					}
				},
				"methodIdentifiers": {
					"chairperson()": "2e4176cf",
					"delegate(address)": "5c19a95c",
					"giveRightToVote(address)": "9e7b8d61",
					"giveRightToVoteForAll(address[])": "716c6cb4",
					"proposals(uint256)": "013cf08b",
					"vote(uint256)": "0121b93f",
					"voters(address)": "a3ec138d",
					"winnerName()": "e2ba53f0",
					"winningProposal()": "609ff1bd"
				}
			},
			"storageLayout": {
				"storage": [
					{
						"astId": 17,
						"contract": "contracts/voting.sol:Ballot",
						"label": "chairperson",
						"offset": 0,
						"slot": "0",
						"type": "t_address"
					},
					{
						"astId": 22,
						"contract": "contracts/voting.sol:Ballot",
						"label": "voters",
						"offset": 0,
						"slot": "1",
						"type": "t_mapping(t_address,t_struct(Voter)10_storage)"
					},
					{
						"astId": 26,
						"contract": "contracts/voting.sol:Ballot",
						"label": "proposals",
						"offset": 0,
						"slot": "2",
						"type": "t_array(t_struct(Proposals)15_storage)dyn_storage"
					}
				],
				"types": {
					"t_address": {
						"encoding": "inplace",
						"label": "address",
						"numberOfBytes": "20"
					},
					"t_array(t_struct(Proposals)15_storage)dyn_storage": {
						"base": "t_struct(Proposals)15_storage",
						"encoding": "dynamic_array",
						"label": "struct Ballot.Proposals[]",
						"numberOfBytes": "32"
					},
					"t_bool": {
						"encoding": "inplace",
						"label": "bool",
						"numberOfBytes": "1"
					},
					"t_bytes32": {
						"encoding": "inplace",
						"label": "bytes32",
						"numberOfBytes": "32"
					},
					"t_mapping(t_address,t_struct(Voter)10_storage)": {
						"encoding": "mapping",
						"key": "t_address",
						"label": "mapping(address => struct Ballot.Voter)",
						"numberOfBytes": "32",
						"value": "t_struct(Voter)10_storage"
					},
					"t_struct(Proposals)15_storage": {
						"encoding": "inplace",
						"label": "struct Ballot.Proposals",
						"members": [
							{
								"astId": 12,
								"contract": "contracts/voting.sol:Ballot",
								"label": "name",
								"offset": 0,
								"slot": "0",
								"type": "t_bytes32"
							},
							{
								"astId": 14,
								"contract": "contracts/voting.sol:Ballot",
								"label": "voteCount",
								"offset": 0,
								"slot": "1",
								"type": "t_uint256"
							}
						],
						"numberOfBytes": "64"
					},
					"t_struct(Voter)10_storage": {
						"encoding": "inplace",
						"label": "struct Ballot.Voter",
						"members": [
							{
								"astId": 3,
								"contract": "contracts/voting.sol:Ballot",
								"label": "weight",
								"offset": 0,
								"slot": "0",
								"type": "t_uint256"
							},
							{
								"astId": 5,
								"contract": "contracts/voting.sol:Ballot",
								"label": "voted",
								"offset": 0,
								"slot": "1",
								"type": "t_bool"
							},
							{
								"astId": 7,
								"contract": "contracts/voting.sol:Ballot",
								"label": "delegate",
								"offset": 1,
								"slot": "1",
								"type": "t_address"
							},
							{
								"astId": 9,
								"contract": "contracts/voting.sol:Ballot",
								"label": "vote",
								"offset": 0,
								"slot": "2",
								"type": "t_uint256"
							}
						],
						"numberOfBytes": "96"
					},
					"t_uint256": {
						"encoding": "inplace",
						"label": "uint256",
						"numberOfBytes": "32"
					}
				}
			},
			"userdoc": {
				"kind": "user",
				"methods": {},
				"version": 1
			}
		}
	}
}